ARM GAS  C:\Users\jj-ay\AppData\Local\Temp\ccQGuNdx.s 			page 1


   1              		.syntax unified
   2              		.cpu cortex-m0
   3              		.fpu softvfp
   4              		.eabi_attribute 20, 1
   5              		.eabi_attribute 21, 1
   6              		.eabi_attribute 23, 3
   7              		.eabi_attribute 24, 1
   8              		.eabi_attribute 25, 1
   9              		.eabi_attribute 26, 1
  10              		.eabi_attribute 30, 1
  11              		.eabi_attribute 34, 0
  12              		.eabi_attribute 18, 4
  13              		.thumb
  14              		.syntax unified
  15              		.file	"ADC_EIT.c"
  16              		.text
  17              	.Ltext0:
  18              		.cfi_sections	.debug_frame
  19              		.global	__aeabi_idiv
  20              		.section	.text.ADC_EIT_Init,"ax",%progbits
  21              		.align	2
  22              		.global	ADC_EIT_Init
  23              		.code	16
  24              		.thumb_func
  25              		.type	ADC_EIT_Init, %function
  26              	ADC_EIT_Init:
  27              	.LFB1:
  28              		.file 1 "Generated_Source\\PSoC4\\ADC_EIT.c"
   1:Generated_Source\PSoC4/ADC_EIT.c **** /*******************************************************************************
   2:Generated_Source\PSoC4/ADC_EIT.c **** * File Name: ADC_EIT.c
   3:Generated_Source\PSoC4/ADC_EIT.c **** * Version 2.50
   4:Generated_Source\PSoC4/ADC_EIT.c **** *
   5:Generated_Source\PSoC4/ADC_EIT.c **** * Description:
   6:Generated_Source\PSoC4/ADC_EIT.c **** *  This file provides the source code to the API for the Sequencing Successive
   7:Generated_Source\PSoC4/ADC_EIT.c **** *  Approximation ADC Component Component.
   8:Generated_Source\PSoC4/ADC_EIT.c **** *
   9:Generated_Source\PSoC4/ADC_EIT.c **** * Note:
  10:Generated_Source\PSoC4/ADC_EIT.c **** *
  11:Generated_Source\PSoC4/ADC_EIT.c **** ********************************************************************************
  12:Generated_Source\PSoC4/ADC_EIT.c **** * Copyright 2008-2017, Cypress Semiconductor Corporation.  All rights reserved.
  13:Generated_Source\PSoC4/ADC_EIT.c **** * You may use this file only in accordance with the license, terms, conditions,
  14:Generated_Source\PSoC4/ADC_EIT.c **** * disclaimers, and limitations in the end user license agreement accompanying
  15:Generated_Source\PSoC4/ADC_EIT.c **** * the software package with which this file was provided.
  16:Generated_Source\PSoC4/ADC_EIT.c **** *******************************************************************************/
  17:Generated_Source\PSoC4/ADC_EIT.c **** 
  18:Generated_Source\PSoC4/ADC_EIT.c **** #include "ADC_EIT.h"
  19:Generated_Source\PSoC4/ADC_EIT.c **** 
  20:Generated_Source\PSoC4/ADC_EIT.c **** 
  21:Generated_Source\PSoC4/ADC_EIT.c **** /***************************************
  22:Generated_Source\PSoC4/ADC_EIT.c **** * Global data allocation
  23:Generated_Source\PSoC4/ADC_EIT.c **** ***************************************/
  24:Generated_Source\PSoC4/ADC_EIT.c **** uint8 ADC_EIT_initVar = 0u;
  25:Generated_Source\PSoC4/ADC_EIT.c **** volatile int16 ADC_EIT_offset[ADC_EIT_TOTAL_CHANNELS_NUM];
  26:Generated_Source\PSoC4/ADC_EIT.c **** volatile int32 ADC_EIT_countsPer10Volt[ADC_EIT_TOTAL_CHANNELS_NUM];   /* Gain compensation */
  27:Generated_Source\PSoC4/ADC_EIT.c **** 
  28:Generated_Source\PSoC4/ADC_EIT.c **** 
  29:Generated_Source\PSoC4/ADC_EIT.c **** /***************************************
ARM GAS  C:\Users\jj-ay\AppData\Local\Temp\ccQGuNdx.s 			page 2


  30:Generated_Source\PSoC4/ADC_EIT.c **** * Local data allocation
  31:Generated_Source\PSoC4/ADC_EIT.c **** ***************************************/
  32:Generated_Source\PSoC4/ADC_EIT.c **** /* Channels configuration generated by customiser */
  33:Generated_Source\PSoC4/ADC_EIT.c **** static const uint32 CYCODE ADC_EIT_channelsConfig[] = { 0x00000400u, 0x00000400u };
  34:Generated_Source\PSoC4/ADC_EIT.c **** 
  35:Generated_Source\PSoC4/ADC_EIT.c **** 
  36:Generated_Source\PSoC4/ADC_EIT.c **** /*******************************************************************************
  37:Generated_Source\PSoC4/ADC_EIT.c **** * Function Name: ADC_EIT_Start
  38:Generated_Source\PSoC4/ADC_EIT.c **** ********************************************************************************
  39:Generated_Source\PSoC4/ADC_EIT.c **** *
  40:Generated_Source\PSoC4/ADC_EIT.c **** * Summary:
  41:Generated_Source\PSoC4/ADC_EIT.c **** *  Performs all required initialization for this component
  42:Generated_Source\PSoC4/ADC_EIT.c **** *  and enables the power. The power will be set to the appropriate
  43:Generated_Source\PSoC4/ADC_EIT.c **** *  power based on the clock frequency.
  44:Generated_Source\PSoC4/ADC_EIT.c **** *
  45:Generated_Source\PSoC4/ADC_EIT.c **** * Parameters:
  46:Generated_Source\PSoC4/ADC_EIT.c **** *  None.
  47:Generated_Source\PSoC4/ADC_EIT.c **** *
  48:Generated_Source\PSoC4/ADC_EIT.c **** * Return:
  49:Generated_Source\PSoC4/ADC_EIT.c **** *  None.
  50:Generated_Source\PSoC4/ADC_EIT.c **** *
  51:Generated_Source\PSoC4/ADC_EIT.c **** * Global variables:
  52:Generated_Source\PSoC4/ADC_EIT.c **** *  The ADC_EIT_initVar variable is used to indicate when/if initial
  53:Generated_Source\PSoC4/ADC_EIT.c **** *  configuration of this component has happened. The variable is initialized to
  54:Generated_Source\PSoC4/ADC_EIT.c **** *  zero and set to 1 the first time ADC_Start() is called. This allows for
  55:Generated_Source\PSoC4/ADC_EIT.c **** *  component Re-Start without re-initialization in all subsequent calls to the
  56:Generated_Source\PSoC4/ADC_EIT.c **** *  ADC_EIT_Start() routine.
  57:Generated_Source\PSoC4/ADC_EIT.c **** *  If re-initialization of the component is required the variable should be set
  58:Generated_Source\PSoC4/ADC_EIT.c **** *  to zero before call of ADC_EIT_Start() routine, or the user may call
  59:Generated_Source\PSoC4/ADC_EIT.c **** *  ADC_EIT_Init() and ADC_EIT_Enable() as done in the
  60:Generated_Source\PSoC4/ADC_EIT.c **** *  ADC_EIT_Start() routine.
  61:Generated_Source\PSoC4/ADC_EIT.c **** *
  62:Generated_Source\PSoC4/ADC_EIT.c **** *******************************************************************************/
  63:Generated_Source\PSoC4/ADC_EIT.c **** void ADC_EIT_Start(void)
  64:Generated_Source\PSoC4/ADC_EIT.c **** {
  65:Generated_Source\PSoC4/ADC_EIT.c ****     /* If not Initialized then initialize all required hardware and software */
  66:Generated_Source\PSoC4/ADC_EIT.c ****     if(ADC_EIT_initVar == 0u)
  67:Generated_Source\PSoC4/ADC_EIT.c ****     {
  68:Generated_Source\PSoC4/ADC_EIT.c ****         ADC_EIT_Init();
  69:Generated_Source\PSoC4/ADC_EIT.c ****         ADC_EIT_initVar = 1u;
  70:Generated_Source\PSoC4/ADC_EIT.c ****     }
  71:Generated_Source\PSoC4/ADC_EIT.c ****     ADC_EIT_Enable();
  72:Generated_Source\PSoC4/ADC_EIT.c **** }
  73:Generated_Source\PSoC4/ADC_EIT.c **** 
  74:Generated_Source\PSoC4/ADC_EIT.c **** 
  75:Generated_Source\PSoC4/ADC_EIT.c **** /*******************************************************************************
  76:Generated_Source\PSoC4/ADC_EIT.c **** * Function Name: ADC_EIT_Init
  77:Generated_Source\PSoC4/ADC_EIT.c **** ********************************************************************************
  78:Generated_Source\PSoC4/ADC_EIT.c **** *
  79:Generated_Source\PSoC4/ADC_EIT.c **** * Summary:
  80:Generated_Source\PSoC4/ADC_EIT.c **** *  Initialize component's parameters to the parameters set by user in the
  81:Generated_Source\PSoC4/ADC_EIT.c **** *  customizer of the component placed onto schematic. Usually called in
  82:Generated_Source\PSoC4/ADC_EIT.c **** *  ADC_EIT_Start().
  83:Generated_Source\PSoC4/ADC_EIT.c **** *
  84:Generated_Source\PSoC4/ADC_EIT.c **** * Parameters:
  85:Generated_Source\PSoC4/ADC_EIT.c **** *  None.
  86:Generated_Source\PSoC4/ADC_EIT.c **** *
ARM GAS  C:\Users\jj-ay\AppData\Local\Temp\ccQGuNdx.s 			page 3


  87:Generated_Source\PSoC4/ADC_EIT.c **** * Return:
  88:Generated_Source\PSoC4/ADC_EIT.c **** *  None.
  89:Generated_Source\PSoC4/ADC_EIT.c **** *
  90:Generated_Source\PSoC4/ADC_EIT.c **** * Global variables:
  91:Generated_Source\PSoC4/ADC_EIT.c **** *  The ADC_EIT_offset variable is initialized.
  92:Generated_Source\PSoC4/ADC_EIT.c **** *
  93:Generated_Source\PSoC4/ADC_EIT.c **** *******************************************************************************/
  94:Generated_Source\PSoC4/ADC_EIT.c **** void ADC_EIT_Init(void)
  95:Generated_Source\PSoC4/ADC_EIT.c **** {
  29              		.loc 1 95 0
  30              		.cfi_startproc
  31              		@ args = 0, pretend = 0, frame = 0
  32              		@ frame_needed = 0, uses_anonymous_args = 0
  33 0000 10B5     		push	{r4, lr}
  34              		.cfi_def_cfa_offset 8
  35              		.cfi_offset 4, -8
  36              		.cfi_offset 14, -4
  96:Generated_Source\PSoC4/ADC_EIT.c ****     uint32 chNum;
  97:Generated_Source\PSoC4/ADC_EIT.c ****     uint32 tmpRegVal;
  98:Generated_Source\PSoC4/ADC_EIT.c ****     int32 counts;
  99:Generated_Source\PSoC4/ADC_EIT.c **** 
 100:Generated_Source\PSoC4/ADC_EIT.c ****     #if(ADC_EIT_TOTAL_CHANNELS_NUM > 1u)
 101:Generated_Source\PSoC4/ADC_EIT.c ****         static const uint8 CYCODE ADC_EIT_InputsPlacement[] =
 102:Generated_Source\PSoC4/ADC_EIT.c ****         {
 103:Generated_Source\PSoC4/ADC_EIT.c ****             (uint8)(ADC_EIT_cy_psoc4_sarmux_8__CH_0_PORT << 4u) |
 104:Generated_Source\PSoC4/ADC_EIT.c ****             (uint8)ADC_EIT_cy_psoc4_sarmux_8__CH_0_PIN
 105:Generated_Source\PSoC4/ADC_EIT.c ****             ,(uint8)(ADC_EIT_cy_psoc4_sarmux_8__CH_1_PORT << 4u) |
 106:Generated_Source\PSoC4/ADC_EIT.c ****              (uint8)ADC_EIT_cy_psoc4_sarmux_8__CH_1_PIN
 107:Generated_Source\PSoC4/ADC_EIT.c ****             #if(ADC_EIT_TOTAL_CHANNELS_NUM > 2u)
 108:Generated_Source\PSoC4/ADC_EIT.c ****                 ,(uint8)(ADC_EIT_cy_psoc4_sarmux_8__CH_2_PORT << 4u) |
 109:Generated_Source\PSoC4/ADC_EIT.c ****                  (uint8)ADC_EIT_cy_psoc4_sarmux_8__CH_2_PIN
 110:Generated_Source\PSoC4/ADC_EIT.c ****             #endif /* End ADC_EIT_TOTAL_CHANNELS_NUM > 2u */
 111:Generated_Source\PSoC4/ADC_EIT.c ****             #if(ADC_EIT_TOTAL_CHANNELS_NUM > 3u)
 112:Generated_Source\PSoC4/ADC_EIT.c ****                 ,(uint8)(ADC_EIT_cy_psoc4_sarmux_8__CH_3_PORT << 4u) |
 113:Generated_Source\PSoC4/ADC_EIT.c ****                  (uint8)ADC_EIT_cy_psoc4_sarmux_8__CH_3_PIN
 114:Generated_Source\PSoC4/ADC_EIT.c ****             #endif /* End ADC_EIT_TOTAL_CHANNELS_NUM > 3u */
 115:Generated_Source\PSoC4/ADC_EIT.c ****             #if(ADC_EIT_TOTAL_CHANNELS_NUM > 4u)
 116:Generated_Source\PSoC4/ADC_EIT.c ****                 ,(uint8)(ADC_EIT_cy_psoc4_sarmux_8__CH_4_PORT << 4u) |
 117:Generated_Source\PSoC4/ADC_EIT.c ****                  (uint8)ADC_EIT_cy_psoc4_sarmux_8__CH_4_PIN
 118:Generated_Source\PSoC4/ADC_EIT.c ****             #endif /* End ADC_EIT_TOTAL_CHANNELS_NUM > 4u */
 119:Generated_Source\PSoC4/ADC_EIT.c ****             #if(ADC_EIT_TOTAL_CHANNELS_NUM > 5u)
 120:Generated_Source\PSoC4/ADC_EIT.c ****                 ,(uint8)(ADC_EIT_cy_psoc4_sarmux_8__CH_5_PORT << 4u) |
 121:Generated_Source\PSoC4/ADC_EIT.c ****                  (uint8)ADC_EIT_cy_psoc4_sarmux_8__CH_5_PIN
 122:Generated_Source\PSoC4/ADC_EIT.c ****             #endif /* End ADC_EIT_TOTAL_CHANNELS_NUM > 5u */
 123:Generated_Source\PSoC4/ADC_EIT.c ****             #if(ADC_EIT_TOTAL_CHANNELS_NUM > 6u)
 124:Generated_Source\PSoC4/ADC_EIT.c ****                 ,(uint8)(ADC_EIT_cy_psoc4_sarmux_8__CH_6_PORT << 4u) |
 125:Generated_Source\PSoC4/ADC_EIT.c ****                  (uint8)ADC_EIT_cy_psoc4_sarmux_8__CH_6_PIN
 126:Generated_Source\PSoC4/ADC_EIT.c ****             #endif /* End ADC_EIT_TOTAL_CHANNELS_NUM > 6u */
 127:Generated_Source\PSoC4/ADC_EIT.c ****             #if(ADC_EIT_TOTAL_CHANNELS_NUM > 7u)
 128:Generated_Source\PSoC4/ADC_EIT.c ****                 ,(uint8)(ADC_EIT_cy_psoc4_sarmux_8__CH_7_PORT << 4u) |
 129:Generated_Source\PSoC4/ADC_EIT.c ****                  (uint8)ADC_EIT_cy_psoc4_sarmux_8__CH_7_PIN
 130:Generated_Source\PSoC4/ADC_EIT.c ****             #endif /* End ADC_EIT_TOTAL_CHANNELS_NUM > 7u */
 131:Generated_Source\PSoC4/ADC_EIT.c ****             #if(ADC_EIT_TOTAL_CHANNELS_NUM > 8u)
 132:Generated_Source\PSoC4/ADC_EIT.c ****                 ,(uint8)(ADC_EIT_cy_psoc4_sarmux_8__CH_8_PORT << 4u) |
 133:Generated_Source\PSoC4/ADC_EIT.c ****                  (uint8)ADC_EIT_cy_psoc4_sarmux_8__CH_8_PIN
 134:Generated_Source\PSoC4/ADC_EIT.c ****             #endif /* End ADC_EIT_TOTAL_CHANNELS_NUM > 8u */
 135:Generated_Source\PSoC4/ADC_EIT.c ****             #if(ADC_EIT_TOTAL_CHANNELS_NUM > 9u)
ARM GAS  C:\Users\jj-ay\AppData\Local\Temp\ccQGuNdx.s 			page 4


 136:Generated_Source\PSoC4/ADC_EIT.c ****                 ,(uint8)(ADC_EIT_cy_psoc4_sarmux_8__CH_9_PORT << 4u) |
 137:Generated_Source\PSoC4/ADC_EIT.c ****                  (uint8)ADC_EIT_cy_psoc4_sarmux_8__CH_9_PIN
 138:Generated_Source\PSoC4/ADC_EIT.c ****             #endif /* End ADC_EIT_TOTAL_CHANNELS_NUM > 9u */
 139:Generated_Source\PSoC4/ADC_EIT.c ****             #if(ADC_EIT_TOTAL_CHANNELS_NUM > 10u)
 140:Generated_Source\PSoC4/ADC_EIT.c ****                 ,(uint8)(ADC_EIT_cy_psoc4_sarmux_8__CH_10_PORT << 4u) |
 141:Generated_Source\PSoC4/ADC_EIT.c ****                  (uint8)ADC_EIT_cy_psoc4_sarmux_8__CH_10_PIN
 142:Generated_Source\PSoC4/ADC_EIT.c ****             #endif /* End ADC_EIT_TOTAL_CHANNELS_NUM > 10u */
 143:Generated_Source\PSoC4/ADC_EIT.c ****             #if(ADC_EIT_TOTAL_CHANNELS_NUM > 11u)
 144:Generated_Source\PSoC4/ADC_EIT.c ****                 ,(uint8)(ADC_EIT_cy_psoc4_sarmux_8__CH_11_PORT << 4u) |
 145:Generated_Source\PSoC4/ADC_EIT.c ****                  (uint8)ADC_EIT_cy_psoc4_sarmux_8__CH_11_PIN
 146:Generated_Source\PSoC4/ADC_EIT.c ****             #endif /* End ADC_EIT_TOTAL_CHANNELS_NUM > 11u */
 147:Generated_Source\PSoC4/ADC_EIT.c ****             #if(ADC_EIT_TOTAL_CHANNELS_NUM > 12u)
 148:Generated_Source\PSoC4/ADC_EIT.c ****                 ,(uint8)(ADC_EIT_cy_psoc4_sarmux_8__CH_12_PORT << 4u) |
 149:Generated_Source\PSoC4/ADC_EIT.c ****                  (uint8)ADC_EIT_cy_psoc4_sarmux_8__CH_12_PIN
 150:Generated_Source\PSoC4/ADC_EIT.c ****             #endif /* End ADC_EIT_TOTAL_CHANNELS_NUM > 12u */
 151:Generated_Source\PSoC4/ADC_EIT.c ****             #if(ADC_EIT_TOTAL_CHANNELS_NUM > 13u)
 152:Generated_Source\PSoC4/ADC_EIT.c ****                 ,(uint8)(ADC_EIT_cy_psoc4_sarmux_8__CH_13_PORT << 4u) |
 153:Generated_Source\PSoC4/ADC_EIT.c ****                  (uint8)ADC_EIT_cy_psoc4_sarmux_8__CH_13_PIN
 154:Generated_Source\PSoC4/ADC_EIT.c ****             #endif /* End ADC_EIT_TOTAL_CHANNELS_NUM > 13u */
 155:Generated_Source\PSoC4/ADC_EIT.c ****             #if(ADC_EIT_TOTAL_CHANNELS_NUM > 14u)
 156:Generated_Source\PSoC4/ADC_EIT.c ****                 ,(uint8)(ADC_EIT_cy_psoc4_sarmux_8__CH_14_PORT << 4u) |
 157:Generated_Source\PSoC4/ADC_EIT.c ****                  (uint8)ADC_EIT_cy_psoc4_sarmux_8__CH_14_PIN
 158:Generated_Source\PSoC4/ADC_EIT.c ****             #endif /* End ADC_EIT_TOTAL_CHANNELS_NUM > 14u */
 159:Generated_Source\PSoC4/ADC_EIT.c ****             #if(ADC_EIT_TOTAL_CHANNELS_NUM > 15u)
 160:Generated_Source\PSoC4/ADC_EIT.c ****                 ,(uint8)(ADC_EIT_cy_psoc4_sarmux_8__CH_15_PORT << 4u) |
 161:Generated_Source\PSoC4/ADC_EIT.c ****                  (uint8)ADC_EIT_cy_psoc4_sarmux_8__CH_15_PIN
 162:Generated_Source\PSoC4/ADC_EIT.c ****             #endif /* End ADC_EIT_TOTAL_CHANNELS_NUM > 15u */
 163:Generated_Source\PSoC4/ADC_EIT.c ****             #if(ADC_EIT_TOTAL_CHANNELS_NUM > 16u)
 164:Generated_Source\PSoC4/ADC_EIT.c ****                 ,(uint8)(ADC_EIT_cy_psoc4_sarmux_8__CH_16_PORT << 4u) |
 165:Generated_Source\PSoC4/ADC_EIT.c ****                  (uint8)ADC_EIT_cy_psoc4_sarmux_8__CH_16_PIN
 166:Generated_Source\PSoC4/ADC_EIT.c ****             #endif /* End ADC_EIT_TOTAL_CHANNELS_NUM > 16u */
 167:Generated_Source\PSoC4/ADC_EIT.c ****         };
 168:Generated_Source\PSoC4/ADC_EIT.c ****     #endif /* End ADC_EIT_TOTAL_CHANNELS_NUM > 1u */
 169:Generated_Source\PSoC4/ADC_EIT.c **** 
 170:Generated_Source\PSoC4/ADC_EIT.c ****     #if(ADC_EIT_IRQ_REMOVE == 0u)
 171:Generated_Source\PSoC4/ADC_EIT.c ****         /* Start and set interrupt vector */
 172:Generated_Source\PSoC4/ADC_EIT.c ****         CyIntSetPriority(ADC_EIT_INTC_NUMBER, ADC_EIT_INTC_PRIOR_NUMBER);
  37              		.loc 1 172 0
  38 0002 0321     		movs	r1, #3
  39 0004 0E20     		movs	r0, #14
  40 0006 FFF7FEFF 		bl	CyIntSetPriority
  41              	.LVL0:
 173:Generated_Source\PSoC4/ADC_EIT.c ****         (void)CyIntSetVector(ADC_EIT_INTC_NUMBER, &ADC_EIT_ISR);
  42              		.loc 1 173 0
  43 000a 3E49     		ldr	r1, .L12
  44 000c 0E20     		movs	r0, #14
  45 000e FFF7FEFF 		bl	CyIntSetVector
  46              	.LVL1:
 174:Generated_Source\PSoC4/ADC_EIT.c ****     #endif   /* End ADC_EIT_IRQ_REMOVE */
 175:Generated_Source\PSoC4/ADC_EIT.c **** 
 176:Generated_Source\PSoC4/ADC_EIT.c ****     /* Init SAR and MUX registers */
 177:Generated_Source\PSoC4/ADC_EIT.c ****     ADC_EIT_SAR_CHAN_EN_REG = ADC_EIT_DEFAULT_EN_CHANNELS;
  47              		.loc 1 177 0
  48 0012 0322     		movs	r2, #3
  49 0014 3C4B     		ldr	r3, .L12+4
  50 0016 1A60     		str	r2, [r3]
 178:Generated_Source\PSoC4/ADC_EIT.c ****     ADC_EIT_SAR_CTRL_REG |= ADC_EIT_DEFAULT_CTRL_REG_CFG | 
ARM GAS  C:\Users\jj-ay\AppData\Local\Temp\ccQGuNdx.s 			page 5


 179:Generated_Source\PSoC4/ADC_EIT.c ****         /* Enable the SAR internal pump when global pump is enabled */
 180:Generated_Source\PSoC4/ADC_EIT.c ****         (((ADC_EIT_PUMP_CTRL_REG & ADC_EIT_PUMP_CTRL_ENABLED) != 0u) ? 
  51              		.loc 1 180 0
  52 0018 3C4B     		ldr	r3, .L12+8
  53 001a 1B68     		ldr	r3, [r3]
 178:Generated_Source\PSoC4/ADC_EIT.c ****     ADC_EIT_SAR_CTRL_REG |= ADC_EIT_DEFAULT_CTRL_REG_CFG | 
  54              		.loc 1 178 0
  55 001c 002B     		cmp	r3, #0
  56 001e 01DA     		bge	.L10
  57 0020 3B49     		ldr	r1, .L12+12
  58 0022 00E0     		b	.L2
  59              	.L10:
  60 0024 3B49     		ldr	r1, .L12+16
  61              	.L2:
 178:Generated_Source\PSoC4/ADC_EIT.c ****     ADC_EIT_SAR_CTRL_REG |= ADC_EIT_DEFAULT_CTRL_REG_CFG | 
  62              		.loc 1 178 0 is_stmt 0 discriminator 4
  63 0026 3C4A     		ldr	r2, .L12+20
  64 0028 1368     		ldr	r3, [r2]
  65 002a 0B43     		orrs	r3, r1
  66 002c 1360     		str	r3, [r2]
 181:Generated_Source\PSoC4/ADC_EIT.c ****         ADC_EIT_BOOSTPUMP_EN : 0u);
 182:Generated_Source\PSoC4/ADC_EIT.c ****     ADC_EIT_SAR_SAMPLE_CTRL_REG = ADC_EIT_DEFAULT_SAMPLE_CTRL_REG_CFG;
  67              		.loc 1 182 0 is_stmt 1 discriminator 4
  68 002e 3B4A     		ldr	r2, .L12+24
  69 0030 3B4B     		ldr	r3, .L12+28
  70 0032 1A60     		str	r2, [r3]
 183:Generated_Source\PSoC4/ADC_EIT.c ****     ADC_EIT_SAR_RANGE_THRES_REG = ADC_EIT_DEFAULT_RANGE_THRES_REG_CFG;
  71              		.loc 1 183 0 discriminator 4
  72 0034 3B4A     		ldr	r2, .L12+32
  73 0036 3C4B     		ldr	r3, .L12+36
  74 0038 1A60     		str	r2, [r3]
 184:Generated_Source\PSoC4/ADC_EIT.c ****     ADC_EIT_SAR_RANGE_COND_REG  = ADC_EIT_COMPARE_MODE;
  75              		.loc 1 184 0 discriminator 4
  76 003a 0023     		movs	r3, #0
  77 003c 3B4A     		ldr	r2, .L12+40
  78 003e 1360     		str	r3, [r2]
 185:Generated_Source\PSoC4/ADC_EIT.c ****     ADC_EIT_SAR_SAMPLE_TIME01_REG = ADC_EIT_DEFAULT_SAMPLE_TIME01_REG_CFG;
  79              		.loc 1 185 0 discriminator 4
  80 0040 3B49     		ldr	r1, .L12+44
  81 0042 3C4A     		ldr	r2, .L12+48
  82 0044 1160     		str	r1, [r2]
 186:Generated_Source\PSoC4/ADC_EIT.c ****     ADC_EIT_SAR_SAMPLE_TIME23_REG = ADC_EIT_DEFAULT_SAMPLE_TIME23_REG_CFG;
  83              		.loc 1 186 0 discriminator 4
  84 0046 3C49     		ldr	r1, .L12+52
  85 0048 3C4A     		ldr	r2, .L12+56
  86 004a 1160     		str	r1, [r2]
 187:Generated_Source\PSoC4/ADC_EIT.c ****     
 188:Generated_Source\PSoC4/ADC_EIT.c ****     /* Connect Vm to VSSA when even one channel is single-ended or multiple channels configured */
 189:Generated_Source\PSoC4/ADC_EIT.c ****     #if(ADC_EIT_DEFAULT_MUX_SWITCH0 != 0u)
 190:Generated_Source\PSoC4/ADC_EIT.c ****         ADC_EIT_MUX_SWITCH0_REG |= ADC_EIT_DEFAULT_MUX_SWITCH0;
 191:Generated_Source\PSoC4/ADC_EIT.c ****         /* Set MUX_HW_CTRL_VSSA in MUX_SWITCH_HW_CTRL when multiple channels enabled */
 192:Generated_Source\PSoC4/ADC_EIT.c ****         #if(ADC_EIT_TOTAL_CHANNELS_NUM > 1u)
 193:Generated_Source\PSoC4/ADC_EIT.c ****             ADC_EIT_MUX_SWITCH_HW_CTRL_REG |= ADC_EIT_DEFAULT_MUX_SWITCH0;
 194:Generated_Source\PSoC4/ADC_EIT.c ****         #endif /* ADC_EIT_TOTAL_CHANNELS_NUM > 1u */
 195:Generated_Source\PSoC4/ADC_EIT.c ****     #endif /*ADC_EIT_CHANNELS_MODE !=0 */
 196:Generated_Source\PSoC4/ADC_EIT.c **** 
 197:Generated_Source\PSoC4/ADC_EIT.c ****     ADC_EIT_SAR_SATURATE_INTR_MASK_REG = 0u;
ARM GAS  C:\Users\jj-ay\AppData\Local\Temp\ccQGuNdx.s 			page 6


  87              		.loc 1 197 0 discriminator 4
  88 004c 3C4A     		ldr	r2, .L12+60
  89 004e 1360     		str	r3, [r2]
 198:Generated_Source\PSoC4/ADC_EIT.c ****     ADC_EIT_SAR_RANGE_INTR_MASK_REG = 0u;
  90              		.loc 1 198 0 discriminator 4
  91 0050 3C4A     		ldr	r2, .L12+64
  92 0052 1360     		str	r3, [r2]
 199:Generated_Source\PSoC4/ADC_EIT.c ****     ADC_EIT_SAR_INTR_MASK_REG = ADC_EIT_SAR_INTR_MASK;
  93              		.loc 1 199 0 discriminator 4
  94 0054 0122     		movs	r2, #1
  95 0056 3C4B     		ldr	r3, .L12+68
  96 0058 1A60     		str	r2, [r3]
 200:Generated_Source\PSoC4/ADC_EIT.c **** 
 201:Generated_Source\PSoC4/ADC_EIT.c ****     #if(ADC_EIT_CY_SAR_IP_VER == ADC_EIT_CY_SAR_IP_VER0)
 202:Generated_Source\PSoC4/ADC_EIT.c ****         ADC_EIT_ANA_TRIM_REG = ADC_EIT_TRIM_COEF;
  97              		.loc 1 202 0 discriminator 4
  98 005a 0132     		adds	r2, r2, #1
  99 005c 3B4B     		ldr	r3, .L12+72
 100 005e 1A60     		str	r2, [r3]
 203:Generated_Source\PSoC4/ADC_EIT.c ****     #endif /* (ADC_EIT_CY_SAR_IP_VER == ADC_EIT_CY_SAR_IP_VER0) */
 204:Generated_Source\PSoC4/ADC_EIT.c **** 
 205:Generated_Source\PSoC4/ADC_EIT.c ****     /* Read and modify default configuration based on characterization */
 206:Generated_Source\PSoC4/ADC_EIT.c ****     tmpRegVal = ADC_EIT_SAR_DFT_CTRL_REG;
 101              		.loc 1 206 0 discriminator 4
 102 0060 3B4A     		ldr	r2, .L12+76
 103 0062 1168     		ldr	r1, [r2]
 104              	.LVL2:
 207:Generated_Source\PSoC4/ADC_EIT.c ****     tmpRegVal &= (uint32)~ADC_EIT_DCEN;
 105              		.loc 1 207 0 discriminator 4
 106 0064 3B4B     		ldr	r3, .L12+80
 107 0066 0B40     		ands	r3, r1
 108              	.LVL3:
 208:Generated_Source\PSoC4/ADC_EIT.c ****     
 209:Generated_Source\PSoC4/ADC_EIT.c ****     #if(ADC_EIT_CY_SAR_IP_VER == ADC_EIT_CY_SAR_IP_VER0)
 210:Generated_Source\PSoC4/ADC_EIT.c ****         #if(ADC_EIT_NOMINAL_CLOCK_FREQ > (ADC_EIT_MAX_FREQUENCY / 2))
 211:Generated_Source\PSoC4/ADC_EIT.c ****             tmpRegVal |= ADC_EIT_SEL_CSEL_DFT_CHAR;
 109              		.loc 1 211 0 discriminator 4
 110 0068 C021     		movs	r1, #192
 111 006a 8904     		lsls	r1, r1, #18
 112 006c 0B43     		orrs	r3, r1
 113              	.LVL4:
 212:Generated_Source\PSoC4/ADC_EIT.c ****         #else  /* clock speed < 9 Mhz */
 213:Generated_Source\PSoC4/ADC_EIT.c ****             tmpRegVal |= ADC_EIT_DLY_INC;
 214:Generated_Source\PSoC4/ADC_EIT.c ****         #endif /* clock speed > 9 Mhz */
 215:Generated_Source\PSoC4/ADC_EIT.c ****     #else
 216:Generated_Source\PSoC4/ADC_EIT.c ****         #if ((ADC_EIT_DEFAULT_VREF_SEL == ADC_EIT__INTERNAL1024) || \
 217:Generated_Source\PSoC4/ADC_EIT.c ****              (ADC_EIT_DEFAULT_VREF_SEL == ADC_EIT__INTERNALVREF))
 218:Generated_Source\PSoC4/ADC_EIT.c ****             tmpRegVal |= ADC_EIT_DLY_INC;
 219:Generated_Source\PSoC4/ADC_EIT.c ****         #else
 220:Generated_Source\PSoC4/ADC_EIT.c ****             tmpRegVal |= ADC_EIT_DCEN;
 221:Generated_Source\PSoC4/ADC_EIT.c ****             tmpRegVal &= (uint32)~ADC_EIT_DLY_INC;
 222:Generated_Source\PSoC4/ADC_EIT.c ****         #endif /* ((ADC_EIT_DEFAULT_VREF_SEL == ADC_EIT__INTERNAL1024) || \
 223:Generated_Source\PSoC4/ADC_EIT.c ****                    (ADC_EIT_DEFAULT_VREF_SEL == ADC_EIT__INTERNALVREF)) */
 224:Generated_Source\PSoC4/ADC_EIT.c ****     #endif /* (ADC_EIT_CY_SAR_IP_VER == ADC_EIT_CY_SAR_IP_VER0) */
 225:Generated_Source\PSoC4/ADC_EIT.c ****     
 226:Generated_Source\PSoC4/ADC_EIT.c ****     ADC_EIT_SAR_DFT_CTRL_REG = tmpRegVal;
 114              		.loc 1 226 0 discriminator 4
ARM GAS  C:\Users\jj-ay\AppData\Local\Temp\ccQGuNdx.s 			page 7


 115 006e 1360     		str	r3, [r2]
 116              	.LVL5:
 227:Generated_Source\PSoC4/ADC_EIT.c **** 
 228:Generated_Source\PSoC4/ADC_EIT.c ****     #if(ADC_EIT_MAX_RESOLUTION != ADC_EIT_RESOLUTION_12)
 229:Generated_Source\PSoC4/ADC_EIT.c ****         ADC_EIT_WOUNDING_REG = ADC_EIT_ALT_WOUNDING;
 230:Generated_Source\PSoC4/ADC_EIT.c ****     #endif /* ADC_EIT_MAX_RESOLUTION != ADC_EIT_RESOLUTION_12 */
 231:Generated_Source\PSoC4/ADC_EIT.c **** 
 232:Generated_Source\PSoC4/ADC_EIT.c ****     for(chNum = 0u; chNum < ADC_EIT_TOTAL_CHANNELS_NUM; chNum++)
 117              		.loc 1 232 0 discriminator 4
 118 0070 0024     		movs	r4, #0
 119 0072 44E0     		b	.L3
 120              	.LVL6:
 121              	.L9:
 233:Generated_Source\PSoC4/ADC_EIT.c ****     {
 234:Generated_Source\PSoC4/ADC_EIT.c ****         tmpRegVal = (ADC_EIT_channelsConfig[chNum] & ADC_EIT_CHANNEL_CONFIG_MASK);
 122              		.loc 1 234 0
 123 0074 3849     		ldr	r1, .L12+84
 124 0076 A200     		lsls	r2, r4, #2
 125 0078 5058     		ldr	r0, [r2, r1]
 126 007a DC23     		movs	r3, #220
 127 007c 9B01     		lsls	r3, r3, #6
 128 007e 0340     		ands	r3, r0
 129              	.LVL7:
 235:Generated_Source\PSoC4/ADC_EIT.c ****         #if(ADC_EIT_TOTAL_CHANNELS_NUM > 1u)
 236:Generated_Source\PSoC4/ADC_EIT.c ****             tmpRegVal |= ADC_EIT_InputsPlacement[chNum];
 130              		.loc 1 236 0
 131 0080 0919     		adds	r1, r1, r4
 132 0082 097A     		ldrb	r1, [r1, #8]
 133 0084 0B43     		orrs	r3, r1
 134              	.LVL8:
 237:Generated_Source\PSoC4/ADC_EIT.c ****         #endif /* End ADC_EIT_TOTAL_CHANNELS_NUM > 1u */
 238:Generated_Source\PSoC4/ADC_EIT.c ****         
 239:Generated_Source\PSoC4/ADC_EIT.c ****         
 240:Generated_Source\PSoC4/ADC_EIT.c ****         /* When the part is limited to 10-bit then the SUB_RESOLUTION bit
 241:Generated_Source\PSoC4/ADC_EIT.c ****         *  will be ignored and the RESOLUTION bit selects between 10-bit
 242:Generated_Source\PSoC4/ADC_EIT.c ****         *  (0) and 8-bit (1) resolution.
 243:Generated_Source\PSoC4/ADC_EIT.c ****         */
 244:Generated_Source\PSoC4/ADC_EIT.c ****         #if((ADC_EIT_MAX_RESOLUTION != ADC_EIT_RESOLUTION_12) && \
 245:Generated_Source\PSoC4/ADC_EIT.c ****             (ADC_EIT_ALT_WOUNDING == ADC_EIT_WOUNDING_10BIT))
 246:Generated_Source\PSoC4/ADC_EIT.c ****             tmpRegVal &= (uint32)(~ADC_EIT_ALT_RESOLUTION_ON);
 247:Generated_Source\PSoC4/ADC_EIT.c ****         #endif /* ADC_EIT_MAX_RESOLUTION != ADC_EIT_RESOLUTION_12 */
 248:Generated_Source\PSoC4/ADC_EIT.c **** 
 249:Generated_Source\PSoC4/ADC_EIT.c ****         #if(ADC_EIT_INJ_CHANNEL_ENABLED)
 250:Generated_Source\PSoC4/ADC_EIT.c ****         if(chNum < ADC_EIT_SEQUENCED_CHANNELS_NUM)
 251:Generated_Source\PSoC4/ADC_EIT.c ****         #endif /* ADC_EIT_INJ_CHANNEL_ENABLED */
 252:Generated_Source\PSoC4/ADC_EIT.c ****         {
 253:Generated_Source\PSoC4/ADC_EIT.c ****             CY_SET_REG32((reg32 *)(ADC_EIT_SAR_CHAN_CONFIG_IND + (uint32)(chNum << 2)), tmpRegVal);
 135              		.loc 1 253 0
 136 0086 3549     		ldr	r1, .L12+88
 137 0088 8C46     		mov	ip, r1
 138 008a 6244     		add	r2, r2, ip
 139 008c 1360     		str	r3, [r2]
 254:Generated_Source\PSoC4/ADC_EIT.c **** 
 255:Generated_Source\PSoC4/ADC_EIT.c ****             if((ADC_EIT_channelsConfig[chNum] & ADC_EIT_IS_SATURATE_EN_MASK) != 0u)
 140              		.loc 1 255 0
 141 008e C307     		lsls	r3, r0, #31
 142 0090 07D5     		bpl	.L4
ARM GAS  C:\Users\jj-ay\AppData\Local\Temp\ccQGuNdx.s 			page 8


 143              	.LVL9:
 256:Generated_Source\PSoC4/ADC_EIT.c ****             {
 257:Generated_Source\PSoC4/ADC_EIT.c ****                 ADC_EIT_SAR_SATURATE_INTR_MASK_REG |= (uint16)((uint16)1 << chNum);
 144              		.loc 1 257 0
 145 0092 2B49     		ldr	r1, .L12+60
 146 0094 0A68     		ldr	r2, [r1]
 147              	.LVL10:
 148 0096 0123     		movs	r3, #1
 149 0098 A340     		lsls	r3, r3, r4
 150 009a 1B04     		lsls	r3, r3, #16
 151 009c 1B0C     		lsrs	r3, r3, #16
 152 009e 1343     		orrs	r3, r2
 153 00a0 0B60     		str	r3, [r1]
 154              	.LVL11:
 155              	.L4:
 258:Generated_Source\PSoC4/ADC_EIT.c ****             }
 259:Generated_Source\PSoC4/ADC_EIT.c **** 
 260:Generated_Source\PSoC4/ADC_EIT.c ****             if((ADC_EIT_channelsConfig[chNum] & ADC_EIT_IS_RANGE_CTRL_EN_MASK) != 0u)
 156              		.loc 1 260 0
 157 00a2 A300     		lsls	r3, r4, #2
 158 00a4 2C4A     		ldr	r2, .L12+84
 159              	.LVL12:
 160 00a6 9B58     		ldr	r3, [r3, r2]
 161 00a8 9B07     		lsls	r3, r3, #30
 162 00aa 07D5     		bpl	.L5
 261:Generated_Source\PSoC4/ADC_EIT.c ****             {
 262:Generated_Source\PSoC4/ADC_EIT.c ****                 ADC_EIT_SAR_RANGE_INTR_MASK_REG |= (uint16)((uint16)1 << chNum);
 163              		.loc 1 262 0
 164 00ac 2549     		ldr	r1, .L12+64
 165 00ae 0A68     		ldr	r2, [r1]
 166              	.LVL13:
 167 00b0 0123     		movs	r3, #1
 168 00b2 A340     		lsls	r3, r3, r4
 169 00b4 1B04     		lsls	r3, r3, #16
 170 00b6 1B0C     		lsrs	r3, r3, #16
 171 00b8 1343     		orrs	r3, r2
 172 00ba 0B60     		str	r3, [r1]
 173              	.L5:
 263:Generated_Source\PSoC4/ADC_EIT.c ****             }
 264:Generated_Source\PSoC4/ADC_EIT.c ****         }
 265:Generated_Source\PSoC4/ADC_EIT.c ****         #if(ADC_EIT_INJ_CHANNEL_ENABLED)
 266:Generated_Source\PSoC4/ADC_EIT.c ****             else
 267:Generated_Source\PSoC4/ADC_EIT.c ****             {
 268:Generated_Source\PSoC4/ADC_EIT.c ****                 CY_SET_REG32(ADC_EIT_SAR_INJ_CHAN_CONFIG_PTR, tmpRegVal | ADC_EIT_INJ_TAILGATING);
 269:Generated_Source\PSoC4/ADC_EIT.c **** 
 270:Generated_Source\PSoC4/ADC_EIT.c ****                 if((ADC_EIT_channelsConfig[chNum] & ADC_EIT_IS_SATURATE_EN_MASK) != 0u)
 271:Generated_Source\PSoC4/ADC_EIT.c ****                 {
 272:Generated_Source\PSoC4/ADC_EIT.c ****                     ADC_EIT_SAR_INTR_MASK_REG |= ADC_EIT_INJ_SATURATE_MASK;
 273:Generated_Source\PSoC4/ADC_EIT.c ****                 }
 274:Generated_Source\PSoC4/ADC_EIT.c **** 
 275:Generated_Source\PSoC4/ADC_EIT.c ****                 if((ADC_EIT_channelsConfig[chNum] & ADC_EIT_IS_RANGE_CTRL_EN_MASK) != 0u)
 276:Generated_Source\PSoC4/ADC_EIT.c ****                 {
 277:Generated_Source\PSoC4/ADC_EIT.c ****                     ADC_EIT_SAR_INTR_MASK_REG |= ADC_EIT_INJ_RANGE_MASK;
 278:Generated_Source\PSoC4/ADC_EIT.c ****                 }
 279:Generated_Source\PSoC4/ADC_EIT.c ****             }
 280:Generated_Source\PSoC4/ADC_EIT.c ****         #endif /* ADC_EIT_INJ_CHANNEL_ENABLED */
 281:Generated_Source\PSoC4/ADC_EIT.c **** 
ARM GAS  C:\Users\jj-ay\AppData\Local\Temp\ccQGuNdx.s 			page 9


 282:Generated_Source\PSoC4/ADC_EIT.c ****         if((ADC_EIT_channelsConfig[chNum] & ADC_EIT_ALT_RESOLUTION_ON) != 0u)
 174              		.loc 1 282 0
 175 00bc A300     		lsls	r3, r4, #2
 176 00be 264A     		ldr	r2, .L12+84
 177              	.LVL14:
 178 00c0 9B58     		ldr	r3, [r3, r2]
 179 00c2 9A05     		lsls	r2, r3, #22
 180 00c4 02D5     		bpl	.L11
 181              	.LVL15:
 283:Generated_Source\PSoC4/ADC_EIT.c ****         {
 284:Generated_Source\PSoC4/ADC_EIT.c ****                counts = (int32)ADC_EIT_DEFAULT_MAX_WRK_ALT;
 182              		.loc 1 284 0
 183 00c6 8020     		movs	r0, #128
 184              	.LVL16:
 185 00c8 4000     		lsls	r0, r0, #1
 186 00ca 01E0     		b	.L6
 187              	.LVL17:
 188              	.L11:
 285:Generated_Source\PSoC4/ADC_EIT.c ****         }
 286:Generated_Source\PSoC4/ADC_EIT.c ****         else
 287:Generated_Source\PSoC4/ADC_EIT.c ****         {
 288:Generated_Source\PSoC4/ADC_EIT.c ****                counts = (int32)ADC_EIT_SAR_WRK_MAX_12BIT;
 189              		.loc 1 288 0
 190 00cc 8020     		movs	r0, #128
 191              	.LVL18:
 192 00ce 4001     		lsls	r0, r0, #5
 193              	.L6:
 194              	.LVL19:
 289:Generated_Source\PSoC4/ADC_EIT.c ****         }
 290:Generated_Source\PSoC4/ADC_EIT.c **** 
 291:Generated_Source\PSoC4/ADC_EIT.c ****         if((ADC_EIT_channelsConfig[chNum] & ADC_EIT_DIFFERENTIAL_EN) == 0u)
 195              		.loc 1 291 0
 196 00d0 DB05     		lsls	r3, r3, #23
 197 00d2 04D4     		bmi	.L7
 292:Generated_Source\PSoC4/ADC_EIT.c ****         {
 293:Generated_Source\PSoC4/ADC_EIT.c ****             #if((ADC_EIT_DEFAULT_SE_RESULT_FORMAT_SEL == ADC_EIT__FSIGNED) && \
 294:Generated_Source\PSoC4/ADC_EIT.c ****                 (ADC_EIT_DEFAULT_NEG_INPUT_SEL == ADC_EIT__VREF))
 295:Generated_Source\PSoC4/ADC_EIT.c ****                 /* Set offset to the minus half scale to convert results to unsigned format */
 296:Generated_Source\PSoC4/ADC_EIT.c ****                 ADC_EIT_offset[chNum] = (int16)(counts / -2);
 297:Generated_Source\PSoC4/ADC_EIT.c ****             #else
 298:Generated_Source\PSoC4/ADC_EIT.c ****                 ADC_EIT_offset[chNum] = 0;
 198              		.loc 1 298 0
 199 00d4 6300     		lsls	r3, r4, #1
 200 00d6 0021     		movs	r1, #0
 201 00d8 214A     		ldr	r2, .L12+92
 202 00da 9952     		strh	r1, [r3, r2]
 203 00dc 03E0     		b	.L8
 204              	.L7:
 299:Generated_Source\PSoC4/ADC_EIT.c ****             #endif /* end DEFAULT_SE_RESULT_FORMAT_SEL == ADC_EIT__FSIGNED */
 300:Generated_Source\PSoC4/ADC_EIT.c ****         }
 301:Generated_Source\PSoC4/ADC_EIT.c ****         else    /* Differential channel */
 302:Generated_Source\PSoC4/ADC_EIT.c ****         {
 303:Generated_Source\PSoC4/ADC_EIT.c ****             #if(ADC_EIT_DEFAULT_DIFF_RESULT_FORMAT_SEL == ADC_EIT__FUNSIGNED)
 304:Generated_Source\PSoC4/ADC_EIT.c ****                 /* Set offset to the half scale to convert results to signed format */
 305:Generated_Source\PSoC4/ADC_EIT.c ****                 ADC_EIT_offset[chNum] = (int16)(counts / 2);
 306:Generated_Source\PSoC4/ADC_EIT.c ****             #else
 307:Generated_Source\PSoC4/ADC_EIT.c ****                 ADC_EIT_offset[chNum] = 0;
ARM GAS  C:\Users\jj-ay\AppData\Local\Temp\ccQGuNdx.s 			page 10


 205              		.loc 1 307 0
 206 00de 6300     		lsls	r3, r4, #1
 207 00e0 0021     		movs	r1, #0
 208 00e2 1F4A     		ldr	r2, .L12+92
 209 00e4 9952     		strh	r1, [r3, r2]
 210              	.L8:
 308:Generated_Source\PSoC4/ADC_EIT.c ****             #endif /* end ADC_EIT_DEFAULT_DIFF_RESULT_FORMAT_SEL == ADC_EIT__FUNSIGNED */
 309:Generated_Source\PSoC4/ADC_EIT.c ****         }
 310:Generated_Source\PSoC4/ADC_EIT.c ****         /* Calculate gain in counts per 10 volts with rounding */
 311:Generated_Source\PSoC4/ADC_EIT.c ****         ADC_EIT_countsPer10Volt[chNum] = (int16)(((counts * ADC_EIT_10MV_COUNTS) +
 211              		.loc 1 311 0 discriminator 2
 212 00e6 1F49     		ldr	r1, .L12+96
 213 00e8 4843     		muls	r0, r1
 214              	.LVL20:
 215 00ea 1F4B     		ldr	r3, .L12+100
 216 00ec 9C46     		mov	ip, r3
 217 00ee 6044     		add	r0, r0, ip
 312:Generated_Source\PSoC4/ADC_EIT.c ****                             ADC_EIT_DEFAULT_VREF_MV_VALUE) / (ADC_EIT_DEFAULT_VREF_MV_VALUE * 2));
 218              		.loc 1 312 0 discriminator 2
 219 00f0 FFF7FEFF 		bl	__aeabi_idiv
 220              	.LVL21:
 311:Generated_Source\PSoC4/ADC_EIT.c ****                             ADC_EIT_DEFAULT_VREF_MV_VALUE) / (ADC_EIT_DEFAULT_VREF_MV_VALUE * 2));
 221              		.loc 1 311 0 discriminator 2
 222 00f4 00B2     		sxth	r0, r0
 223 00f6 A200     		lsls	r2, r4, #2
 224 00f8 1C4B     		ldr	r3, .L12+104
 225 00fa D050     		str	r0, [r2, r3]
 232:Generated_Source\PSoC4/ADC_EIT.c ****     {
 226              		.loc 1 232 0 discriminator 2
 227 00fc 0134     		adds	r4, r4, #1
 228              	.LVL22:
 229              	.L3:
 232:Generated_Source\PSoC4/ADC_EIT.c ****     {
 230              		.loc 1 232 0 is_stmt 0 discriminator 1
 231 00fe 012C     		cmp	r4, #1
 232 0100 B8D9     		bls	.L9
 313:Generated_Source\PSoC4/ADC_EIT.c ****     }
 314:Generated_Source\PSoC4/ADC_EIT.c **** }
 233              		.loc 1 314 0 is_stmt 1
 234              		@ sp needed
 235              	.LVL23:
 236 0102 10BD     		pop	{r4, pc}
 237              	.L13:
 238              		.align	2
 239              	.L12:
 240 0104 00000000 		.word	ADC_EIT_ISR
 241 0108 20001A40 		.word	1075445792
 242 010c 80031A40 		.word	1075446656
 243 0110 502E1010 		.word	269495888
 244 0114 502E0010 		.word	268447312
 245 0118 00001A40 		.word	1075445760
 246 011c 98000080 		.word	-2147483496
 247 0120 04001A40 		.word	1075445764
 248 0124 0000FF07 		.word	134152192
 249 0128 18001A40 		.word	1075445784
 250 012c 1C001A40 		.word	1075445788
 251 0130 0A000200 		.word	131082
ARM GAS  C:\Users\jj-ay\AppData\Local\Temp\ccQGuNdx.s 			page 11


 252 0134 10001A40 		.word	1075445776
 253 0138 02000200 		.word	131074
 254 013c 14001A40 		.word	1075445780
 255 0140 28021A40 		.word	1075446312
 256 0144 38021A40 		.word	1075446328
 257 0148 18021A40 		.word	1075446296
 258 014c 000F1A40 		.word	1075449600
 259 0150 30001A40 		.word	1075445808
 260 0154 FFFFFFDF 		.word	-536870913
 261 0158 00000000 		.word	.LANCHOR0
 262 015c 80001A40 		.word	1075445888
 263 0160 00000000 		.word	ADC_EIT_offset
 264 0164 10270000 		.word	10000
 265 0168 88130000 		.word	5000
 266 016c 00000000 		.word	ADC_EIT_countsPer10Volt
 267              		.cfi_endproc
 268              	.LFE1:
 269              		.size	ADC_EIT_Init, .-ADC_EIT_Init
 270              		.section	.text.ADC_EIT_Enable,"ax",%progbits
 271              		.align	2
 272              		.global	ADC_EIT_Enable
 273              		.code	16
 274              		.thumb_func
 275              		.type	ADC_EIT_Enable, %function
 276              	ADC_EIT_Enable:
 277              	.LFB2:
 315:Generated_Source\PSoC4/ADC_EIT.c **** 
 316:Generated_Source\PSoC4/ADC_EIT.c **** /*******************************************************************************
 317:Generated_Source\PSoC4/ADC_EIT.c **** * Function Name: ADC_SAR_1_Enable
 318:Generated_Source\PSoC4/ADC_EIT.c **** ********************************************************************************
 319:Generated_Source\PSoC4/ADC_EIT.c **** *
 320:Generated_Source\PSoC4/ADC_EIT.c **** * Summary:
 321:Generated_Source\PSoC4/ADC_EIT.c **** *  Enables the clock and analog power for SAR ADC.
 322:Generated_Source\PSoC4/ADC_EIT.c **** *
 323:Generated_Source\PSoC4/ADC_EIT.c **** * Parameters:
 324:Generated_Source\PSoC4/ADC_EIT.c **** *  None.
 325:Generated_Source\PSoC4/ADC_EIT.c **** *
 326:Generated_Source\PSoC4/ADC_EIT.c **** * Return:
 327:Generated_Source\PSoC4/ADC_EIT.c **** *  None.
 328:Generated_Source\PSoC4/ADC_EIT.c **** *
 329:Generated_Source\PSoC4/ADC_EIT.c **** *******************************************************************************/
 330:Generated_Source\PSoC4/ADC_EIT.c **** void ADC_EIT_Enable(void)
 331:Generated_Source\PSoC4/ADC_EIT.c **** {
 278              		.loc 1 331 0
 279              		.cfi_startproc
 280              		@ args = 0, pretend = 0, frame = 0
 281              		@ frame_needed = 0, uses_anonymous_args = 0
 282 0000 10B5     		push	{r4, lr}
 283              		.cfi_def_cfa_offset 8
 284              		.cfi_offset 4, -8
 285              		.cfi_offset 14, -4
 332:Generated_Source\PSoC4/ADC_EIT.c ****     if (0u == (ADC_EIT_SAR_CTRL_REG & ADC_EIT_ENABLE))
 286              		.loc 1 332 0
 287 0002 074B     		ldr	r3, .L16
 288 0004 1B68     		ldr	r3, [r3]
 289 0006 002B     		cmp	r3, #0
 290 0008 08DB     		blt	.L14
ARM GAS  C:\Users\jj-ay\AppData\Local\Temp\ccQGuNdx.s 			page 12


 333:Generated_Source\PSoC4/ADC_EIT.c ****     {
 334:Generated_Source\PSoC4/ADC_EIT.c ****         #if(ADC_EIT_CY_SAR_IP_VER != ADC_EIT_CY_SAR_IP_VER0)
 335:Generated_Source\PSoC4/ADC_EIT.c **** 
 336:Generated_Source\PSoC4/ADC_EIT.c ****             while (0u != (ADC_EIT_SAR_STATUS_REG & ADC_EIT_STATUS_BUSY))
 337:Generated_Source\PSoC4/ADC_EIT.c ****             {
 338:Generated_Source\PSoC4/ADC_EIT.c ****                 /* wait for SAR to go idle to avoid deadlock */
 339:Generated_Source\PSoC4/ADC_EIT.c ****             }
 340:Generated_Source\PSoC4/ADC_EIT.c ****         #endif /* (ADC_EIT_CY_SAR_IP_VER != ADC_EIT_CY_SAR_IP_VER0) */
 341:Generated_Source\PSoC4/ADC_EIT.c ****         
 342:Generated_Source\PSoC4/ADC_EIT.c ****         ADC_EIT_SAR_CTRL_REG |= ADC_EIT_ENABLE;
 291              		.loc 1 342 0
 292 000a 054A     		ldr	r2, .L16
 293 000c 1368     		ldr	r3, [r2]
 294 000e 8021     		movs	r1, #128
 295 0010 0906     		lsls	r1, r1, #24
 296 0012 0B43     		orrs	r3, r1
 297 0014 1360     		str	r3, [r2]
 343:Generated_Source\PSoC4/ADC_EIT.c ****         
 344:Generated_Source\PSoC4/ADC_EIT.c ****         /* The block is ready to use 10 us after the enable signal is set high. */
 345:Generated_Source\PSoC4/ADC_EIT.c ****         CyDelayUs(ADC_EIT_10US_DELAY);         
 298              		.loc 1 345 0
 299 0016 0A20     		movs	r0, #10
 300 0018 FFF7FEFF 		bl	CyDelayUs
 301              	.LVL24:
 302              	.L14:
 346:Generated_Source\PSoC4/ADC_EIT.c ****     }
 347:Generated_Source\PSoC4/ADC_EIT.c **** }
 303              		.loc 1 347 0
 304              		@ sp needed
 305 001c 10BD     		pop	{r4, pc}
 306              	.L17:
 307 001e C046     		.align	2
 308              	.L16:
 309 0020 00001A40 		.word	1075445760
 310              		.cfi_endproc
 311              	.LFE2:
 312              		.size	ADC_EIT_Enable, .-ADC_EIT_Enable
 313              		.section	.text.ADC_EIT_Start,"ax",%progbits
 314              		.align	2
 315              		.global	ADC_EIT_Start
 316              		.code	16
 317              		.thumb_func
 318              		.type	ADC_EIT_Start, %function
 319              	ADC_EIT_Start:
 320              	.LFB0:
  64:Generated_Source\PSoC4/ADC_EIT.c ****     /* If not Initialized then initialize all required hardware and software */
 321              		.loc 1 64 0
 322              		.cfi_startproc
 323              		@ args = 0, pretend = 0, frame = 0
 324              		@ frame_needed = 0, uses_anonymous_args = 0
 325 0000 10B5     		push	{r4, lr}
 326              		.cfi_def_cfa_offset 8
 327              		.cfi_offset 4, -8
 328              		.cfi_offset 14, -4
  66:Generated_Source\PSoC4/ADC_EIT.c ****     {
 329              		.loc 1 66 0
 330 0002 064B     		ldr	r3, .L20
ARM GAS  C:\Users\jj-ay\AppData\Local\Temp\ccQGuNdx.s 			page 13


 331 0004 1B78     		ldrb	r3, [r3]
 332 0006 002B     		cmp	r3, #0
 333 0008 04D1     		bne	.L19
  68:Generated_Source\PSoC4/ADC_EIT.c ****         ADC_EIT_initVar = 1u;
 334              		.loc 1 68 0
 335 000a FFF7FEFF 		bl	ADC_EIT_Init
 336              	.LVL25:
  69:Generated_Source\PSoC4/ADC_EIT.c ****     }
 337              		.loc 1 69 0
 338 000e 0122     		movs	r2, #1
 339 0010 024B     		ldr	r3, .L20
 340 0012 1A70     		strb	r2, [r3]
 341              	.L19:
  71:Generated_Source\PSoC4/ADC_EIT.c **** }
 342              		.loc 1 71 0
 343 0014 FFF7FEFF 		bl	ADC_EIT_Enable
 344              	.LVL26:
  72:Generated_Source\PSoC4/ADC_EIT.c **** 
 345              		.loc 1 72 0
 346              		@ sp needed
 347 0018 10BD     		pop	{r4, pc}
 348              	.L21:
 349 001a C046     		.align	2
 350              	.L20:
 351 001c 00000000 		.word	.LANCHOR1
 352              		.cfi_endproc
 353              	.LFE0:
 354              		.size	ADC_EIT_Start, .-ADC_EIT_Start
 355              		.section	.text.ADC_EIT_Stop,"ax",%progbits
 356              		.align	2
 357              		.global	ADC_EIT_Stop
 358              		.code	16
 359              		.thumb_func
 360              		.type	ADC_EIT_Stop, %function
 361              	ADC_EIT_Stop:
 362              	.LFB3:
 348:Generated_Source\PSoC4/ADC_EIT.c **** 
 349:Generated_Source\PSoC4/ADC_EIT.c **** 
 350:Generated_Source\PSoC4/ADC_EIT.c **** /*******************************************************************************
 351:Generated_Source\PSoC4/ADC_EIT.c **** * Function Name: ADC_EIT_Stop
 352:Generated_Source\PSoC4/ADC_EIT.c **** ********************************************************************************
 353:Generated_Source\PSoC4/ADC_EIT.c **** *
 354:Generated_Source\PSoC4/ADC_EIT.c **** * Summary:
 355:Generated_Source\PSoC4/ADC_EIT.c **** *  This function stops ADC conversions and puts the ADC into its lowest power
 356:Generated_Source\PSoC4/ADC_EIT.c **** *  mode.
 357:Generated_Source\PSoC4/ADC_EIT.c **** *
 358:Generated_Source\PSoC4/ADC_EIT.c **** * Parameters:
 359:Generated_Source\PSoC4/ADC_EIT.c **** *  None.
 360:Generated_Source\PSoC4/ADC_EIT.c **** *
 361:Generated_Source\PSoC4/ADC_EIT.c **** * Return:
 362:Generated_Source\PSoC4/ADC_EIT.c **** *  None.
 363:Generated_Source\PSoC4/ADC_EIT.c **** *
 364:Generated_Source\PSoC4/ADC_EIT.c **** *******************************************************************************/
 365:Generated_Source\PSoC4/ADC_EIT.c **** void ADC_EIT_Stop(void)
 366:Generated_Source\PSoC4/ADC_EIT.c **** {
 363              		.loc 1 366 0
 364              		.cfi_startproc
ARM GAS  C:\Users\jj-ay\AppData\Local\Temp\ccQGuNdx.s 			page 14


 365              		@ args = 0, pretend = 0, frame = 0
 366              		@ frame_needed = 0, uses_anonymous_args = 0
 367              		@ link register save eliminated.
 367:Generated_Source\PSoC4/ADC_EIT.c ****     ADC_EIT_SAR_CTRL_REG &= (uint32)~ADC_EIT_ENABLE;
 368              		.loc 1 367 0
 369 0000 024A     		ldr	r2, .L23
 370 0002 1368     		ldr	r3, [r2]
 371 0004 5B00     		lsls	r3, r3, #1
 372 0006 5B08     		lsrs	r3, r3, #1
 373 0008 1360     		str	r3, [r2]
 368:Generated_Source\PSoC4/ADC_EIT.c **** }
 374              		.loc 1 368 0
 375              		@ sp needed
 376 000a 7047     		bx	lr
 377              	.L24:
 378              		.align	2
 379              	.L23:
 380 000c 00001A40 		.word	1075445760
 381              		.cfi_endproc
 382              	.LFE3:
 383              		.size	ADC_EIT_Stop, .-ADC_EIT_Stop
 384              		.section	.text.ADC_EIT_StartConvert,"ax",%progbits
 385              		.align	2
 386              		.global	ADC_EIT_StartConvert
 387              		.code	16
 388              		.thumb_func
 389              		.type	ADC_EIT_StartConvert, %function
 390              	ADC_EIT_StartConvert:
 391              	.LFB4:
 369:Generated_Source\PSoC4/ADC_EIT.c **** 
 370:Generated_Source\PSoC4/ADC_EIT.c **** 
 371:Generated_Source\PSoC4/ADC_EIT.c **** /*******************************************************************************
 372:Generated_Source\PSoC4/ADC_EIT.c **** * Function Name: ADC_EIT_StartConvert
 373:Generated_Source\PSoC4/ADC_EIT.c **** ********************************************************************************
 374:Generated_Source\PSoC4/ADC_EIT.c **** *
 375:Generated_Source\PSoC4/ADC_EIT.c **** * Summary:
 376:Generated_Source\PSoC4/ADC_EIT.c **** *  Description:
 377:Generated_Source\PSoC4/ADC_EIT.c **** *  For free running mode, this API starts the conversion process and it
 378:Generated_Source\PSoC4/ADC_EIT.c **** *  runs continuously.
 379:Generated_Source\PSoC4/ADC_EIT.c **** *
 380:Generated_Source\PSoC4/ADC_EIT.c **** *  In a triggered mode, this routine triggers every conversion by
 381:Generated_Source\PSoC4/ADC_EIT.c **** *  writing into the FW_TRIGGER bit in SAR_START_CTRL reg. In triggered mode,
 382:Generated_Source\PSoC4/ADC_EIT.c **** *  every conversion has to start by this API.
 383:Generated_Source\PSoC4/ADC_EIT.c **** *
 384:Generated_Source\PSoC4/ADC_EIT.c **** * Parameters:
 385:Generated_Source\PSoC4/ADC_EIT.c **** *  None.
 386:Generated_Source\PSoC4/ADC_EIT.c **** *
 387:Generated_Source\PSoC4/ADC_EIT.c **** * Return:
 388:Generated_Source\PSoC4/ADC_EIT.c **** *  None.
 389:Generated_Source\PSoC4/ADC_EIT.c **** *
 390:Generated_Source\PSoC4/ADC_EIT.c **** *******************************************************************************/
 391:Generated_Source\PSoC4/ADC_EIT.c **** void ADC_EIT_StartConvert(void)
 392:Generated_Source\PSoC4/ADC_EIT.c **** {
 392              		.loc 1 392 0
 393              		.cfi_startproc
 394              		@ args = 0, pretend = 0, frame = 0
 395              		@ frame_needed = 0, uses_anonymous_args = 0
ARM GAS  C:\Users\jj-ay\AppData\Local\Temp\ccQGuNdx.s 			page 15


 396              		@ link register save eliminated.
 393:Generated_Source\PSoC4/ADC_EIT.c ****     #if(ADC_EIT_DEFAULT_SAMPLE_MODE_SEL == ADC_EIT__FREERUNNING)
 394:Generated_Source\PSoC4/ADC_EIT.c ****         ADC_EIT_SAR_SAMPLE_CTRL_REG |= ADC_EIT_CONTINUOUS_EN;
 397              		.loc 1 394 0
 398 0000 034A     		ldr	r2, .L26
 399 0002 1368     		ldr	r3, [r2]
 400 0004 8021     		movs	r1, #128
 401 0006 4902     		lsls	r1, r1, #9
 402 0008 0B43     		orrs	r3, r1
 403 000a 1360     		str	r3, [r2]
 395:Generated_Source\PSoC4/ADC_EIT.c ****     #else /* Firmware trigger */
 396:Generated_Source\PSoC4/ADC_EIT.c ****         ADC_EIT_SAR_START_CTRL_REG = ADC_EIT_FW_TRIGGER;
 397:Generated_Source\PSoC4/ADC_EIT.c ****     #endif /* End ADC_EIT_DEFAULT_SAMPLE_MODE == ADC_EIT__FREERUNNING */
 398:Generated_Source\PSoC4/ADC_EIT.c **** 
 399:Generated_Source\PSoC4/ADC_EIT.c **** }
 404              		.loc 1 399 0
 405              		@ sp needed
 406 000c 7047     		bx	lr
 407              	.L27:
 408 000e C046     		.align	2
 409              	.L26:
 410 0010 04001A40 		.word	1075445764
 411              		.cfi_endproc
 412              	.LFE4:
 413              		.size	ADC_EIT_StartConvert, .-ADC_EIT_StartConvert
 414              		.section	.text.ADC_EIT_StopConvert,"ax",%progbits
 415              		.align	2
 416              		.global	ADC_EIT_StopConvert
 417              		.code	16
 418              		.thumb_func
 419              		.type	ADC_EIT_StopConvert, %function
 420              	ADC_EIT_StopConvert:
 421              	.LFB5:
 400:Generated_Source\PSoC4/ADC_EIT.c **** 
 401:Generated_Source\PSoC4/ADC_EIT.c **** 
 402:Generated_Source\PSoC4/ADC_EIT.c **** /*******************************************************************************
 403:Generated_Source\PSoC4/ADC_EIT.c **** * Function Name: ADC_EIT_StopConvert
 404:Generated_Source\PSoC4/ADC_EIT.c **** ********************************************************************************
 405:Generated_Source\PSoC4/ADC_EIT.c **** *
 406:Generated_Source\PSoC4/ADC_EIT.c **** * Summary:
 407:Generated_Source\PSoC4/ADC_EIT.c **** *  Forces the ADC to stop all conversions.
 408:Generated_Source\PSoC4/ADC_EIT.c **** *
 409:Generated_Source\PSoC4/ADC_EIT.c **** * Parameters:
 410:Generated_Source\PSoC4/ADC_EIT.c **** *  None.
 411:Generated_Source\PSoC4/ADC_EIT.c **** *
 412:Generated_Source\PSoC4/ADC_EIT.c **** * Return:
 413:Generated_Source\PSoC4/ADC_EIT.c **** *  None.
 414:Generated_Source\PSoC4/ADC_EIT.c **** *
 415:Generated_Source\PSoC4/ADC_EIT.c **** *******************************************************************************/
 416:Generated_Source\PSoC4/ADC_EIT.c **** void ADC_EIT_StopConvert(void)
 417:Generated_Source\PSoC4/ADC_EIT.c **** {
 422              		.loc 1 417 0
 423              		.cfi_startproc
 424              		@ args = 0, pretend = 0, frame = 0
 425              		@ frame_needed = 0, uses_anonymous_args = 0
 426              		@ link register save eliminated.
 418:Generated_Source\PSoC4/ADC_EIT.c ****     #if(ADC_EIT_DEFAULT_SAMPLE_MODE_SEL == ADC_EIT__FREERUNNING)
ARM GAS  C:\Users\jj-ay\AppData\Local\Temp\ccQGuNdx.s 			page 16


 419:Generated_Source\PSoC4/ADC_EIT.c ****         ADC_EIT_SAR_SAMPLE_CTRL_REG &= (uint32)(~ADC_EIT_CONTINUOUS_EN);
 427              		.loc 1 419 0
 428 0000 024A     		ldr	r2, .L29
 429 0002 1168     		ldr	r1, [r2]
 430 0004 024B     		ldr	r3, .L29+4
 431 0006 0B40     		ands	r3, r1
 432 0008 1360     		str	r3, [r2]
 420:Generated_Source\PSoC4/ADC_EIT.c ****     #endif /* ADC_EIT_DEFAULT_SAMPLE_MODE == ADC_EIT__FREERUNNING */
 421:Generated_Source\PSoC4/ADC_EIT.c **** }
 433              		.loc 1 421 0
 434              		@ sp needed
 435 000a 7047     		bx	lr
 436              	.L30:
 437              		.align	2
 438              	.L29:
 439 000c 04001A40 		.word	1075445764
 440 0010 FFFFFEFF 		.word	-65537
 441              		.cfi_endproc
 442              	.LFE5:
 443              		.size	ADC_EIT_StopConvert, .-ADC_EIT_StopConvert
 444              		.section	.text.ADC_EIT_IsEndConversion,"ax",%progbits
 445              		.align	2
 446              		.global	ADC_EIT_IsEndConversion
 447              		.code	16
 448              		.thumb_func
 449              		.type	ADC_EIT_IsEndConversion, %function
 450              	ADC_EIT_IsEndConversion:
 451              	.LFB6:
 422:Generated_Source\PSoC4/ADC_EIT.c **** 
 423:Generated_Source\PSoC4/ADC_EIT.c **** 
 424:Generated_Source\PSoC4/ADC_EIT.c **** /*******************************************************************************
 425:Generated_Source\PSoC4/ADC_EIT.c **** * Function Name: ADC_EIT_IsEndConversion
 426:Generated_Source\PSoC4/ADC_EIT.c **** ********************************************************************************
 427:Generated_Source\PSoC4/ADC_EIT.c **** *
 428:Generated_Source\PSoC4/ADC_EIT.c **** * Summary:
 429:Generated_Source\PSoC4/ADC_EIT.c **** *  Description: Checks for ADC end of conversion for the case one
 430:Generated_Source\PSoC4/ADC_EIT.c **** *  channel and end of scan for the case of multiple channels. It acts
 431:Generated_Source\PSoC4/ADC_EIT.c **** *  as a software version of the EOC. This function provides the
 432:Generated_Source\PSoC4/ADC_EIT.c **** *  programmer with two options. In one mode this function
 433:Generated_Source\PSoC4/ADC_EIT.c **** *  immediately returns with the conversion status. In the other mode,
 434:Generated_Source\PSoC4/ADC_EIT.c **** *  the function does not return (blocking) until the conversion has
 435:Generated_Source\PSoC4/ADC_EIT.c **** *  completed.
 436:Generated_Source\PSoC4/ADC_EIT.c **** *
 437:Generated_Source\PSoC4/ADC_EIT.c **** * Parameters:
 438:Generated_Source\PSoC4/ADC_EIT.c **** *  ADC_RETURN_STATUS        -> Immediately returns conversion result status
 439:Generated_Source\PSoC4/ADC_EIT.c **** *  ADC_WAIT_FOR_RESULT      -> Does not return until ADC complete
 440:Generated_Source\PSoC4/ADC_EIT.c **** *  ADC_RETURN_STATUS_INJ    -> Immediately returns conversion result status
 441:Generated_Source\PSoC4/ADC_EIT.c **** *                              for injection channel
 442:Generated_Source\PSoC4/ADC_EIT.c **** *  ADC_WAIT_FOR_RESULT_INJ  -> Does not return until ADC completes injection
 443:Generated_Source\PSoC4/ADC_EIT.c **** *                              channel conversion
 444:Generated_Source\PSoC4/ADC_EIT.c **** *
 445:Generated_Source\PSoC4/ADC_EIT.c **** * Return:
 446:Generated_Source\PSoC4/ADC_EIT.c **** *  If a non-zero value is returned, the last conversion or scan has completed.
 447:Generated_Source\PSoC4/ADC_EIT.c **** *  If the returned value is zero, the ADC is still in the process of a scan.
 448:Generated_Source\PSoC4/ADC_EIT.c **** *
 449:Generated_Source\PSoC4/ADC_EIT.c **** *******************************************************************************/
 450:Generated_Source\PSoC4/ADC_EIT.c **** uint32 ADC_EIT_IsEndConversion(uint32 retMode)
ARM GAS  C:\Users\jj-ay\AppData\Local\Temp\ccQGuNdx.s 			page 17


 451:Generated_Source\PSoC4/ADC_EIT.c **** {
 452              		.loc 1 451 0
 453              		.cfi_startproc
 454              		@ args = 0, pretend = 0, frame = 0
 455              		@ frame_needed = 0, uses_anonymous_args = 0
 456              		@ link register save eliminated.
 457              	.LVL27:
 458 0000 0200     		movs	r2, r0
 459              	.LVL28:
 452:Generated_Source\PSoC4/ADC_EIT.c ****     uint32 status = 0u;
 453:Generated_Source\PSoC4/ADC_EIT.c **** 
 454:Generated_Source\PSoC4/ADC_EIT.c ****     if((retMode & (ADC_EIT_RETURN_STATUS | ADC_EIT_WAIT_FOR_RESULT)) != 0u)
 460              		.loc 1 454 0
 461 0002 8307     		lsls	r3, r0, #30
 462 0004 0CD0     		beq	.L35
 463              	.LVL29:
 464              	.L34:
 455:Generated_Source\PSoC4/ADC_EIT.c ****     {
 456:Generated_Source\PSoC4/ADC_EIT.c ****         do
 457:Generated_Source\PSoC4/ADC_EIT.c ****         {
 458:Generated_Source\PSoC4/ADC_EIT.c ****             status = ADC_EIT_SAR_INTR_REG & ADC_EIT_EOS_MASK;
 465              		.loc 1 458 0 discriminator 2
 466 0006 074B     		ldr	r3, .L36
 467 0008 1B68     		ldr	r3, [r3]
 468 000a 0120     		movs	r0, #1
 469 000c 1840     		ands	r0, r3
 470              	.LVL30:
 459:Generated_Source\PSoC4/ADC_EIT.c ****         }while((status == 0u) && ((retMode & ADC_EIT_WAIT_FOR_RESULT) != 0u));
 471              		.loc 1 459 0 discriminator 2
 472 000e 01D1     		bne	.L33
 473              		.loc 1 459 0 is_stmt 0 discriminator 1
 474 0010 9307     		lsls	r3, r2, #30
 475 0012 F8D4     		bmi	.L34
 476              	.L33:
 460:Generated_Source\PSoC4/ADC_EIT.c **** 
 461:Generated_Source\PSoC4/ADC_EIT.c ****         if(status != 0u)
 477              		.loc 1 461 0 is_stmt 1
 478 0014 0028     		cmp	r0, #0
 479 0016 04D0     		beq	.L32
 462:Generated_Source\PSoC4/ADC_EIT.c ****         {
 463:Generated_Source\PSoC4/ADC_EIT.c ****             /* Clear EOS bit */
 464:Generated_Source\PSoC4/ADC_EIT.c ****             ADC_EIT_SAR_INTR_REG = ADC_EIT_EOS_MASK;
 480              		.loc 1 464 0
 481 0018 0122     		movs	r2, #1
 482              	.LVL31:
 483 001a 024B     		ldr	r3, .L36
 484 001c 1A60     		str	r2, [r3]
 485 001e 00E0     		b	.L32
 486              	.LVL32:
 487              	.L35:
 452:Generated_Source\PSoC4/ADC_EIT.c **** 
 488              		.loc 1 452 0
 489 0020 0020     		movs	r0, #0
 490              	.LVL33:
 491              	.L32:
 465:Generated_Source\PSoC4/ADC_EIT.c ****         }
 466:Generated_Source\PSoC4/ADC_EIT.c ****     }
ARM GAS  C:\Users\jj-ay\AppData\Local\Temp\ccQGuNdx.s 			page 18


 467:Generated_Source\PSoC4/ADC_EIT.c **** 
 468:Generated_Source\PSoC4/ADC_EIT.c ****     #if(ADC_EIT_INJ_CHANNEL_ENABLED)
 469:Generated_Source\PSoC4/ADC_EIT.c ****         if((retMode & (ADC_EIT_RETURN_STATUS_INJ | ADC_EIT_WAIT_FOR_RESULT_INJ)) != 0u)
 470:Generated_Source\PSoC4/ADC_EIT.c ****         {
 471:Generated_Source\PSoC4/ADC_EIT.c ****             do
 472:Generated_Source\PSoC4/ADC_EIT.c ****             {
 473:Generated_Source\PSoC4/ADC_EIT.c ****                 status |= ADC_EIT_SAR_INTR_REG & ADC_EIT_INJ_EOC_MASK;
 474:Generated_Source\PSoC4/ADC_EIT.c ****             }while(((status & ADC_EIT_INJ_EOC_MASK) == 0u) &&
 475:Generated_Source\PSoC4/ADC_EIT.c ****                    ((retMode & ADC_EIT_WAIT_FOR_RESULT_INJ) != 0u));
 476:Generated_Source\PSoC4/ADC_EIT.c **** 
 477:Generated_Source\PSoC4/ADC_EIT.c ****             if((status & ADC_EIT_INJ_EOC_MASK) != 0u)
 478:Generated_Source\PSoC4/ADC_EIT.c ****             {
 479:Generated_Source\PSoC4/ADC_EIT.c ****                 /* Clear Injection EOS bit */
 480:Generated_Source\PSoC4/ADC_EIT.c ****                 ADC_EIT_SAR_INTR_REG = ADC_EIT_INJ_EOC_MASK;
 481:Generated_Source\PSoC4/ADC_EIT.c ****             }
 482:Generated_Source\PSoC4/ADC_EIT.c ****         }
 483:Generated_Source\PSoC4/ADC_EIT.c ****     #endif /* ADC_EIT_INJ_CHANNEL_ENABLED */
 484:Generated_Source\PSoC4/ADC_EIT.c **** 
 485:Generated_Source\PSoC4/ADC_EIT.c ****     return (status);
 486:Generated_Source\PSoC4/ADC_EIT.c **** }
 492              		.loc 1 486 0
 493              		@ sp needed
 494 0022 7047     		bx	lr
 495              	.L37:
 496              		.align	2
 497              	.L36:
 498 0024 10021A40 		.word	1075446288
 499              		.cfi_endproc
 500              	.LFE6:
 501              		.size	ADC_EIT_IsEndConversion, .-ADC_EIT_IsEndConversion
 502              		.section	.text.ADC_EIT_GetResult16,"ax",%progbits
 503              		.align	2
 504              		.global	ADC_EIT_GetResult16
 505              		.code	16
 506              		.thumb_func
 507              		.type	ADC_EIT_GetResult16, %function
 508              	ADC_EIT_GetResult16:
 509              	.LFB7:
 487:Generated_Source\PSoC4/ADC_EIT.c **** 
 488:Generated_Source\PSoC4/ADC_EIT.c **** 
 489:Generated_Source\PSoC4/ADC_EIT.c **** /*******************************************************************************
 490:Generated_Source\PSoC4/ADC_EIT.c **** * Function Name: ADC_EIT_GetResult16
 491:Generated_Source\PSoC4/ADC_EIT.c **** ********************************************************************************
 492:Generated_Source\PSoC4/ADC_EIT.c **** *
 493:Generated_Source\PSoC4/ADC_EIT.c **** * Summary:
 494:Generated_Source\PSoC4/ADC_EIT.c **** *  Gets the data available in the SAR DATA register.
 495:Generated_Source\PSoC4/ADC_EIT.c **** *
 496:Generated_Source\PSoC4/ADC_EIT.c **** * Parameters:
 497:Generated_Source\PSoC4/ADC_EIT.c **** *  chan: The ADC channel in which to return the result. The first channel
 498:Generated_Source\PSoC4/ADC_EIT.c **** *  is 0 and the injection channel if enabled is the number of valid channels.
 499:Generated_Source\PSoC4/ADC_EIT.c **** *
 500:Generated_Source\PSoC4/ADC_EIT.c **** * Return:
 501:Generated_Source\PSoC4/ADC_EIT.c **** *  Returns converted data as a signed 16-bit integer
 502:Generated_Source\PSoC4/ADC_EIT.c **** *
 503:Generated_Source\PSoC4/ADC_EIT.c **** *******************************************************************************/
 504:Generated_Source\PSoC4/ADC_EIT.c **** int16 ADC_EIT_GetResult16(uint32 chan)
 505:Generated_Source\PSoC4/ADC_EIT.c **** {
ARM GAS  C:\Users\jj-ay\AppData\Local\Temp\ccQGuNdx.s 			page 19


 510              		.loc 1 505 0
 511              		.cfi_startproc
 512              		@ args = 0, pretend = 0, frame = 0
 513              		@ frame_needed = 0, uses_anonymous_args = 0
 514              	.LVL34:
 515 0000 10B5     		push	{r4, lr}
 516              		.cfi_def_cfa_offset 8
 517              		.cfi_offset 4, -8
 518              		.cfi_offset 14, -4
 519 0002 0400     		movs	r4, r0
 506:Generated_Source\PSoC4/ADC_EIT.c ****     uint32 result;
 507:Generated_Source\PSoC4/ADC_EIT.c **** 
 508:Generated_Source\PSoC4/ADC_EIT.c ****     /* Halt CPU in debug mode if channel is out of valid range */
 509:Generated_Source\PSoC4/ADC_EIT.c ****     CYASSERT(chan < ADC_EIT_TOTAL_CHANNELS_NUM);
 520              		.loc 1 509 0
 521 0004 0128     		cmp	r0, #1
 522 0006 02D9     		bls	.L39
 523              		.loc 1 509 0 is_stmt 0 discriminator 1
 524 0008 0020     		movs	r0, #0
 525              	.LVL35:
 526 000a FFF7FEFF 		bl	CyHalt
 527              	.LVL36:
 528              	.L39:
 510:Generated_Source\PSoC4/ADC_EIT.c **** 
 511:Generated_Source\PSoC4/ADC_EIT.c ****     if(chan < ADC_EIT_SEQUENCED_CHANNELS_NUM)
 529              		.loc 1 511 0 is_stmt 1
 530 000e 012C     		cmp	r4, #1
 531 0010 07D8     		bhi	.L41
 512:Generated_Source\PSoC4/ADC_EIT.c ****     {
 513:Generated_Source\PSoC4/ADC_EIT.c ****         result = CY_GET_REG32((reg32 *)(ADC_EIT_SAR_CHAN_RESULT_IND + (uint32)(chan << 2u))) &
 532              		.loc 1 513 0
 533 0012 A400     		lsls	r4, r4, #2
 534              	.LVL37:
 535 0014 044B     		ldr	r3, .L42
 536 0016 9C46     		mov	ip, r3
 537 0018 6444     		add	r4, r4, ip
 538 001a 2068     		ldr	r0, [r4]
 539 001c 0004     		lsls	r0, r0, #16
 540 001e 000C     		lsrs	r0, r0, #16
 541              	.LVL38:
 542 0020 00E0     		b	.L40
 543              	.LVL39:
 544              	.L41:
 514:Generated_Source\PSoC4/ADC_EIT.c ****                 ADC_EIT_RESULT_MASK;
 515:Generated_Source\PSoC4/ADC_EIT.c ****     }
 516:Generated_Source\PSoC4/ADC_EIT.c ****     else
 517:Generated_Source\PSoC4/ADC_EIT.c ****     {
 518:Generated_Source\PSoC4/ADC_EIT.c ****         #if(ADC_EIT_INJ_CHANNEL_ENABLED)
 519:Generated_Source\PSoC4/ADC_EIT.c ****             result = ADC_EIT_SAR_INJ_RESULT_REG & ADC_EIT_RESULT_MASK;
 520:Generated_Source\PSoC4/ADC_EIT.c ****         #else
 521:Generated_Source\PSoC4/ADC_EIT.c ****             result = 0u;
 545              		.loc 1 521 0
 546 0022 0020     		movs	r0, #0
 547              	.LVL40:
 548              	.L40:
 522:Generated_Source\PSoC4/ADC_EIT.c ****         #endif /* ADC_EIT_INJ_CHANNEL_ENABLED */
 523:Generated_Source\PSoC4/ADC_EIT.c ****     }
ARM GAS  C:\Users\jj-ay\AppData\Local\Temp\ccQGuNdx.s 			page 20


 524:Generated_Source\PSoC4/ADC_EIT.c **** 
 525:Generated_Source\PSoC4/ADC_EIT.c ****     return ( (int16)result );
 549              		.loc 1 525 0
 550 0024 00B2     		sxth	r0, r0
 551              	.LVL41:
 526:Generated_Source\PSoC4/ADC_EIT.c **** }
 552              		.loc 1 526 0
 553              		@ sp needed
 554 0026 10BD     		pop	{r4, pc}
 555              	.L43:
 556              		.align	2
 557              	.L42:
 558 0028 80011A40 		.word	1075446144
 559              		.cfi_endproc
 560              	.LFE7:
 561              		.size	ADC_EIT_GetResult16, .-ADC_EIT_GetResult16
 562              		.section	.text.ADC_EIT_SetChanMask,"ax",%progbits
 563              		.align	2
 564              		.global	ADC_EIT_SetChanMask
 565              		.code	16
 566              		.thumb_func
 567              		.type	ADC_EIT_SetChanMask, %function
 568              	ADC_EIT_SetChanMask:
 569              	.LFB8:
 527:Generated_Source\PSoC4/ADC_EIT.c **** 
 528:Generated_Source\PSoC4/ADC_EIT.c **** 
 529:Generated_Source\PSoC4/ADC_EIT.c **** /*******************************************************************************
 530:Generated_Source\PSoC4/ADC_EIT.c **** * Function Name: ADC_EIT_SetChanMask
 531:Generated_Source\PSoC4/ADC_EIT.c **** ********************************************************************************
 532:Generated_Source\PSoC4/ADC_EIT.c **** *
 533:Generated_Source\PSoC4/ADC_EIT.c **** * Summary:
 534:Generated_Source\PSoC4/ADC_EIT.c **** *  Sets the channel enable mask.
 535:Generated_Source\PSoC4/ADC_EIT.c **** *
 536:Generated_Source\PSoC4/ADC_EIT.c **** * Parameters:
 537:Generated_Source\PSoC4/ADC_EIT.c **** *  mask: Sets which channels that will be
 538:Generated_Source\PSoC4/ADC_EIT.c **** *  scanned. Setting bits for channels that do not exist will have no
 539:Generated_Source\PSoC4/ADC_EIT.c **** *  effect. For example, if only 6 channels were enabled, setting a
 540:Generated_Source\PSoC4/ADC_EIT.c **** *  mask of 0x0103 would only enable the last two channels (0 and 1).
 541:Generated_Source\PSoC4/ADC_EIT.c **** *  This API will not enable the injection channel.
 542:Generated_Source\PSoC4/ADC_EIT.c **** *  Examples: If the component is setup to sequence through 8
 543:Generated_Source\PSoC4/ADC_EIT.c **** *  channels, a mask of 0x000F would enable channels 0, 1, 2, and 3.
 544:Generated_Source\PSoC4/ADC_EIT.c **** *
 545:Generated_Source\PSoC4/ADC_EIT.c **** * Return:
 546:Generated_Source\PSoC4/ADC_EIT.c **** *  None.
 547:Generated_Source\PSoC4/ADC_EIT.c **** *
 548:Generated_Source\PSoC4/ADC_EIT.c **** *******************************************************************************/
 549:Generated_Source\PSoC4/ADC_EIT.c **** void ADC_EIT_SetChanMask(uint32 mask)
 550:Generated_Source\PSoC4/ADC_EIT.c **** {
 570              		.loc 1 550 0
 571              		.cfi_startproc
 572              		@ args = 0, pretend = 0, frame = 0
 573              		@ frame_needed = 0, uses_anonymous_args = 0
 574              		@ link register save eliminated.
 575              	.LVL42:
 551:Generated_Source\PSoC4/ADC_EIT.c ****     ADC_EIT_SAR_CHAN_EN_REG = mask & ADC_EIT_MAX_CHANNELS_EN_MASK;
 576              		.loc 1 551 0
 577 0000 0323     		movs	r3, #3
ARM GAS  C:\Users\jj-ay\AppData\Local\Temp\ccQGuNdx.s 			page 21


 578 0002 1840     		ands	r0, r3
 579              	.LVL43:
 580 0004 014B     		ldr	r3, .L45
 581 0006 1860     		str	r0, [r3]
 552:Generated_Source\PSoC4/ADC_EIT.c **** }
 582              		.loc 1 552 0
 583              		@ sp needed
 584 0008 7047     		bx	lr
 585              	.L46:
 586 000a C046     		.align	2
 587              	.L45:
 588 000c 20001A40 		.word	1075445792
 589              		.cfi_endproc
 590              	.LFE8:
 591              		.size	ADC_EIT_SetChanMask, .-ADC_EIT_SetChanMask
 592              		.section	.text.ADC_EIT_SetLowLimit,"ax",%progbits
 593              		.align	2
 594              		.global	ADC_EIT_SetLowLimit
 595              		.code	16
 596              		.thumb_func
 597              		.type	ADC_EIT_SetLowLimit, %function
 598              	ADC_EIT_SetLowLimit:
 599              	.LFB9:
 553:Generated_Source\PSoC4/ADC_EIT.c **** 
 554:Generated_Source\PSoC4/ADC_EIT.c **** #if(ADC_EIT_INJ_CHANNEL_ENABLED)
 555:Generated_Source\PSoC4/ADC_EIT.c **** 
 556:Generated_Source\PSoC4/ADC_EIT.c **** 
 557:Generated_Source\PSoC4/ADC_EIT.c ****     /*******************************************************************************
 558:Generated_Source\PSoC4/ADC_EIT.c ****     * Function Name: ADC_EIT_EnableInjection
 559:Generated_Source\PSoC4/ADC_EIT.c ****     ********************************************************************************
 560:Generated_Source\PSoC4/ADC_EIT.c ****     *
 561:Generated_Source\PSoC4/ADC_EIT.c ****     * Summary:
 562:Generated_Source\PSoC4/ADC_EIT.c ****     *  Enables the injection channel for the next scan only.
 563:Generated_Source\PSoC4/ADC_EIT.c ****     *
 564:Generated_Source\PSoC4/ADC_EIT.c ****     * Parameters:
 565:Generated_Source\PSoC4/ADC_EIT.c ****     *  None.
 566:Generated_Source\PSoC4/ADC_EIT.c ****     *
 567:Generated_Source\PSoC4/ADC_EIT.c ****     * Return:
 568:Generated_Source\PSoC4/ADC_EIT.c ****     *  None.
 569:Generated_Source\PSoC4/ADC_EIT.c ****     *
 570:Generated_Source\PSoC4/ADC_EIT.c ****     *******************************************************************************/
 571:Generated_Source\PSoC4/ADC_EIT.c ****     void ADC_EIT_EnableInjection(void)
 572:Generated_Source\PSoC4/ADC_EIT.c ****     {
 573:Generated_Source\PSoC4/ADC_EIT.c ****         ADC_EIT_SAR_INJ_CHAN_CONFIG_REG |= ADC_EIT_INJ_CHAN_EN;
 574:Generated_Source\PSoC4/ADC_EIT.c ****     }
 575:Generated_Source\PSoC4/ADC_EIT.c **** 
 576:Generated_Source\PSoC4/ADC_EIT.c **** #endif /* ADC_EIT_INJ_CHANNEL_ENABLED */
 577:Generated_Source\PSoC4/ADC_EIT.c **** 
 578:Generated_Source\PSoC4/ADC_EIT.c **** 
 579:Generated_Source\PSoC4/ADC_EIT.c **** /*******************************************************************************
 580:Generated_Source\PSoC4/ADC_EIT.c **** * Function Name: ADC_EIT_SetLowLimit
 581:Generated_Source\PSoC4/ADC_EIT.c **** ********************************************************************************
 582:Generated_Source\PSoC4/ADC_EIT.c **** *
 583:Generated_Source\PSoC4/ADC_EIT.c **** * Summary:
 584:Generated_Source\PSoC4/ADC_EIT.c **** *  Sets the low limit parameter for a limit condition.
 585:Generated_Source\PSoC4/ADC_EIT.c **** *
 586:Generated_Source\PSoC4/ADC_EIT.c **** * Parameters:
ARM GAS  C:\Users\jj-ay\AppData\Local\Temp\ccQGuNdx.s 			page 22


 587:Generated_Source\PSoC4/ADC_EIT.c **** *  lowLimit: The low limit for a limit condition.
 588:Generated_Source\PSoC4/ADC_EIT.c **** *
 589:Generated_Source\PSoC4/ADC_EIT.c **** * Return:
 590:Generated_Source\PSoC4/ADC_EIT.c **** *  None.
 591:Generated_Source\PSoC4/ADC_EIT.c **** *
 592:Generated_Source\PSoC4/ADC_EIT.c **** *******************************************************************************/
 593:Generated_Source\PSoC4/ADC_EIT.c **** void ADC_EIT_SetLowLimit(uint32 lowLimit)
 594:Generated_Source\PSoC4/ADC_EIT.c **** {
 600              		.loc 1 594 0
 601              		.cfi_startproc
 602              		@ args = 0, pretend = 0, frame = 0
 603              		@ frame_needed = 0, uses_anonymous_args = 0
 604              		@ link register save eliminated.
 605              	.LVL44:
 595:Generated_Source\PSoC4/ADC_EIT.c ****     ADC_EIT_SAR_RANGE_THRES_REG &= (uint32)(~ADC_EIT_RANGE_LOW_MASK);
 606              		.loc 1 595 0
 607 0000 054A     		ldr	r2, .L48
 608 0002 1368     		ldr	r3, [r2]
 609 0004 1B0C     		lsrs	r3, r3, #16
 610 0006 1B04     		lsls	r3, r3, #16
 611 0008 1360     		str	r3, [r2]
 596:Generated_Source\PSoC4/ADC_EIT.c ****     ADC_EIT_SAR_RANGE_THRES_REG |= lowLimit & ADC_EIT_RANGE_LOW_MASK;
 612              		.loc 1 596 0
 613 000a 1368     		ldr	r3, [r2]
 614 000c 0004     		lsls	r0, r0, #16
 615              	.LVL45:
 616 000e 000C     		lsrs	r0, r0, #16
 617 0010 1843     		orrs	r0, r3
 618 0012 1060     		str	r0, [r2]
 597:Generated_Source\PSoC4/ADC_EIT.c **** }
 619              		.loc 1 597 0
 620              		@ sp needed
 621 0014 7047     		bx	lr
 622              	.L49:
 623 0016 C046     		.align	2
 624              	.L48:
 625 0018 18001A40 		.word	1075445784
 626              		.cfi_endproc
 627              	.LFE9:
 628              		.size	ADC_EIT_SetLowLimit, .-ADC_EIT_SetLowLimit
 629              		.section	.text.ADC_EIT_SetHighLimit,"ax",%progbits
 630              		.align	2
 631              		.global	ADC_EIT_SetHighLimit
 632              		.code	16
 633              		.thumb_func
 634              		.type	ADC_EIT_SetHighLimit, %function
 635              	ADC_EIT_SetHighLimit:
 636              	.LFB10:
 598:Generated_Source\PSoC4/ADC_EIT.c **** 
 599:Generated_Source\PSoC4/ADC_EIT.c **** 
 600:Generated_Source\PSoC4/ADC_EIT.c **** /*******************************************************************************
 601:Generated_Source\PSoC4/ADC_EIT.c **** * Function Name: ADC_EIT_SetHighLimit
 602:Generated_Source\PSoC4/ADC_EIT.c **** ********************************************************************************
 603:Generated_Source\PSoC4/ADC_EIT.c **** *
 604:Generated_Source\PSoC4/ADC_EIT.c **** * Summary:
 605:Generated_Source\PSoC4/ADC_EIT.c **** *  Sets the low limit parameter for a limit condition.
 606:Generated_Source\PSoC4/ADC_EIT.c **** *
ARM GAS  C:\Users\jj-ay\AppData\Local\Temp\ccQGuNdx.s 			page 23


 607:Generated_Source\PSoC4/ADC_EIT.c **** * Parameters:
 608:Generated_Source\PSoC4/ADC_EIT.c **** *  highLimit: The high limit for a limit condition.
 609:Generated_Source\PSoC4/ADC_EIT.c **** *
 610:Generated_Source\PSoC4/ADC_EIT.c **** * Return:
 611:Generated_Source\PSoC4/ADC_EIT.c **** *  None.
 612:Generated_Source\PSoC4/ADC_EIT.c **** *
 613:Generated_Source\PSoC4/ADC_EIT.c **** *******************************************************************************/
 614:Generated_Source\PSoC4/ADC_EIT.c **** void ADC_EIT_SetHighLimit(uint32 highLimit)
 615:Generated_Source\PSoC4/ADC_EIT.c **** {
 637              		.loc 1 615 0
 638              		.cfi_startproc
 639              		@ args = 0, pretend = 0, frame = 0
 640              		@ frame_needed = 0, uses_anonymous_args = 0
 641              		@ link register save eliminated.
 642              	.LVL46:
 616:Generated_Source\PSoC4/ADC_EIT.c ****     ADC_EIT_SAR_RANGE_THRES_REG &= (uint32)(~ADC_EIT_RANGE_HIGH_MASK);
 643              		.loc 1 616 0
 644 0000 044A     		ldr	r2, .L51
 645 0002 1368     		ldr	r3, [r2]
 646 0004 1B04     		lsls	r3, r3, #16
 647 0006 1B0C     		lsrs	r3, r3, #16
 648 0008 1360     		str	r3, [r2]
 617:Generated_Source\PSoC4/ADC_EIT.c ****     ADC_EIT_SAR_RANGE_THRES_REG |= (uint32)(highLimit << ADC_EIT_RANGE_HIGH_OFFSET);
 649              		.loc 1 617 0
 650 000a 1368     		ldr	r3, [r2]
 651 000c 0004     		lsls	r0, r0, #16
 652              	.LVL47:
 653 000e 1843     		orrs	r0, r3
 654 0010 1060     		str	r0, [r2]
 618:Generated_Source\PSoC4/ADC_EIT.c **** }
 655              		.loc 1 618 0
 656              		@ sp needed
 657 0012 7047     		bx	lr
 658              	.L52:
 659              		.align	2
 660              	.L51:
 661 0014 18001A40 		.word	1075445784
 662              		.cfi_endproc
 663              	.LFE10:
 664              		.size	ADC_EIT_SetHighLimit, .-ADC_EIT_SetHighLimit
 665              		.section	.text.ADC_EIT_SetLimitMask,"ax",%progbits
 666              		.align	2
 667              		.global	ADC_EIT_SetLimitMask
 668              		.code	16
 669              		.thumb_func
 670              		.type	ADC_EIT_SetLimitMask, %function
 671              	ADC_EIT_SetLimitMask:
 672              	.LFB11:
 619:Generated_Source\PSoC4/ADC_EIT.c **** 
 620:Generated_Source\PSoC4/ADC_EIT.c **** 
 621:Generated_Source\PSoC4/ADC_EIT.c **** /*******************************************************************************
 622:Generated_Source\PSoC4/ADC_EIT.c **** * Function Name: ADC_EIT_SetLimitMask
 623:Generated_Source\PSoC4/ADC_EIT.c **** ********************************************************************************
 624:Generated_Source\PSoC4/ADC_EIT.c **** *
 625:Generated_Source\PSoC4/ADC_EIT.c **** * Summary:
 626:Generated_Source\PSoC4/ADC_EIT.c **** *  Sets the channel limit condition mask.
 627:Generated_Source\PSoC4/ADC_EIT.c **** *
ARM GAS  C:\Users\jj-ay\AppData\Local\Temp\ccQGuNdx.s 			page 24


 628:Generated_Source\PSoC4/ADC_EIT.c **** * Parameters:
 629:Generated_Source\PSoC4/ADC_EIT.c **** *  mask: Sets which channels that may cause a
 630:Generated_Source\PSoC4/ADC_EIT.c **** *  limit condition interrupt. Setting bits for channels that do not exist
 631:Generated_Source\PSoC4/ADC_EIT.c **** *  will have no effect. For example, if only 6 channels were enabled,
 632:Generated_Source\PSoC4/ADC_EIT.c **** *  setting a mask of 0x0103 would only enable the last two channels (0 and 1).
 633:Generated_Source\PSoC4/ADC_EIT.c **** *
 634:Generated_Source\PSoC4/ADC_EIT.c **** * Return:
 635:Generated_Source\PSoC4/ADC_EIT.c **** *  None.
 636:Generated_Source\PSoC4/ADC_EIT.c **** *
 637:Generated_Source\PSoC4/ADC_EIT.c **** *******************************************************************************/
 638:Generated_Source\PSoC4/ADC_EIT.c **** void ADC_EIT_SetLimitMask(uint32 mask)
 639:Generated_Source\PSoC4/ADC_EIT.c **** {
 673              		.loc 1 639 0
 674              		.cfi_startproc
 675              		@ args = 0, pretend = 0, frame = 0
 676              		@ frame_needed = 0, uses_anonymous_args = 0
 677              		@ link register save eliminated.
 678              	.LVL48:
 640:Generated_Source\PSoC4/ADC_EIT.c ****     ADC_EIT_SAR_RANGE_INTR_MASK_REG = mask & ADC_EIT_MAX_CHANNELS_EN_MASK;
 679              		.loc 1 640 0
 680 0000 0323     		movs	r3, #3
 681 0002 1840     		ands	r0, r3
 682              	.LVL49:
 683 0004 014B     		ldr	r3, .L54
 684 0006 1860     		str	r0, [r3]
 641:Generated_Source\PSoC4/ADC_EIT.c **** }
 685              		.loc 1 641 0
 686              		@ sp needed
 687 0008 7047     		bx	lr
 688              	.L55:
 689 000a C046     		.align	2
 690              	.L54:
 691 000c 38021A40 		.word	1075446328
 692              		.cfi_endproc
 693              	.LFE11:
 694              		.size	ADC_EIT_SetLimitMask, .-ADC_EIT_SetLimitMask
 695              		.section	.text.ADC_EIT_SetSatMask,"ax",%progbits
 696              		.align	2
 697              		.global	ADC_EIT_SetSatMask
 698              		.code	16
 699              		.thumb_func
 700              		.type	ADC_EIT_SetSatMask, %function
 701              	ADC_EIT_SetSatMask:
 702              	.LFB12:
 642:Generated_Source\PSoC4/ADC_EIT.c **** 
 643:Generated_Source\PSoC4/ADC_EIT.c **** 
 644:Generated_Source\PSoC4/ADC_EIT.c **** /*******************************************************************************
 645:Generated_Source\PSoC4/ADC_EIT.c **** * Function Name: ADC_EIT_SetSatMask
 646:Generated_Source\PSoC4/ADC_EIT.c **** ********************************************************************************
 647:Generated_Source\PSoC4/ADC_EIT.c **** *
 648:Generated_Source\PSoC4/ADC_EIT.c **** * Summary:
 649:Generated_Source\PSoC4/ADC_EIT.c **** *  Sets the channel saturation event mask.
 650:Generated_Source\PSoC4/ADC_EIT.c **** *
 651:Generated_Source\PSoC4/ADC_EIT.c **** * Parameters:
 652:Generated_Source\PSoC4/ADC_EIT.c **** *  mask: Sets which channels that may cause a
 653:Generated_Source\PSoC4/ADC_EIT.c **** *  saturation event interrupt. Setting bits for channels that do not exist
 654:Generated_Source\PSoC4/ADC_EIT.c **** *  will have no effect. For example, if only 8 channels were enabled,
ARM GAS  C:\Users\jj-ay\AppData\Local\Temp\ccQGuNdx.s 			page 25


 655:Generated_Source\PSoC4/ADC_EIT.c **** *  setting a mask of 0x01C0 would only enable two channels (6 and 7).
 656:Generated_Source\PSoC4/ADC_EIT.c **** *
 657:Generated_Source\PSoC4/ADC_EIT.c **** * Return:
 658:Generated_Source\PSoC4/ADC_EIT.c **** *  None.
 659:Generated_Source\PSoC4/ADC_EIT.c **** *
 660:Generated_Source\PSoC4/ADC_EIT.c **** *******************************************************************************/
 661:Generated_Source\PSoC4/ADC_EIT.c **** void ADC_EIT_SetSatMask(uint32 mask)
 662:Generated_Source\PSoC4/ADC_EIT.c **** {
 703              		.loc 1 662 0
 704              		.cfi_startproc
 705              		@ args = 0, pretend = 0, frame = 0
 706              		@ frame_needed = 0, uses_anonymous_args = 0
 707              		@ link register save eliminated.
 708              	.LVL50:
 663:Generated_Source\PSoC4/ADC_EIT.c ****     ADC_EIT_SAR_SATURATE_INTR_MASK_REG = mask & ADC_EIT_MAX_CHANNELS_EN_MASK;
 709              		.loc 1 663 0
 710 0000 0323     		movs	r3, #3
 711 0002 1840     		ands	r0, r3
 712              	.LVL51:
 713 0004 014B     		ldr	r3, .L57
 714 0006 1860     		str	r0, [r3]
 664:Generated_Source\PSoC4/ADC_EIT.c **** }
 715              		.loc 1 664 0
 716              		@ sp needed
 717 0008 7047     		bx	lr
 718              	.L58:
 719 000a C046     		.align	2
 720              	.L57:
 721 000c 28021A40 		.word	1075446312
 722              		.cfi_endproc
 723              	.LFE12:
 724              		.size	ADC_EIT_SetSatMask, .-ADC_EIT_SetSatMask
 725              		.section	.text.ADC_EIT_SetOffset,"ax",%progbits
 726              		.align	2
 727              		.global	ADC_EIT_SetOffset
 728              		.code	16
 729              		.thumb_func
 730              		.type	ADC_EIT_SetOffset, %function
 731              	ADC_EIT_SetOffset:
 732              	.LFB13:
 665:Generated_Source\PSoC4/ADC_EIT.c **** 
 666:Generated_Source\PSoC4/ADC_EIT.c **** 
 667:Generated_Source\PSoC4/ADC_EIT.c **** /*******************************************************************************
 668:Generated_Source\PSoC4/ADC_EIT.c **** * Function Name: ADC_EIT_SetOffset
 669:Generated_Source\PSoC4/ADC_EIT.c **** ********************************************************************************
 670:Generated_Source\PSoC4/ADC_EIT.c **** *
 671:Generated_Source\PSoC4/ADC_EIT.c **** * Summary:
 672:Generated_Source\PSoC4/ADC_EIT.c **** *   Description: Sets the ADC offset which is used by the functions
 673:Generated_Source\PSoC4/ADC_EIT.c **** *   ADC_CountsTo_uVolts, ADC_CountsTo_mVolts and ADC_CountsTo_Volts
 674:Generated_Source\PSoC4/ADC_EIT.c **** *   to substract the offset from the given reading
 675:Generated_Source\PSoC4/ADC_EIT.c **** *   before calculating the voltage conversion.
 676:Generated_Source\PSoC4/ADC_EIT.c **** *
 677:Generated_Source\PSoC4/ADC_EIT.c **** * Parameters:
 678:Generated_Source\PSoC4/ADC_EIT.c **** *  chan: ADC channel number.
 679:Generated_Source\PSoC4/ADC_EIT.c **** *  offset: This value is a measured value when the
 680:Generated_Source\PSoC4/ADC_EIT.c **** *          inputs are shorted or connected to the same input voltage.
 681:Generated_Source\PSoC4/ADC_EIT.c **** *
ARM GAS  C:\Users\jj-ay\AppData\Local\Temp\ccQGuNdx.s 			page 26


 682:Generated_Source\PSoC4/ADC_EIT.c **** * Return:
 683:Generated_Source\PSoC4/ADC_EIT.c **** *  None.
 684:Generated_Source\PSoC4/ADC_EIT.c **** *
 685:Generated_Source\PSoC4/ADC_EIT.c **** * Global variables:
 686:Generated_Source\PSoC4/ADC_EIT.c **** *  ADC_EIT_Offset:  Modified to set the user provided offset.
 687:Generated_Source\PSoC4/ADC_EIT.c **** *
 688:Generated_Source\PSoC4/ADC_EIT.c **** *******************************************************************************/
 689:Generated_Source\PSoC4/ADC_EIT.c **** void ADC_EIT_SetOffset(uint32 chan, int16 offset)
 690:Generated_Source\PSoC4/ADC_EIT.c **** {
 733              		.loc 1 690 0
 734              		.cfi_startproc
 735              		@ args = 0, pretend = 0, frame = 0
 736              		@ frame_needed = 0, uses_anonymous_args = 0
 737              	.LVL52:
 738 0000 70B5     		push	{r4, r5, r6, lr}
 739              		.cfi_def_cfa_offset 16
 740              		.cfi_offset 4, -16
 741              		.cfi_offset 5, -12
 742              		.cfi_offset 6, -8
 743              		.cfi_offset 14, -4
 744 0002 0400     		movs	r4, r0
 745 0004 0D00     		movs	r5, r1
 691:Generated_Source\PSoC4/ADC_EIT.c ****     /* Halt CPU in debug mode if channel is out of valid range */
 692:Generated_Source\PSoC4/ADC_EIT.c ****     CYASSERT(chan < ADC_EIT_TOTAL_CHANNELS_NUM);
 746              		.loc 1 692 0
 747 0006 0128     		cmp	r0, #1
 748 0008 02D9     		bls	.L60
 749              		.loc 1 692 0 is_stmt 0 discriminator 1
 750 000a 0020     		movs	r0, #0
 751              	.LVL53:
 752 000c FFF7FEFF 		bl	CyHalt
 753              	.LVL54:
 754              	.L60:
 693:Generated_Source\PSoC4/ADC_EIT.c **** 
 694:Generated_Source\PSoC4/ADC_EIT.c ****     ADC_EIT_offset[chan] = offset;
 755              		.loc 1 694 0 is_stmt 1
 756 0010 6400     		lsls	r4, r4, #1
 757              	.LVL55:
 758 0012 014B     		ldr	r3, .L61
 759 0014 E552     		strh	r5, [r4, r3]
 695:Generated_Source\PSoC4/ADC_EIT.c **** }
 760              		.loc 1 695 0
 761              		@ sp needed
 762 0016 70BD     		pop	{r4, r5, r6, pc}
 763              	.L62:
 764              		.align	2
 765              	.L61:
 766 0018 00000000 		.word	ADC_EIT_offset
 767              		.cfi_endproc
 768              	.LFE13:
 769              		.size	ADC_EIT_SetOffset, .-ADC_EIT_SetOffset
 770              		.section	.text.ADC_EIT_SetGain,"ax",%progbits
 771              		.align	2
 772              		.global	ADC_EIT_SetGain
 773              		.code	16
 774              		.thumb_func
 775              		.type	ADC_EIT_SetGain, %function
ARM GAS  C:\Users\jj-ay\AppData\Local\Temp\ccQGuNdx.s 			page 27


 776              	ADC_EIT_SetGain:
 777              	.LFB14:
 696:Generated_Source\PSoC4/ADC_EIT.c **** 
 697:Generated_Source\PSoC4/ADC_EIT.c **** 
 698:Generated_Source\PSoC4/ADC_EIT.c **** /*******************************************************************************
 699:Generated_Source\PSoC4/ADC_EIT.c **** * Function Name: ADC_EIT_SetGain
 700:Generated_Source\PSoC4/ADC_EIT.c **** ********************************************************************************
 701:Generated_Source\PSoC4/ADC_EIT.c **** *
 702:Generated_Source\PSoC4/ADC_EIT.c **** * Summary:
 703:Generated_Source\PSoC4/ADC_EIT.c **** *  Description: Sets the ADC gain in counts per 10 volt for the voltage
 704:Generated_Source\PSoC4/ADC_EIT.c **** *  conversion functions below. This value is set by default by the
 705:Generated_Source\PSoC4/ADC_EIT.c **** *  reference and input range settings. It should only be used to further
 706:Generated_Source\PSoC4/ADC_EIT.c **** *  calibrate the ADC with a known input or if an external reference is
 707:Generated_Source\PSoC4/ADC_EIT.c **** *  used. Affects the ADC_CountsTo_uVolts, ADC_CountsTo_mVolts
 708:Generated_Source\PSoC4/ADC_EIT.c **** *  and ADC_CountsTo_Volts functions by supplying the correct
 709:Generated_Source\PSoC4/ADC_EIT.c **** *  conversion between ADC counts and voltage.
 710:Generated_Source\PSoC4/ADC_EIT.c **** *
 711:Generated_Source\PSoC4/ADC_EIT.c **** * Parameters:
 712:Generated_Source\PSoC4/ADC_EIT.c **** *  chan: ADC channel number.
 713:Generated_Source\PSoC4/ADC_EIT.c **** *  adcGain: ADC gain in counts per 10 volts.
 714:Generated_Source\PSoC4/ADC_EIT.c **** *
 715:Generated_Source\PSoC4/ADC_EIT.c **** * Return:
 716:Generated_Source\PSoC4/ADC_EIT.c **** *  None.
 717:Generated_Source\PSoC4/ADC_EIT.c **** *
 718:Generated_Source\PSoC4/ADC_EIT.c **** * Global variables:
 719:Generated_Source\PSoC4/ADC_EIT.c **** *  ADC_EIT_CountsPer10Volt:  modified to set the ADC gain in counts
 720:Generated_Source\PSoC4/ADC_EIT.c **** *   per 10 volt.
 721:Generated_Source\PSoC4/ADC_EIT.c **** *
 722:Generated_Source\PSoC4/ADC_EIT.c **** *******************************************************************************/
 723:Generated_Source\PSoC4/ADC_EIT.c **** void ADC_EIT_SetGain(uint32 chan, int32 adcGain)
 724:Generated_Source\PSoC4/ADC_EIT.c **** {
 778              		.loc 1 724 0
 779              		.cfi_startproc
 780              		@ args = 0, pretend = 0, frame = 0
 781              		@ frame_needed = 0, uses_anonymous_args = 0
 782              	.LVL56:
 783 0000 70B5     		push	{r4, r5, r6, lr}
 784              		.cfi_def_cfa_offset 16
 785              		.cfi_offset 4, -16
 786              		.cfi_offset 5, -12
 787              		.cfi_offset 6, -8
 788              		.cfi_offset 14, -4
 789 0002 0400     		movs	r4, r0
 790 0004 0D00     		movs	r5, r1
 725:Generated_Source\PSoC4/ADC_EIT.c ****     /* Halt CPU in debug mode if channel is out of valid range */
 726:Generated_Source\PSoC4/ADC_EIT.c ****     CYASSERT(chan < ADC_EIT_TOTAL_CHANNELS_NUM);
 791              		.loc 1 726 0
 792 0006 0128     		cmp	r0, #1
 793 0008 02D9     		bls	.L64
 794              		.loc 1 726 0 is_stmt 0 discriminator 1
 795 000a 0020     		movs	r0, #0
 796              	.LVL57:
 797 000c FFF7FEFF 		bl	CyHalt
 798              	.LVL58:
 799              	.L64:
 727:Generated_Source\PSoC4/ADC_EIT.c **** 
 728:Generated_Source\PSoC4/ADC_EIT.c ****     ADC_EIT_countsPer10Volt[chan] = adcGain;
ARM GAS  C:\Users\jj-ay\AppData\Local\Temp\ccQGuNdx.s 			page 28


 800              		.loc 1 728 0 is_stmt 1
 801 0010 A400     		lsls	r4, r4, #2
 802              	.LVL59:
 803 0012 014B     		ldr	r3, .L65
 804 0014 E550     		str	r5, [r4, r3]
 729:Generated_Source\PSoC4/ADC_EIT.c **** }
 805              		.loc 1 729 0
 806              		@ sp needed
 807              	.LVL60:
 808 0016 70BD     		pop	{r4, r5, r6, pc}
 809              	.L66:
 810              		.align	2
 811              	.L65:
 812 0018 00000000 		.word	ADC_EIT_countsPer10Volt
 813              		.cfi_endproc
 814              	.LFE14:
 815              		.size	ADC_EIT_SetGain, .-ADC_EIT_SetGain
 816              		.section	.text.ADC_EIT_CountsTo_mVolts,"ax",%progbits
 817              		.align	2
 818              		.global	ADC_EIT_CountsTo_mVolts
 819              		.code	16
 820              		.thumb_func
 821              		.type	ADC_EIT_CountsTo_mVolts, %function
 822              	ADC_EIT_CountsTo_mVolts:
 823              	.LFB15:
 730:Generated_Source\PSoC4/ADC_EIT.c **** 
 731:Generated_Source\PSoC4/ADC_EIT.c **** 
 732:Generated_Source\PSoC4/ADC_EIT.c **** #if(ADC_EIT_DEFAULT_JUSTIFICATION_SEL == ADC_EIT__RIGHT)
 733:Generated_Source\PSoC4/ADC_EIT.c **** 
 734:Generated_Source\PSoC4/ADC_EIT.c **** 
 735:Generated_Source\PSoC4/ADC_EIT.c ****     /*******************************************************************************
 736:Generated_Source\PSoC4/ADC_EIT.c ****     * Function Name: ADC_EIT_CountsTo_mVolts
 737:Generated_Source\PSoC4/ADC_EIT.c ****     ********************************************************************************
 738:Generated_Source\PSoC4/ADC_EIT.c ****     *
 739:Generated_Source\PSoC4/ADC_EIT.c ****     * Summary:
 740:Generated_Source\PSoC4/ADC_EIT.c ****     *  This function converts ADC counts to mVolts
 741:Generated_Source\PSoC4/ADC_EIT.c ****     *  This function is not available when left data format justification selected.
 742:Generated_Source\PSoC4/ADC_EIT.c ****     *
 743:Generated_Source\PSoC4/ADC_EIT.c ****     * Parameters:
 744:Generated_Source\PSoC4/ADC_EIT.c ****     *  chan: The ADC channel number.
 745:Generated_Source\PSoC4/ADC_EIT.c ****     *  adcCounts: Result from the ADC conversion
 746:Generated_Source\PSoC4/ADC_EIT.c ****     *
 747:Generated_Source\PSoC4/ADC_EIT.c ****     * Return:
 748:Generated_Source\PSoC4/ADC_EIT.c ****     *  Results in mVolts
 749:Generated_Source\PSoC4/ADC_EIT.c ****     *
 750:Generated_Source\PSoC4/ADC_EIT.c ****     * Global variables:
 751:Generated_Source\PSoC4/ADC_EIT.c ****     *  ADC_EIT_countsPer10Volt:  used to convert ADC counts to mVolts.
 752:Generated_Source\PSoC4/ADC_EIT.c ****     *  ADC_EIT_Offset:  Used as the offset while converting ADC counts
 753:Generated_Source\PSoC4/ADC_EIT.c ****     *   to mVolts.
 754:Generated_Source\PSoC4/ADC_EIT.c ****     *
 755:Generated_Source\PSoC4/ADC_EIT.c ****     *******************************************************************************/
 756:Generated_Source\PSoC4/ADC_EIT.c ****     int16 ADC_EIT_CountsTo_mVolts(uint32 chan, int16 adcCounts)
 757:Generated_Source\PSoC4/ADC_EIT.c ****     {
 824              		.loc 1 757 0
 825              		.cfi_startproc
 826              		@ args = 0, pretend = 0, frame = 0
 827              		@ frame_needed = 0, uses_anonymous_args = 0
ARM GAS  C:\Users\jj-ay\AppData\Local\Temp\ccQGuNdx.s 			page 29


 828              	.LVL61:
 829 0000 70B5     		push	{r4, r5, r6, lr}
 830              		.cfi_def_cfa_offset 16
 831              		.cfi_offset 4, -16
 832              		.cfi_offset 5, -12
 833              		.cfi_offset 6, -8
 834              		.cfi_offset 14, -4
 835 0002 0400     		movs	r4, r0
 836 0004 0D00     		movs	r5, r1
 758:Generated_Source\PSoC4/ADC_EIT.c ****         int16 mVolts;
 759:Generated_Source\PSoC4/ADC_EIT.c **** 
 760:Generated_Source\PSoC4/ADC_EIT.c ****         /* Halt CPU in debug mode if channel is out of valid range */
 761:Generated_Source\PSoC4/ADC_EIT.c ****         CYASSERT(chan < ADC_EIT_TOTAL_CHANNELS_NUM);
 837              		.loc 1 761 0
 838 0006 0128     		cmp	r0, #1
 839 0008 02D9     		bls	.L68
 840              		.loc 1 761 0 is_stmt 0 discriminator 1
 841 000a 0020     		movs	r0, #0
 842              	.LVL62:
 843 000c FFF7FEFF 		bl	CyHalt
 844              	.LVL63:
 845              	.L68:
 762:Generated_Source\PSoC4/ADC_EIT.c **** 
 763:Generated_Source\PSoC4/ADC_EIT.c ****         /* Divide the adcCount when accumulate averaging mode selected */
 764:Generated_Source\PSoC4/ADC_EIT.c ****         #if(ADC_EIT_DEFAULT_AVG_MODE == ADC_EIT__ACCUMULATE)
 765:Generated_Source\PSoC4/ADC_EIT.c ****             if((ADC_EIT_channelsConfig[chan] & ADC_EIT_AVERAGING_EN) != 0u)
 766:Generated_Source\PSoC4/ADC_EIT.c ****             {
 767:Generated_Source\PSoC4/ADC_EIT.c ****                 adcCounts /= ADC_EIT_DEFAULT_AVG_SAMPLES_DIV;
 768:Generated_Source\PSoC4/ADC_EIT.c ****             }
 769:Generated_Source\PSoC4/ADC_EIT.c ****         #endif /* ADC_EIT_DEFAULT_AVG_MODE == ADC_EIT__ACCUMULATE */
 770:Generated_Source\PSoC4/ADC_EIT.c **** 
 771:Generated_Source\PSoC4/ADC_EIT.c ****         /* Subtract ADC offset */
 772:Generated_Source\PSoC4/ADC_EIT.c ****         adcCounts -= ADC_EIT_offset[chan];
 846              		.loc 1 772 0 is_stmt 1
 847 0010 6300     		lsls	r3, r4, #1
 848 0012 0F4A     		ldr	r2, .L71
 849 0014 995A     		ldrh	r1, [r3, r2]
 850 0016 09B2     		sxth	r1, r1
 851 0018 691A     		subs	r1, r5, r1
 852 001a 09B2     		sxth	r1, r1
 853              	.LVL64:
 773:Generated_Source\PSoC4/ADC_EIT.c **** 
 774:Generated_Source\PSoC4/ADC_EIT.c ****         mVolts = (int16)((((int32)adcCounts * ADC_EIT_10MV_COUNTS) + ( (adcCounts > 0) ?
 854              		.loc 1 774 0
 855 001c 0D48     		ldr	r0, .L71+4
 856 001e 4843     		muls	r0, r1
 775:Generated_Source\PSoC4/ADC_EIT.c ****                  (ADC_EIT_countsPer10Volt[chan] / 2) : (-(ADC_EIT_countsPer10Volt[chan] / 2)) ))
 857              		.loc 1 775 0
 858 0020 0029     		cmp	r1, #0
 859 0022 06DD     		ble	.L69
 860              		.loc 1 775 0 is_stmt 0 discriminator 1
 861 0024 A300     		lsls	r3, r4, #2
 862 0026 0C4A     		ldr	r2, .L71+8
 863 0028 9A58     		ldr	r2, [r3, r2]
 864 002a D30F     		lsrs	r3, r2, #31
 865 002c 9A18     		adds	r2, r3, r2
 866 002e 5310     		asrs	r3, r2, #1
ARM GAS  C:\Users\jj-ay\AppData\Local\Temp\ccQGuNdx.s 			page 30


 867 0030 06E0     		b	.L70
 868              	.L69:
 869              		.loc 1 775 0 discriminator 2
 870 0032 A300     		lsls	r3, r4, #2
 871 0034 084A     		ldr	r2, .L71+8
 872 0036 9A58     		ldr	r2, [r3, r2]
 873 0038 D30F     		lsrs	r3, r2, #31
 874 003a 9A18     		adds	r2, r3, r2
 875 003c 5210     		asrs	r2, r2, #1
 876 003e 5342     		rsbs	r3, r2, #0
 877              	.L70:
 774:Generated_Source\PSoC4/ADC_EIT.c ****                  (ADC_EIT_countsPer10Volt[chan] / 2) : (-(ADC_EIT_countsPer10Volt[chan] / 2)) ))
 878              		.loc 1 774 0 is_stmt 1
 879 0040 1818     		adds	r0, r3, r0
 776:Generated_Source\PSoC4/ADC_EIT.c ****                  / ADC_EIT_countsPer10Volt[chan]);
 880              		.loc 1 776 0
 881 0042 A400     		lsls	r4, r4, #2
 882              	.LVL65:
 883 0044 044B     		ldr	r3, .L71+8
 884 0046 E158     		ldr	r1, [r4, r3]
 885              	.LVL66:
 886 0048 FFF7FEFF 		bl	__aeabi_idiv
 887              	.LVL67:
 774:Generated_Source\PSoC4/ADC_EIT.c ****                  (ADC_EIT_countsPer10Volt[chan] / 2) : (-(ADC_EIT_countsPer10Volt[chan] / 2)) ))
 888              		.loc 1 774 0
 889 004c 00B2     		sxth	r0, r0
 890              	.LVL68:
 777:Generated_Source\PSoC4/ADC_EIT.c **** 
 778:Generated_Source\PSoC4/ADC_EIT.c ****         return( mVolts );
 779:Generated_Source\PSoC4/ADC_EIT.c ****     }
 891              		.loc 1 779 0
 892              		@ sp needed
 893 004e 70BD     		pop	{r4, r5, r6, pc}
 894              	.L72:
 895              		.align	2
 896              	.L71:
 897 0050 00000000 		.word	ADC_EIT_offset
 898 0054 10270000 		.word	10000
 899 0058 00000000 		.word	ADC_EIT_countsPer10Volt
 900              		.cfi_endproc
 901              	.LFE15:
 902              		.size	ADC_EIT_CountsTo_mVolts, .-ADC_EIT_CountsTo_mVolts
 903              		.global	__aeabi_lmul
 904              		.global	__aeabi_ldivmod
 905              		.section	.text.ADC_EIT_CountsTo_uVolts,"ax",%progbits
 906              		.align	2
 907              		.global	ADC_EIT_CountsTo_uVolts
 908              		.code	16
 909              		.thumb_func
 910              		.type	ADC_EIT_CountsTo_uVolts, %function
 911              	ADC_EIT_CountsTo_uVolts:
 912              	.LFB16:
 780:Generated_Source\PSoC4/ADC_EIT.c **** 
 781:Generated_Source\PSoC4/ADC_EIT.c **** 
 782:Generated_Source\PSoC4/ADC_EIT.c ****     /*******************************************************************************
 783:Generated_Source\PSoC4/ADC_EIT.c ****     * Function Name: ADC_EIT_CountsTo_uVolts
 784:Generated_Source\PSoC4/ADC_EIT.c ****     ********************************************************************************
ARM GAS  C:\Users\jj-ay\AppData\Local\Temp\ccQGuNdx.s 			page 31


 785:Generated_Source\PSoC4/ADC_EIT.c ****     *
 786:Generated_Source\PSoC4/ADC_EIT.c ****     * Summary:
 787:Generated_Source\PSoC4/ADC_EIT.c ****     *  This function converts ADC counts to micro Volts
 788:Generated_Source\PSoC4/ADC_EIT.c ****     *  This function is not available when left data format justification selected.
 789:Generated_Source\PSoC4/ADC_EIT.c ****     *
 790:Generated_Source\PSoC4/ADC_EIT.c ****     * Parameters:
 791:Generated_Source\PSoC4/ADC_EIT.c ****     *  chan: The ADC channel number.
 792:Generated_Source\PSoC4/ADC_EIT.c ****     *  adcCounts: Result from the ADC conversion
 793:Generated_Source\PSoC4/ADC_EIT.c ****     *
 794:Generated_Source\PSoC4/ADC_EIT.c ****     * Return:
 795:Generated_Source\PSoC4/ADC_EIT.c ****     *  Results in uVolts
 796:Generated_Source\PSoC4/ADC_EIT.c ****     *
 797:Generated_Source\PSoC4/ADC_EIT.c ****     * Global variables:
 798:Generated_Source\PSoC4/ADC_EIT.c ****     *  ADC_EIT_countsPer10Volt:  used to convert ADC counts to uVolts.
 799:Generated_Source\PSoC4/ADC_EIT.c ****     *  ADC_EIT_Offset:  Used as the offset while converting ADC counts
 800:Generated_Source\PSoC4/ADC_EIT.c ****     *   to mVolts.
 801:Generated_Source\PSoC4/ADC_EIT.c ****     *
 802:Generated_Source\PSoC4/ADC_EIT.c ****     * Theory:
 803:Generated_Source\PSoC4/ADC_EIT.c ****     *  Care must be taken to not exceed the maximum value for a 31 bit signed
 804:Generated_Source\PSoC4/ADC_EIT.c ****     *  number in the conversion to uVolts and at the same time not loose
 805:Generated_Source\PSoC4/ADC_EIT.c ****     *  resolution.
 806:Generated_Source\PSoC4/ADC_EIT.c ****     *  To convert adcCounts to microVolts it is required to be multiplied
 807:Generated_Source\PSoC4/ADC_EIT.c ****     *  on 10 million and later divide on gain in counts per 10V.
 808:Generated_Source\PSoC4/ADC_EIT.c ****     *
 809:Generated_Source\PSoC4/ADC_EIT.c ****     *******************************************************************************/
 810:Generated_Source\PSoC4/ADC_EIT.c ****     int32 ADC_EIT_CountsTo_uVolts(uint32 chan, int16 adcCounts)
 811:Generated_Source\PSoC4/ADC_EIT.c ****     {
 913              		.loc 1 811 0
 914              		.cfi_startproc
 915              		@ args = 0, pretend = 0, frame = 0
 916              		@ frame_needed = 0, uses_anonymous_args = 0
 917              	.LVL69:
 918 0000 70B5     		push	{r4, r5, r6, lr}
 919              		.cfi_def_cfa_offset 16
 920              		.cfi_offset 4, -16
 921              		.cfi_offset 5, -12
 922              		.cfi_offset 6, -8
 923              		.cfi_offset 14, -4
 924 0002 0500     		movs	r5, r0
 925 0004 0C00     		movs	r4, r1
 812:Generated_Source\PSoC4/ADC_EIT.c ****         int64 uVolts;
 813:Generated_Source\PSoC4/ADC_EIT.c **** 
 814:Generated_Source\PSoC4/ADC_EIT.c ****         /* Halt CPU in debug mode if channel is out of valid range */
 815:Generated_Source\PSoC4/ADC_EIT.c ****         CYASSERT(chan < ADC_EIT_TOTAL_CHANNELS_NUM);
 926              		.loc 1 815 0
 927 0006 0128     		cmp	r0, #1
 928 0008 02D9     		bls	.L74
 929              		.loc 1 815 0 is_stmt 0 discriminator 1
 930 000a 0020     		movs	r0, #0
 931              	.LVL70:
 932 000c FFF7FEFF 		bl	CyHalt
 933              	.LVL71:
 934              	.L74:
 816:Generated_Source\PSoC4/ADC_EIT.c **** 
 817:Generated_Source\PSoC4/ADC_EIT.c ****         /* Divide the adcCount when accumulate averaging mode selected */
 818:Generated_Source\PSoC4/ADC_EIT.c ****         #if(ADC_EIT_DEFAULT_AVG_MODE == ADC_EIT__ACCUMULATE)
 819:Generated_Source\PSoC4/ADC_EIT.c ****             if((ADC_EIT_channelsConfig[chan] & ADC_EIT_AVERAGING_EN) != 0u)
ARM GAS  C:\Users\jj-ay\AppData\Local\Temp\ccQGuNdx.s 			page 32


 820:Generated_Source\PSoC4/ADC_EIT.c ****             {
 821:Generated_Source\PSoC4/ADC_EIT.c ****                 adcCounts /= ADC_EIT_DEFAULT_AVG_SAMPLES_DIV;
 822:Generated_Source\PSoC4/ADC_EIT.c ****             }
 823:Generated_Source\PSoC4/ADC_EIT.c ****         #endif /* ADC_EIT_DEFAULT_AVG_MODE == ADC_EIT__ACCUMULATE */
 824:Generated_Source\PSoC4/ADC_EIT.c **** 
 825:Generated_Source\PSoC4/ADC_EIT.c ****         /* Subtract ADC offset */
 826:Generated_Source\PSoC4/ADC_EIT.c ****         adcCounts -= ADC_EIT_offset[chan];
 935              		.loc 1 826 0 is_stmt 1
 936 0010 6A00     		lsls	r2, r5, #1
 937 0012 084B     		ldr	r3, .L75
 938 0014 D05A     		ldrh	r0, [r2, r3]
 939 0016 00B2     		sxth	r0, r0
 940 0018 201A     		subs	r0, r4, r0
 941 001a 00B2     		sxth	r0, r0
 942              	.LVL72:
 827:Generated_Source\PSoC4/ADC_EIT.c **** 
 828:Generated_Source\PSoC4/ADC_EIT.c ****         uVolts = ((int64)adcCounts * ADC_EIT_10UV_COUNTS) / ADC_EIT_countsPer10Volt[chan];
 943              		.loc 1 828 0
 944 001c C117     		asrs	r1, r0, #31
 945 001e 064A     		ldr	r2, .L75+4
 946 0020 0023     		movs	r3, #0
 947 0022 FFF7FEFF 		bl	__aeabi_lmul
 948              	.LVL73:
 949 0026 AD00     		lsls	r5, r5, #2
 950              	.LVL74:
 951 0028 044B     		ldr	r3, .L75+8
 952 002a EA58     		ldr	r2, [r5, r3]
 953 002c D317     		asrs	r3, r2, #31
 954 002e FFF7FEFF 		bl	__aeabi_ldivmod
 955              	.LVL75:
 829:Generated_Source\PSoC4/ADC_EIT.c **** 
 830:Generated_Source\PSoC4/ADC_EIT.c ****         return( (int32)uVolts );
 831:Generated_Source\PSoC4/ADC_EIT.c ****     }
 956              		.loc 1 831 0
 957              		@ sp needed
 958 0032 70BD     		pop	{r4, r5, r6, pc}
 959              	.L76:
 960              		.align	2
 961              	.L75:
 962 0034 00000000 		.word	ADC_EIT_offset
 963 0038 80969800 		.word	10000000
 964 003c 00000000 		.word	ADC_EIT_countsPer10Volt
 965              		.cfi_endproc
 966              	.LFE16:
 967              		.size	ADC_EIT_CountsTo_uVolts, .-ADC_EIT_CountsTo_uVolts
 968              		.global	__aeabi_i2f
 969              		.global	__aeabi_fmul
 970              		.global	__aeabi_fdiv
 971              		.section	.text.ADC_EIT_CountsTo_Volts,"ax",%progbits
 972              		.align	2
 973              		.global	ADC_EIT_CountsTo_Volts
 974              		.code	16
 975              		.thumb_func
 976              		.type	ADC_EIT_CountsTo_Volts, %function
 977              	ADC_EIT_CountsTo_Volts:
 978              	.LFB17:
 832:Generated_Source\PSoC4/ADC_EIT.c **** 
ARM GAS  C:\Users\jj-ay\AppData\Local\Temp\ccQGuNdx.s 			page 33


 833:Generated_Source\PSoC4/ADC_EIT.c **** 
 834:Generated_Source\PSoC4/ADC_EIT.c ****     /*******************************************************************************
 835:Generated_Source\PSoC4/ADC_EIT.c ****     * Function Name: ADC_EIT_CountsTo_Volts
 836:Generated_Source\PSoC4/ADC_EIT.c ****     ********************************************************************************
 837:Generated_Source\PSoC4/ADC_EIT.c ****     *
 838:Generated_Source\PSoC4/ADC_EIT.c ****     * Summary:
 839:Generated_Source\PSoC4/ADC_EIT.c ****     *  Converts the ADC output to Volts as a floating point number.
 840:Generated_Source\PSoC4/ADC_EIT.c ****     *  This function is not available when left data format justification selected.
 841:Generated_Source\PSoC4/ADC_EIT.c ****     *
 842:Generated_Source\PSoC4/ADC_EIT.c ****     * Parameters:
 843:Generated_Source\PSoC4/ADC_EIT.c ****     *  chan: The ADC channel number.
 844:Generated_Source\PSoC4/ADC_EIT.c ****     *  Result from the ADC conversion
 845:Generated_Source\PSoC4/ADC_EIT.c ****     *
 846:Generated_Source\PSoC4/ADC_EIT.c ****     * Return:
 847:Generated_Source\PSoC4/ADC_EIT.c ****     *  Results in Volts
 848:Generated_Source\PSoC4/ADC_EIT.c ****     *
 849:Generated_Source\PSoC4/ADC_EIT.c ****     * Global variables:
 850:Generated_Source\PSoC4/ADC_EIT.c ****     *  ADC_EIT_countsPer10Volt:  used to convert ADC counts to Volts.
 851:Generated_Source\PSoC4/ADC_EIT.c ****     *  ADC_EIT_Offset:  Used as the offset while converting ADC counts
 852:Generated_Source\PSoC4/ADC_EIT.c ****     *   to mVolts.
 853:Generated_Source\PSoC4/ADC_EIT.c ****     *
 854:Generated_Source\PSoC4/ADC_EIT.c ****     *******************************************************************************/
 855:Generated_Source\PSoC4/ADC_EIT.c ****     float32 ADC_EIT_CountsTo_Volts(uint32 chan, int16 adcCounts)
 856:Generated_Source\PSoC4/ADC_EIT.c ****     {
 979              		.loc 1 856 0
 980              		.cfi_startproc
 981              		@ args = 0, pretend = 0, frame = 0
 982              		@ frame_needed = 0, uses_anonymous_args = 0
 983              	.LVL76:
 984 0000 70B5     		push	{r4, r5, r6, lr}
 985              		.cfi_def_cfa_offset 16
 986              		.cfi_offset 4, -16
 987              		.cfi_offset 5, -12
 988              		.cfi_offset 6, -8
 989              		.cfi_offset 14, -4
 990 0002 0400     		movs	r4, r0
 991 0004 0D00     		movs	r5, r1
 857:Generated_Source\PSoC4/ADC_EIT.c ****         float32 volts;
 858:Generated_Source\PSoC4/ADC_EIT.c **** 
 859:Generated_Source\PSoC4/ADC_EIT.c ****         /* Halt CPU in debug mode if channel is out of valid range */
 860:Generated_Source\PSoC4/ADC_EIT.c ****         CYASSERT(chan < ADC_EIT_TOTAL_CHANNELS_NUM);
 992              		.loc 1 860 0
 993 0006 0128     		cmp	r0, #1
 994 0008 02D9     		bls	.L78
 995              		.loc 1 860 0 is_stmt 0 discriminator 1
 996 000a 0020     		movs	r0, #0
 997              	.LVL77:
 998 000c FFF7FEFF 		bl	CyHalt
 999              	.LVL78:
 1000              	.L78:
 861:Generated_Source\PSoC4/ADC_EIT.c **** 
 862:Generated_Source\PSoC4/ADC_EIT.c ****         /* Divide the adcCount when accumulate averaging mode selected */
 863:Generated_Source\PSoC4/ADC_EIT.c ****         #if(ADC_EIT_DEFAULT_AVG_MODE == ADC_EIT__ACCUMULATE)
 864:Generated_Source\PSoC4/ADC_EIT.c ****             if((ADC_EIT_channelsConfig[chan] & ADC_EIT_AVERAGING_EN) != 0u)
 865:Generated_Source\PSoC4/ADC_EIT.c ****             {
 866:Generated_Source\PSoC4/ADC_EIT.c ****                 adcCounts /= ADC_EIT_DEFAULT_AVG_SAMPLES_DIV;
 867:Generated_Source\PSoC4/ADC_EIT.c ****             }
ARM GAS  C:\Users\jj-ay\AppData\Local\Temp\ccQGuNdx.s 			page 34


 868:Generated_Source\PSoC4/ADC_EIT.c ****         #endif /* ADC_EIT_DEFAULT_AVG_MODE == ADC_EIT__ACCUMULATE */
 869:Generated_Source\PSoC4/ADC_EIT.c **** 
 870:Generated_Source\PSoC4/ADC_EIT.c ****         /* Subtract ADC offset */
 871:Generated_Source\PSoC4/ADC_EIT.c ****         adcCounts -= ADC_EIT_offset[chan];
 1001              		.loc 1 871 0 is_stmt 1
 1002 0010 6200     		lsls	r2, r4, #1
 1003 0012 0A4B     		ldr	r3, .L79
 1004 0014 D05A     		ldrh	r0, [r2, r3]
 1005 0016 00B2     		sxth	r0, r0
 1006 0018 281A     		subs	r0, r5, r0
 1007 001a 00B2     		sxth	r0, r0
 1008              	.LVL79:
 872:Generated_Source\PSoC4/ADC_EIT.c **** 
 873:Generated_Source\PSoC4/ADC_EIT.c ****         volts = ((float32)adcCounts * ADC_EIT_10V_COUNTS) / (float32)ADC_EIT_countsPer10Volt[chan];
 1009              		.loc 1 873 0
 1010 001c FFF7FEFF 		bl	__aeabi_i2f
 1011              	.LVL80:
 1012 0020 0749     		ldr	r1, .L79+4
 1013 0022 FFF7FEFF 		bl	__aeabi_fmul
 1014              	.LVL81:
 1015 0026 051C     		adds	r5, r0, #0
 1016 0028 A400     		lsls	r4, r4, #2
 1017              	.LVL82:
 1018 002a 064B     		ldr	r3, .L79+8
 1019 002c E058     		ldr	r0, [r4, r3]
 1020 002e FFF7FEFF 		bl	__aeabi_i2f
 1021              	.LVL83:
 1022 0032 011C     		adds	r1, r0, #0
 1023 0034 281C     		adds	r0, r5, #0
 1024 0036 FFF7FEFF 		bl	__aeabi_fdiv
 1025              	.LVL84:
 874:Generated_Source\PSoC4/ADC_EIT.c **** 
 875:Generated_Source\PSoC4/ADC_EIT.c ****         return( volts );
 876:Generated_Source\PSoC4/ADC_EIT.c ****     }
 1026              		.loc 1 876 0
 1027              		@ sp needed
 1028 003a 70BD     		pop	{r4, r5, r6, pc}
 1029              	.L80:
 1030              		.align	2
 1031              	.L79:
 1032 003c 00000000 		.word	ADC_EIT_offset
 1033 0040 00002041 		.word	1092616192
 1034 0044 00000000 		.word	ADC_EIT_countsPer10Volt
 1035              		.cfi_endproc
 1036              	.LFE17:
 1037              		.size	ADC_EIT_CountsTo_Volts, .-ADC_EIT_CountsTo_Volts
 1038              		.comm	ADC_EIT_countsPer10Volt,8,4
 1039              		.comm	ADC_EIT_offset,4,4
 1040              		.global	ADC_EIT_initVar
 1041              		.section	.rodata
 1042              		.align	2
 1043              		.set	.LANCHOR0,. + 0
 1044              		.type	ADC_EIT_channelsConfig, %object
 1045              		.size	ADC_EIT_channelsConfig, 8
 1046              	ADC_EIT_channelsConfig:
 1047 0000 00040000 		.word	1024
 1048 0004 00040000 		.word	1024
ARM GAS  C:\Users\jj-ay\AppData\Local\Temp\ccQGuNdx.s 			page 35


 1049              		.type	ADC_EIT_InputsPlacement.4874, %object
 1050              		.size	ADC_EIT_InputsPlacement.4874, 2
 1051              	ADC_EIT_InputsPlacement.4874:
 1052 0008 06       		.byte	6
 1053 0009 07       		.byte	7
 1054              		.bss
 1055              		.set	.LANCHOR1,. + 0
 1056              		.type	ADC_EIT_initVar, %object
 1057              		.size	ADC_EIT_initVar, 1
 1058              	ADC_EIT_initVar:
 1059 0000 00       		.space	1
 1060              		.text
 1061              	.Letext0:
 1062              		.file 2 "Generated_Source\\PSoC4\\cytypes.h"
 1063              		.file 3 "Generated_Source\\PSoC4\\CyLib.h"
