ARM GAS  C:\Users\jj-ay\AppData\Local\Temp\ccfFkvsK.s 			page 1


   1              		.syntax unified
   2              		.cpu cortex-m0
   3              		.fpu softvfp
   4              		.eabi_attribute 20, 1
   5              		.eabi_attribute 21, 1
   6              		.eabi_attribute 23, 3
   7              		.eabi_attribute 24, 1
   8              		.eabi_attribute 25, 1
   9              		.eabi_attribute 26, 1
  10              		.eabi_attribute 30, 1
  11              		.eabi_attribute 34, 0
  12              		.eabi_attribute 18, 4
  13              		.thumb
  14              		.syntax unified
  15              		.file	"cybootloader.c"
  16              		.text
  17              	.Ltext0:
  18              		.cfi_sections	.debug_frame
  19              		.global	cy_meta_chipprotect
  20              		.global	cy_meta_flashprotect
  21              		.global	cy_metadata
  22              		.global	cy_bootloader
  23              		.global	cy_meta_loader
  24              		.section	.cychipprotect,"a",%progbits
  25              		.align	2
  26              		.type	cy_meta_chipprotect, %object
  27              		.size	cy_meta_chipprotect, 1
  28              	cy_meta_chipprotect:
  29 0000 01       		.byte	1
  30              		.section	.cyloadermeta,"a",%progbits
  31              		.align	2
  32              		.type	cy_meta_loader, %object
  33              		.size	cy_meta_loader, 64
  34              	cy_meta_loader:
  35 0000 00       		.byte	0
  36 0001 00       		.byte	0
  37 0002 00       		.byte	0
  38 0003 00       		.byte	0
  39 0004 00       		.byte	0
  40 0005 00       		.byte	0
  41 0006 00       		.byte	0
  42 0007 00       		.byte	0
  43 0008 00       		.byte	0
  44 0009 00       		.byte	0
  45 000a 00       		.byte	0
  46 000b 00       		.byte	0
  47 000c 00       		.byte	0
  48 000d 00       		.byte	0
  49 000e 00       		.byte	0
  50 000f 00       		.byte	0
  51 0010 00       		.byte	0
  52 0011 00       		.byte	0
  53 0012 01       		.byte	1
  54 0013 00       		.byte	0
  55 0014 01       		.byte	1
  56 0015 00       		.byte	0
  57 0016 00       		.byte	0
ARM GAS  C:\Users\jj-ay\AppData\Local\Temp\ccfFkvsK.s 			page 2


  58 0017 00       		.byte	0
  59 0018 00       		.byte	0
  60 0019 00       		.byte	0
  61 001a 00       		.byte	0
  62 001b 00       		.byte	0
  63 001c 00       		.byte	0
  64 001d 00       		.byte	0
  65 001e 00       		.byte	0
  66 001f 00       		.byte	0
  67 0020 00       		.byte	0
  68 0021 00       		.byte	0
  69 0022 00       		.byte	0
  70 0023 00       		.byte	0
  71 0024 00       		.byte	0
  72 0025 00       		.byte	0
  73 0026 00       		.byte	0
  74 0027 00       		.byte	0
  75 0028 00       		.byte	0
  76 0029 00       		.byte	0
  77 002a 00       		.byte	0
  78 002b 00       		.byte	0
  79 002c 00       		.byte	0
  80 002d 00       		.byte	0
  81 002e 00       		.byte	0
  82 002f 00       		.byte	0
  83 0030 00       		.byte	0
  84 0031 00       		.byte	0
  85 0032 00       		.byte	0
  86 0033 00       		.byte	0
  87 0034 00       		.byte	0
  88 0035 00       		.byte	0
  89 0036 00       		.byte	0
  90 0037 00       		.byte	0
  91 0038 00       		.byte	0
  92 0039 00       		.byte	0
  93 003a 00       		.byte	0
  94 003b 00       		.byte	0
  95 003c 00       		.byte	0
  96 003d 00       		.byte	0
  97 003e 00       		.byte	0
  98 003f 00       		.byte	0
  99              		.section	.cymeta,"a",%progbits
 100              		.align	2
 101              		.type	cy_metadata, %object
 102              		.size	cy_metadata, 12
 103              	cy_metadata:
 104 0000 00       		.byte	0
 105 0001 02       		.byte	2
 106 0002 04       		.byte	4
 107 0003 C8       		.byte	-56
 108 0004 11       		.byte	17
 109 0005 93       		.byte	-109
 110 0006 11       		.byte	17
 111 0007 00       		.byte	0
 112 0008 04       		.byte	4
 113 0009 CD       		.byte	-51
 114 000a 57       		.byte	87
ARM GAS  C:\Users\jj-ay\AppData\Local\Temp\ccfFkvsK.s 			page 3


 115 000b 25       		.byte	37
 116              		.section	.cybootloader,"a",%progbits
 117              		.align	2
 118              		.type	cy_bootloader, %object
 119              		.size	cy_bootloader, 4352
 120              	cy_bootloader:
 121 0000 00       		.byte	0
 122 0001 10       		.byte	16
 123 0002 00       		.byte	0
 124 0003 20       		.byte	32
 125 0004 11       		.byte	17
 126 0005 00       		.byte	0
 127 0006 00       		.byte	0
 128 0007 00       		.byte	0
 129 0008 B5       		.byte	-75
 130 0009 03       		.byte	3
 131 000a 00       		.byte	0
 132 000b 00       		.byte	0
 133 000c B5       		.byte	-75
 134 000d 03       		.byte	3
 135 000e 00       		.byte	0
 136 000f 00       		.byte	0
 137 0010 08       		.byte	8
 138 0011 B5       		.byte	-75
 139 0012 00       		.byte	0
 140 0013 F0       		.byte	-16
 141 0014 81       		.byte	-127
 142 0015 FA       		.byte	-6
 143 0016 00       		.byte	0
 144 0017 F0       		.byte	-16
 145 0018 CF       		.byte	-49
 146 0019 F9       		.byte	-7
 147 001a 00       		.byte	0
 148 001b 00       		.byte	0
 149 001c F7       		.byte	-9
 150 001d B5       		.byte	-75
 151 001e 72       		.byte	114
 152 001f B6       		.byte	-74
 153 0020 80       		.byte	-128
 154 0021 22       		.byte	34
 155 0022 00       		.byte	0
 156 0023 21       		.byte	33
 157 0024 D2       		.byte	-46
 158 0025 00       		.byte	0
 159 0026 55       		.byte	85
 160 0027 48       		.byte	72
 161 0028 00       		.byte	0
 162 0029 F0       		.byte	-16
 163 002a ED       		.byte	-19
 164 002b FF       		.byte	-1
 165 002c 80       		.byte	-128
 166 002d 22       		.byte	34
 167 002e 00       		.byte	0
 168 002f 21       		.byte	33
 169 0030 53       		.byte	83
 170 0031 48       		.byte	72
 171 0032 D2       		.byte	-46
ARM GAS  C:\Users\jj-ay\AppData\Local\Temp\ccfFkvsK.s 			page 4


 172 0033 00       		.byte	0
 173 0034 00       		.byte	0
 174 0035 F0       		.byte	-16
 175 0036 E7       		.byte	-25
 176 0037 FF       		.byte	-1
 177 0038 00       		.byte	0
 178 0039 23       		.byte	35
 179 003a 19       		.byte	25
 180 003b 1C       		.byte	28
 181 003c 51       		.byte	81
 182 003d 4C       		.byte	76
 183 003e 18       		.byte	24
 184 003f 59       		.byte	89
 185 0040 10       		.byte	16
 186 0041 34       		.byte	52
 187 0042 C2       		.byte	-62
 188 0043 B2       		.byte	-78
 189 0044 01       		.byte	1
 190 0045 92       		.byte	-110
 191 0046 07       		.byte	7
 192 0047 1C       		.byte	28
 193 0048 FF       		.byte	-1
 194 0049 22       		.byte	34
 195 004a 97       		.byte	-105
 196 004b 43       		.byte	67
 197 004c 4A       		.byte	74
 198 004d 00       		.byte	0
 199 004e A4       		.byte	-92
 200 004f 18       		.byte	24
 201 0050 00       		.byte	0
 202 0051 22       		.byte	34
 203 0052 01       		.byte	1
 204 0053 9E       		.byte	-98
 205 0054 D5       		.byte	-43
 206 0055 B2       		.byte	-78
 207 0056 AE       		.byte	-82
 208 0057 42       		.byte	66
 209 0058 09       		.byte	9
 210 0059 D0       		.byte	-48
 211 005a 55       		.byte	85
 212 005b 00       		.byte	0
 213 005c 66       		.byte	102
 214 005d 5D       		.byte	93
 215 005e 65       		.byte	101
 216 005f 19       		.byte	25
 217 0060 B4       		.byte	-76
 218 0061 46       		.byte	70
 219 0062 BC       		.byte	-68
 220 0063 44       		.byte	68
 221 0064 6D       		.byte	109
 222 0065 78       		.byte	120
 223 0066 66       		.byte	102
 224 0067 46       		.byte	70
 225 0068 35       		.byte	53
 226 0069 70       		.byte	112
 227 006a 01       		.byte	1
 228 006b 32       		.byte	50
ARM GAS  C:\Users\jj-ay\AppData\Local\Temp\ccfFkvsK.s 			page 5


 229 006c F1       		.byte	-15
 230 006d E7       		.byte	-25
 231 006e C0       		.byte	-64
 232 006f B2       		.byte	-78
 233 0070 04       		.byte	4
 234 0071 33       		.byte	51
 235 0072 09       		.byte	9
 236 0073 18       		.byte	24
 237 0074 10       		.byte	16
 238 0075 2B       		.byte	43
 239 0076 E1       		.byte	-31
 240 0077 D1       		.byte	-47
 241 0078 43       		.byte	67
 242 0079 4B       		.byte	75
 243 007a C0       		.byte	-64
 244 007b 22       		.byte	34
 245 007c 92       		.byte	-110
 246 007d 04       		.byte	4
 247 007e 1A       		.byte	26
 248 007f 60       		.byte	96
 249 0080 42       		.byte	66
 250 0081 4B       		.byte	75
 251 0082 99       		.byte	-103
 252 0083 22       		.byte	34
 253 0084 1A       		.byte	26
 254 0085 60       		.byte	96
 255 0086 42       		.byte	66
 256 0087 4A       		.byte	74
 257 0088 00       		.byte	0
 258 0089 23       		.byte	35
 259 008a 13       		.byte	19
 260 008b 60       		.byte	96
 261 008c 41       		.byte	65
 262 008d 4A       		.byte	74
 263 008e 80       		.byte	-128
 264 008f 21       		.byte	33
 265 0090 11       		.byte	17
 266 0091 60       		.byte	96
 267 0092 41       		.byte	65
 268 0093 4A       		.byte	74
 269 0094 C9       		.byte	-55
 270 0095 03       		.byte	3
 271 0096 11       		.byte	17
 272 0097 60       		.byte	96
 273 0098 40       		.byte	64
 274 0099 4A       		.byte	74
 275 009a 40       		.byte	64
 276 009b 21       		.byte	33
 277 009c 11       		.byte	17
 278 009d 60       		.byte	96
 279 009e 40       		.byte	64
 280 009f 4A       		.byte	74
 281 00a0 C0       		.byte	-64
 282 00a1 21       		.byte	33
 283 00a2 49       		.byte	73
 284 00a3 03       		.byte	3
 285 00a4 11       		.byte	17
ARM GAS  C:\Users\jj-ay\AppData\Local\Temp\ccfFkvsK.s 			page 6


 286 00a5 60       		.byte	96
 287 00a6 3F       		.byte	63
 288 00a7 4A       		.byte	74
 289 00a8 31       		.byte	49
 290 00a9 21       		.byte	33
 291 00aa 13       		.byte	19
 292 00ab 60       		.byte	96
 293 00ac 3E       		.byte	62
 294 00ad 4B       		.byte	75
 295 00ae 02       		.byte	2
 296 00af 22       		.byte	34
 297 00b0 1A       		.byte	26
 298 00b1 60       		.byte	96
 299 00b2 3E       		.byte	62
 300 00b3 4B       		.byte	75
 301 00b4 80       		.byte	-128
 302 00b5 20       		.byte	32
 303 00b6 19       		.byte	25
 304 00b7 60       		.byte	96
 305 00b8 3D       		.byte	61
 306 00b9 4B       		.byte	75
 307 00ba 3E       		.byte	62
 308 00bb 49       		.byte	73
 309 00bc 1A       		.byte	26
 310 00bd 60       		.byte	96
 311 00be 99       		.byte	-103
 312 00bf 23       		.byte	35
 313 00c0 1B       		.byte	27
 314 00c1 04       		.byte	4
 315 00c2 0B       		.byte	11
 316 00c3 60       		.byte	96
 317 00c4 3C       		.byte	60
 318 00c5 49       		.byte	73
 319 00c6 00       		.byte	0
 320 00c7 06       		.byte	6
 321 00c8 08       		.byte	8
 322 00c9 60       		.byte	96
 323 00ca 3C       		.byte	60
 324 00cb 49       		.byte	73
 325 00cc 3C       		.byte	60
 326 00cd 20       		.byte	32
 327 00ce 0B       		.byte	11
 328 00cf 60       		.byte	96
 329 00d0 3B       		.byte	59
 330 00d1 4B       		.byte	75
 331 00d2 80       		.byte	-128
 332 00d3 21       		.byte	33
 333 00d4 89       		.byte	-119
 334 00d5 05       		.byte	5
 335 00d6 19       		.byte	25
 336 00d7 60       		.byte	96
 337 00d8 3A       		.byte	58
 338 00d9 49       		.byte	73
 339 00da 3B       		.byte	59
 340 00db 4B       		.byte	75
 341 00dc 19       		.byte	25
 342 00dd 60       		.byte	96
ARM GAS  C:\Users\jj-ay\AppData\Local\Temp\ccfFkvsK.s 			page 7


 343 00de 3B       		.byte	59
 344 00df 4B       		.byte	75
 345 00e0 19       		.byte	25
 346 00e1 78       		.byte	120
 347 00e2 0A       		.byte	10
 348 00e3 43       		.byte	67
 349 00e4 1A       		.byte	26
 350 00e5 70       		.byte	112
 351 00e6 3A       		.byte	58
 352 00e7 4A       		.byte	74
 353 00e8 11       		.byte	17
 354 00e9 78       		.byte	120
 355 00ea 81       		.byte	-127
 356 00eb 43       		.byte	67
 357 00ec 14       		.byte	20
 358 00ed 20       		.byte	32
 359 00ee 01       		.byte	1
 360 00ef 43       		.byte	67
 361 00f0 11       		.byte	17
 362 00f1 70       		.byte	112
 363 00f2 1A       		.byte	26
 364 00f3 78       		.byte	120
 365 00f4 16       		.byte	22
 366 00f5 21       		.byte	33
 367 00f6 0A       		.byte	10
 368 00f7 43       		.byte	67
 369 00f8 1A       		.byte	26
 370 00f9 70       		.byte	112
 371 00fa 36       		.byte	54
 372 00fb 4A       		.byte	74
 373 00fc 80       		.byte	-128
 374 00fd 23       		.byte	35
 375 00fe 11       		.byte	17
 376 00ff 68       		.byte	104
 377 0100 DB       		.byte	-37
 378 0101 02       		.byte	2
 379 0102 0B       		.byte	11
 380 0103 43       		.byte	67
 381 0104 13       		.byte	19
 382 0105 60       		.byte	96
 383 0106 34       		.byte	52
 384 0107 4B       		.byte	75
 385 0108 14       		.byte	20
 386 0109 1C       		.byte	28
 387 010a 18       		.byte	24
 388 010b 78       		.byte	120
 389 010c 33       		.byte	51
 390 010d 4B       		.byte	75
 391 010e C0       		.byte	-64
 392 010f B2       		.byte	-78
 393 0110 19       		.byte	25
 394 0111 78       		.byte	120
 395 0112 33       		.byte	51
 396 0113 4B       		.byte	75
 397 0114 C9       		.byte	-55
 398 0115 B2       		.byte	-78
 399 0116 1A       		.byte	26
ARM GAS  C:\Users\jj-ay\AppData\Local\Temp\ccfFkvsK.s 			page 8


 400 0117 78       		.byte	120
 401 0118 17       		.byte	23
 402 0119 2A       		.byte	42
 403 011a 05       		.byte	5
 404 011b D9       		.byte	-39
 405 011c 31       		.byte	49
 406 011d 4A       		.byte	74
 407 011e 58       		.byte	88
 408 011f 78       		.byte	120
 409 0120 99       		.byte	-103
 410 0121 78       		.byte	120
 411 0122 03       		.byte	3
 412 0123 3B       		.byte	59
 413 0124 93       		.byte	-109
 414 0125 42       		.byte	66
 415 0126 F6       		.byte	-10
 416 0127 D1       		.byte	-47
 417 0128 2F       		.byte	47
 418 0129 4B       		.byte	75
 419 012a 19       		.byte	25
 420 012b 22       		.byte	34
 421 012c 18       		.byte	24
 422 012d 60       		.byte	96
 423 012e 2F       		.byte	47
 424 012f 4B       		.byte	75
 425 0130 05       		.byte	5
 426 0131 20       		.byte	32
 427 0132 19       		.byte	25
 428 0133 60       		.byte	96
 429 0134 2E       		.byte	46
 430 0135 4B       		.byte	75
 431 0136 1A       		.byte	26
 432 0137 60       		.byte	96
 433 0138 00       		.byte	0
 434 0139 F0       		.byte	-16
 435 013a 5E       		.byte	94
 436 013b FD       		.byte	-3
 437 013c 2D       		.byte	45
 438 013d 4B       		.byte	75
 439 013e 05       		.byte	5
 440 013f 20       		.byte	32
 441 0140 1A       		.byte	26
 442 0141 78       		.byte	120
 443 0142 2D       		.byte	45
 444 0143 4B       		.byte	75
 445 0144 D2       		.byte	-46
 446 0145 B2       		.byte	-78
 447 0146 1A       		.byte	26
 448 0147 60       		.byte	96
 449 0148 00       		.byte	0
 450 0149 F0       		.byte	-16
 451 014a 9E       		.byte	-98
 452 014b FE       		.byte	-2
 453 014c 22       		.byte	34
 454 014d 68       		.byte	104
 455 014e 2B       		.byte	43
 456 014f 4B       		.byte	75
ARM GAS  C:\Users\jj-ay\AppData\Local\Temp\ccfFkvsK.s 			page 9


 457 0150 13       		.byte	19
 458 0151 40       		.byte	64
 459 0152 23       		.byte	35
 460 0153 60       		.byte	96
 461 0154 2A       		.byte	42
 462 0155 4A       		.byte	74
 463 0156 2B       		.byte	43
 464 0157 4B       		.byte	75
 465 0158 1A       		.byte	26
 466 0159 60       		.byte	96
 467 015a 2B       		.byte	43
 468 015b 4B       		.byte	75
 469 015c 10       		.byte	16
 470 015d 22       		.byte	34
 471 015e 1A       		.byte	26
 472 015f 60       		.byte	96
 473 0160 2A       		.byte	42
 474 0161 4B       		.byte	75
 475 0162 20       		.byte	32
 476 0163 22       		.byte	34
 477 0164 1A       		.byte	26
 478 0165 60       		.byte	96
 479 0166 2A       		.byte	42
 480 0167 4B       		.byte	75
 481 0168 80       		.byte	-128
 482 0169 22       		.byte	34
 483 016a 12       		.byte	18
 484 016b 06       		.byte	6
 485 016c 1A       		.byte	26
 486 016d 60       		.byte	96
 487 016e 29       		.byte	41
 488 016f 4A       		.byte	74
 489 0170 29       		.byte	41
 490 0171 4B       		.byte	75
 491 0172 1A       		.byte	26
 492 0173 60       		.byte	96
 493 0174 29       		.byte	41
 494 0175 4A       		.byte	74
 495 0176 2A       		.byte	42
 496 0177 4B       		.byte	75
 497 0178 1A       		.byte	26
 498 0179 60       		.byte	96
 499 017a F7       		.byte	-9
 500 017b BD       		.byte	-67
 501 017c 00       		.byte	0
 502 017d 30       		.byte	48
 503 017e 0F       		.byte	15
 504 017f 40       		.byte	64
 505 0180 00       		.byte	0
 506 0181 40       		.byte	64
 507 0182 0F       		.byte	15
 508 0183 40       		.byte	64
 509 0184 24       		.byte	36
 510 0185 10       		.byte	16
 511 0186 00       		.byte	0
 512 0187 00       		.byte	0
 513 0188 04       		.byte	4
ARM GAS  C:\Users\jj-ay\AppData\Local\Temp\ccfFkvsK.s 			page 10


 514 0189 00       		.byte	0
 515 018a 01       		.byte	1
 516 018b 40       		.byte	64
 517 018c 10       		.byte	16
 518 018d 00       		.byte	0
 519 018e 01       		.byte	1
 520 018f 40       		.byte	64
 521 0190 0C       		.byte	12
 522 0191 00       		.byte	0
 523 0192 01       		.byte	1
 524 0193 40       		.byte	64
 525 0194 00       		.byte	0
 526 0195 00       		.byte	0
 527 0196 04       		.byte	4
 528 0197 40       		.byte	64
 529 0198 08       		.byte	8
 530 0199 00       		.byte	0
 531 019a 04       		.byte	4
 532 019b 40       		.byte	64
 533 019c 00       		.byte	0
 534 019d 01       		.byte	1
 535 019e 04       		.byte	4
 536 019f 40       		.byte	64
 537 01a0 08       		.byte	8
 538 01a1 01       		.byte	1
 539 01a2 04       		.byte	4
 540 01a3 40       		.byte	64
 541 01a4 08       		.byte	8
 542 01a5 03       		.byte	3
 543 01a6 04       		.byte	4
 544 01a7 40       		.byte	64
 545 01a8 00       		.byte	0
 546 01a9 04       		.byte	4
 547 01aa 04       		.byte	4
 548 01ab 40       		.byte	64
 549 01ac 08       		.byte	8
 550 01ad 04       		.byte	4
 551 01ae 04       		.byte	4
 552 01af 40       		.byte	64
 553 01b0 18       		.byte	24
 554 01b1 04       		.byte	4
 555 01b2 04       		.byte	4
 556 01b3 40       		.byte	64
 557 01b4 00       		.byte	0
 558 01b5 50       		.byte	80
 559 01b6 0F       		.byte	15
 560 01b7 40       		.byte	64
 561 01b8 04       		.byte	4
 562 01b9 50       		.byte	80
 563 01ba 0F       		.byte	15
 564 01bb 40       		.byte	64
 565 01bc 10       		.byte	16
 566 01bd 50       		.byte	80
 567 01be 0F       		.byte	15
 568 01bf 40       		.byte	64
 569 01c0 18       		.byte	24
 570 01c1 50       		.byte	80
ARM GAS  C:\Users\jj-ay\AppData\Local\Temp\ccfFkvsK.s 			page 11


 571 01c2 0F       		.byte	15
 572 01c3 40       		.byte	64
 573 01c4 10       		.byte	16
 574 01c5 00       		.byte	0
 575 01c6 01       		.byte	1
 576 01c7 00       		.byte	0
 577 01c8 20       		.byte	32
 578 01c9 01       		.byte	1
 579 01ca 05       		.byte	5
 580 01cb 40       		.byte	64
 581 01cc 00       		.byte	0
 582 01cd 70       		.byte	112
 583 01ce 0F       		.byte	15
 584 01cf 40       		.byte	64
 585 01d0 01       		.byte	1
 586 01d1 70       		.byte	112
 587 01d2 0F       		.byte	15
 588 01d3 40       		.byte	64
 589 01d4 00       		.byte	0
 590 01d5 01       		.byte	1
 591 01d6 0B       		.byte	11
 592 01d7 40       		.byte	64
 593 01d8 CC       		.byte	-52
 594 01d9 F1       		.byte	-15
 595 01da FF       		.byte	-1
 596 01db 0F       		.byte	15
 597 01dc CD       		.byte	-51
 598 01dd F1       		.byte	-15
 599 01de FF       		.byte	-1
 600 01df 0F       		.byte	15
 601 01e0 C9       		.byte	-55
 602 01e1 F1       		.byte	-15
 603 01e2 FF       		.byte	-1
 604 01e3 0F       		.byte	15
 605 01e4 BD       		.byte	-67
 606 01e5 F1       		.byte	-15
 607 01e6 FF       		.byte	-1
 608 01e7 0F       		.byte	15
 609 01e8 1C       		.byte	28
 610 01e9 FF       		.byte	-1
 611 01ea 0B       		.byte	11
 612 01eb 40       		.byte	64
 613 01ec 20       		.byte	32
 614 01ed FF       		.byte	-1
 615 01ee 0B       		.byte	11
 616 01ef 40       		.byte	64
 617 01f0 2C       		.byte	44
 618 01f1 FF       		.byte	-1
 619 01f2 0B       		.byte	11
 620 01f3 40       		.byte	64
 621 01f4 E5       		.byte	-27
 622 01f5 F1       		.byte	-15
 623 01f6 FF       		.byte	-1
 624 01f7 0F       		.byte	15
 625 01f8 28       		.byte	40
 626 01f9 FF       		.byte	-1
 627 01fa 0B       		.byte	11
ARM GAS  C:\Users\jj-ay\AppData\Local\Temp\ccfFkvsK.s 			page 12


 628 01fb 40       		.byte	64
 629 01fc FF       		.byte	-1
 630 01fd FF       		.byte	-1
 631 01fe FB       		.byte	-5
 632 01ff FF       		.byte	-1
 633 0200 06       		.byte	6
 634 0201 00       		.byte	0
 635 0202 00       		.byte	0
 636 0203 80       		.byte	-128
 637 0204 04       		.byte	4
 638 0205 01       		.byte	1
 639 0206 0B       		.byte	11
 640 0207 40       		.byte	64
 641 0208 08       		.byte	8
 642 0209 02       		.byte	2
 643 020a 02       		.byte	2
 644 020b 40       		.byte	64
 645 020c 20       		.byte	32
 646 020d 02       		.byte	2
 647 020e 02       		.byte	2
 648 020f 40       		.byte	64
 649 0210 08       		.byte	8
 650 0211 01       		.byte	1
 651 0212 0B       		.byte	11
 652 0213 40       		.byte	64
 653 0214 10       		.byte	16
 654 0215 00       		.byte	0
 655 0216 00       		.byte	0
 656 0217 80       		.byte	-128
 657 0218 00       		.byte	0
 658 0219 00       		.byte	0
 659 021a 02       		.byte	2
 660 021b 40       		.byte	64
 661 021c AF       		.byte	-81
 662 021d 04       		.byte	4
 663 021e 00       		.byte	0
 664 021f 80       		.byte	-128
 665 0220 40       		.byte	64
 666 0221 00       		.byte	0
 667 0222 02       		.byte	2
 668 0223 40       		.byte	64
 669 0224 10       		.byte	16
 670 0225 B5       		.byte	-75
 671 0226 06       		.byte	6
 672 0227 4C       		.byte	76
 673 0228 23       		.byte	35
 674 0229 78       		.byte	120
 675 022a 00       		.byte	0
 676 022b 2B       		.byte	43
 677 022c 07       		.byte	7
 678 022d D1       		.byte	-47
 679 022e 05       		.byte	5
 680 022f 4B       		.byte	75
 681 0230 00       		.byte	0
 682 0231 2B       		.byte	43
 683 0232 02       		.byte	2
 684 0233 D0       		.byte	-48
ARM GAS  C:\Users\jj-ay\AppData\Local\Temp\ccfFkvsK.s 			page 13


 685 0234 04       		.byte	4
 686 0235 48       		.byte	72
 687 0236 00       		.byte	0
 688 0237 E0       		.byte	-32
 689 0238 00       		.byte	0
 690 0239 BF       		.byte	-65
 691 023a 01       		.byte	1
 692 023b 23       		.byte	35
 693 023c 23       		.byte	35
 694 023d 70       		.byte	112
 695 023e 10       		.byte	16
 696 023f BD       		.byte	-67
 697 0240 F0       		.byte	-16
 698 0241 00       		.byte	0
 699 0242 00       		.byte	0
 700 0243 20       		.byte	32
 701 0244 00       		.byte	0
 702 0245 00       		.byte	0
 703 0246 00       		.byte	0
 704 0247 00       		.byte	0
 705 0248 20       		.byte	32
 706 0249 10       		.byte	16
 707 024a 00       		.byte	0
 708 024b 00       		.byte	0
 709 024c 08       		.byte	8
 710 024d B5       		.byte	-75
 711 024e 08       		.byte	8
 712 024f 4B       		.byte	75
 713 0250 00       		.byte	0
 714 0251 2B       		.byte	43
 715 0252 03       		.byte	3
 716 0253 D0       		.byte	-48
 717 0254 07       		.byte	7
 718 0255 48       		.byte	72
 719 0256 08       		.byte	8
 720 0257 49       		.byte	73
 721 0258 00       		.byte	0
 722 0259 E0       		.byte	-32
 723 025a 00       		.byte	0
 724 025b BF       		.byte	-65
 725 025c 07       		.byte	7
 726 025d 48       		.byte	72
 727 025e 03       		.byte	3
 728 025f 68       		.byte	104
 729 0260 00       		.byte	0
 730 0261 2B       		.byte	43
 731 0262 03       		.byte	3
 732 0263 D0       		.byte	-48
 733 0264 06       		.byte	6
 734 0265 4B       		.byte	75
 735 0266 00       		.byte	0
 736 0267 2B       		.byte	43
 737 0268 00       		.byte	0
 738 0269 D0       		.byte	-48
 739 026a 98       		.byte	-104
 740 026b 47       		.byte	71
 741 026c 08       		.byte	8
ARM GAS  C:\Users\jj-ay\AppData\Local\Temp\ccfFkvsK.s 			page 14


 742 026d BD       		.byte	-67
 743 026e C0       		.byte	-64
 744 026f 46       		.byte	70
 745 0270 00       		.byte	0
 746 0271 00       		.byte	0
 747 0272 00       		.byte	0
 748 0273 00       		.byte	0
 749 0274 20       		.byte	32
 750 0275 10       		.byte	16
 751 0276 00       		.byte	0
 752 0277 00       		.byte	0
 753 0278 F4       		.byte	-12
 754 0279 00       		.byte	0
 755 027a 00       		.byte	0
 756 027b 20       		.byte	32
 757 027c D0       		.byte	-48
 758 027d 00       		.byte	0
 759 027e 00       		.byte	0
 760 027f 20       		.byte	32
 761 0280 00       		.byte	0
 762 0281 00       		.byte	0
 763 0282 00       		.byte	0
 764 0283 00       		.byte	0
 765 0284 10       		.byte	16
 766 0285 B5       		.byte	-75
 767 0286 62       		.byte	98
 768 0287 B6       		.byte	-74
 769 0288 00       		.byte	0
 770 0289 F0       		.byte	-16
 771 028a AC       		.byte	-84
 772 028b FC       		.byte	-4
 773 028c 00       		.byte	0
 774 028d 28       		.byte	40
 775 028e 0E       		.byte	14
 776 028f D1       		.byte	-47
 777 0290 65       		.byte	101
 778 0291 24       		.byte	36
 779 0292 01       		.byte	1
 780 0293 20       		.byte	32
 781 0294 00       		.byte	0
 782 0295 F0       		.byte	-16
 783 0296 E2       		.byte	-30
 784 0297 FD       		.byte	-3
 785 0298 00       		.byte	0
 786 0299 F0       		.byte	-16
 787 029a A4       		.byte	-92
 788 029b FC       		.byte	-4
 789 029c 00       		.byte	0
 790 029d 28       		.byte	40
 791 029e 06       		.byte	6
 792 029f D1       		.byte	-47
 793 02a0 01       		.byte	1
 794 02a1 3C       		.byte	60
 795 02a2 E4       		.byte	-28
 796 02a3 B2       		.byte	-78
 797 02a4 00       		.byte	0
 798 02a5 2C       		.byte	44
ARM GAS  C:\Users\jj-ay\AppData\Local\Temp\ccfFkvsK.s 			page 15


 799 02a6 F4       		.byte	-12
 800 02a7 D1       		.byte	-47
 801 02a8 03       		.byte	3
 802 02a9 4B       		.byte	75
 803 02aa 40       		.byte	64
 804 02ab 22       		.byte	34
 805 02ac 1A       		.byte	26
 806 02ad 60       		.byte	96
 807 02ae 00       		.byte	0
 808 02af F0       		.byte	-16
 809 02b0 8B       		.byte	-117
 810 02b1 FC       		.byte	-4
 811 02b2 00       		.byte	0
 812 02b3 F0       		.byte	-16
 813 02b4 DB       		.byte	-37
 814 02b5 FA       		.byte	-6
 815 02b6 FE       		.byte	-2
 816 02b7 E7       		.byte	-25
 817 02b8 C0       		.byte	-64
 818 02b9 00       		.byte	0
 819 02ba 00       		.byte	0
 820 02bb 20       		.byte	32
 821 02bc 08       		.byte	8
 822 02bd B5       		.byte	-75
 823 02be 00       		.byte	0
 824 02bf F0       		.byte	-16
 825 02c0 15       		.byte	21
 826 02c1 FB       		.byte	-5
 827 02c2 00       		.byte	0
 828 02c3 F0       		.byte	-16
 829 02c4 4D       		.byte	77
 830 02c5 FB       		.byte	-5
 831 02c6 00       		.byte	0
 832 02c7 F0       		.byte	-16
 833 02c8 B5       		.byte	-75
 834 02c9 FB       		.byte	-5
 835 02ca 08       		.byte	8
 836 02cb BD       		.byte	-67
 837 02cc 70       		.byte	112
 838 02cd B5       		.byte	-75
 839 02ce 05       		.byte	5
 840 02cf 4B       		.byte	75
 841 02d0 0D       		.byte	13
 842 02d1 1C       		.byte	28
 843 02d2 16       		.byte	22
 844 02d3 1C       		.byte	28
 845 02d4 00       		.byte	0
 846 02d5 24       		.byte	36
 847 02d6 C9       		.byte	-55
 848 02d7 B2       		.byte	-78
 849 02d8 1C       		.byte	28
 850 02d9 80       		.byte	-128
 851 02da 00       		.byte	0
 852 02db F0       		.byte	-16
 853 02dc 9F       		.byte	-97
 854 02dd FB       		.byte	-5
 855 02de 35       		.byte	53
ARM GAS  C:\Users\jj-ay\AppData\Local\Temp\ccfFkvsK.s 			page 16


 856 02df 80       		.byte	-128
 857 02e0 20       		.byte	32
 858 02e1 1C       		.byte	28
 859 02e2 70       		.byte	112
 860 02e3 BD       		.byte	-67
 861 02e4 0C       		.byte	12
 862 02e5 01       		.byte	1
 863 02e6 00       		.byte	0
 864 02e7 20       		.byte	32
 865 02e8 F0       		.byte	-16
 866 02e9 B5       		.byte	-75
 867 02ea 0A       		.byte	10
 868 02eb 27       		.byte	39
 869 02ec 5F       		.byte	95
 870 02ed 43       		.byte	67
 871 02ee 87       		.byte	-121
 872 02ef B0       		.byte	-80
 873 02f0 03       		.byte	3
 874 02f1 90       		.byte	-112
 875 02f2 05       		.byte	5
 876 02f3 91       		.byte	-111
 877 02f4 15       		.byte	21
 878 02f5 1C       		.byte	28
 879 02f6 00       		.byte	0
 880 02f7 26       		.byte	38
 881 02f8 2D       		.byte	45
 882 02f9 4C       		.byte	76
 883 02fa BE       		.byte	-66
 884 02fb 42       		.byte	66
 885 02fc 19       		.byte	25
 886 02fd DA       		.byte	-38
 887 02fe 00       		.byte	0
 888 02ff F0       		.byte	-16
 889 0300 1D       		.byte	29
 890 0301 FB       		.byte	-5
 891 0302 80       		.byte	-128
 892 0303 B2       		.byte	-78
 893 0304 20       		.byte	32
 894 0305 80       		.byte	-128
 895 0306 23       		.byte	35
 896 0307 88       		.byte	-120
 897 0308 00       		.byte	0
 898 0309 2B       		.byte	43
 899 030a 0C       		.byte	12
 900 030b D0       		.byte	-48
 901 030c 02       		.byte	2
 902 030d 20       		.byte	32
 903 030e 26       		.byte	38
 904 030f 88       		.byte	-120
 905 0310 00       		.byte	0
 906 0311 F0       		.byte	-16
 907 0312 A4       		.byte	-92
 908 0313 FD       		.byte	-3
 909 0314 00       		.byte	0
 910 0315 F0       		.byte	-16
 911 0316 12       		.byte	18
 912 0317 FB       		.byte	-5
ARM GAS  C:\Users\jj-ay\AppData\Local\Temp\ccfFkvsK.s 			page 17


 913 0318 80       		.byte	-128
 914 0319 B2       		.byte	-78
 915 031a 20       		.byte	32
 916 031b 80       		.byte	-128
 917 031c 23       		.byte	35
 918 031d 88       		.byte	-120
 919 031e B6       		.byte	-74
 920 031f B2       		.byte	-78
 921 0320 B3       		.byte	-77
 922 0321 42       		.byte	66
 923 0322 F3       		.byte	-13
 924 0323 D8       		.byte	-40
 925 0324 07       		.byte	7
 926 0325 E0       		.byte	-32
 927 0326 01       		.byte	1
 928 0327 20       		.byte	32
 929 0328 01       		.byte	1
 930 0329 36       		.byte	54
 931 032a 00       		.byte	0
 932 032b F0       		.byte	-16
 933 032c 97       		.byte	-105
 934 032d FD       		.byte	-3
 935 032e B6       		.byte	-74
 936 032f B2       		.byte	-78
 937 0330 E2       		.byte	-30
 938 0331 E7       		.byte	-25
 939 0332 05       		.byte	5
 940 0333 26       		.byte	38
 941 0334 00       		.byte	0
 942 0335 E0       		.byte	-32
 943 0336 00       		.byte	0
 944 0337 26       		.byte	38
 945 0338 00       		.byte	0
 946 0339 27       		.byte	39
 947 033a 2F       		.byte	47
 948 033b 80       		.byte	-128
 949 033c 23       		.byte	35
 950 033d 88       		.byte	-120
 951 033e 00       		.byte	0
 952 033f 2B       		.byte	43
 953 0340 33       		.byte	51
 954 0341 D0       		.byte	-48
 955 0342 23       		.byte	35
 956 0343 88       		.byte	-120
 957 0344 9B       		.byte	-101
 958 0345 B2       		.byte	-78
 959 0346 01       		.byte	1
 960 0347 93       		.byte	-109
 961 0348 01       		.byte	1
 962 0349 99       		.byte	-103
 963 034a 2B       		.byte	43
 964 034b 88       		.byte	-120
 965 034c 5A       		.byte	90
 966 034d 18       		.byte	24
 967 034e 05       		.byte	5
 968 034f 99       		.byte	-103
 969 0350 92       		.byte	-110
ARM GAS  C:\Users\jj-ay\AppData\Local\Temp\ccfFkvsK.s 			page 18


 970 0351 B2       		.byte	-78
 971 0352 2A       		.byte	42
 972 0353 80       		.byte	-128
 973 0354 8A       		.byte	-118
 974 0355 42       		.byte	66
 975 0356 21       		.byte	33
 976 0357 D2       		.byte	-46
 977 0358 01       		.byte	1
 978 0359 9A       		.byte	-102
 979 035a BB       		.byte	-69
 980 035b 18       		.byte	24
 981 035c 9B       		.byte	-101
 982 035d B2       		.byte	-78
 983 035e 02       		.byte	2
 984 035f 93       		.byte	-109
 985 0360 02       		.byte	2
 986 0361 99       		.byte	-103
 987 0362 8F       		.byte	-113
 988 0363 42       		.byte	66
 989 0364 09       		.byte	9
 990 0365 D0       		.byte	-48
 991 0366 7B       		.byte	123
 992 0367 1C       		.byte	28
 993 0368 9B       		.byte	-101
 994 0369 B2       		.byte	-78
 995 036a 04       		.byte	4
 996 036b 93       		.byte	-109
 997 036c 03       		.byte	3
 998 036d 9B       		.byte	-101
 999 036e DF       		.byte	-33
 1000 036f 19       		.byte	25
 1001 0370 00       		.byte	0
 1002 0371 F0       		.byte	-16
 1003 0372 CA       		.byte	-54
 1004 0373 FA       		.byte	-6
 1005 0374 38       		.byte	56
 1006 0375 70       		.byte	112
 1007 0376 04       		.byte	4
 1008 0377 9F       		.byte	-97
 1009 0378 F2       		.byte	-14
 1010 0379 E7       		.byte	-25
 1011 037a 72       		.byte	114
 1012 037b B6       		.byte	-74
 1013 037c 23       		.byte	35
 1014 037d 88       		.byte	-120
 1015 037e 01       		.byte	1
 1016 037f 9A       		.byte	-102
 1017 0380 9B       		.byte	-101
 1018 0381 1A       		.byte	26
 1019 0382 9B       		.byte	-101
 1020 0383 B2       		.byte	-78
 1021 0384 23       		.byte	35
 1022 0385 80       		.byte	-128
 1023 0386 62       		.byte	98
 1024 0387 B6       		.byte	-74
 1025 0388 03       		.byte	3
 1026 0389 9A       		.byte	-102
ARM GAS  C:\Users\jj-ay\AppData\Local\Temp\ccfFkvsK.s 			page 19


 1027 038a 53       		.byte	83
 1028 038b 18       		.byte	24
 1029 038c 01       		.byte	1
 1030 038d 3B       		.byte	59
 1031 038e 1B       		.byte	27
 1032 038f 78       		.byte	120
 1033 0390 17       		.byte	23
 1034 0391 2B       		.byte	43
 1035 0392 08       		.byte	8
 1036 0393 D0       		.byte	-48
 1037 0394 05       		.byte	5
 1038 0395 20       		.byte	32
 1039 0396 00       		.byte	0
 1040 0397 F0       		.byte	-16
 1041 0398 61       		.byte	97
 1042 0399 FD       		.byte	-3
 1043 039a 04       		.byte	4
 1044 039b E0       		.byte	-32
 1045 039c 2B       		.byte	43
 1046 039d 80       		.byte	-128
 1047 039e 00       		.byte	0
 1048 039f F0       		.byte	-16
 1049 03a0 DF       		.byte	-33
 1050 03a1 FA       		.byte	-6
 1051 03a2 05       		.byte	5
 1052 03a3 26       		.byte	38
 1053 03a4 01       		.byte	1
 1054 03a5 E0       		.byte	-32
 1055 03a6 02       		.byte	2
 1056 03a7 9F       		.byte	-97
 1057 03a8 C8       		.byte	-56
 1058 03a9 E7       		.byte	-25
 1059 03aa 30       		.byte	48
 1060 03ab 1C       		.byte	28
 1061 03ac 07       		.byte	7
 1062 03ad B0       		.byte	-80
 1063 03ae F0       		.byte	-16
 1064 03af BD       		.byte	-67
 1065 03b0 0C       		.byte	12
 1066 03b1 01       		.byte	1
 1067 03b2 00       		.byte	0
 1068 03b3 20       		.byte	32
 1069 03b4 FE       		.byte	-2
 1070 03b5 E7       		.byte	-25
 1071 03b6 00       		.byte	0
 1072 03b7 00       		.byte	0
 1073 03b8 70       		.byte	112
 1074 03b9 B5       		.byte	-75
 1075 03ba 10       		.byte	16
 1076 03bb 48       		.byte	72
 1077 03bc 10       		.byte	16
 1078 03bd 4B       		.byte	75
 1079 03be 01       		.byte	1
 1080 03bf 38       		.byte	56
 1081 03c0 42       		.byte	66
 1082 03c1 1C       		.byte	28
 1083 03c2 15       		.byte	21
ARM GAS  C:\Users\jj-ay\AppData\Local\Temp\ccfFkvsK.s 			page 20


 1084 03c3 D0       		.byte	-48
 1085 03c4 1E       		.byte	30
 1086 03c5 68       		.byte	104
 1087 03c6 5C       		.byte	92
 1088 03c7 68       		.byte	104
 1089 03c8 9D       		.byte	-99
 1090 03c9 68       		.byte	104
 1091 03ca 00       		.byte	0
 1092 03cb 22       		.byte	34
 1093 03cc A1       		.byte	-95
 1094 03cd 18       		.byte	24
 1095 03ce AA       		.byte	-86
 1096 03cf 42       		.byte	66
 1097 03d0 03       		.byte	3
 1098 03d1 D0       		.byte	-48
 1099 03d2 B1       		.byte	-79
 1100 03d3 58       		.byte	88
 1101 03d4 A1       		.byte	-95
 1102 03d5 50       		.byte	80
 1103 03d6 04       		.byte	4
 1104 03d7 32       		.byte	50
 1105 03d8 F8       		.byte	-8
 1106 03d9 E7       		.byte	-25
 1107 03da DA       		.byte	-38
 1108 03db 68       		.byte	104
 1109 03dc 0D       		.byte	13
 1110 03dd 1C       		.byte	28
 1111 03de 4C       		.byte	76
 1112 03df 1B       		.byte	27
 1113 03e0 94       		.byte	-108
 1114 03e1 42       		.byte	66
 1115 03e2 02       		.byte	2
 1116 03e3 D0       		.byte	-48
 1117 03e4 00       		.byte	0
 1118 03e5 24       		.byte	36
 1119 03e6 10       		.byte	16
 1120 03e7 C1       		.byte	-63
 1121 03e8 F9       		.byte	-7
 1122 03e9 E7       		.byte	-25
 1123 03ea 10       		.byte	16
 1124 03eb 33       		.byte	51
 1125 03ec 01       		.byte	1
 1126 03ed 38       		.byte	56
 1127 03ee E7       		.byte	-25
 1128 03ef E7       		.byte	-25
 1129 03f0 00       		.byte	0
 1130 03f1 F0       		.byte	-16
 1131 03f2 DA       		.byte	-38
 1132 03f3 FD       		.byte	-3
 1133 03f4 FF       		.byte	-1
 1134 03f5 F7       		.byte	-9
 1135 03f6 46       		.byte	70
 1136 03f7 FF       		.byte	-1
 1137 03f8 FE       		.byte	-2
 1138 03f9 E7       		.byte	-25
 1139 03fa C0       		.byte	-64
 1140 03fb 46       		.byte	70
ARM GAS  C:\Users\jj-ay\AppData\Local\Temp\ccfFkvsK.s 			page 21


 1141 03fc 01       		.byte	1
 1142 03fd 00       		.byte	0
 1143 03fe 00       		.byte	0
 1144 03ff 00       		.byte	0
 1145 0400 74       		.byte	116
 1146 0401 10       		.byte	16
 1147 0402 00       		.byte	0
 1148 0403 00       		.byte	0
 1149 0404 08       		.byte	8
 1150 0405 B5       		.byte	-75
 1151 0406 00       		.byte	0
 1152 0407 23       		.byte	35
 1153 0408 9A       		.byte	-102
 1154 0409 00       		.byte	0
 1155 040a 03       		.byte	3
 1156 040b 2B       		.byte	43
 1157 040c 02       		.byte	2
 1158 040d D8       		.byte	-40
 1159 040e 0D       		.byte	13
 1160 040f 49       		.byte	73
 1161 0410 89       		.byte	-119
 1162 0411 58       		.byte	88
 1163 0412 00       		.byte	0
 1164 0413 E0       		.byte	-32
 1165 0414 0C       		.byte	12
 1166 0415 49       		.byte	73
 1167 0416 0D       		.byte	13
 1168 0417 48       		.byte	72
 1169 0418 01       		.byte	1
 1170 0419 33       		.byte	51
 1171 041a 81       		.byte	-127
 1172 041b 50       		.byte	80
 1173 041c 30       		.byte	48
 1174 041d 2B       		.byte	43
 1175 041e F3       		.byte	-13
 1176 041f D1       		.byte	-47
 1177 0420 FF       		.byte	-1
 1178 0421 F7       		.byte	-9
 1179 0422 FC       		.byte	-4
 1180 0423 FD       		.byte	-3
 1181 0424 0A       		.byte	10
 1182 0425 4B       		.byte	75
 1183 0426 00       		.byte	0
 1184 0427 22       		.byte	34
 1185 0428 1A       		.byte	26
 1186 0429 60       		.byte	96
 1187 042a 0A       		.byte	10
 1188 042b 4B       		.byte	75
 1189 042c 1A       		.byte	26
 1190 042d 68       		.byte	104
 1191 042e 00       		.byte	0
 1192 042f 2A       		.byte	42
 1193 0430 00       		.byte	0
 1194 0431 D1       		.byte	-47
 1195 0432 1A       		.byte	26
 1196 0433 60       		.byte	96
 1197 0434 80       		.byte	-128
ARM GAS  C:\Users\jj-ay\AppData\Local\Temp\ccfFkvsK.s 			page 22


 1198 0435 23       		.byte	35
 1199 0436 DB       		.byte	-37
 1200 0437 05       		.byte	5
 1201 0438 1A       		.byte	26
 1202 0439 68       		.byte	104
 1203 043a 01       		.byte	1
 1204 043b 21       		.byte	33
 1205 043c 0A       		.byte	10
 1206 043d 43       		.byte	67
 1207 043e 1A       		.byte	26
 1208 043f 60       		.byte	96
 1209 0440 08       		.byte	8
 1210 0441 BD       		.byte	-67
 1211 0442 C0       		.byte	-64
 1212 0443 46       		.byte	70
 1213 0444 00       		.byte	0
 1214 0445 00       		.byte	0
 1215 0446 00       		.byte	0
 1216 0447 00       		.byte	0
 1217 0448 B5       		.byte	-75
 1218 0449 03       		.byte	3
 1219 044a 00       		.byte	0
 1220 044b 00       		.byte	0
 1221 044c 00       		.byte	0
 1222 044d 00       		.byte	0
 1223 044e 00       		.byte	0
 1224 044f 20       		.byte	32
 1225 0450 C8       		.byte	-56
 1226 0451 00       		.byte	0
 1227 0452 00       		.byte	0
 1228 0453 20       		.byte	32
 1229 0454 C0       		.byte	-64
 1230 0455 00       		.byte	0
 1231 0456 00       		.byte	0
 1232 0457 20       		.byte	32
 1233 0458 00       		.byte	0
 1234 0459 47       		.byte	71
 1235 045a 70       		.byte	112
 1236 045b B5       		.byte	-75
 1237 045c 05       		.byte	5
 1238 045d 1C       		.byte	28
 1239 045e 0E       		.byte	14
 1240 045f 1C       		.byte	28
 1241 0460 14       		.byte	20
 1242 0461 1C       		.byte	28
 1243 0462 00       		.byte	0
 1244 0463 28       		.byte	40
 1245 0464 02       		.byte	2
 1246 0465 D0       		.byte	-48
 1247 0466 00       		.byte	0
 1248 0467 20       		.byte	32
 1249 0468 00       		.byte	0
 1250 0469 F0       		.byte	-16
 1251 046a EA       		.byte	-22
 1252 046b FC       		.byte	-4
 1253 046c 00       		.byte	0
 1254 046d 20       		.byte	32
ARM GAS  C:\Users\jj-ay\AppData\Local\Temp\ccfFkvsK.s 			page 23


 1255 046e 00       		.byte	0
 1256 046f 2C       		.byte	44
 1257 0470 05       		.byte	5
 1258 0471 D0       		.byte	-48
 1259 0472 01       		.byte	1
 1260 0473 3C       		.byte	60
 1261 0474 AA       		.byte	-86
 1262 0475 19       		.byte	25
 1263 0476 12       		.byte	18
 1264 0477 5D       		.byte	93
 1265 0478 83       		.byte	-125
 1266 0479 18       		.byte	24
 1267 047a D8       		.byte	-40
 1268 047b B2       		.byte	-78
 1269 047c F7       		.byte	-9
 1270 047d E7       		.byte	-25
 1271 047e 70       		.byte	112
 1272 047f BD       		.byte	-67
 1273 0480 01       		.byte	1
 1274 0481 38       		.byte	56
 1275 0482 08       		.byte	8
 1276 0483 B5       		.byte	-75
 1277 0484 09       		.byte	9
 1278 0485 28       		.byte	40
 1279 0486 2A       		.byte	42
 1280 0487 D8       		.byte	-40
 1281 0488 C9       		.byte	-55
 1282 0489 01       		.byte	1
 1283 048a 49       		.byte	73
 1284 048b 42       		.byte	66
 1285 048c 00       		.byte	0
 1286 048d F0       		.byte	-16
 1287 048e 78       		.byte	120
 1288 048f FD       		.byte	-3
 1289 0490 05       		.byte	5
 1290 0491 07       		.byte	7
 1291 0492 09       		.byte	9
 1292 0493 0B       		.byte	11
 1293 0494 0D       		.byte	13
 1294 0495 0F       		.byte	15
 1295 0496 16       		.byte	22
 1296 0497 14       		.byte	20
 1297 0498 18       		.byte	24
 1298 0499 1B       		.byte	27
 1299 049a 15       		.byte	21
 1300 049b 4B       		.byte	75
 1301 049c 08       		.byte	8
 1302 049d E0       		.byte	-32
 1303 049e 15       		.byte	21
 1304 049f 4B       		.byte	75
 1305 04a0 12       		.byte	18
 1306 04a1 E0       		.byte	-32
 1307 04a2 15       		.byte	21
 1308 04a3 4B       		.byte	75
 1309 04a4 0D       		.byte	13
 1310 04a5 E0       		.byte	-32
 1311 04a6 15       		.byte	21
ARM GAS  C:\Users\jj-ay\AppData\Local\Temp\ccfFkvsK.s 			page 24


 1312 04a7 4B       		.byte	75
 1313 04a8 0E       		.byte	14
 1314 04a9 E0       		.byte	-32
 1315 04aa 15       		.byte	21
 1316 04ab 4B       		.byte	75
 1317 04ac 00       		.byte	0
 1318 04ad E0       		.byte	-32
 1319 04ae 15       		.byte	21
 1320 04af 4B       		.byte	75
 1321 04b0 C9       		.byte	-55
 1322 04b1 18       		.byte	24
 1323 04b2 08       		.byte	8
 1324 04b3 78       		.byte	120
 1325 04b4 C0       		.byte	-64
 1326 04b5 B2       		.byte	-78
 1327 04b6 1A       		.byte	26
 1328 04b7 E0       		.byte	-32
 1329 04b8 13       		.byte	19
 1330 04b9 4B       		.byte	75
 1331 04ba 02       		.byte	2
 1332 04bb E0       		.byte	-32
 1333 04bc 13       		.byte	19
 1334 04bd 4B       		.byte	75
 1335 04be 00       		.byte	0
 1336 04bf E0       		.byte	-32
 1337 04c0 13       		.byte	19
 1338 04c1 4B       		.byte	75
 1339 04c2 C9       		.byte	-55
 1340 04c3 18       		.byte	24
 1341 04c4 0F       		.byte	15
 1342 04c5 E0       		.byte	-32
 1343 04c6 13       		.byte	19
 1344 04c7 4B       		.byte	75
 1345 04c8 C9       		.byte	-55
 1346 04c9 18       		.byte	24
 1347 04ca 0B       		.byte	11
 1348 04cb 78       		.byte	120
 1349 04cc 48       		.byte	72
 1350 04cd 78       		.byte	120
 1351 04ce 8A       		.byte	-118
 1352 04cf 78       		.byte	120
 1353 04d0 00       		.byte	0
 1354 04d1 02       		.byte	2
 1355 04d2 12       		.byte	18
 1356 04d3 04       		.byte	4
 1357 04d4 10       		.byte	16
 1358 04d5 43       		.byte	67
 1359 04d6 18       		.byte	24
 1360 04d7 43       		.byte	67
 1361 04d8 CB       		.byte	-53
 1362 04d9 78       		.byte	120
 1363 04da 1B       		.byte	27
 1364 04db 06       		.byte	6
 1365 04dc 06       		.byte	6
 1366 04dd E0       		.byte	-32
 1367 04de 00       		.byte	0
 1368 04df 20       		.byte	32
ARM GAS  C:\Users\jj-ay\AppData\Local\Temp\ccfFkvsK.s 			page 25


 1369 04e0 00       		.byte	0
 1370 04e1 F0       		.byte	-16
 1371 04e2 AE       		.byte	-82
 1372 04e3 FC       		.byte	-4
 1373 04e4 00       		.byte	0
 1374 04e5 21       		.byte	33
 1375 04e6 0B       		.byte	11
 1376 04e7 78       		.byte	120
 1377 04e8 48       		.byte	72
 1378 04e9 78       		.byte	120
 1379 04ea 00       		.byte	0
 1380 04eb 02       		.byte	2
 1381 04ec 18       		.byte	24
 1382 04ed 43       		.byte	67
 1383 04ee 08       		.byte	8
 1384 04ef BD       		.byte	-67
 1385 04f0 C0       		.byte	-64
 1386 04f1 7F       		.byte	127
 1387 04f2 00       		.byte	0
 1388 04f3 00       		.byte	0
 1389 04f4 C1       		.byte	-63
 1390 04f5 7F       		.byte	127
 1391 04f6 00       		.byte	0
 1392 04f7 00       		.byte	0
 1393 04f8 C5       		.byte	-59
 1394 04f9 7F       		.byte	127
 1395 04fa 00       		.byte	0
 1396 04fb 00       		.byte	0
 1397 04fc C9       		.byte	-55
 1398 04fd 7F       		.byte	127
 1399 04fe 00       		.byte	0
 1400 04ff 00       		.byte	0
 1401 0500 D0       		.byte	-48
 1402 0501 7F       		.byte	127
 1403 0502 00       		.byte	0
 1404 0503 00       		.byte	0
 1405 0504 D1       		.byte	-47
 1406 0505 7F       		.byte	127
 1407 0506 00       		.byte	0
 1408 0507 00       		.byte	0
 1409 0508 D6       		.byte	-42
 1410 0509 7F       		.byte	127
 1411 050a 00       		.byte	0
 1412 050b 00       		.byte	0
 1413 050c D2       		.byte	-46
 1414 050d 7F       		.byte	127
 1415 050e 00       		.byte	0
 1416 050f 00       		.byte	0
 1417 0510 D4       		.byte	-44
 1418 0511 7F       		.byte	127
 1419 0512 00       		.byte	0
 1420 0513 00       		.byte	0
 1421 0514 D8       		.byte	-40
 1422 0515 7F       		.byte	127
 1423 0516 00       		.byte	0
 1424 0517 00       		.byte	0
 1425 0518 0C       		.byte	12
ARM GAS  C:\Users\jj-ay\AppData\Local\Temp\ccfFkvsK.s 			page 26


 1426 0519 4B       		.byte	75
 1427 051a 10       		.byte	16
 1428 051b B5       		.byte	-75
 1429 051c 1A       		.byte	26
 1430 051d 68       		.byte	104
 1431 051e 10       		.byte	16
 1432 051f 23       		.byte	35
 1433 0520 1A       		.byte	26
 1434 0521 40       		.byte	64
 1435 0522 0B       		.byte	11
 1436 0523 4B       		.byte	75
 1437 0524 00       		.byte	0
 1438 0525 D1       		.byte	-47
 1439 0526 1A       		.byte	26
 1440 0527 60       		.byte	96
 1441 0528 1A       		.byte	26
 1442 0529 68       		.byte	104
 1443 052a 80       		.byte	-128
 1444 052b 2A       		.byte	42
 1445 052c 0D       		.byte	13
 1446 052d D1       		.byte	-47
 1447 052e 00       		.byte	0
 1448 052f 24       		.byte	36
 1449 0530 02       		.byte	2
 1450 0531 20       		.byte	32
 1451 0532 21       		.byte	33
 1452 0533 1C       		.byte	28
 1453 0534 1C       		.byte	28
 1454 0535 60       		.byte	96
 1455 0536 FF       		.byte	-1
 1456 0537 F7       		.byte	-9
 1457 0538 A3       		.byte	-93
 1458 0539 FF       		.byte	-1
 1459 053a A0       		.byte	-96
 1460 053b 42       		.byte	66
 1461 053c 05       		.byte	5
 1462 053d D0       		.byte	-48
 1463 053e 21       		.byte	33
 1464 053f 1C       		.byte	28
 1465 0540 02       		.byte	2
 1466 0541 20       		.byte	32
 1467 0542 FF       		.byte	-1
 1468 0543 F7       		.byte	-9
 1469 0544 9D       		.byte	-99
 1470 0545 FF       		.byte	-1
 1471 0546 FF       		.byte	-1
 1472 0547 F7       		.byte	-9
 1473 0548 87       		.byte	-121
 1474 0549 FF       		.byte	-1
 1475 054a 10       		.byte	16
 1476 054b BD       		.byte	-67
 1477 054c 00       		.byte	0
 1478 054d 03       		.byte	3
 1479 054e 0B       		.byte	11
 1480 054f 40       		.byte	64
 1481 0550 C0       		.byte	-64
 1482 0551 00       		.byte	0
ARM GAS  C:\Users\jj-ay\AppData\Local\Temp\ccfFkvsK.s 			page 27


 1483 0552 00       		.byte	0
 1484 0553 20       		.byte	32
 1485 0554 F8       		.byte	-8
 1486 0555 B5       		.byte	-75
 1487 0556 05       		.byte	5
 1488 0557 1C       		.byte	28
 1489 0558 29       		.byte	41
 1490 0559 1C       		.byte	28
 1491 055a 03       		.byte	3
 1492 055b 20       		.byte	32
 1493 055c FF       		.byte	-1
 1494 055d F7       		.byte	-9
 1495 055e 90       		.byte	-112
 1496 055f FF       		.byte	-1
 1497 0560 29       		.byte	41
 1498 0561 1C       		.byte	28
 1499 0562 04       		.byte	4
 1500 0563 1C       		.byte	28
 1501 0564 04       		.byte	4
 1502 0565 20       		.byte	32
 1503 0566 FF       		.byte	-1
 1504 0567 F7       		.byte	-9
 1505 0568 8B       		.byte	-117
 1506 0569 FF       		.byte	-1
 1507 056a 67       		.byte	103
 1508 056b 1C       		.byte	28
 1509 056c FF       		.byte	-1
 1510 056d 01       		.byte	1
 1511 056e 3F       		.byte	63
 1512 056f 18       		.byte	24
 1513 0570 29       		.byte	41
 1514 0571 1C       		.byte	28
 1515 0572 03       		.byte	3
 1516 0573 20       		.byte	32
 1517 0574 FF       		.byte	-1
 1518 0575 F7       		.byte	-9
 1519 0576 84       		.byte	-124
 1520 0577 FF       		.byte	-1
 1521 0578 00       		.byte	0
 1522 0579 24       		.byte	36
 1523 057a 01       		.byte	1
 1524 057b 30       		.byte	48
 1525 057c C0       		.byte	-64
 1526 057d 01       		.byte	1
 1527 057e 26       		.byte	38
 1528 057f 1C       		.byte	28
 1529 0580 B8       		.byte	-72
 1530 0581 42       		.byte	66
 1531 0582 09       		.byte	9
 1532 0583 D2       		.byte	-46
 1533 0584 03       		.byte	3
 1534 0585 78       		.byte	120
 1535 0586 5A       		.byte	90
 1536 0587 1E       		.byte	30
 1537 0588 D2       		.byte	-46
 1538 0589 B2       		.byte	-78
 1539 058a FD       		.byte	-3
ARM GAS  C:\Users\jj-ay\AppData\Local\Temp\ccfFkvsK.s 			page 28


 1540 058b 2A       		.byte	42
 1541 058c 00       		.byte	0
 1542 058d D8       		.byte	-40
 1543 058e 01       		.byte	1
 1544 058f 26       		.byte	38
 1545 0590 1C       		.byte	28
 1546 0591 19       		.byte	25
 1547 0592 E4       		.byte	-28
 1548 0593 B2       		.byte	-78
 1549 0594 01       		.byte	1
 1550 0595 30       		.byte	48
 1551 0596 F3       		.byte	-13
 1552 0597 E7       		.byte	-25
 1553 0598 01       		.byte	1
 1554 0599 20       		.byte	32
 1555 059a 29       		.byte	41
 1556 059b 1C       		.byte	28
 1557 059c FF       		.byte	-1
 1558 059d F7       		.byte	-9
 1559 059e 70       		.byte	112
 1560 059f FF       		.byte	-1
 1561 05a0 64       		.byte	100
 1562 05a1 42       		.byte	66
 1563 05a2 E4       		.byte	-28
 1564 05a3 B2       		.byte	-78
 1565 05a4 06       		.byte	6
 1566 05a5 23       		.byte	35
 1567 05a6 84       		.byte	-124
 1568 05a7 42       		.byte	66
 1569 05a8 03       		.byte	3
 1570 05a9 D1       		.byte	-47
 1571 05aa 72       		.byte	114
 1572 05ab 42       		.byte	66
 1573 05ac 56       		.byte	86
 1574 05ad 41       		.byte	65
 1575 05ae 76       		.byte	118
 1576 05af 42       		.byte	66
 1577 05b0 33       		.byte	51
 1578 05b1 40       		.byte	64
 1579 05b2 18       		.byte	24
 1580 05b3 1C       		.byte	28
 1581 05b4 F8       		.byte	-8
 1582 05b5 BD       		.byte	-67
 1583 05b6 00       		.byte	0
 1584 05b7 00       		.byte	0
 1585 05b8 F0       		.byte	-16
 1586 05b9 B5       		.byte	-75
 1587 05ba A4       		.byte	-92
 1588 05bb 4C       		.byte	76
 1589 05bc A5       		.byte	-91
 1590 05bd 44       		.byte	68
 1591 05be FF       		.byte	-1
 1592 05bf F7       		.byte	-9
 1593 05c0 7D       		.byte	125
 1594 05c1 FE       		.byte	-2
 1595 05c2 62       		.byte	98
 1596 05c3 B6       		.byte	-74
ARM GAS  C:\Users\jj-ay\AppData\Local\Temp\ccfFkvsK.s 			page 29


 1597 05c4 00       		.byte	0
 1598 05c5 26       		.byte	38
 1599 05c6 00       		.byte	0
 1600 05c7 96       		.byte	-106
 1601 05c8 00       		.byte	0
 1602 05c9 25       		.byte	37
 1603 05ca 06       		.byte	6
 1604 05cb AC       		.byte	-84
 1605 05cc 03       		.byte	3
 1606 05cd AE       		.byte	-82
 1607 05ce 96       		.byte	-106
 1608 05cf 21       		.byte	33
 1609 05d0 20       		.byte	32
 1610 05d1 1C       		.byte	28
 1611 05d2 49       		.byte	73
 1612 05d3 00       		.byte	0
 1613 05d4 32       		.byte	50
 1614 05d5 1C       		.byte	28
 1615 05d6 FF       		.byte	-1
 1616 05d7 23       		.byte	35
 1617 05d8 FF       		.byte	-1
 1618 05d9 F7       		.byte	-9
 1619 05da 86       		.byte	-122
 1620 05db FE       		.byte	-2
 1621 05dc 00       		.byte	0
 1622 05dd 28       		.byte	40
 1623 05de F4       		.byte	-12
 1624 05df D1       		.byte	-47
 1625 05e0 31       		.byte	49
 1626 05e1 88       		.byte	-120
 1627 05e2 06       		.byte	6
 1628 05e3 29       		.byte	41
 1629 05e4 00       		.byte	0
 1630 05e5 D8       		.byte	-40
 1631 05e6 8A       		.byte	-118
 1632 05e7 E0       		.byte	-32
 1633 05e8 22       		.byte	34
 1634 05e9 78       		.byte	120
 1635 05ea 04       		.byte	4
 1636 05eb 23       		.byte	35
 1637 05ec 01       		.byte	1
 1638 05ed 2A       		.byte	42
 1639 05ee 54       		.byte	84
 1640 05ef D1       		.byte	-47
 1641 05f0 E7       		.byte	-25
 1642 05f1 78       		.byte	120
 1643 05f2 A2       		.byte	-94
 1644 05f3 78       		.byte	120
 1645 05f4 3F       		.byte	63
 1646 05f5 02       		.byte	2
 1647 05f6 17       		.byte	23
 1648 05f7 43       		.byte	67
 1649 05f8 E2       		.byte	-30
 1650 05f9 19       		.byte	25
 1651 05fa 56       		.byte	86
 1652 05fb 79       		.byte	121
 1653 05fc B4       		.byte	-76
ARM GAS  C:\Users\jj-ay\AppData\Local\Temp\ccfFkvsK.s 			page 30


 1654 05fd 46       		.byte	70
 1655 05fe 16       		.byte	22
 1656 05ff 79       		.byte	121
 1657 0600 01       		.byte	1
 1658 0601 96       		.byte	-106
 1659 0602 FE       		.byte	-2
 1660 0603 1D       		.byte	29
 1661 0604 8E       		.byte	-114
 1662 0605 42       		.byte	66
 1663 0606 7F       		.byte	127
 1664 0607 D8       		.byte	-40
 1665 0608 92       		.byte	-110
 1666 0609 79       		.byte	121
 1667 060a 17       		.byte	23
 1668 060b 2A       		.byte	42
 1669 060c 45       		.byte	69
 1670 060d D1       		.byte	-47
 1671 060e FB       		.byte	-5
 1672 060f 18       		.byte	24
 1673 0610 9B       		.byte	-101
 1674 0611 B2       		.byte	-78
 1675 0612 00       		.byte	0
 1676 0613 2B       		.byte	43
 1677 0614 08       		.byte	8
 1678 0615 D0       		.byte	-48
 1679 0616 9C       		.byte	-100
 1680 0617 A9       		.byte	-87
 1681 0618 8D       		.byte	-115
 1682 0619 4E       		.byte	78
 1683 061a CA       		.byte	-54
 1684 061b 18       		.byte	24
 1685 061c 92       		.byte	-110
 1686 061d 19       		.byte	25
 1687 061e 12       		.byte	18
 1688 061f 78       		.byte	120
 1689 0620 01       		.byte	1
 1690 0621 3B       		.byte	59
 1691 0622 80       		.byte	-128
 1692 0623 18       		.byte	24
 1693 0624 80       		.byte	-128
 1694 0625 B2       		.byte	-78
 1695 0626 F3       		.byte	-13
 1696 0627 E7       		.byte	-25
 1697 0628 01       		.byte	1
 1698 0629 9B       		.byte	-101
 1699 062a 61       		.byte	97
 1700 062b 46       		.byte	70
 1701 062c 40       		.byte	64
 1702 062d 42       		.byte	66
 1703 062e 0A       		.byte	10
 1704 062f 02       		.byte	2
 1705 0630 80       		.byte	-128
 1706 0631 B2       		.byte	-78
 1707 0632 1A       		.byte	26
 1708 0633 43       		.byte	67
 1709 0634 08       		.byte	8
 1710 0635 23       		.byte	35
ARM GAS  C:\Users\jj-ay\AppData\Local\Temp\ccfFkvsK.s 			page 31


 1711 0636 82       		.byte	-126
 1712 0637 42       		.byte	66
 1713 0638 2F       		.byte	47
 1714 0639 D1       		.byte	-47
 1715 063a 67       		.byte	103
 1716 063b E0       		.byte	-32
 1717 063c 34       		.byte	52
 1718 063d 2B       		.byte	43
 1719 063e 00       		.byte	0
 1720 063f D0       		.byte	-48
 1721 0640 9D       		.byte	-99
 1722 0641 E0       		.byte	-32
 1723 0642 00       		.byte	0
 1724 0643 99       		.byte	-103
 1725 0644 01       		.byte	1
 1726 0645 29       		.byte	41
 1727 0646 5A       		.byte	90
 1728 0647 D1       		.byte	-47
 1729 0648 03       		.byte	3
 1730 0649 2F       		.byte	47
 1731 064a 58       		.byte	88
 1732 064b D1       		.byte	-47
 1733 064c 51       		.byte	81
 1734 064d A8       		.byte	-88
 1735 064e 00       		.byte	0
 1736 064f 21       		.byte	33
 1737 0650 80       		.byte	-128
 1738 0651 22       		.byte	34
 1739 0652 00       		.byte	0
 1740 0653 F0       		.byte	-16
 1741 0654 D8       		.byte	-40
 1742 0655 FC       		.byte	-4
 1743 0656 80       		.byte	-128
 1744 0657 25       		.byte	37
 1745 0658 51       		.byte	81
 1746 0659 A9       		.byte	-87
 1747 065a 48       		.byte	72
 1748 065b 19       		.byte	25
 1749 065c 26       		.byte	38
 1750 065d 39       		.byte	57
 1751 065e ED       		.byte	-19
 1752 065f 19       		.byte	25
 1753 0660 FA       		.byte	-6
 1754 0661 1E       		.byte	30
 1755 0662 FF       		.byte	-1
 1756 0663 39       		.byte	57
 1757 0664 AD       		.byte	-83
 1758 0665 B2       		.byte	-78
 1759 0666 00       		.byte	0
 1760 0667 F0       		.byte	-16
 1761 0668 C5       		.byte	-59
 1762 0669 FC       		.byte	-4
 1763 066a 83       		.byte	-125
 1764 066b 2D       		.byte	45
 1765 066c 49       		.byte	73
 1766 066d D1       		.byte	-47
 1767 066e A0       		.byte	-96
ARM GAS  C:\Users\jj-ay\AppData\Local\Temp\ccfFkvsK.s 			page 32


 1768 066f 79       		.byte	121
 1769 0670 63       		.byte	99
 1770 0671 79       		.byte	121
 1771 0672 00       		.byte	0
 1772 0673 02       		.byte	2
 1773 0674 18       		.byte	24
 1774 0675 43       		.byte	67
 1775 0676 77       		.byte	119
 1776 0677 4B       		.byte	75
 1777 0678 36       		.byte	54
 1778 0679 02       		.byte	2
 1779 067a 1B       		.byte	27
 1780 067b 68       		.byte	104
 1781 067c 80       		.byte	-128
 1782 067d 19       		.byte	25
 1783 067e 1A       		.byte	26
 1784 067f 68       		.byte	104
 1785 0680 80       		.byte	-128
 1786 0681 B2       		.byte	-78
 1787 0682 D3       		.byte	-45
 1788 0683 09       		.byte	9
 1789 0684 9B       		.byte	-101
 1790 0685 B2       		.byte	-78
 1791 0686 56       		.byte	86
 1792 0687 06       		.byte	6
 1793 0688 01       		.byte	1
 1794 0689 D0       		.byte	-48
 1795 068a 01       		.byte	1
 1796 068b 33       		.byte	51
 1797 068c 9B       		.byte	-101
 1798 068d B2       		.byte	-78
 1799 068e 98       		.byte	-104
 1800 068f 42       		.byte	66
 1801 0690 7B       		.byte	123
 1802 0691 D2       		.byte	-46
 1803 0692 01       		.byte	1
 1804 0693 27       		.byte	39
 1805 0694 00       		.byte	0
 1806 0695 97       		.byte	-105
 1807 0696 00       		.byte	0
 1808 0697 25       		.byte	37
 1809 0698 0A       		.byte	10
 1810 0699 23       		.byte	35
 1811 069a 00       		.byte	0
 1812 069b 21       		.byte	33
 1813 069c 01       		.byte	1
 1814 069d 20       		.byte	32
 1815 069e 20       		.byte	32
 1816 069f 70       		.byte	112
 1817 06a0 68       		.byte	104
 1818 06a1 46       		.byte	70
 1819 06a2 6A       		.byte	106
 1820 06a3 46       		.byte	70
 1821 06a4 43       		.byte	67
 1822 06a5 76       		.byte	118
 1823 06a6 81       		.byte	-127
 1824 06a7 76       		.byte	118
ARM GAS  C:\Users\jj-ay\AppData\Local\Temp\ccfFkvsK.s 			page 33


 1825 06a8 6B       		.byte	107
 1826 06a9 46       		.byte	70
 1827 06aa 00       		.byte	0
 1828 06ab 20       		.byte	32
 1829 06ac 0E       		.byte	14
 1830 06ad 32       		.byte	50
 1831 06ae D8       		.byte	-40
 1832 06af 76       		.byte	118
 1833 06b0 0B       		.byte	11
 1834 06b1 1D       		.byte	29
 1835 06b2 11       		.byte	17
 1836 06b3 80       		.byte	-128
 1837 06b4 9B       		.byte	-101
 1838 06b5 B2       		.byte	-78
 1839 06b6 9C       		.byte	-100
 1840 06b7 AF       		.byte	-81
 1841 06b8 FE       		.byte	-2
 1842 06b9 18       		.byte	24
 1843 06ba 65       		.byte	101
 1844 06bb 4F       		.byte	79
 1845 06bc 01       		.byte	1
 1846 06bd 3B       		.byte	59
 1847 06be F6       		.byte	-10
 1848 06bf 19       		.byte	25
 1849 06c0 36       		.byte	54
 1850 06c1 78       		.byte	120
 1851 06c2 9B       		.byte	-101
 1852 06c3 B2       		.byte	-78
 1853 06c4 80       		.byte	-128
 1854 06c5 19       		.byte	25
 1855 06c6 80       		.byte	-128
 1856 06c7 B2       		.byte	-78
 1857 06c8 00       		.byte	0
 1858 06c9 2B       		.byte	43
 1859 06ca F4       		.byte	-12
 1860 06cb D1       		.byte	-47
 1861 06cc 9C       		.byte	-100
 1862 06cd AE       		.byte	-82
 1863 06ce 62       		.byte	98
 1864 06cf 4F       		.byte	79
 1865 06d0 73       		.byte	115
 1866 06d1 18       		.byte	24
 1867 06d2 DE       		.byte	-34
 1868 06d3 19       		.byte	25
 1869 06d4 40       		.byte	64
 1870 06d5 42       		.byte	66
 1871 06d6 61       		.byte	97
 1872 06d7 4F       		.byte	79
 1873 06d8 80       		.byte	-128
 1874 06d9 B2       		.byte	-78
 1875 06da 30       		.byte	48
 1876 06db 70       		.byte	112
 1877 06dc DE       		.byte	-34
 1878 06dd 19       		.byte	25
 1879 06de 00       		.byte	0
 1880 06df 0A       		.byte	10
 1881 06e0 30       		.byte	48
ARM GAS  C:\Users\jj-ay\AppData\Local\Temp\ccfFkvsK.s 			page 34


 1882 06e1 70       		.byte	112
 1883 06e2 5F       		.byte	95
 1884 06e3 48       		.byte	72
 1885 06e4 07       		.byte	7
 1886 06e5 31       		.byte	49
 1887 06e6 1B       		.byte	27
 1888 06e7 18       		.byte	24
 1889 06e8 17       		.byte	23
 1890 06e9 20       		.byte	32
 1891 06ea 18       		.byte	24
 1892 06eb 70       		.byte	112
 1893 06ec 89       		.byte	-119
 1894 06ed B2       		.byte	-78
 1895 06ee 20       		.byte	32
 1896 06ef 1C       		.byte	28
 1897 06f0 96       		.byte	-106
 1898 06f1 23       		.byte	35
 1899 06f2 FF       		.byte	-1
 1900 06f3 F7       		.byte	-9
 1901 06f4 EB       		.byte	-21
 1902 06f5 FD       		.byte	-3
 1903 06f6 68       		.byte	104
 1904 06f7 E7       		.byte	-25
 1905 06f8 00       		.byte	0
 1906 06f9 9E       		.byte	-98
 1907 06fa 01       		.byte	1
 1908 06fb 2E       		.byte	46
 1909 06fc 1B       		.byte	27
 1910 06fd D0       		.byte	-48
 1911 06fe 04       		.byte	4
 1912 06ff 23       		.byte	35
 1913 0700 CB       		.byte	-53
 1914 0701 E7       		.byte	-25
 1915 0702 01       		.byte	1
 1916 0703 26       		.byte	38
 1917 0704 00       		.byte	0
 1918 0705 96       		.byte	-106
 1919 0706 00       		.byte	0
 1920 0707 25       		.byte	37
 1921 0708 03       		.byte	3
 1922 0709 23       		.byte	35
 1923 070a C6       		.byte	-58
 1924 070b E7       		.byte	-25
 1925 070c 63       		.byte	99
 1926 070d 78       		.byte	120
 1927 070e 26       		.byte	38
 1928 070f 79       		.byte	121
 1929 0710 18       		.byte	24
 1930 0711 1C       		.byte	28
 1931 0712 31       		.byte	49
 1932 0713 38       		.byte	56
 1933 0714 0A       		.byte	10
 1934 0715 28       		.byte	40
 1935 0716 01       		.byte	1
 1936 0717 D9       		.byte	-39
 1937 0718 05       		.byte	5
 1938 0719 23       		.byte	35
ARM GAS  C:\Users\jj-ay\AppData\Local\Temp\ccfFkvsK.s 			page 35


 1939 071a BE       		.byte	-66
 1940 071b E7       		.byte	-25
 1941 071c 00       		.byte	0
 1942 071d F0       		.byte	-16
 1943 071e 3A       		.byte	58
 1944 071f FC       		.byte	-4
 1945 0720 EC       		.byte	-20
 1946 0721 FF       		.byte	-1
 1947 0722 14       		.byte	20
 1948 0723 00       		.byte	0
 1949 0724 FC       		.byte	-4
 1950 0725 FF       		.byte	-1
 1951 0726 8E       		.byte	-114
 1952 0727 FF       		.byte	-1
 1953 0728 3F       		.byte	63
 1954 0729 00       		.byte	0
 1955 072a FC       		.byte	-4
 1956 072b FF       		.byte	-1
 1957 072c 43       		.byte	67
 1958 072d 00       		.byte	0
 1959 072e 54       		.byte	84
 1960 072f 00       		.byte	0
 1961 0730 8E       		.byte	-114
 1962 0731 FF       		.byte	-1
 1963 0732 63       		.byte	99
 1964 0733 00       		.byte	0
 1965 0734 8B       		.byte	-117
 1966 0735 00       		.byte	0
 1967 0736 00       		.byte	0
 1968 0737 2F       		.byte	47
 1969 0738 E1       		.byte	-31
 1970 0739 D1       		.byte	-47
 1971 073a 38       		.byte	56
 1972 073b 1C       		.byte	28
 1973 073c FF       		.byte	-1
 1974 073d F7       		.byte	-9
 1975 073e 0A       		.byte	10
 1976 073f FF       		.byte	-1
 1977 0740 43       		.byte	67
 1978 0741 42       		.byte	66
 1979 0742 43       		.byte	67
 1980 0743 41       		.byte	65
 1981 0744 23       		.byte	35
 1982 0745 71       		.byte	113
 1983 0746 73       		.byte	115
 1984 0747 E0       		.byte	-32
 1985 0748 00       		.byte	0
 1986 0749 98       		.byte	-104
 1987 074a 01       		.byte	1
 1988 074b 28       		.byte	40
 1989 074c D7       		.byte	-41
 1990 074d D1       		.byte	-47
 1991 074e 01       		.byte	1
 1992 074f 2F       		.byte	47
 1993 0750 D5       		.byte	-43
 1994 0751 D1       		.byte	-47
 1995 0752 00       		.byte	0
ARM GAS  C:\Users\jj-ay\AppData\Local\Temp\ccfFkvsK.s 			page 36


 1996 0753 2E       		.byte	46
 1997 0754 D3       		.byte	-45
 1998 0755 D1       		.byte	-47
 1999 0756 3F       		.byte	63
 2000 0757 4B       		.byte	75
 2001 0758 1B       		.byte	27
 2002 0759 68       		.byte	104
 2003 075a 1B       		.byte	27
 2004 075b 68       		.byte	104
 2005 075c DA       		.byte	-38
 2006 075d 0B       		.byte	11
 2007 075e D2       		.byte	-46
 2008 075f B2       		.byte	-78
 2009 0760 DB       		.byte	-37
 2010 0761 09       		.byte	9
 2011 0762 DB       		.byte	-37
 2012 0763 B2       		.byte	-78
 2013 0764 00       		.byte	0
 2014 0765 2A       		.byte	42
 2015 0766 01       		.byte	1
 2016 0767 D0       		.byte	-48
 2017 0768 80       		.byte	-128
 2018 0769 23       		.byte	35
 2019 076a 5B       		.byte	91
 2020 076b 00       		.byte	0
 2021 076c 23       		.byte	35
 2022 076d 71       		.byte	113
 2023 076e 1B       		.byte	27
 2024 076f 0A       		.byte	10
 2025 0770 63       		.byte	99
 2026 0771 71       		.byte	113
 2027 0772 FF       		.byte	-1
 2028 0773 23       		.byte	35
 2029 0774 A3       		.byte	-93
 2030 0775 71       		.byte	113
 2031 0776 00       		.byte	0
 2032 0777 23       		.byte	35
 2033 0778 E3       		.byte	-29
 2034 0779 71       		.byte	113
 2035 077a 04       		.byte	4
 2036 077b 21       		.byte	33
 2037 077c 8E       		.byte	-114
 2038 077d E7       		.byte	-25
 2039 077e 00       		.byte	0
 2040 077f 9B       		.byte	-101
 2041 0780 01       		.byte	1
 2042 0781 2B       		.byte	43
 2043 0782 BC       		.byte	-68
 2044 0783 D1       		.byte	-47
 2045 0784 02       		.byte	2
 2046 0785 2F       		.byte	47
 2047 0786 BA       		.byte	-70
 2048 0787 D9       		.byte	-39
 2049 0788 66       		.byte	102
 2050 0789 E7       		.byte	-25
 2051 078a 51       		.byte	81
 2052 078b A9       		.byte	-87
ARM GAS  C:\Users\jj-ay\AppData\Local\Temp\ccfFkvsK.s 			page 37


 2053 078c 00       		.byte	0
 2054 078d F0       		.byte	-16
 2055 078e 48       		.byte	72
 2056 078f FA       		.byte	-6
 2057 0790 00       		.byte	0
 2058 0791 28       		.byte	40
 2059 0792 00       		.byte	0
 2060 0793 D0       		.byte	-48
 2061 0794 7D       		.byte	125
 2062 0795 E7       		.byte	-25
 2063 0796 01       		.byte	1
 2064 0797 26       		.byte	38
 2065 0798 00       		.byte	0
 2066 0799 96       		.byte	-106
 2067 079a 05       		.byte	5
 2068 079b 1C       		.byte	28
 2069 079c 12       		.byte	18
 2070 079d E0       		.byte	-32
 2071 079e 00       		.byte	0
 2072 079f 9F       		.byte	-97
 2073 07a0 01       		.byte	1
 2074 07a1 2F       		.byte	47
 2075 07a2 AC       		.byte	-84
 2076 07a3 D1       		.byte	-47
 2077 07a4 10       		.byte	16
 2078 07a5 E7       		.byte	-25
 2079 07a6 00       		.byte	0
 2080 07a7 9E       		.byte	-98
 2081 07a8 01       		.byte	1
 2082 07a9 2E       		.byte	46
 2083 07aa A8       		.byte	-88
 2084 07ab D1       		.byte	-47
 2085 07ac 96       		.byte	-106
 2086 07ad 23       		.byte	35
 2087 07ae EE       		.byte	-18
 2088 07af 19       		.byte	25
 2089 07b0 5B       		.byte	91
 2090 07b1 00       		.byte	0
 2091 07b2 9E       		.byte	-98
 2092 07b3 42       		.byte	66
 2093 07b4 A8       		.byte	-88
 2094 07b5 D8       		.byte	-40
 2095 07b6 51       		.byte	81
 2096 07b7 A9       		.byte	-87
 2097 07b8 48       		.byte	72
 2098 07b9 19       		.byte	25
 2099 07ba 3A       		.byte	58
 2100 07bb 1C       		.byte	28
 2101 07bc 07       		.byte	7
 2102 07bd A9       		.byte	-87
 2103 07be 00       		.byte	0
 2104 07bf F0       		.byte	-16
 2105 07c0 19       		.byte	25
 2106 07c1 FC       		.byte	-4
 2107 07c2 B5       		.byte	-75
 2108 07c3 B2       		.byte	-78
 2109 07c4 00       		.byte	0
ARM GAS  C:\Users\jj-ay\AppData\Local\Temp\ccfFkvsK.s 			page 38


 2110 07c5 23       		.byte	35
 2111 07c6 68       		.byte	104
 2112 07c7 E7       		.byte	-25
 2113 07c8 00       		.byte	0
 2114 07c9 2F       		.byte	47
 2115 07ca 98       		.byte	-104
 2116 07cb D1       		.byte	-47
 2117 07cc 04       		.byte	4
 2118 07cd AB       		.byte	-85
 2119 07ce 25       		.byte	37
 2120 07cf 4A       		.byte	74
 2121 07d0 19       		.byte	25
 2122 07d1 1C       		.byte	28
 2123 07d2 41       		.byte	65
 2124 07d3 CA       		.byte	-54
 2125 07d4 41       		.byte	65
 2126 07d5 C1       		.byte	-63
 2127 07d6 07       		.byte	7
 2128 07d7 AA       		.byte	-86
 2129 07d8 41       		.byte	65
 2130 07d9 CB       		.byte	-53
 2131 07da 41       		.byte	65
 2132 07db C2       		.byte	-62
 2133 07dc 01       		.byte	1
 2134 07dd 26       		.byte	38
 2135 07de 00       		.byte	0
 2136 07df 96       		.byte	-106
 2137 07e0 3B       		.byte	59
 2138 07e1 1C       		.byte	28
 2139 07e2 08       		.byte	8
 2140 07e3 21       		.byte	33
 2141 07e4 5A       		.byte	90
 2142 07e5 E7       		.byte	-25
 2143 07e6 00       		.byte	0
 2144 07e7 98       		.byte	-104
 2145 07e8 01       		.byte	1
 2146 07e9 28       		.byte	40
 2147 07ea 88       		.byte	-120
 2148 07eb D1       		.byte	-47
 2149 07ec 03       		.byte	3
 2150 07ed 2F       		.byte	47
 2151 07ee 86       		.byte	-122
 2152 07ef D1       		.byte	-47
 2153 07f0 A3       		.byte	-93
 2154 07f1 79       		.byte	121
 2155 07f2 62       		.byte	98
 2156 07f3 79       		.byte	121
 2157 07f4 1B       		.byte	27
 2158 07f5 02       		.byte	2
 2159 07f6 1A       		.byte	26
 2160 07f7 43       		.byte	67
 2161 07f8 31       		.byte	49
 2162 07f9 02       		.byte	2
 2163 07fa 51       		.byte	81
 2164 07fb 18       		.byte	24
 2165 07fc 01       		.byte	1
 2166 07fd 92       		.byte	-110
ARM GAS  C:\Users\jj-ay\AppData\Local\Temp\ccfFkvsK.s 			page 39


 2167 07fe C9       		.byte	-55
 2168 07ff 01       		.byte	1
 2169 0800 00       		.byte	0
 2170 0801 20       		.byte	32
 2171 0802 80       		.byte	-128
 2172 0803 22       		.byte	34
 2173 0804 FF       		.byte	-1
 2174 0805 F7       		.byte	-9
 2175 0806 29       		.byte	41
 2176 0807 FE       		.byte	-2
 2177 0808 07       		.byte	7
 2178 0809 1C       		.byte	28
 2179 080a 00       		.byte	0
 2180 080b 2E       		.byte	46
 2181 080c 0E       		.byte	14
 2182 080d D1       		.byte	-47
 2183 080e 01       		.byte	1
 2184 080f 99       		.byte	-103
 2185 0810 FF       		.byte	-1
 2186 0811 29       		.byte	41
 2187 0812 0B       		.byte	11
 2188 0813 D1       		.byte	-47
 2189 0814 31       		.byte	49
 2190 0815 1C       		.byte	28
 2191 0816 05       		.byte	5
 2192 0817 20       		.byte	32
 2193 0818 FF       		.byte	-1
 2194 0819 F7       		.byte	-9
 2195 081a 32       		.byte	50
 2196 081b FE       		.byte	-2
 2197 081c 31       		.byte	49
 2198 081d 1C       		.byte	28
 2199 081e 3F       		.byte	63
 2200 081f 1A       		.byte	26
 2201 0820 06       		.byte	6
 2202 0821 20       		.byte	32
 2203 0822 FF       		.byte	-1
 2204 0823 F7       		.byte	-9
 2205 0824 2D       		.byte	45
 2206 0825 FE       		.byte	-2
 2207 0826 FF       		.byte	-1
 2208 0827 B2       		.byte	-78
 2209 0828 3F       		.byte	63
 2210 0829 1A       		.byte	26
 2211 082a FF       		.byte	-1
 2212 082b B2       		.byte	-78
 2213 082c 7F       		.byte	127
 2214 082d 42       		.byte	66
 2215 082e 27       		.byte	39
 2216 082f 71       		.byte	113
 2217 0830 00       		.byte	0
 2218 0831 23       		.byte	35
 2219 0832 01       		.byte	1
 2220 0833 21       		.byte	33
 2221 0834 32       		.byte	50
 2222 0835 E7       		.byte	-25
 2223 0836 00       		.byte	0
ARM GAS  C:\Users\jj-ay\AppData\Local\Temp\ccfFkvsK.s 			page 40


 2224 0837 20       		.byte	32
 2225 0838 FF       		.byte	-1
 2226 0839 F7       		.byte	-9
 2227 083a 8C       		.byte	-116
 2228 083b FE       		.byte	-2
 2229 083c 00       		.byte	0
 2230 083d 28       		.byte	40
 2231 083e 02       		.byte	2
 2232 083f D1       		.byte	-47
 2233 0840 09       		.byte	9
 2234 0841 4B       		.byte	75
 2235 0842 80       		.byte	-128
 2236 0843 22       		.byte	34
 2237 0844 1A       		.byte	26
 2238 0845 60       		.byte	96
 2239 0846 00       		.byte	0
 2240 0847 F0       		.byte	-16
 2241 0848 FD       		.byte	-3
 2242 0849 FA       		.byte	-6
 2243 084a 58       		.byte	88
 2244 084b E7       		.byte	-25
 2245 084c 8C       		.byte	-116
 2246 084d FD       		.byte	-3
 2247 084e FF       		.byte	-1
 2248 084f FF       		.byte	-1
 2249 0850 A7       		.byte	-89
 2250 0851 FD       		.byte	-3
 2251 0852 FF       		.byte	-1
 2252 0853 FF       		.byte	-1
 2253 0854 D4       		.byte	-44
 2254 0855 00       		.byte	0
 2255 0856 00       		.byte	0
 2256 0857 20       		.byte	32
 2257 0858 AC       		.byte	-84
 2258 0859 FD       		.byte	-3
 2259 085a FF       		.byte	-1
 2260 085b FF       		.byte	-1
 2261 085c AD       		.byte	-83
 2262 085d FD       		.byte	-3
 2263 085e FF       		.byte	-1
 2264 085f FF       		.byte	-1
 2265 0860 AE       		.byte	-82
 2266 0861 FD       		.byte	-3
 2267 0862 FF       		.byte	-1
 2268 0863 FF       		.byte	-1
 2269 0864 48       		.byte	72
 2270 0865 10       		.byte	16
 2271 0866 00       		.byte	0
 2272 0867 00       		.byte	0
 2273 0868 C0       		.byte	-64
 2274 0869 00       		.byte	0
 2275 086a 00       		.byte	0
 2276 086b 20       		.byte	32
 2277 086c 38       		.byte	56
 2278 086d B5       		.byte	-75
 2279 086e 00       		.byte	0
 2280 086f 20       		.byte	32
ARM GAS  C:\Users\jj-ay\AppData\Local\Temp\ccfFkvsK.s 			page 41


 2281 0870 FF       		.byte	-1
 2282 0871 F7       		.byte	-9
 2283 0872 70       		.byte	112
 2284 0873 FE       		.byte	-2
 2285 0874 00       		.byte	0
 2286 0875 25       		.byte	37
 2287 0876 A8       		.byte	-88
 2288 0877 42       		.byte	66
 2289 0878 00       		.byte	0
 2290 0879 D0       		.byte	-48
 2291 087a 06       		.byte	6
 2292 087b 25       		.byte	37
 2293 087c 12       		.byte	18
 2294 087d 4C       		.byte	76
 2295 087e 00       		.byte	0
 2296 087f 20       		.byte	32
 2297 0880 23       		.byte	35
 2298 0881 68       		.byte	104
 2299 0882 C0       		.byte	-64
 2300 0883 21       		.byte	33
 2301 0884 1A       		.byte	26
 2302 0885 68       		.byte	104
 2303 0886 C0       		.byte	-64
 2304 0887 3A       		.byte	58
 2305 0888 FF       		.byte	-1
 2306 0889 F7       		.byte	-9
 2307 088a E7       		.byte	-25
 2308 088b FD       		.byte	-3
 2309 088c 62       		.byte	98
 2310 088d 68       		.byte	104
 2311 088e 13       		.byte	19
 2312 088f 78       		.byte	120
 2313 0890 18       		.byte	24
 2314 0891 1A       		.byte	26
 2315 0892 C0       		.byte	-64
 2316 0893 B2       		.byte	-78
 2317 0894 98       		.byte	-104
 2318 0895 42       		.byte	66
 2319 0896 03       		.byte	3
 2320 0897 D1       		.byte	-47
 2321 0898 23       		.byte	35
 2322 0899 68       		.byte	104
 2323 089a 1B       		.byte	27
 2324 089b 68       		.byte	104
 2325 089c 00       		.byte	0
 2326 089d 2B       		.byte	43
 2327 089e 02       		.byte	2
 2328 089f D1       		.byte	-47
 2329 08a0 00       		.byte	0
 2330 08a1 20       		.byte	32
 2331 08a2 00       		.byte	0
 2332 08a3 F0       		.byte	-16
 2333 08a4 CD       		.byte	-51
 2334 08a5 FA       		.byte	-6
 2335 08a6 09       		.byte	9
 2336 08a7 4B       		.byte	75
 2337 08a8 19       		.byte	25
ARM GAS  C:\Users\jj-ay\AppData\Local\Temp\ccfFkvsK.s 			page 42


 2338 08a9 68       		.byte	104
 2339 08aa 1A       		.byte	26
 2340 08ab 1C       		.byte	28
 2341 08ac 40       		.byte	64
 2342 08ad 29       		.byte	41
 2343 08ae 01       		.byte	1
 2344 08af D0       		.byte	-48
 2345 08b0 00       		.byte	0
 2346 08b1 2D       		.byte	45
 2347 08b2 03       		.byte	3
 2348 08b3 D0       		.byte	-48
 2349 08b4 00       		.byte	0
 2350 08b5 23       		.byte	35
 2351 08b6 13       		.byte	19
 2352 08b7 60       		.byte	96
 2353 08b8 FF       		.byte	-1
 2354 08b9 F7       		.byte	-9
 2355 08ba 7E       		.byte	126
 2356 08bb FE       		.byte	-2
 2357 08bc 80       		.byte	-128
 2358 08bd 22       		.byte	34
 2359 08be 1A       		.byte	26
 2360 08bf 60       		.byte	96
 2361 08c0 00       		.byte	0
 2362 08c1 F0       		.byte	-16
 2363 08c2 C0       		.byte	-64
 2364 08c3 FA       		.byte	-6
 2365 08c4 38       		.byte	56
 2366 08c5 BD       		.byte	-67
 2367 08c6 C0       		.byte	-64
 2368 08c7 46       		.byte	70
 2369 08c8 D4       		.byte	-44
 2370 08c9 00       		.byte	0
 2371 08ca 00       		.byte	0
 2372 08cb 20       		.byte	32
 2373 08cc C0       		.byte	-64
 2374 08cd 00       		.byte	0
 2375 08ce 00       		.byte	0
 2376 08cf 20       		.byte	32
 2377 08d0 08       		.byte	8
 2378 08d1 B5       		.byte	-75
 2379 08d2 05       		.byte	5
 2380 08d3 4B       		.byte	75
 2381 08d4 80       		.byte	-128
 2382 08d5 22       		.byte	34
 2383 08d6 19       		.byte	25
 2384 08d7 68       		.byte	104
 2385 08d8 12       		.byte	18
 2386 08d9 06       		.byte	6
 2387 08da 0A       		.byte	10
 2388 08db 43       		.byte	67
 2389 08dc 1A       		.byte	26
 2390 08dd 60       		.byte	96
 2391 08de 0A       		.byte	10
 2392 08df 20       		.byte	32
 2393 08e0 00       		.byte	0
 2394 08e1 F0       		.byte	-16
ARM GAS  C:\Users\jj-ay\AppData\Local\Temp\ccfFkvsK.s 			page 43


 2395 08e2 9A       		.byte	-102
 2396 08e3 FA       		.byte	-6
 2397 08e4 08       		.byte	8
 2398 08e5 BD       		.byte	-67
 2399 08e6 C0       		.byte	-64
 2400 08e7 46       		.byte	70
 2401 08e8 00       		.byte	0
 2402 08e9 00       		.byte	0
 2403 08ea 06       		.byte	6
 2404 08eb 40       		.byte	64
 2405 08ec 10       		.byte	16
 2406 08ed B5       		.byte	-75
 2407 08ee 05       		.byte	5
 2408 08ef 4C       		.byte	76
 2409 08f0 23       		.byte	35
 2410 08f1 78       		.byte	120
 2411 08f2 00       		.byte	0
 2412 08f3 2B       		.byte	43
 2413 08f4 03       		.byte	3
 2414 08f5 D1       		.byte	-47
 2415 08f6 00       		.byte	0
 2416 08f7 F0       		.byte	-16
 2417 08f8 BF       		.byte	-65
 2418 08f9 F8       		.byte	-8
 2419 08fa 01       		.byte	1
 2420 08fb 23       		.byte	35
 2421 08fc 23       		.byte	35
 2422 08fd 70       		.byte	112
 2423 08fe FF       		.byte	-1
 2424 08ff F7       		.byte	-9
 2425 0900 E7       		.byte	-25
 2426 0901 FF       		.byte	-1
 2427 0902 10       		.byte	16
 2428 0903 BD       		.byte	-67
 2429 0904 10       		.byte	16
 2430 0905 01       		.byte	1
 2431 0906 00       		.byte	0
 2432 0907 20       		.byte	32
 2433 0908 09       		.byte	9
 2434 0909 4B       		.byte	75
 2435 090a 0A       		.byte	10
 2436 090b 4A       		.byte	74
 2437 090c 19       		.byte	25
 2438 090d 68       		.byte	104
 2439 090e 13       		.byte	19
 2440 090f 68       		.byte	104
 2441 0910 99       		.byte	-103
 2442 0911 42       		.byte	66
 2443 0912 0B       		.byte	11
 2444 0913 D0       		.byte	-48
 2445 0914 11       		.byte	17
 2446 0915 68       		.byte	104
 2447 0916 4B       		.byte	75
 2448 0917 1C       		.byte	28
 2449 0918 40       		.byte	64
 2450 0919 39       		.byte	57
 2451 091a 48       		.byte	72
ARM GAS  C:\Users\jj-ay\AppData\Local\Temp\ccfFkvsK.s 			page 44


 2452 091b 1E       		.byte	30
 2453 091c 81       		.byte	-127
 2454 091d 41       		.byte	65
 2455 091e 49       		.byte	73
 2456 091f 42       		.byte	66
 2457 0920 0B       		.byte	11
 2458 0921 40       		.byte	64
 2459 0922 05       		.byte	5
 2460 0923 49       		.byte	73
 2461 0924 C8       		.byte	-56
 2462 0925 5C       		.byte	92
 2463 0926 13       		.byte	19
 2464 0927 60       		.byte	96
 2465 0928 C0       		.byte	-64
 2466 0929 B2       		.byte	-78
 2467 092a 00       		.byte	0
 2468 092b E0       		.byte	-32
 2469 092c 00       		.byte	0
 2470 092d 20       		.byte	32
 2471 092e 70       		.byte	112
 2472 092f 47       		.byte	71
 2473 0930 B0       		.byte	-80
 2474 0931 01       		.byte	1
 2475 0932 00       		.byte	0
 2476 0933 20       		.byte	32
 2477 0934 28       		.byte	40
 2478 0935 01       		.byte	1
 2479 0936 00       		.byte	0
 2480 0937 20       		.byte	32
 2481 0938 6C       		.byte	108
 2482 0939 01       		.byte	1
 2483 093a 00       		.byte	0
 2484 093b 20       		.byte	32
 2485 093c 06       		.byte	6
 2486 093d 4B       		.byte	75
 2487 093e 07       		.byte	7
 2488 093f 4A       		.byte	74
 2489 0940 1B       		.byte	27
 2490 0941 68       		.byte	104
 2491 0942 11       		.byte	17
 2492 0943 68       		.byte	104
 2493 0944 8B       		.byte	-117
 2494 0945 42       		.byte	66
 2495 0946 02       		.byte	2
 2496 0947 D3       		.byte	-45
 2497 0948 10       		.byte	16
 2498 0949 68       		.byte	104
 2499 094a 18       		.byte	24
 2500 094b 1A       		.byte	26
 2501 094c 02       		.byte	2
 2502 094d E0       		.byte	-32
 2503 094e 12       		.byte	18
 2504 094f 68       		.byte	104
 2505 0950 41       		.byte	65
 2506 0951 33       		.byte	51
 2507 0952 98       		.byte	-104
 2508 0953 1A       		.byte	26
ARM GAS  C:\Users\jj-ay\AppData\Local\Temp\ccfFkvsK.s 			page 45


 2509 0954 70       		.byte	112
 2510 0955 47       		.byte	71
 2511 0956 C0       		.byte	-64
 2512 0957 46       		.byte	70
 2513 0958 B0       		.byte	-80
 2514 0959 01       		.byte	1
 2515 095a 00       		.byte	0
 2516 095b 20       		.byte	32
 2517 095c 28       		.byte	40
 2518 095d 01       		.byte	1
 2519 095e 00       		.byte	0
 2520 095f 20       		.byte	32
 2521 0960 0C       		.byte	12
 2522 0961 4A       		.byte	74
 2523 0962 0D       		.byte	13
 2524 0963 4B       		.byte	75
 2525 0964 00       		.byte	0
 2526 0965 21       		.byte	33
 2527 0966 30       		.byte	48
 2528 0967 B5       		.byte	-75
 2529 0968 10       		.byte	16
 2530 0969 68       		.byte	104
 2531 096a 11       		.byte	17
 2532 096b 60       		.byte	96
 2533 096c 1D       		.byte	29
 2534 096d 68       		.byte	104
 2535 096e 80       		.byte	-128
 2536 096f 24       		.byte	36
 2537 0970 64       		.byte	100
 2538 0971 02       		.byte	2
 2539 0972 2C       		.byte	44
 2540 0973 43       		.byte	67
 2541 0974 1C       		.byte	28
 2542 0975 60       		.byte	96
 2543 0976 1D       		.byte	29
 2544 0977 68       		.byte	104
 2545 0978 08       		.byte	8
 2546 0979 4C       		.byte	76
 2547 097a 2C       		.byte	44
 2548 097b 40       		.byte	64
 2549 097c 1C       		.byte	28
 2550 097d 60       		.byte	96
 2551 097e 08       		.byte	8
 2552 097f 4B       		.byte	75
 2553 0980 1C       		.byte	28
 2554 0981 68       		.byte	104
 2555 0982 08       		.byte	8
 2556 0983 4B       		.byte	75
 2557 0984 1C       		.byte	28
 2558 0985 60       		.byte	96
 2559 0986 08       		.byte	8
 2560 0987 4B       		.byte	75
 2561 0988 19       		.byte	25
 2562 0989 70       		.byte	112
 2563 098a 08       		.byte	8
 2564 098b 49       		.byte	73
 2565 098c 08       		.byte	8
ARM GAS  C:\Users\jj-ay\AppData\Local\Temp\ccfFkvsK.s 			page 46


 2566 098d 4B       		.byte	75
 2567 098e 19       		.byte	25
 2568 098f 60       		.byte	96
 2569 0990 10       		.byte	16
 2570 0991 60       		.byte	96
 2571 0992 30       		.byte	48
 2572 0993 BD       		.byte	-67
 2573 0994 C8       		.byte	-56
 2574 0995 0F       		.byte	15
 2575 0996 06       		.byte	6
 2576 0997 40       		.byte	64
 2577 0998 04       		.byte	4
 2578 0999 03       		.byte	3
 2579 099a 06       		.byte	6
 2580 099b 40       		.byte	64
 2581 099c FF       		.byte	-1
 2582 099d FF       		.byte	-1
 2583 099e FE       		.byte	-2
 2584 099f FF       		.byte	-1
 2585 09a0 28       		.byte	40
 2586 09a1 01       		.byte	1
 2587 09a2 00       		.byte	0
 2588 09a3 20       		.byte	32
 2589 09a4 B0       		.byte	-80
 2590 09a5 01       		.byte	1
 2591 09a6 00       		.byte	0
 2592 09a7 20       		.byte	32
 2593 09a8 AD       		.byte	-83
 2594 09a9 01       		.byte	1
 2595 09aa 00       		.byte	0
 2596 09ab 20       		.byte	32
 2597 09ac ED       		.byte	-19
 2598 09ad 0F       		.byte	15
 2599 09ae 00       		.byte	0
 2600 09af 00       		.byte	0
 2601 09b0 C0       		.byte	-64
 2602 09b1 0F       		.byte	15
 2603 09b2 06       		.byte	6
 2604 09b3 40       		.byte	64
 2605 09b4 12       		.byte	18
 2606 09b5 49       		.byte	73
 2607 09b6 10       		.byte	16
 2608 09b7 B5       		.byte	-75
 2609 09b8 0A       		.byte	10
 2610 09b9 68       		.byte	104
 2611 09ba 53       		.byte	83
 2612 09bb 1C       		.byte	28
 2613 09bc 3F       		.byte	63
 2614 09bd 3A       		.byte	58
 2615 09be 54       		.byte	84
 2616 09bf 1E       		.byte	30
 2617 09c0 A2       		.byte	-94
 2618 09c1 41       		.byte	65
 2619 09c2 52       		.byte	82
 2620 09c3 42       		.byte	66
 2621 09c4 13       		.byte	19
 2622 09c5 40       		.byte	64
ARM GAS  C:\Users\jj-ay\AppData\Local\Temp\ccfFkvsK.s 			page 47


 2623 09c6 0F       		.byte	15
 2624 09c7 4A       		.byte	74
 2625 09c8 14       		.byte	20
 2626 09c9 68       		.byte	104
 2627 09ca A3       		.byte	-93
 2628 09cb 42       		.byte	66
 2629 09cc FB       		.byte	-5
 2630 09cd D0       		.byte	-48
 2631 09ce 0C       		.byte	12
 2632 09cf 68       		.byte	104
 2633 09d0 12       		.byte	18
 2634 09d1 68       		.byte	104
 2635 09d2 94       		.byte	-108
 2636 09d3 42       		.byte	66
 2637 09d4 08       		.byte	8
 2638 09d5 D1       		.byte	-47
 2639 09d6 0C       		.byte	12
 2640 09d7 4A       		.byte	74
 2641 09d8 14       		.byte	20
 2642 09d9 68       		.byte	104
 2643 09da 0F       		.byte	15
 2644 09db 22       		.byte	34
 2645 09dc 22       		.byte	34
 2646 09dd 40       		.byte	64
 2647 09de 08       		.byte	8
 2648 09df 2A       		.byte	42
 2649 09e0 02       		.byte	2
 2650 09e1 D0       		.byte	-48
 2651 09e2 0A       		.byte	10
 2652 09e3 4B       		.byte	75
 2653 09e4 18       		.byte	24
 2654 09e5 60       		.byte	96
 2655 09e6 0A       		.byte	10
 2656 09e7 E0       		.byte	-32
 2657 09e8 09       		.byte	9
 2658 09e9 4C       		.byte	76
 2659 09ea 02       		.byte	2
 2660 09eb 22       		.byte	34
 2661 09ec 22       		.byte	34
 2662 09ed 60       		.byte	96
 2663 09ee 09       		.byte	9
 2664 09ef 4C       		.byte	76
 2665 09f0 C0       		.byte	-64
 2666 09f1 B2       		.byte	-78
 2667 09f2 E0       		.byte	-32
 2668 09f3 54       		.byte	84
 2669 09f4 0B       		.byte	11
 2670 09f5 60       		.byte	96
 2671 09f6 08       		.byte	8
 2672 09f7 4B       		.byte	75
 2673 09f8 19       		.byte	25
 2674 09f9 68       		.byte	104
 2675 09fa 0A       		.byte	10
 2676 09fb 43       		.byte	67
 2677 09fc 1A       		.byte	26
 2678 09fd 60       		.byte	96
 2679 09fe 10       		.byte	16
ARM GAS  C:\Users\jj-ay\AppData\Local\Temp\ccfFkvsK.s 			page 48


 2680 09ff BD       		.byte	-67
 2681 0a00 24       		.byte	36
 2682 0a01 01       		.byte	1
 2683 0a02 00       		.byte	0
 2684 0a03 20       		.byte	32
 2685 0a04 20       		.byte	32
 2686 0a05 01       		.byte	1
 2687 0a06 00       		.byte	0
 2688 0a07 20       		.byte	32
 2689 0a08 08       		.byte	8
 2690 0a09 02       		.byte	2
 2691 0a0a 06       		.byte	6
 2692 0a0b 40       		.byte	64
 2693 0a0c 40       		.byte	64
 2694 0a0d 02       		.byte	2
 2695 0a0e 06       		.byte	6
 2696 0a0f 40       		.byte	64
 2697 0a10 80       		.byte	-128
 2698 0a11 0F       		.byte	15
 2699 0a12 06       		.byte	6
 2700 0a13 40       		.byte	64
 2701 0a14 2C       		.byte	44
 2702 0a15 01       		.byte	1
 2703 0a16 00       		.byte	0
 2704 0a17 20       		.byte	32
 2705 0a18 88       		.byte	-120
 2706 0a19 0F       		.byte	15
 2707 0a1a 06       		.byte	6
 2708 0a1b 40       		.byte	64
 2709 0a1c 38       		.byte	56
 2710 0a1d B5       		.byte	-75
 2711 0a1e 04       		.byte	4
 2712 0a1f 1C       		.byte	28
 2713 0a20 45       		.byte	69
 2714 0a21 18       		.byte	24
 2715 0a22 AC       		.byte	-84
 2716 0a23 42       		.byte	66
 2717 0a24 04       		.byte	4
 2718 0a25 D0       		.byte	-48
 2719 0a26 20       		.byte	32
 2720 0a27 78       		.byte	120
 2721 0a28 FF       		.byte	-1
 2722 0a29 F7       		.byte	-9
 2723 0a2a C4       		.byte	-60
 2724 0a2b FF       		.byte	-1
 2725 0a2c 01       		.byte	1
 2726 0a2d 34       		.byte	52
 2727 0a2e F8       		.byte	-8
 2728 0a2f E7       		.byte	-25
 2729 0a30 38       		.byte	56
 2730 0a31 BD       		.byte	-67
 2731 0a32 00       		.byte	0
 2732 0a33 00       		.byte	0
 2733 0a34 0B       		.byte	11
 2734 0a35 4A       		.byte	74
 2735 0a36 00       		.byte	0
 2736 0a37 23       		.byte	35
ARM GAS  C:\Users\jj-ay\AppData\Local\Temp\ccfFkvsK.s 			page 49


 2737 0a38 11       		.byte	17
 2738 0a39 68       		.byte	104
 2739 0a3a 10       		.byte	16
 2740 0a3b B5       		.byte	-75
 2741 0a3c 13       		.byte	19
 2742 0a3d 60       		.byte	96
 2743 0a3e 0A       		.byte	10
 2744 0a3f 4B       		.byte	75
 2745 0a40 80       		.byte	-128
 2746 0a41 20       		.byte	32
 2747 0a42 1C       		.byte	28
 2748 0a43 68       		.byte	104
 2749 0a44 40       		.byte	64
 2750 0a45 02       		.byte	2
 2751 0a46 20       		.byte	32
 2752 0a47 43       		.byte	67
 2753 0a48 18       		.byte	24
 2754 0a49 60       		.byte	96
 2755 0a4a 1C       		.byte	28
 2756 0a4b 68       		.byte	104
 2757 0a4c 07       		.byte	7
 2758 0a4d 48       		.byte	72
 2759 0a4e 20       		.byte	32
 2760 0a4f 40       		.byte	64
 2761 0a50 18       		.byte	24
 2762 0a51 60       		.byte	96
 2763 0a52 07       		.byte	7
 2764 0a53 4B       		.byte	75
 2765 0a54 18       		.byte	24
 2766 0a55 68       		.byte	104
 2767 0a56 07       		.byte	7
 2768 0a57 4B       		.byte	75
 2769 0a58 18       		.byte	24
 2770 0a59 60       		.byte	96
 2771 0a5a 02       		.byte	2
 2772 0a5b 23       		.byte	35
 2773 0a5c 99       		.byte	-103
 2774 0a5d 43       		.byte	67
 2775 0a5e 11       		.byte	17
 2776 0a5f 60       		.byte	96
 2777 0a60 10       		.byte	16
 2778 0a61 BD       		.byte	-67
 2779 0a62 C0       		.byte	-64
 2780 0a63 46       		.byte	70
 2781 0a64 88       		.byte	-120
 2782 0a65 0F       		.byte	15
 2783 0a66 06       		.byte	6
 2784 0a67 40       		.byte	64
 2785 0a68 04       		.byte	4
 2786 0a69 02       		.byte	2
 2787 0a6a 06       		.byte	6
 2788 0a6b 40       		.byte	64
 2789 0a6c FF       		.byte	-1
 2790 0a6d FF       		.byte	-1
 2791 0a6e FE       		.byte	-2
 2792 0a6f FF       		.byte	-1
 2793 0a70 20       		.byte	32
ARM GAS  C:\Users\jj-ay\AppData\Local\Temp\ccfFkvsK.s 			page 50


 2794 0a71 01       		.byte	1
 2795 0a72 00       		.byte	0
 2796 0a73 20       		.byte	32
 2797 0a74 24       		.byte	36
 2798 0a75 01       		.byte	1
 2799 0a76 00       		.byte	0
 2800 0a77 20       		.byte	32
 2801 0a78 1D       		.byte	29
 2802 0a79 4A       		.byte	74
 2803 0a7a 1E       		.byte	30
 2804 0a7b 4B       		.byte	75
 2805 0a7c 10       		.byte	16
 2806 0a7d B5       		.byte	-75
 2807 0a7e 1A       		.byte	26
 2808 0a7f 60       		.byte	96
 2809 0a80 1D       		.byte	29
 2810 0a81 4B       		.byte	75
 2811 0a82 00       		.byte	0
 2812 0a83 24       		.byte	36
 2813 0a84 1C       		.byte	28
 2814 0a85 60       		.byte	96
 2815 0a86 1D       		.byte	29
 2816 0a87 4B       		.byte	75
 2817 0a88 01       		.byte	1
 2818 0a89 22       		.byte	34
 2819 0a8a 1A       		.byte	26
 2820 0a8b 60       		.byte	96
 2821 0a8c 1C       		.byte	28
 2822 0a8d 49       		.byte	73
 2823 0a8e 1D       		.byte	29
 2824 0a8f 4B       		.byte	75
 2825 0a90 07       		.byte	7
 2826 0a91 20       		.byte	32
 2827 0a92 0B       		.byte	11
 2828 0a93 60       		.byte	96
 2829 0a94 1C       		.byte	28
 2830 0a95 49       		.byte	73
 2831 0a96 08       		.byte	8
 2832 0a97 60       		.byte	96
 2833 0a98 1C       		.byte	28
 2834 0a99 49       		.byte	73
 2835 0a9a 0A       		.byte	10
 2836 0a9b 20       		.byte	32
 2837 0a9c 0C       		.byte	12
 2838 0a9d 60       		.byte	96
 2839 0a9e 1C       		.byte	28
 2840 0a9f 49       		.byte	73
 2841 0aa0 0A       		.byte	10
 2842 0aa1 60       		.byte	96
 2843 0aa2 1C       		.byte	28
 2844 0aa3 4A       		.byte	74
 2845 0aa4 13       		.byte	19
 2846 0aa5 60       		.byte	96
 2847 0aa6 1C       		.byte	28
 2848 0aa7 4B       		.byte	75
 2849 0aa8 1C       		.byte	28
 2850 0aa9 60       		.byte	96
ARM GAS  C:\Users\jj-ay\AppData\Local\Temp\ccfFkvsK.s 			page 51


 2851 0aaa 00       		.byte	0
 2852 0aab F0       		.byte	-16
 2853 0aac BF       		.byte	-65
 2854 0aad F9       		.byte	-7
 2855 0aae 0A       		.byte	10
 2856 0aaf 20       		.byte	32
 2857 0ab0 03       		.byte	3
 2858 0ab1 21       		.byte	33
 2859 0ab2 00       		.byte	0
 2860 0ab3 F0       		.byte	-16
 2861 0ab4 91       		.byte	-111
 2862 0ab5 F9       		.byte	-7
 2863 0ab6 19       		.byte	25
 2864 0ab7 49       		.byte	73
 2865 0ab8 0A       		.byte	10
 2866 0ab9 20       		.byte	32
 2867 0aba 00       		.byte	0
 2868 0abb F0       		.byte	-16
 2869 0abc 81       		.byte	-127
 2870 0abd F9       		.byte	-7
 2871 0abe 18       		.byte	24
 2872 0abf 4B       		.byte	75
 2873 0ac0 04       		.byte	4
 2874 0ac1 22       		.byte	34
 2875 0ac2 1C       		.byte	28
 2876 0ac3 60       		.byte	96
 2877 0ac4 17       		.byte	23
 2878 0ac5 4B       		.byte	75
 2879 0ac6 1C       		.byte	28
 2880 0ac7 60       		.byte	96
 2881 0ac8 17       		.byte	23
 2882 0ac9 4B       		.byte	75
 2883 0aca 1C       		.byte	28
 2884 0acb 60       		.byte	96
 2885 0acc 17       		.byte	23
 2886 0acd 4B       		.byte	75
 2887 0ace 1C       		.byte	28
 2888 0acf 60       		.byte	96
 2889 0ad0 17       		.byte	23
 2890 0ad1 4B       		.byte	75
 2891 0ad2 1A       		.byte	26
 2892 0ad3 60       		.byte	96
 2893 0ad4 17       		.byte	23
 2894 0ad5 4B       		.byte	75
 2895 0ad6 1C       		.byte	28
 2896 0ad7 60       		.byte	96
 2897 0ad8 17       		.byte	23
 2898 0ad9 4B       		.byte	75
 2899 0ada 1C       		.byte	28
 2900 0adb 60       		.byte	96
 2901 0adc 17       		.byte	23
 2902 0add 4B       		.byte	75
 2903 0ade 1C       		.byte	28
 2904 0adf 60       		.byte	96
 2905 0ae0 17       		.byte	23
 2906 0ae1 4B       		.byte	75
 2907 0ae2 1C       		.byte	28
ARM GAS  C:\Users\jj-ay\AppData\Local\Temp\ccfFkvsK.s 			page 52


 2908 0ae3 70       		.byte	112
 2909 0ae4 17       		.byte	23
 2910 0ae5 4B       		.byte	75
 2911 0ae6 1C       		.byte	28
 2912 0ae7 60       		.byte	96
 2913 0ae8 17       		.byte	23
 2914 0ae9 4B       		.byte	75
 2915 0aea 1C       		.byte	28
 2916 0aeb 60       		.byte	96
 2917 0aec 10       		.byte	16
 2918 0aed BD       		.byte	-67
 2919 0aee C0       		.byte	-64
 2920 0aef 46       		.byte	70
 2921 0af0 0B       		.byte	11
 2922 0af1 00       		.byte	0
 2923 0af2 00       		.byte	0
 2924 0af3 02       		.byte	2
 2925 0af4 00       		.byte	0
 2926 0af5 00       		.byte	0
 2927 0af6 06       		.byte	6
 2928 0af7 40       		.byte	64
 2929 0af8 40       		.byte	64
 2930 0af9 00       		.byte	0
 2931 0afa 06       		.byte	6
 2932 0afb 40       		.byte	64
 2933 0afc 48       		.byte	72
 2934 0afd 00       		.byte	0
 2935 0afe 06       		.byte	6
 2936 0aff 40       		.byte	64
 2937 0b00 00       		.byte	0
 2938 0b01 03       		.byte	3
 2939 0b02 06       		.byte	6
 2940 0b03 40       		.byte	64
 2941 0b04 07       		.byte	7
 2942 0b05 00       		.byte	0
 2943 0b06 00       		.byte	0
 2944 0b07 80       		.byte	-128
 2945 0b08 04       		.byte	4
 2946 0b09 03       		.byte	3
 2947 0b0a 06       		.byte	6
 2948 0b0b 40       		.byte	64
 2949 0b0c 10       		.byte	16
 2950 0b0d 03       		.byte	3
 2951 0b0e 06       		.byte	6
 2952 0b0f 40       		.byte	64
 2953 0b10 44       		.byte	68
 2954 0b11 00       		.byte	0
 2955 0b12 06       		.byte	6
 2956 0b13 40       		.byte	64
 2957 0b14 00       		.byte	0
 2958 0b15 02       		.byte	2
 2959 0b16 06       		.byte	6
 2960 0b17 40       		.byte	64
 2961 0b18 04       		.byte	4
 2962 0b19 02       		.byte	2
 2963 0b1a 06       		.byte	6
 2964 0b1b 40       		.byte	64
ARM GAS  C:\Users\jj-ay\AppData\Local\Temp\ccfFkvsK.s 			page 53


 2965 0b1c 9D       		.byte	-99
 2966 0b1d 0E       		.byte	14
 2967 0b1e 00       		.byte	0
 2968 0b1f 00       		.byte	0
 2969 0b20 88       		.byte	-120
 2970 0b21 0E       		.byte	14
 2971 0b22 06       		.byte	6
 2972 0b23 40       		.byte	64
 2973 0b24 C8       		.byte	-56
 2974 0b25 0E       		.byte	14
 2975 0b26 06       		.byte	6
 2976 0b27 40       		.byte	64
 2977 0b28 48       		.byte	72
 2978 0b29 0F       		.byte	15
 2979 0b2a 06       		.byte	6
 2980 0b2b 40       		.byte	64
 2981 0b2c 08       		.byte	8
 2982 0b2d 0F       		.byte	15
 2983 0b2e 06       		.byte	6
 2984 0b2f 40       		.byte	64
 2985 0b30 C8       		.byte	-56
 2986 0b31 0F       		.byte	15
 2987 0b32 06       		.byte	6
 2988 0b33 40       		.byte	64
 2989 0b34 88       		.byte	-120
 2990 0b35 0F       		.byte	15
 2991 0b36 06       		.byte	6
 2992 0b37 40       		.byte	64
 2993 0b38 B0       		.byte	-80
 2994 0b39 01       		.byte	1
 2995 0b3a 00       		.byte	0
 2996 0b3b 20       		.byte	32
 2997 0b3c 28       		.byte	40
 2998 0b3d 01       		.byte	1
 2999 0b3e 00       		.byte	0
 3000 0b3f 20       		.byte	32
 3001 0b40 AD       		.byte	-83
 3002 0b41 01       		.byte	1
 3003 0b42 00       		.byte	0
 3004 0b43 20       		.byte	32
 3005 0b44 24       		.byte	36
 3006 0b45 01       		.byte	1
 3007 0b46 00       		.byte	0
 3008 0b47 20       		.byte	32
 3009 0b48 20       		.byte	32
 3010 0b49 01       		.byte	1
 3011 0b4a 00       		.byte	0
 3012 0b4b 20       		.byte	32
 3013 0b4c 0E       		.byte	14
 3014 0b4d 4B       		.byte	75
 3015 0b4e 84       		.byte	-124
 3016 0b4f 22       		.byte	34
 3017 0b50 D2       		.byte	-46
 3018 0b51 04       		.byte	4
 3019 0b52 1A       		.byte	26
 3020 0b53 60       		.byte	96
 3021 0b54 19       		.byte	25
ARM GAS  C:\Users\jj-ay\AppData\Local\Temp\ccfFkvsK.s 			page 54


 3022 0b55 68       		.byte	104
 3023 0b56 80       		.byte	-128
 3024 0b57 22       		.byte	34
 3025 0b58 52       		.byte	82
 3026 0b59 02       		.byte	2
 3027 0b5a 0A       		.byte	10
 3028 0b5b 43       		.byte	67
 3029 0b5c 1A       		.byte	26
 3030 0b5d 60       		.byte	96
 3031 0b5e 0B       		.byte	11
 3032 0b5f 49       		.byte	73
 3033 0b60 0B       		.byte	11
 3034 0b61 4A       		.byte	74
 3035 0b62 0A       		.byte	10
 3036 0b63 60       		.byte	96
 3037 0b64 19       		.byte	25
 3038 0b65 68       		.byte	104
 3039 0b66 19       		.byte	25
 3040 0b67 60       		.byte	96
 3041 0b68 0A       		.byte	10
 3042 0b69 4B       		.byte	75
 3043 0b6a C3       		.byte	-61
 3044 0b6b 21       		.byte	33
 3045 0b6c 89       		.byte	-119
 3046 0b6d 00       		.byte	0
 3047 0b6e 19       		.byte	25
 3048 0b6f 60       		.byte	96
 3049 0b70 09       		.byte	9
 3050 0b71 4B       		.byte	75
 3051 0b72 00       		.byte	0
 3052 0b73 21       		.byte	33
 3053 0b74 19       		.byte	25
 3054 0b75 60       		.byte	96
 3055 0b76 09       		.byte	9
 3056 0b77 4B       		.byte	75
 3057 0b78 1C       		.byte	28
 3058 0b79 21       		.byte	33
 3059 0b7a 19       		.byte	25
 3060 0b7b 60       		.byte	96
 3061 0b7c 08       		.byte	8
 3062 0b7d 4B       		.byte	75
 3063 0b7e 1A       		.byte	26
 3064 0b7f 60       		.byte	96
 3065 0b80 08       		.byte	8
 3066 0b81 4A       		.byte	74
 3067 0b82 09       		.byte	9
 3068 0b83 4B       		.byte	75
 3069 0b84 1A       		.byte	26
 3070 0b85 60       		.byte	96
 3071 0b86 70       		.byte	112
 3072 0b87 47       		.byte	71
 3073 0b88 00       		.byte	0
 3074 0b89 01       		.byte	1
 3075 0b8a 05       		.byte	5
 3076 0b8b 40       		.byte	64
 3077 0b8c 08       		.byte	8
 3078 0b8d 01       		.byte	1
ARM GAS  C:\Users\jj-ay\AppData\Local\Temp\ccfFkvsK.s 			page 55


 3079 0b8e 05       		.byte	5
 3080 0b8f 40       		.byte	64
 3081 0b90 10       		.byte	16
 3082 0b91 27       		.byte	39
 3083 0b92 00       		.byte	0
 3084 0b93 00       		.byte	0
 3085 0b94 24       		.byte	36
 3086 0b95 01       		.byte	1
 3087 0b96 05       		.byte	5
 3088 0b97 40       		.byte	64
 3089 0b98 38       		.byte	56
 3090 0b99 01       		.byte	1
 3091 0b9a 05       		.byte	5
 3092 0b9b 40       		.byte	64
 3093 0b9c 28       		.byte	40
 3094 0b9d 01       		.byte	1
 3095 0b9e 05       		.byte	5
 3096 0b9f 40       		.byte	64
 3097 0ba0 14       		.byte	20
 3098 0ba1 01       		.byte	1
 3099 0ba2 05       		.byte	5
 3100 0ba3 40       		.byte	64
 3101 0ba4 88       		.byte	-120
 3102 0ba5 13       		.byte	19
 3103 0ba6 00       		.byte	0
 3104 0ba7 00       		.byte	0
 3105 0ba8 0C       		.byte	12
 3106 0ba9 01       		.byte	1
 3107 0baa 05       		.byte	5
 3108 0bab 40       		.byte	64
 3109 0bac 08       		.byte	8
 3110 0bad B5       		.byte	-75
 3111 0bae 00       		.byte	0
 3112 0baf F0       		.byte	-16
 3113 0bb0 2D       		.byte	45
 3114 0bb1 F8       		.byte	-8
 3115 0bb2 04       		.byte	4
 3116 0bb3 4B       		.byte	75
 3117 0bb4 01       		.byte	1
 3118 0bb5 21       		.byte	33
 3119 0bb6 1A       		.byte	26
 3120 0bb7 68       		.byte	104
 3121 0bb8 0A       		.byte	10
 3122 0bb9 43       		.byte	67
 3123 0bba 1A       		.byte	26
 3124 0bbb 60       		.byte	96
 3125 0bbc 00       		.byte	0
 3126 0bbd F0       		.byte	-16
 3127 0bbe 2A       		.byte	42
 3128 0bbf F8       		.byte	-8
 3129 0bc0 08       		.byte	8
 3130 0bc1 BD       		.byte	-67
 3131 0bc2 C0       		.byte	-64
 3132 0bc3 46       		.byte	70
 3133 0bc4 00       		.byte	0
 3134 0bc5 00       		.byte	0
 3135 0bc6 05       		.byte	5
ARM GAS  C:\Users\jj-ay\AppData\Local\Temp\ccfFkvsK.s 			page 56


 3136 0bc7 40       		.byte	64
 3137 0bc8 10       		.byte	16
 3138 0bc9 B5       		.byte	-75
 3139 0bca 05       		.byte	5
 3140 0bcb 4C       		.byte	76
 3141 0bcc 23       		.byte	35
 3142 0bcd 78       		.byte	120
 3143 0bce 00       		.byte	0
 3144 0bcf 2B       		.byte	43
 3145 0bd0 03       		.byte	3
 3146 0bd1 D1       		.byte	-47
 3147 0bd2 FF       		.byte	-1
 3148 0bd3 F7       		.byte	-9
 3149 0bd4 BB       		.byte	-69
 3150 0bd5 FF       		.byte	-1
 3151 0bd6 01       		.byte	1
 3152 0bd7 23       		.byte	35
 3153 0bd8 23       		.byte	35
 3154 0bd9 70       		.byte	112
 3155 0bda FF       		.byte	-1
 3156 0bdb F7       		.byte	-9
 3157 0bdc E7       		.byte	-25
 3158 0bdd FF       		.byte	-1
 3159 0bde 10       		.byte	16
 3160 0bdf BD       		.byte	-67
 3161 0be0 18       		.byte	24
 3162 0be1 01       		.byte	1
 3163 0be2 00       		.byte	0
 3164 0be3 20       		.byte	32
 3165 0be4 02       		.byte	2
 3166 0be5 4B       		.byte	75
 3167 0be6 18       		.byte	24
 3168 0be7 68       		.byte	104
 3169 0be8 00       		.byte	0
 3170 0be9 06       		.byte	6
 3171 0bea C0       		.byte	-64
 3172 0beb 0F       		.byte	15
 3173 0bec 70       		.byte	112
 3174 0bed 47       		.byte	71
 3175 0bee C0       		.byte	-64
 3176 0bef 46       		.byte	70
 3177 0bf0 04       		.byte	4
 3178 0bf1 00       		.byte	0
 3179 0bf2 04       		.byte	4
 3180 0bf3 40       		.byte	64
 3181 0bf4 00       		.byte	0
 3182 0bf5 00       		.byte	0
 3183 0bf6 00       		.byte	0
 3184 0bf7 00       		.byte	0
 3185 0bf8 02       		.byte	2
 3186 0bf9 30       		.byte	48
 3187 0bfa 80       		.byte	-128
 3188 0bfb 08       		.byte	8
 3189 0bfc 04       		.byte	4
 3190 0bfd D0       		.byte	-48
 3191 0bfe C0       		.byte	-64
 3192 0bff 46       		.byte	70
ARM GAS  C:\Users\jj-ay\AppData\Local\Temp\ccfFkvsK.s 			page 57


 3193 0c00 01       		.byte	1
 3194 0c01 38       		.byte	56
 3195 0c02 FD       		.byte	-3
 3196 0c03 D1       		.byte	-47
 3197 0c04 C0       		.byte	-64
 3198 0c05 46       		.byte	70
 3199 0c06 C0       		.byte	-64
 3200 0c07 46       		.byte	70
 3201 0c08 C0       		.byte	-64
 3202 0c09 46       		.byte	70
 3203 0c0a 70       		.byte	112
 3204 0c0b 47       		.byte	71
 3205 0c0c EF       		.byte	-17
 3206 0c0d F3       		.byte	-13
 3207 0c0e 10       		.byte	16
 3208 0c0f 80       		.byte	-128
 3209 0c10 72       		.byte	114
 3210 0c11 B6       		.byte	-74
 3211 0c12 70       		.byte	112
 3212 0c13 47       		.byte	71
 3213 0c14 80       		.byte	-128
 3214 0c15 F3       		.byte	-13
 3215 0c16 10       		.byte	16
 3216 0c17 88       		.byte	-120
 3217 0c18 70       		.byte	112
 3218 0c19 47       		.byte	71
 3219 0c1a C0       		.byte	-64
 3220 0c1b 46       		.byte	70
 3221 0c1c C0       		.byte	-64
 3222 0c1d 46       		.byte	70
 3223 0c1e C0       		.byte	-64
 3224 0c1f 46       		.byte	70
 3225 0c20 F0       		.byte	-16
 3226 0c21 B5       		.byte	-75
 3227 0c22 00       		.byte	0
 3228 0c23 24       		.byte	36
 3229 0c24 CB       		.byte	-53
 3230 0c25 B0       		.byte	-80
 3231 0c26 06       		.byte	6
 3232 0c27 94       		.byte	-108
 3233 0c28 04       		.byte	4
 3234 0c29 90       		.byte	-112
 3235 0c2a 07       		.byte	7
 3236 0c2b 94       		.byte	-108
 3237 0c2c FF       		.byte	-1
 3238 0c2d 28       		.byte	40
 3239 0c2e 00       		.byte	0
 3240 0c2f D9       		.byte	-39
 3241 0c30 A4       		.byte	-92
 3242 0c31 E0       		.byte	-32
 3243 0c32 A1       		.byte	-95
 3244 0c33 42       		.byte	66
 3245 0c34 00       		.byte	0
 3246 0c35 D1       		.byte	-47
 3247 0c36 A1       		.byte	-95
 3248 0c37 E0       		.byte	-32
 3249 0c38 08       		.byte	8
ARM GAS  C:\Users\jj-ay\AppData\Local\Temp\ccfFkvsK.s 			page 58


 3250 0c39 AD       		.byte	-83
 3251 0c3a 80       		.byte	-128
 3252 0c3b 22       		.byte	34
 3253 0c3c 28       		.byte	40
 3254 0c3d 1C       		.byte	28
 3255 0c3e 00       		.byte	0
 3256 0c3f F0       		.byte	-16
 3257 0c40 D9       		.byte	-39
 3258 0c41 F9       		.byte	-7
 3259 0c42 23       		.byte	35
 3260 0c43 1C       		.byte	28
 3261 0c44 21       		.byte	33
 3262 0c45 1C       		.byte	28
 3263 0c46 22       		.byte	34
 3264 0c47 1C       		.byte	28
 3265 0c48 02       		.byte	2
 3266 0c49 94       		.byte	-108
 3267 0c4a 98       		.byte	-104
 3268 0c4b 00       		.byte	0
 3269 0c4c 28       		.byte	40
 3270 0c4d 58       		.byte	88
 3271 0c4e 00       		.byte	0
 3272 0c4f 28       		.byte	40
 3273 0c50 02       		.byte	2
 3274 0c51 D0       		.byte	-48
 3275 0c52 12       		.byte	18
 3276 0c53 18       		.byte	24
 3277 0c54 01       		.byte	1
 3278 0c55 43       		.byte	67
 3279 0c56 02       		.byte	2
 3280 0c57 93       		.byte	-109
 3281 0c58 01       		.byte	1
 3282 0c59 33       		.byte	51
 3283 0c5a 20       		.byte	32
 3284 0c5b 2B       		.byte	43
 3285 0c5c F5       		.byte	-11
 3286 0c5d D1       		.byte	-47
 3287 0c5e 00       		.byte	0
 3288 0c5f 2A       		.byte	42
 3289 0c60 05       		.byte	5
 3290 0c61 D1       		.byte	-47
 3291 0c62 00       		.byte	0
 3292 0c63 29       		.byte	41
 3293 0c64 00       		.byte	0
 3294 0c65 D0       		.byte	-48
 3295 0c66 8E       		.byte	-114
 3296 0c67 E0       		.byte	-32
 3297 0c68 01       		.byte	1
 3298 0c69 91       		.byte	-111
 3299 0c6a 03       		.byte	3
 3300 0c6b 91       		.byte	-111
 3301 0c6c 02       		.byte	2
 3302 0c6d E0       		.byte	-32
 3303 0c6e 00       		.byte	0
 3304 0c6f 20       		.byte	32
 3305 0c70 01       		.byte	1
 3306 0c71 90       		.byte	-112
ARM GAS  C:\Users\jj-ay\AppData\Local\Temp\ccfFkvsK.s 			page 59


 3307 0c72 03       		.byte	3
 3308 0c73 90       		.byte	-112
 3309 0c74 48       		.byte	72
 3310 0c75 4F       		.byte	79
 3311 0c76 7F       		.byte	127
 3312 0c77 23       		.byte	35
 3313 0c78 28       		.byte	40
 3314 0c79 AE       		.byte	-82
 3315 0c7a 29       		.byte	41
 3316 0c7b 1C       		.byte	28
 3317 0c7c 80       		.byte	-128
 3318 0c7d 22       		.byte	34
 3319 0c7e 2A       		.byte	42
 3320 0c7f A8       		.byte	-88
 3321 0c80 28       		.byte	40
 3322 0c81 97       		.byte	-105
 3323 0c82 46       		.byte	70
 3324 0c83 4C       		.byte	76
 3325 0c84 73       		.byte	115
 3326 0c85 60       		.byte	96
 3327 0c86 00       		.byte	0
 3328 0c87 F0       		.byte	-16
 3329 0c88 B5       		.byte	-75
 3330 0c89 F9       		.byte	-7
 3331 0c8a 45       		.byte	69
 3332 0c8b 4A       		.byte	74
 3333 0c8c 45       		.byte	69
 3334 0c8d 4B       		.byte	75
 3335 0c8e 26       		.byte	38
 3336 0c8f 60       		.byte	96
 3337 0c90 13       		.byte	19
 3338 0c91 60       		.byte	96
 3339 0c92 21       		.byte	33
 3340 0c93 68       		.byte	104
 3341 0c94 09       		.byte	9
 3342 0c95 0F       		.byte	15
 3343 0c96 0A       		.byte	10
 3344 0c97 29       		.byte	41
 3345 0c98 03       		.byte	3
 3346 0c99 D0       		.byte	-48
 3347 0c9a 22       		.byte	34
 3348 0c9b 68       		.byte	104
 3349 0c9c 0F       		.byte	15
 3350 0c9d 23       		.byte	35
 3351 0c9e 13       		.byte	19
 3352 0c9f 40       		.byte	64
 3353 0ca0 00       		.byte	0
 3354 0ca1 E0       		.byte	-32
 3355 0ca2 00       		.byte	0
 3356 0ca3 23       		.byte	35
 3357 0ca4 06       		.byte	6
 3358 0ca5 93       		.byte	-109
 3359 0ca6 06       		.byte	6
 3360 0ca7 9F       		.byte	-97
 3361 0ca8 00       		.byte	0
 3362 0ca9 2F       		.byte	47
 3363 0caa 69       		.byte	105
ARM GAS  C:\Users\jj-ay\AppData\Local\Temp\ccfFkvsK.s 			page 60


 3364 0cab D1       		.byte	-47
 3365 0cac FF       		.byte	-1
 3366 0cad F7       		.byte	-9
 3367 0cae AE       		.byte	-82
 3368 0caf FF       		.byte	-1
 3369 0cb0 3D       		.byte	61
 3370 0cb1 4A       		.byte	74
 3371 0cb2 3E       		.byte	62
 3372 0cb3 4B       		.byte	75
 3373 0cb4 11       		.byte	17
 3374 0cb5 68       		.byte	104
 3375 0cb6 07       		.byte	7
 3376 0cb7 97       		.byte	-105
 3377 0cb8 19       		.byte	25
 3378 0cb9 60       		.byte	96
 3379 0cba 06       		.byte	6
 3380 0cbb 9B       		.byte	-101
 3381 0cbc 05       		.byte	5
 3382 0cbd 90       		.byte	-112
 3383 0cbe 00       		.byte	0
 3384 0cbf 2B       		.byte	43
 3385 0cc0 14       		.byte	20
 3386 0cc1 D1       		.byte	-47
 3387 0cc2 3B       		.byte	59
 3388 0cc3 4A       		.byte	74
 3389 0cc4 04       		.byte	4
 3390 0cc5 98       		.byte	-104
 3391 0cc6 28       		.byte	40
 3392 0cc7 92       		.byte	-110
 3393 0cc8 28       		.byte	40
 3394 0cc9 9A       		.byte	-102
 3395 0cca 01       		.byte	1
 3396 0ccb 04       		.byte	4
 3397 0ccc 0A       		.byte	10
 3398 0ccd 43       		.byte	67
 3399 0cce 28       		.byte	40
 3400 0ccf 92       		.byte	-110
 3401 0cd0 28       		.byte	40
 3402 0cd1 AA       		.byte	-86
 3403 0cd2 22       		.byte	34
 3404 0cd3 60       		.byte	96
 3405 0cd4 32       		.byte	50
 3406 0cd5 49       		.byte	73
 3407 0cd6 37       		.byte	55
 3408 0cd7 4A       		.byte	74
 3409 0cd8 0A       		.byte	10
 3410 0cd9 60       		.byte	96
 3411 0cda 22       		.byte	34
 3412 0cdb 68       		.byte	104
 3413 0cdc 12       		.byte	18
 3414 0cdd 0F       		.byte	15
 3415 0cde 0A       		.byte	10
 3416 0cdf 2A       		.byte	42
 3417 0ce0 03       		.byte	3
 3418 0ce1 D0       		.byte	-48
 3419 0ce2 2E       		.byte	46
 3420 0ce3 4B       		.byte	75
ARM GAS  C:\Users\jj-ay\AppData\Local\Temp\ccfFkvsK.s 			page 61


 3421 0ce4 1A       		.byte	26
 3422 0ce5 68       		.byte	104
 3423 0ce6 0F       		.byte	15
 3424 0ce7 23       		.byte	35
 3425 0ce8 13       		.byte	19
 3426 0ce9 40       		.byte	64
 3427 0cea 06       		.byte	6
 3428 0ceb 93       		.byte	-109
 3429 0cec 06       		.byte	6
 3430 0ced 9F       		.byte	-97
 3431 0cee 00       		.byte	0
 3432 0cef 2F       		.byte	47
 3433 0cf0 38       		.byte	56
 3434 0cf1 D1       		.byte	-47
 3435 0cf2 01       		.byte	1
 3436 0cf3 9A       		.byte	-102
 3437 0cf4 00       		.byte	0
 3438 0cf5 2A       		.byte	42
 3439 0cf6 35       		.byte	53
 3440 0cf7 D0       		.byte	-48
 3441 0cf8 39       		.byte	57
 3442 0cf9 1C       		.byte	28
 3443 0cfa 80       		.byte	-128
 3444 0cfb 22       		.byte	34
 3445 0cfc 28       		.byte	40
 3446 0cfd 1C       		.byte	28
 3447 0cfe 00       		.byte	0
 3448 0cff F0       		.byte	-16
 3449 0d00 82       		.byte	-126
 3450 0d01 F9       		.byte	-7
 3451 0d02 02       		.byte	2
 3452 0d03 98       		.byte	-104
 3453 0d04 03       		.byte	3
 3454 0d05 9A       		.byte	-102
 3455 0d06 08       		.byte	8
 3456 0d07 A9       		.byte	-87
 3457 0d08 83       		.byte	-125
 3458 0d09 00       		.byte	0
 3459 0d0a 5A       		.byte	90
 3460 0d0b 50       		.byte	80
 3461 0d0c 22       		.byte	34
 3462 0d0d 4B       		.byte	75
 3463 0d0e 2A       		.byte	42
 3464 0d0f A8       		.byte	-88
 3465 0d10 28       		.byte	40
 3466 0d11 93       		.byte	-109
 3467 0d12 80       		.byte	-128
 3468 0d13 22       		.byte	34
 3469 0d14 7F       		.byte	127
 3470 0d15 23       		.byte	35
 3471 0d16 73       		.byte	115
 3472 0d17 60       		.byte	96
 3473 0d18 00       		.byte	0
 3474 0d19 F0       		.byte	-16
 3475 0d1a 6C       		.byte	108
 3476 0d1b F9       		.byte	-7
 3477 0d1c 21       		.byte	33
ARM GAS  C:\Users\jj-ay\AppData\Local\Temp\ccfFkvsK.s 			page 62


 3478 0d1d 48       		.byte	72
 3479 0d1e 20       		.byte	32
 3480 0d1f 49       		.byte	73
 3481 0d20 26       		.byte	38
 3482 0d21 60       		.byte	96
 3483 0d22 08       		.byte	8
 3484 0d23 60       		.byte	96
 3485 0d24 23       		.byte	35
 3486 0d25 68       		.byte	104
 3487 0d26 1B       		.byte	27
 3488 0d27 0F       		.byte	15
 3489 0d28 0A       		.byte	10
 3490 0d29 2B       		.byte	43
 3491 0d2a 03       		.byte	3
 3492 0d2b D0       		.byte	-48
 3493 0d2c 1B       		.byte	27
 3494 0d2d 4B       		.byte	75
 3495 0d2e 1F       		.byte	31
 3496 0d2f 68       		.byte	104
 3497 0d30 0F       		.byte	15
 3498 0d31 23       		.byte	35
 3499 0d32 1F       		.byte	31
 3500 0d33 40       		.byte	64
 3501 0d34 06       		.byte	6
 3502 0d35 97       		.byte	-105
 3503 0d36 06       		.byte	6
 3504 0d37 9B       		.byte	-101
 3505 0d38 00       		.byte	0
 3506 0d39 2B       		.byte	43
 3507 0d3a 13       		.byte	19
 3508 0d3b D1       		.byte	-47
 3509 0d3c 1E       		.byte	30
 3510 0d3d 4A       		.byte	74
 3511 0d3e 04       		.byte	4
 3512 0d3f 98       		.byte	-104
 3513 0d40 28       		.byte	40
 3514 0d41 92       		.byte	-110
 3515 0d42 28       		.byte	40
 3516 0d43 9A       		.byte	-102
 3517 0d44 01       		.byte	1
 3518 0d45 04       		.byte	4
 3519 0d46 0A       		.byte	10
 3520 0d47 43       		.byte	67
 3521 0d48 28       		.byte	40
 3522 0d49 92       		.byte	-110
 3523 0d4a 15       		.byte	21
 3524 0d4b 49       		.byte	73
 3525 0d4c 1B       		.byte	27
 3526 0d4d 4A       		.byte	74
 3527 0d4e 26       		.byte	38
 3528 0d4f 60       		.byte	96
 3529 0d50 0A       		.byte	10
 3530 0d51 60       		.byte	96
 3531 0d52 22       		.byte	34
 3532 0d53 68       		.byte	104
 3533 0d54 12       		.byte	18
 3534 0d55 0F       		.byte	15
ARM GAS  C:\Users\jj-ay\AppData\Local\Temp\ccfFkvsK.s 			page 63


 3535 0d56 0A       		.byte	10
 3536 0d57 2A       		.byte	42
 3537 0d58 03       		.byte	3
 3538 0d59 D0       		.byte	-48
 3539 0d5a 10       		.byte	16
 3540 0d5b 4B       		.byte	75
 3541 0d5c 1A       		.byte	26
 3542 0d5d 68       		.byte	104
 3543 0d5e 0F       		.byte	15
 3544 0d5f 23       		.byte	35
 3545 0d60 13       		.byte	19
 3546 0d61 40       		.byte	64
 3547 0d62 06       		.byte	6
 3548 0d63 93       		.byte	-109
 3549 0d64 07       		.byte	7
 3550 0d65 9B       		.byte	-101
 3551 0d66 00       		.byte	0
 3552 0d67 2B       		.byte	43
 3553 0d68 04       		.byte	4
 3554 0d69 D1       		.byte	-47
 3555 0d6a 10       		.byte	16
 3556 0d6b 4A       		.byte	74
 3557 0d6c 0E       		.byte	14
 3558 0d6d 48       		.byte	72
 3559 0d6e 12       		.byte	18
 3560 0d6f 68       		.byte	104
 3561 0d70 02       		.byte	2
 3562 0d71 60       		.byte	96
 3563 0d72 07       		.byte	7
 3564 0d73 93       		.byte	-109
 3565 0d74 05       		.byte	5
 3566 0d75 98       		.byte	-104
 3567 0d76 FF       		.byte	-1
 3568 0d77 F7       		.byte	-9
 3569 0d78 4D       		.byte	77
 3570 0d79 FF       		.byte	-1
 3571 0d7a 01       		.byte	1
 3572 0d7b E0       		.byte	-32
 3573 0d7c 04       		.byte	4
 3574 0d7d 23       		.byte	35
 3575 0d7e 06       		.byte	6
 3576 0d7f 93       		.byte	-109
 3577 0d80 06       		.byte	6
 3578 0d81 98       		.byte	-104
 3579 0d82 4B       		.byte	75
 3580 0d83 B0       		.byte	-80
 3581 0d84 F0       		.byte	-16
 3582 0d85 BD       		.byte	-67
 3583 0d86 02       		.byte	2
 3584 0d87 99       		.byte	-103
 3585 0d88 8B       		.byte	-117
 3586 0d89 00       		.byte	0
 3587 0d8a E8       		.byte	-24
 3588 0d8b 58       		.byte	88
 3589 0d8c 01       		.byte	1
 3590 0d8d 21       		.byte	33
 3591 0d8e 03       		.byte	3
ARM GAS  C:\Users\jj-ay\AppData\Local\Temp\ccfFkvsK.s 			page 64


 3592 0d8f 90       		.byte	-112
 3593 0d90 EA       		.byte	-22
 3594 0d91 50       		.byte	80
 3595 0d92 01       		.byte	1
 3596 0d93 91       		.byte	-111
 3597 0d94 6E       		.byte	110
 3598 0d95 E7       		.byte	-25
 3599 0d96 C0       		.byte	-64
 3600 0d97 46       		.byte	70
 3601 0d98 B6       		.byte	-74
 3602 0d99 D7       		.byte	-41
 3603 0d9a 00       		.byte	0
 3604 0d9b 00       		.byte	0
 3605 0d9c 08       		.byte	8
 3606 0d9d 00       		.byte	0
 3607 0d9e 00       		.byte	0
 3608 0d9f 40       		.byte	64
 3609 0da0 04       		.byte	4
 3610 0da1 00       		.byte	0
 3611 0da2 00       		.byte	0
 3612 0da3 40       		.byte	64
 3613 0da4 04       		.byte	4
 3614 0da5 00       		.byte	0
 3615 0da6 00       		.byte	0
 3616 0da7 80       		.byte	-128
 3617 0da8 08       		.byte	8
 3618 0da9 01       		.byte	1
 3619 0daa 0B       		.byte	11
 3620 0dab 40       		.byte	64
 3621 0dac 1C       		.byte	28
 3622 0dad 01       		.byte	1
 3623 0dae 00       		.byte	0
 3624 0daf 20       		.byte	32
 3625 0db0 B6       		.byte	-74
 3626 0db1 D8       		.byte	-40
 3627 0db2 00       		.byte	0
 3628 0db3 00       		.byte	0
 3629 0db4 05       		.byte	5
 3630 0db5 00       		.byte	0
 3631 0db6 00       		.byte	0
 3632 0db7 80       		.byte	-128
 3633 0db8 B6       		.byte	-74
 3634 0db9 D9       		.byte	-39
 3635 0dba 00       		.byte	0
 3636 0dbb 00       		.byte	0
 3637 0dbc 06       		.byte	6
 3638 0dbd 00       		.byte	0
 3639 0dbe 00       		.byte	0
 3640 0dbf 80       		.byte	-128
 3641 0dc0 1F       		.byte	31
 3642 0dc1 28       		.byte	40
 3643 0dc2 00       		.byte	0
 3644 0dc3 D9       		.byte	-39
 3645 0dc4 01       		.byte	1
 3646 0dc5 BE       		.byte	-66
 3647 0dc6 03       		.byte	3
 3648 0dc7 4A       		.byte	74
ARM GAS  C:\Users\jj-ay\AppData\Local\Temp\ccfFkvsK.s 			page 65


 3649 0dc8 80       		.byte	-128
 3650 0dc9 00       		.byte	0
 3651 0dca 83       		.byte	-125
 3652 0dcb 18       		.byte	24
 3653 0dcc 18       		.byte	24
 3654 0dcd 68       		.byte	104
 3655 0dce 19       		.byte	25
 3656 0dcf 60       		.byte	96
 3657 0dd0 70       		.byte	112
 3658 0dd1 47       		.byte	71
 3659 0dd2 C0       		.byte	-64
 3660 0dd3 46       		.byte	70
 3661 0dd4 40       		.byte	64
 3662 0dd5 00       		.byte	0
 3663 0dd6 00       		.byte	0
 3664 0dd7 20       		.byte	32
 3665 0dd8 38       		.byte	56
 3666 0dd9 B5       		.byte	-75
 3667 0dda 04       		.byte	4
 3668 0ddb 1C       		.byte	28
 3669 0ddc 0D       		.byte	13
 3670 0ddd 1E       		.byte	30
 3671 0dde 03       		.byte	3
 3672 0ddf 2D       		.byte	45
 3673 0de0 00       		.byte	0
 3674 0de1 D9       		.byte	-39
 3675 0de2 01       		.byte	1
 3676 0de3 BE       		.byte	-66
 3677 0de4 1F       		.byte	31
 3678 0de5 2C       		.byte	44
 3679 0de6 00       		.byte	0
 3680 0de7 D9       		.byte	-39
 3681 0de8 01       		.byte	1
 3682 0de9 BE       		.byte	-66
 3683 0dea FF       		.byte	-1
 3684 0deb F7       		.byte	-9
 3685 0dec 0F       		.byte	15
 3686 0ded FF       		.byte	-1
 3687 0dee A3       		.byte	-93
 3688 0def 08       		.byte	8
 3689 0df0 08       		.byte	8
 3690 0df1 4A       		.byte	74
 3691 0df2 9B       		.byte	-101
 3692 0df3 00       		.byte	0
 3693 0df4 9B       		.byte	-101
 3694 0df5 18       		.byte	24
 3695 0df6 03       		.byte	3
 3696 0df7 22       		.byte	34
 3697 0df8 14       		.byte	20
 3698 0df9 40       		.byte	64
 3699 0dfa 94       		.byte	-108
 3700 0dfb 40       		.byte	64
 3701 0dfc 19       		.byte	25
 3702 0dfd 68       		.byte	104
 3703 0dfe 06       		.byte	6
 3704 0dff 34       		.byte	52
 3705 0e00 A2       		.byte	-94
ARM GAS  C:\Users\jj-ay\AppData\Local\Temp\ccfFkvsK.s 			page 66


 3706 0e01 40       		.byte	64
 3707 0e02 91       		.byte	-111
 3708 0e03 43       		.byte	67
 3709 0e04 A5       		.byte	-91
 3710 0e05 40       		.byte	64
 3711 0e06 0C       		.byte	12
 3712 0e07 1C       		.byte	28
 3713 0e08 2C       		.byte	44
 3714 0e09 43       		.byte	67
 3715 0e0a 1C       		.byte	28
 3716 0e0b 60       		.byte	96
 3717 0e0c FF       		.byte	-1
 3718 0e0d F7       		.byte	-9
 3719 0e0e 02       		.byte	2
 3720 0e0f FF       		.byte	-1
 3721 0e10 38       		.byte	56
 3722 0e11 BD       		.byte	-67
 3723 0e12 C0       		.byte	-64
 3724 0e13 46       		.byte	70
 3725 0e14 00       		.byte	0
 3726 0e15 E4       		.byte	-28
 3727 0e16 00       		.byte	0
 3728 0e17 E0       		.byte	-32
 3729 0e18 1F       		.byte	31
 3730 0e19 23       		.byte	35
 3731 0e1a 18       		.byte	24
 3732 0e1b 40       		.byte	64
 3733 0e1c 01       		.byte	1
 3734 0e1d 23       		.byte	35
 3735 0e1e 83       		.byte	-125
 3736 0e1f 40       		.byte	64
 3737 0e20 18       		.byte	24
 3738 0e21 1C       		.byte	28
 3739 0e22 01       		.byte	1
 3740 0e23 4B       		.byte	75
 3741 0e24 18       		.byte	24
 3742 0e25 60       		.byte	96
 3743 0e26 70       		.byte	112
 3744 0e27 47       		.byte	71
 3745 0e28 00       		.byte	0
 3746 0e29 E1       		.byte	-31
 3747 0e2a 00       		.byte	0
 3748 0e2b E0       		.byte	-32
 3749 0e2c 1F       		.byte	31
 3750 0e2d 23       		.byte	35
 3751 0e2e 18       		.byte	24
 3752 0e2f 40       		.byte	64
 3753 0e30 01       		.byte	1
 3754 0e31 23       		.byte	35
 3755 0e32 83       		.byte	-125
 3756 0e33 40       		.byte	64
 3757 0e34 18       		.byte	24
 3758 0e35 1C       		.byte	28
 3759 0e36 01       		.byte	1
 3760 0e37 4B       		.byte	75
 3761 0e38 18       		.byte	24
 3762 0e39 60       		.byte	96
ARM GAS  C:\Users\jj-ay\AppData\Local\Temp\ccfFkvsK.s 			page 67


 3763 0e3a 70       		.byte	112
 3764 0e3b 47       		.byte	71
 3765 0e3c 80       		.byte	-128
 3766 0e3d E1       		.byte	-31
 3767 0e3e 00       		.byte	0
 3768 0e3f E0       		.byte	-32
 3769 0e40 01       		.byte	1
 3770 0e41 BE       		.byte	-66
 3771 0e42 70       		.byte	112
 3772 0e43 47       		.byte	71
 3773 0e44 03       		.byte	3
 3774 0e45 4B       		.byte	75
 3775 0e46 04       		.byte	4
 3776 0e47 49       		.byte	73
 3777 0e48 1A       		.byte	26
 3778 0e49 68       		.byte	104
 3779 0e4a 92       		.byte	-110
 3780 0e4b B2       		.byte	-78
 3781 0e4c 0A       		.byte	10
 3782 0e4d 43       		.byte	67
 3783 0e4e 1A       		.byte	26
 3784 0e4f 60       		.byte	96
 3785 0e50 70       		.byte	112
 3786 0e51 47       		.byte	71
 3787 0e52 C0       		.byte	-64
 3788 0e53 46       		.byte	70
 3789 0e54 0C       		.byte	12
 3790 0e55 ED       		.byte	-19
 3791 0e56 00       		.byte	0
 3792 0e57 E0       		.byte	-32
 3793 0e58 04       		.byte	4
 3794 0e59 00       		.byte	0
 3795 0e5a FA       		.byte	-6
 3796 0e5b 05       		.byte	5
 3797 0e5c 10       		.byte	16
 3798 0e5d B5       		.byte	-75
 3799 0e5e 04       		.byte	4
 3800 0e5f 1C       		.byte	28
 3801 0e60 80       		.byte	-128
 3802 0e61 22       		.byte	34
 3803 0e62 07       		.byte	7
 3804 0e63 4B       		.byte	75
 3805 0e64 12       		.byte	18
 3806 0e65 02       		.byte	2
 3807 0e66 94       		.byte	-108
 3808 0e67 42       		.byte	66
 3809 0e68 05       		.byte	5
 3810 0e69 D9       		.byte	-39
 3811 0e6a 18       		.byte	24
 3812 0e6b 68       		.byte	104
 3813 0e6c FF       		.byte	-1
 3814 0e6d F7       		.byte	-9
 3815 0e6e C4       		.byte	-60
 3816 0e6f FE       		.byte	-2
 3817 0e70 04       		.byte	4
 3818 0e71 4B       		.byte	75
 3819 0e72 E4       		.byte	-28
ARM GAS  C:\Users\jj-ay\AppData\Local\Temp\ccfFkvsK.s 			page 68


 3820 0e73 18       		.byte	24
 3821 0e74 F4       		.byte	-12
 3822 0e75 E7       		.byte	-25
 3823 0e76 58       		.byte	88
 3824 0e77 68       		.byte	104
 3825 0e78 60       		.byte	96
 3826 0e79 43       		.byte	67
 3827 0e7a FF       		.byte	-1
 3828 0e7b F7       		.byte	-9
 3829 0e7c BD       		.byte	-67
 3830 0e7d FE       		.byte	-2
 3831 0e7e 10       		.byte	16
 3832 0e7f BD       		.byte	-67
 3833 0e80 DC       		.byte	-36
 3834 0e81 00       		.byte	0
 3835 0e82 00       		.byte	0
 3836 0e83 20       		.byte	32
 3837 0e84 00       		.byte	0
 3838 0e85 80       		.byte	-128
 3839 0e86 FF       		.byte	-1
 3840 0e87 FF       		.byte	-1
 3841 0e88 08       		.byte	8
 3842 0e89 B5       		.byte	-75
 3843 0e8a 03       		.byte	3
 3844 0e8b 4B       		.byte	75
 3845 0e8c 1B       		.byte	27
 3846 0e8d 7A       		.byte	122
 3847 0e8e 58       		.byte	88
 3848 0e8f 43       		.byte	67
 3849 0e90 FF       		.byte	-1
 3850 0e91 F7       		.byte	-9
 3851 0e92 B2       		.byte	-78
 3852 0e93 FE       		.byte	-2
 3853 0e94 08       		.byte	8
 3854 0e95 BD       		.byte	-67
 3855 0e96 C0       		.byte	-64
 3856 0e97 46       		.byte	70
 3857 0e98 DC       		.byte	-36
 3858 0e99 00       		.byte	0
 3859 0e9a 00       		.byte	0
 3860 0e9b 20       		.byte	32
 3861 0e9c 27       		.byte	39
 3862 0e9d 4B       		.byte	75
 3863 0e9e 10       		.byte	16
 3864 0e9f B5       		.byte	-75
 3865 0ea0 1B       		.byte	27
 3866 0ea1 68       		.byte	104
 3867 0ea2 00       		.byte	0
 3868 0ea3 2B       		.byte	43
 3869 0ea4 00       		.byte	0
 3870 0ea5 D0       		.byte	-48
 3871 0ea6 98       		.byte	-104
 3872 0ea7 47       		.byte	71
 3873 0ea8 25       		.byte	37
 3874 0ea9 4B       		.byte	75
 3875 0eaa 1B       		.byte	27
 3876 0eab 68       		.byte	104
ARM GAS  C:\Users\jj-ay\AppData\Local\Temp\ccfFkvsK.s 			page 69


 3877 0eac 5A       		.byte	90
 3878 0ead 07       		.byte	7
 3879 0eae 1D       		.byte	29
 3880 0eaf D5       		.byte	-43
 3881 0eb0 24       		.byte	36
 3882 0eb1 4B       		.byte	75
 3883 0eb2 1B       		.byte	27
 3884 0eb3 68       		.byte	104
 3885 0eb4 1A       		.byte	26
 3886 0eb5 07       		.byte	7
 3887 0eb6 16       		.byte	22
 3888 0eb7 D0       		.byte	-48
 3889 0eb8 23       		.byte	35
 3890 0eb9 4B       		.byte	75
 3891 0eba 24       		.byte	36
 3892 0ebb 4A       		.byte	74
 3893 0ebc 18       		.byte	24
 3894 0ebd 68       		.byte	104
 3895 0ebe 11       		.byte	17
 3896 0ebf 68       		.byte	104
 3897 0ec0 4B       		.byte	75
 3898 0ec1 1C       		.byte	28
 3899 0ec2 40       		.byte	64
 3900 0ec3 39       		.byte	57
 3901 0ec4 4C       		.byte	76
 3902 0ec5 1E       		.byte	30
 3903 0ec6 A1       		.byte	-95
 3904 0ec7 41       		.byte	65
 3905 0ec8 49       		.byte	73
 3906 0ec9 42       		.byte	66
 3907 0eca 0B       		.byte	11
 3908 0ecb 40       		.byte	64
 3909 0ecc 20       		.byte	32
 3910 0ecd 49       		.byte	73
 3911 0ece 09       		.byte	9
 3912 0ecf 68       		.byte	104
 3913 0ed0 8B       		.byte	-117
 3914 0ed1 42       		.byte	66
 3915 0ed2 03       		.byte	3
 3916 0ed3 D1       		.byte	-47
 3917 0ed4 1F       		.byte	31
 3918 0ed5 4B       		.byte	75
 3919 0ed6 20       		.byte	32
 3920 0ed7 22       		.byte	34
 3921 0ed8 1A       		.byte	26
 3922 0ed9 70       		.byte	112
 3923 0eda E9       		.byte	-23
 3924 0edb E7       		.byte	-25
 3925 0edc 1E       		.byte	30
 3926 0edd 49       		.byte	73
 3927 0ede C0       		.byte	-64
 3928 0edf B2       		.byte	-78
 3929 0ee0 C8       		.byte	-56
 3930 0ee1 54       		.byte	84
 3931 0ee2 13       		.byte	19
 3932 0ee3 60       		.byte	96
 3933 0ee4 E4       		.byte	-28
ARM GAS  C:\Users\jj-ay\AppData\Local\Temp\ccfFkvsK.s 			page 70


 3934 0ee5 E7       		.byte	-25
 3935 0ee6 1D       		.byte	29
 3936 0ee7 4B       		.byte	75
 3937 0ee8 04       		.byte	4
 3938 0ee9 22       		.byte	34
 3939 0eea 1A       		.byte	26
 3940 0eeb 60       		.byte	96
 3941 0eec 1C       		.byte	28
 3942 0eed 4B       		.byte	75
 3943 0eee 1B       		.byte	27
 3944 0eef 68       		.byte	104
 3945 0ef0 9A       		.byte	-102
 3946 0ef1 07       		.byte	7
 3947 0ef2 21       		.byte	33
 3948 0ef3 D5       		.byte	-43
 3949 0ef4 1B       		.byte	27
 3950 0ef5 4B       		.byte	75
 3951 0ef6 1A       		.byte	26
 3952 0ef7 68       		.byte	104
 3953 0ef8 0F       		.byte	15
 3954 0ef9 23       		.byte	35
 3955 0efa 13       		.byte	19
 3956 0efb 40       		.byte	64
 3957 0efc 08       		.byte	8
 3958 0efd 2B       		.byte	43
 3959 0efe 18       		.byte	24
 3960 0eff D0       		.byte	-48
 3961 0f00 19       		.byte	25
 3962 0f01 4B       		.byte	75
 3963 0f02 1A       		.byte	26
 3964 0f03 4A       		.byte	74
 3965 0f04 19       		.byte	25
 3966 0f05 68       		.byte	104
 3967 0f06 13       		.byte	19
 3968 0f07 68       		.byte	104
 3969 0f08 99       		.byte	-103
 3970 0f09 42       		.byte	66
 3971 0f0a 0D       		.byte	13
 3972 0f0b D0       		.byte	-48
 3973 0f0c 11       		.byte	17
 3974 0f0d 68       		.byte	104
 3975 0f0e 4B       		.byte	75
 3976 0f0f 1C       		.byte	28
 3977 0f10 3F       		.byte	63
 3978 0f11 39       		.byte	57
 3979 0f12 48       		.byte	72
 3980 0f13 1E       		.byte	30
 3981 0f14 81       		.byte	-127
 3982 0f15 41       		.byte	65
 3983 0f16 49       		.byte	73
 3984 0f17 42       		.byte	66
 3985 0f18 0B       		.byte	11
 3986 0f19 40       		.byte	64
 3987 0f1a 15       		.byte	21
 3988 0f1b 49       		.byte	73
 3989 0f1c C8       		.byte	-56
 3990 0f1d 5C       		.byte	92
ARM GAS  C:\Users\jj-ay\AppData\Local\Temp\ccfFkvsK.s 			page 71


 3991 0f1e 15       		.byte	21
 3992 0f1f 49       		.byte	73
 3993 0f20 C0       		.byte	-64
 3994 0f21 B2       		.byte	-78
 3995 0f22 08       		.byte	8
 3996 0f23 60       		.byte	96
 3997 0f24 13       		.byte	19
 3998 0f25 60       		.byte	96
 3999 0f26 E5       		.byte	-27
 4000 0f27 E7       		.byte	-25
 4001 0f28 13       		.byte	19
 4002 0f29 4B       		.byte	75
 4003 0f2a 02       		.byte	2
 4004 0f2b 21       		.byte	33
 4005 0f2c 1A       		.byte	26
 4006 0f2d 68       		.byte	104
 4007 0f2e 8A       		.byte	-118
 4008 0f2f 43       		.byte	67
 4009 0f30 1A       		.byte	26
 4010 0f31 60       		.byte	96
 4011 0f32 12       		.byte	18
 4012 0f33 4B       		.byte	75
 4013 0f34 02       		.byte	2
 4014 0f35 22       		.byte	34
 4015 0f36 1A       		.byte	26
 4016 0f37 60       		.byte	96
 4017 0f38 10       		.byte	16
 4018 0f39 BD       		.byte	-67
 4019 0f3a C0       		.byte	-64
 4020 0f3b 46       		.byte	70
 4021 0f3c 14       		.byte	20
 4022 0f3d 01       		.byte	1
 4023 0f3e 00       		.byte	0
 4024 0f3f 20       		.byte	32
 4025 0f40 CC       		.byte	-52
 4026 0f41 0F       		.byte	15
 4027 0f42 06       		.byte	6
 4028 0f43 40       		.byte	64
 4029 0f44 08       		.byte	8
 4030 0f45 03       		.byte	3
 4031 0f46 06       		.byte	6
 4032 0f47 40       		.byte	64
 4033 0f48 40       		.byte	64
 4034 0f49 03       		.byte	3
 4035 0f4a 06       		.byte	6
 4036 0f4b 40       		.byte	64
 4037 0f4c B0       		.byte	-80
 4038 0f4d 01       		.byte	1
 4039 0f4e 00       		.byte	0
 4040 0f4f 20       		.byte	32
 4041 0f50 28       		.byte	40
 4042 0f51 01       		.byte	1
 4043 0f52 00       		.byte	0
 4044 0f53 20       		.byte	32
 4045 0f54 AD       		.byte	-83
 4046 0f55 01       		.byte	1
 4047 0f56 00       		.byte	0
ARM GAS  C:\Users\jj-ay\AppData\Local\Temp\ccfFkvsK.s 			page 72


 4048 0f57 20       		.byte	32
 4049 0f58 6C       		.byte	108
 4050 0f59 01       		.byte	1
 4051 0f5a 00       		.byte	0
 4052 0f5b 20       		.byte	32
 4053 0f5c C0       		.byte	-64
 4054 0f5d 0F       		.byte	15
 4055 0f5e 06       		.byte	6
 4056 0f5f 40       		.byte	64
 4057 0f60 8C       		.byte	-116
 4058 0f61 0F       		.byte	15
 4059 0f62 06       		.byte	6
 4060 0f63 40       		.byte	64
 4061 0f64 08       		.byte	8
 4062 0f65 02       		.byte	2
 4063 0f66 06       		.byte	6
 4064 0f67 40       		.byte	64
 4065 0f68 24       		.byte	36
 4066 0f69 01       		.byte	1
 4067 0f6a 00       		.byte	0
 4068 0f6b 20       		.byte	32
 4069 0f6c 20       		.byte	32
 4070 0f6d 01       		.byte	1
 4071 0f6e 00       		.byte	0
 4072 0f6f 20       		.byte	32
 4073 0f70 2C       		.byte	44
 4074 0f71 01       		.byte	1
 4075 0f72 00       		.byte	0
 4076 0f73 20       		.byte	32
 4077 0f74 40       		.byte	64
 4078 0f75 02       		.byte	2
 4079 0f76 06       		.byte	6
 4080 0f77 40       		.byte	64
 4081 0f78 88       		.byte	-120
 4082 0f79 0F       		.byte	15
 4083 0f7a 06       		.byte	6
 4084 0f7b 40       		.byte	64
 4085 0f7c 80       		.byte	-128
 4086 0f7d 0F       		.byte	15
 4087 0f7e 06       		.byte	6
 4088 0f7f 40       		.byte	64
 4089 0f80 02       		.byte	2
 4090 0f81 B4       		.byte	-76
 4091 0f82 71       		.byte	113
 4092 0f83 46       		.byte	70
 4093 0f84 49       		.byte	73
 4094 0f85 08       		.byte	8
 4095 0f86 49       		.byte	73
 4096 0f87 00       		.byte	0
 4097 0f88 09       		.byte	9
 4098 0f89 5C       		.byte	92
 4099 0f8a 49       		.byte	73
 4100 0f8b 00       		.byte	0
 4101 0f8c 8E       		.byte	-114
 4102 0f8d 44       		.byte	68
 4103 0f8e 02       		.byte	2
 4104 0f8f BC       		.byte	-68
ARM GAS  C:\Users\jj-ay\AppData\Local\Temp\ccfFkvsK.s 			page 73


 4105 0f90 70       		.byte	112
 4106 0f91 47       		.byte	71
 4107 0f92 C0       		.byte	-64
 4108 0f93 46       		.byte	70
 4109 0f94 03       		.byte	3
 4110 0f95 B4       		.byte	-76
 4111 0f96 71       		.byte	113
 4112 0f97 46       		.byte	70
 4113 0f98 49       		.byte	73
 4114 0f99 08       		.byte	8
 4115 0f9a 40       		.byte	64
 4116 0f9b 00       		.byte	0
 4117 0f9c 49       		.byte	73
 4118 0f9d 00       		.byte	0
 4119 0f9e 09       		.byte	9
 4120 0f9f 5E       		.byte	94
 4121 0fa0 49       		.byte	73
 4122 0fa1 00       		.byte	0
 4123 0fa2 8E       		.byte	-114
 4124 0fa3 44       		.byte	68
 4125 0fa4 03       		.byte	3
 4126 0fa5 BC       		.byte	-68
 4127 0fa6 70       		.byte	112
 4128 0fa7 47       		.byte	71
 4129 0fa8 70       		.byte	112
 4130 0fa9 B5       		.byte	-75
 4131 0faa 0E       		.byte	14
 4132 0fab 4B       		.byte	75
 4133 0fac 0E       		.byte	14
 4134 0fad 4D       		.byte	77
 4135 0fae 00       		.byte	0
 4136 0faf 24       		.byte	36
 4137 0fb0 ED       		.byte	-19
 4138 0fb1 1A       		.byte	26
 4139 0fb2 AD       		.byte	-83
 4140 0fb3 10       		.byte	16
 4141 0fb4 1E       		.byte	30
 4142 0fb5 1C       		.byte	28
 4143 0fb6 AC       		.byte	-84
 4144 0fb7 42       		.byte	66
 4145 0fb8 04       		.byte	4
 4146 0fb9 D0       		.byte	-48
 4147 0fba A3       		.byte	-93
 4148 0fbb 00       		.byte	0
 4149 0fbc F3       		.byte	-13
 4150 0fbd 58       		.byte	88
 4151 0fbe 98       		.byte	-104
 4152 0fbf 47       		.byte	71
 4153 0fc0 01       		.byte	1
 4154 0fc1 34       		.byte	52
 4155 0fc2 F8       		.byte	-8
 4156 0fc3 E7       		.byte	-25
 4157 0fc4 00       		.byte	0
 4158 0fc5 F0       		.byte	-16
 4159 0fc6 44       		.byte	68
 4160 0fc7 F8       		.byte	-8
 4161 0fc8 08       		.byte	8
ARM GAS  C:\Users\jj-ay\AppData\Local\Temp\ccfFkvsK.s 			page 74


 4162 0fc9 4B       		.byte	75
 4163 0fca 09       		.byte	9
 4164 0fcb 4D       		.byte	77
 4165 0fcc 00       		.byte	0
 4166 0fcd 24       		.byte	36
 4167 0fce ED       		.byte	-19
 4168 0fcf 1A       		.byte	26
 4169 0fd0 AD       		.byte	-83
 4170 0fd1 10       		.byte	16
 4171 0fd2 1E       		.byte	30
 4172 0fd3 1C       		.byte	28
 4173 0fd4 AC       		.byte	-84
 4174 0fd5 42       		.byte	66
 4175 0fd6 04       		.byte	4
 4176 0fd7 D0       		.byte	-48
 4177 0fd8 A3       		.byte	-93
 4178 0fd9 00       		.byte	0
 4179 0fda F3       		.byte	-13
 4180 0fdb 58       		.byte	88
 4181 0fdc 98       		.byte	-104
 4182 0fdd 47       		.byte	71
 4183 0fde 01       		.byte	1
 4184 0fdf 34       		.byte	52
 4185 0fe0 F8       		.byte	-8
 4186 0fe1 E7       		.byte	-25
 4187 0fe2 70       		.byte	112
 4188 0fe3 BD       		.byte	-67
 4189 0fe4 5C       		.byte	92
 4190 0fe5 10       		.byte	16
 4191 0fe6 00       		.byte	0
 4192 0fe7 00       		.byte	0
 4193 0fe8 5C       		.byte	92
 4194 0fe9 10       		.byte	16
 4195 0fea 00       		.byte	0
 4196 0feb 00       		.byte	0
 4197 0fec 5C       		.byte	92
 4198 0fed 10       		.byte	16
 4199 0fee 00       		.byte	0
 4200 0fef 00       		.byte	0
 4201 0ff0 64       		.byte	100
 4202 0ff1 10       		.byte	16
 4203 0ff2 00       		.byte	0
 4204 0ff3 00       		.byte	0
 4205 0ff4 10       		.byte	16
 4206 0ff5 B5       		.byte	-75
 4207 0ff6 00       		.byte	0
 4208 0ff7 23       		.byte	35
 4209 0ff8 93       		.byte	-109
 4210 0ff9 42       		.byte	66
 4211 0ffa 03       		.byte	3
 4212 0ffb D0       		.byte	-48
 4213 0ffc CC       		.byte	-52
 4214 0ffd 5C       		.byte	92
 4215 0ffe C4       		.byte	-60
 4216 0fff 54       		.byte	84
 4217 1000 01       		.byte	1
 4218 1001 33       		.byte	51
ARM GAS  C:\Users\jj-ay\AppData\Local\Temp\ccfFkvsK.s 			page 75


 4219 1002 F9       		.byte	-7
 4220 1003 E7       		.byte	-25
 4221 1004 10       		.byte	16
 4222 1005 BD       		.byte	-67
 4223 1006 03       		.byte	3
 4224 1007 1C       		.byte	28
 4225 1008 82       		.byte	-126
 4226 1009 18       		.byte	24
 4227 100a 93       		.byte	-109
 4228 100b 42       		.byte	66
 4229 100c 02       		.byte	2
 4230 100d D0       		.byte	-48
 4231 100e 19       		.byte	25
 4232 100f 70       		.byte	112
 4233 1010 01       		.byte	1
 4234 1011 33       		.byte	51
 4235 1012 FA       		.byte	-6
 4236 1013 E7       		.byte	-25
 4237 1014 70       		.byte	112
 4238 1015 47       		.byte	71
 4239 1016 00       		.byte	0
 4240 1017 00       		.byte	0
 4241 1018 A8       		.byte	-88
 4242 1019 10       		.byte	16
 4243 101a 00       		.byte	0
 4244 101b 00       		.byte	0
 4245 101c EE       		.byte	-18
 4246 101d 00       		.byte	0
 4247 101e 00       		.byte	0
 4248 101f 00       		.byte	0
 4249 1020 00       		.byte	0
 4250 1021 00       		.byte	0
 4251 1022 00       		.byte	0
 4252 1023 00       		.byte	0
 4253 1024 01       		.byte	1
 4254 1025 33       		.byte	51
 4255 1026 0F       		.byte	15
 4256 1027 40       		.byte	64
 4257 1028 03       		.byte	3
 4258 1029 41       		.byte	65
 4259 102a 0F       		.byte	15
 4260 102b 40       		.byte	64
 4261 102c 04       		.byte	4
 4262 102d 43       		.byte	67
 4263 102e 0F       		.byte	15
 4264 102f 40       		.byte	64
 4265 1030 02       		.byte	2
 4266 1031 60       		.byte	96
 4267 1032 0F       		.byte	15
 4268 1033 40       		.byte	64
 4269 1034 E6       		.byte	-26
 4270 1035 10       		.byte	16
 4271 1036 62       		.byte	98
 4272 1037 04       		.byte	4
 4273 1038 8E       		.byte	-114
 4274 1039 04       		.byte	4
 4275 103a D8       		.byte	-40
ARM GAS  C:\Users\jj-ay\AppData\Local\Temp\ccfFkvsK.s 			page 76


 4276 103b 40       		.byte	64
 4277 103c 18       		.byte	24
 4278 103d 80       		.byte	-128
 4279 103e 8C       		.byte	-116
 4280 103f 40       		.byte	64
 4281 1040 C6       		.byte	-58
 4282 1041 08       		.byte	8
 4283 1042 E6       		.byte	-26
 4284 1043 08       		.byte	8
 4285 1044 02       		.byte	2
 4286 1045 01       		.byte	1
 4287 1046 11       		.byte	17
 4288 1047 01       		.byte	1
 4289 1048 93       		.byte	-109
 4290 1049 11       		.byte	17
 4291 104a C8       		.byte	-56
 4292 104b 04       		.byte	4
 4293 104c 11       		.byte	17
 4294 104d 1E       		.byte	30
 4295 104e 01       		.byte	1
 4296 104f 01       		.byte	1
 4297 1050 F8       		.byte	-8
 4298 1051 B5       		.byte	-75
 4299 1052 C0       		.byte	-64
 4300 1053 46       		.byte	70
 4301 1054 F8       		.byte	-8
 4302 1055 BC       		.byte	-68
 4303 1056 08       		.byte	8
 4304 1057 BC       		.byte	-68
 4305 1058 9E       		.byte	-98
 4306 1059 46       		.byte	70
 4307 105a 70       		.byte	112
 4308 105b 47       		.byte	71
 4309 105c 4D       		.byte	77
 4310 105d 02       		.byte	2
 4311 105e 00       		.byte	0
 4312 105f 00       		.byte	0
 4313 1060 05       		.byte	5
 4314 1061 04       		.byte	4
 4315 1062 00       		.byte	0
 4316 1063 00       		.byte	0
 4317 1064 F8       		.byte	-8
 4318 1065 B5       		.byte	-75
 4319 1066 C0       		.byte	-64
 4320 1067 46       		.byte	70
 4321 1068 F8       		.byte	-8
 4322 1069 BC       		.byte	-68
 4323 106a 08       		.byte	8
 4324 106b BC       		.byte	-68
 4325 106c 9E       		.byte	-98
 4326 106d 46       		.byte	70
 4327 106e 70       		.byte	112
 4328 106f 47       		.byte	71
 4329 1070 25       		.byte	37
 4330 1071 02       		.byte	2
 4331 1072 00       		.byte	0
 4332 1073 00       		.byte	0
ARM GAS  C:\Users\jj-ay\AppData\Local\Temp\ccfFkvsK.s 			page 77


 4333 1074 88       		.byte	-120
 4334 1075 10       		.byte	16
 4335 1076 00       		.byte	0
 4336 1077 00       		.byte	0
 4337 1078 D0       		.byte	-48
 4338 1079 00       		.byte	0
 4339 107a 00       		.byte	0
 4340 107b 20       		.byte	32
 4341 107c 20       		.byte	32
 4342 107d 00       		.byte	0
 4343 107e 00       		.byte	0
 4344 107f 00       		.byte	0
 4345 1080 C8       		.byte	-56
 4346 1081 00       		.byte	0
 4347 1082 00       		.byte	0
 4348 1083 00       		.byte	0
 4349 1084 00       		.byte	0
 4350 1085 00       		.byte	0
 4351 1086 00       		.byte	0
 4352 1087 00       		.byte	0
 4353 1088 00       		.byte	0
 4354 1089 00       		.byte	0
 4355 108a 00       		.byte	0
 4356 108b 00       		.byte	0
 4357 108c 18       		.byte	24
 4358 108d 10       		.byte	16
 4359 108e 00       		.byte	0
 4360 108f 00       		.byte	0
 4361 1090 1C       		.byte	28
 4362 1091 10       		.byte	16
 4363 1092 00       		.byte	0
 4364 1093 00       		.byte	0
 4365 1094 00       		.byte	0
 4366 1095 00       		.byte	0
 4367 1096 E0       		.byte	-32
 4368 1097 2E       		.byte	46
 4369 1098 C0       		.byte	-64
 4370 1099 5D       		.byte	93
 4371 109a 00       		.byte	0
 4372 109b 00       		.byte	0
 4373 109c 18       		.byte	24
 4374 109d 00       		.byte	0
 4375 109e 00       		.byte	0
 4376 109f 00       		.byte	0
 4377 10a0 00       		.byte	0
 4378 10a1 36       		.byte	54
 4379 10a2 6E       		.byte	110
 4380 10a3 01       		.byte	1
 4381 10a4 00       		.byte	0
 4382 10a5 00       		.byte	0
 4383 10a6 00       		.byte	0
 4384 10a7 00       		.byte	0
 4385 10a8 00       		.byte	0
 4386 10a9 00       		.byte	0
 4387 10aa 00       		.byte	0
 4388 10ab 00       		.byte	0
 4389 10ac 00       		.byte	0
ARM GAS  C:\Users\jj-ay\AppData\Local\Temp\ccfFkvsK.s 			page 78


 4390 10ad 00       		.byte	0
 4391 10ae 00       		.byte	0
 4392 10af 00       		.byte	0
 4393 10b0 00       		.byte	0
 4394 10b1 00       		.byte	0
 4395 10b2 00       		.byte	0
 4396 10b3 00       		.byte	0
 4397 10b4 00       		.byte	0
 4398 10b5 00       		.byte	0
 4399 10b6 00       		.byte	0
 4400 10b7 00       		.byte	0
 4401 10b8 00       		.byte	0
 4402 10b9 00       		.byte	0
 4403 10ba 00       		.byte	0
 4404 10bb 00       		.byte	0
 4405 10bc 00       		.byte	0
 4406 10bd 00       		.byte	0
 4407 10be 00       		.byte	0
 4408 10bf 00       		.byte	0
 4409 10c0 00       		.byte	0
 4410 10c1 00       		.byte	0
 4411 10c2 00       		.byte	0
 4412 10c3 00       		.byte	0
 4413 10c4 00       		.byte	0
 4414 10c5 00       		.byte	0
 4415 10c6 00       		.byte	0
 4416 10c7 00       		.byte	0
 4417 10c8 00       		.byte	0
 4418 10c9 00       		.byte	0
 4419 10ca 00       		.byte	0
 4420 10cb 00       		.byte	0
 4421 10cc 00       		.byte	0
 4422 10cd 00       		.byte	0
 4423 10ce 00       		.byte	0
 4424 10cf 00       		.byte	0
 4425 10d0 00       		.byte	0
 4426 10d1 00       		.byte	0
 4427 10d2 00       		.byte	0
 4428 10d3 00       		.byte	0
 4429 10d4 00       		.byte	0
 4430 10d5 00       		.byte	0
 4431 10d6 00       		.byte	0
 4432 10d7 00       		.byte	0
 4433 10d8 00       		.byte	0
 4434 10d9 00       		.byte	0
 4435 10da 00       		.byte	0
 4436 10db 00       		.byte	0
 4437 10dc 00       		.byte	0
 4438 10dd 00       		.byte	0
 4439 10de 00       		.byte	0
 4440 10df 00       		.byte	0
 4441 10e0 00       		.byte	0
 4442 10e1 00       		.byte	0
 4443 10e2 00       		.byte	0
 4444 10e3 00       		.byte	0
 4445 10e4 00       		.byte	0
 4446 10e5 00       		.byte	0
ARM GAS  C:\Users\jj-ay\AppData\Local\Temp\ccfFkvsK.s 			page 79


 4447 10e6 00       		.byte	0
 4448 10e7 00       		.byte	0
 4449 10e8 00       		.byte	0
 4450 10e9 00       		.byte	0
 4451 10ea 00       		.byte	0
 4452 10eb 00       		.byte	0
 4453 10ec 00       		.byte	0
 4454 10ed 00       		.byte	0
 4455 10ee 00       		.byte	0
 4456 10ef 00       		.byte	0
 4457 10f0 00       		.byte	0
 4458 10f1 00       		.byte	0
 4459 10f2 00       		.byte	0
 4460 10f3 00       		.byte	0
 4461 10f4 00       		.byte	0
 4462 10f5 00       		.byte	0
 4463 10f6 00       		.byte	0
 4464 10f7 00       		.byte	0
 4465 10f8 00       		.byte	0
 4466 10f9 00       		.byte	0
 4467 10fa 00       		.byte	0
 4468 10fb 00       		.byte	0
 4469 10fc 00       		.byte	0
 4470 10fd 00       		.byte	0
 4471 10fe 00       		.byte	0
 4472 10ff 00       		.byte	0
 4473              		.section	.cyflashprotect,"a",%progbits
 4474              		.align	2
 4475              		.type	cy_meta_flashprotect, %object
 4476              		.size	cy_meta_flashprotect, 32
 4477              	cy_meta_flashprotect:
 4478 0000 FF       		.byte	-1
 4479 0001 FF       		.byte	-1
 4480 0002 FF       		.byte	-1
 4481 0003 FF       		.byte	-1
 4482 0004 00       		.byte	0
 4483 0005 00       		.byte	0
 4484 0006 00       		.byte	0
 4485 0007 00       		.byte	0
 4486 0008 00       		.byte	0
 4487 0009 00       		.byte	0
 4488 000a 00       		.byte	0
 4489 000b 00       		.byte	0
 4490 000c 00       		.byte	0
 4491 000d 00       		.byte	0
 4492 000e 00       		.byte	0
 4493 000f 00       		.byte	0
 4494 0010 00       		.byte	0
 4495 0011 00       		.byte	0
 4496 0012 00       		.byte	0
 4497 0013 00       		.byte	0
 4498 0014 00       		.byte	0
 4499 0015 00       		.byte	0
 4500 0016 00       		.byte	0
 4501 0017 00       		.byte	0
 4502 0018 00       		.byte	0
 4503 0019 00       		.byte	0
ARM GAS  C:\Users\jj-ay\AppData\Local\Temp\ccfFkvsK.s 			page 80


 4504 001a 00       		.byte	0
 4505 001b 00       		.byte	0
 4506 001c 00       		.byte	0
 4507 001d 00       		.byte	0
 4508 001e 00       		.byte	0
 4509 001f 00       		.byte	0
 4510              		.text
 4511              	.Letext0:
 4512              		.file 1 "Generated_Source\\PSoC4\\cybootloader.c"
 4513              		.file 2 "Generated_Source\\PSoC4\\cytypes.h"
