ARM GAS  C:\Users\jj-ay\AppData\Local\Temp\ccayctYT.s 			page 1


   1              		.syntax unified
   2              		.cpu cortex-m0
   3              		.fpu softvfp
   4              		.eabi_attribute 20, 1
   5              		.eabi_attribute 21, 1
   6              		.eabi_attribute 23, 3
   7              		.eabi_attribute 24, 1
   8              		.eabi_attribute 25, 1
   9              		.eabi_attribute 26, 1
  10              		.eabi_attribute 30, 1
  11              		.eabi_attribute 34, 0
  12              		.eabi_attribute 18, 4
  13              		.thumb
  14              		.syntax unified
  15              		.file	"UART_UART.c"
  16              		.text
  17              	.Ltext0:
  18              		.cfi_sections	.debug_frame
  19              		.section	.text.UART_UartInit,"ax",%progbits
  20              		.align	2
  21              		.global	UART_UartInit
  22              		.code	16
  23              		.thumb_func
  24              		.type	UART_UartInit, %function
  25              	UART_UartInit:
  26              	.LFB0:
  27              		.file 1 "Generated_Source\\PSoC4\\UART_UART.c"
   1:Generated_Source\PSoC4/UART_UART.c **** /***************************************************************************//**
   2:Generated_Source\PSoC4/UART_UART.c **** * \file UART_UART.c
   3:Generated_Source\PSoC4/UART_UART.c **** * \version 4.0
   4:Generated_Source\PSoC4/UART_UART.c **** *
   5:Generated_Source\PSoC4/UART_UART.c **** * \brief
   6:Generated_Source\PSoC4/UART_UART.c **** *  This file provides the source code to the API for the SCB Component in
   7:Generated_Source\PSoC4/UART_UART.c **** *  UART mode.
   8:Generated_Source\PSoC4/UART_UART.c **** *
   9:Generated_Source\PSoC4/UART_UART.c **** * Note:
  10:Generated_Source\PSoC4/UART_UART.c **** *
  11:Generated_Source\PSoC4/UART_UART.c **** *******************************************************************************
  12:Generated_Source\PSoC4/UART_UART.c **** * \copyright
  13:Generated_Source\PSoC4/UART_UART.c **** * Copyright 2013-2017, Cypress Semiconductor Corporation.  All rights reserved.
  14:Generated_Source\PSoC4/UART_UART.c **** * You may use this file only in accordance with the license, terms, conditions,
  15:Generated_Source\PSoC4/UART_UART.c **** * disclaimers, and limitations in the end user license agreement accompanying
  16:Generated_Source\PSoC4/UART_UART.c **** * the software package with which this file was provided.
  17:Generated_Source\PSoC4/UART_UART.c **** *******************************************************************************/
  18:Generated_Source\PSoC4/UART_UART.c **** 
  19:Generated_Source\PSoC4/UART_UART.c **** #include "UART_PVT.h"
  20:Generated_Source\PSoC4/UART_UART.c **** #include "UART_SPI_UART_PVT.h"
  21:Generated_Source\PSoC4/UART_UART.c **** #include "cyapicallbacks.h"
  22:Generated_Source\PSoC4/UART_UART.c **** 
  23:Generated_Source\PSoC4/UART_UART.c **** #if (UART_UART_WAKE_ENABLE_CONST && UART_UART_RX_WAKEUP_IRQ)
  24:Generated_Source\PSoC4/UART_UART.c ****     /**
  25:Generated_Source\PSoC4/UART_UART.c ****     * \addtogroup group_globals
  26:Generated_Source\PSoC4/UART_UART.c ****     * \{
  27:Generated_Source\PSoC4/UART_UART.c ****     */
  28:Generated_Source\PSoC4/UART_UART.c ****     /** This global variable determines whether to enable Skip Start
  29:Generated_Source\PSoC4/UART_UART.c ****     * functionality when UART_Sleep() function is called:
  30:Generated_Source\PSoC4/UART_UART.c ****     * 0 – disable, other values – enable. Default value is 1.
ARM GAS  C:\Users\jj-ay\AppData\Local\Temp\ccayctYT.s 			page 2


  31:Generated_Source\PSoC4/UART_UART.c ****     * It is only available when Enable wakeup from Deep Sleep Mode is enabled.
  32:Generated_Source\PSoC4/UART_UART.c ****     */
  33:Generated_Source\PSoC4/UART_UART.c ****     uint8 UART_skipStart = 1u;
  34:Generated_Source\PSoC4/UART_UART.c ****     /** \} globals */
  35:Generated_Source\PSoC4/UART_UART.c **** #endif /* (UART_UART_WAKE_ENABLE_CONST && UART_UART_RX_WAKEUP_IRQ) */
  36:Generated_Source\PSoC4/UART_UART.c **** 
  37:Generated_Source\PSoC4/UART_UART.c **** #if(UART_SCB_MODE_UNCONFIG_CONST_CFG)
  38:Generated_Source\PSoC4/UART_UART.c **** 
  39:Generated_Source\PSoC4/UART_UART.c ****     /***************************************
  40:Generated_Source\PSoC4/UART_UART.c ****     *  Configuration Structure Initialization
  41:Generated_Source\PSoC4/UART_UART.c ****     ***************************************/
  42:Generated_Source\PSoC4/UART_UART.c **** 
  43:Generated_Source\PSoC4/UART_UART.c ****     const UART_UART_INIT_STRUCT UART_configUart =
  44:Generated_Source\PSoC4/UART_UART.c ****     {
  45:Generated_Source\PSoC4/UART_UART.c ****         UART_UART_SUB_MODE,
  46:Generated_Source\PSoC4/UART_UART.c ****         UART_UART_DIRECTION,
  47:Generated_Source\PSoC4/UART_UART.c ****         UART_UART_DATA_BITS_NUM,
  48:Generated_Source\PSoC4/UART_UART.c ****         UART_UART_PARITY_TYPE,
  49:Generated_Source\PSoC4/UART_UART.c ****         UART_UART_STOP_BITS_NUM,
  50:Generated_Source\PSoC4/UART_UART.c ****         UART_UART_OVS_FACTOR,
  51:Generated_Source\PSoC4/UART_UART.c ****         UART_UART_IRDA_LOW_POWER,
  52:Generated_Source\PSoC4/UART_UART.c ****         UART_UART_MEDIAN_FILTER_ENABLE,
  53:Generated_Source\PSoC4/UART_UART.c ****         UART_UART_RETRY_ON_NACK,
  54:Generated_Source\PSoC4/UART_UART.c ****         UART_UART_IRDA_POLARITY,
  55:Generated_Source\PSoC4/UART_UART.c ****         UART_UART_DROP_ON_PARITY_ERR,
  56:Generated_Source\PSoC4/UART_UART.c ****         UART_UART_DROP_ON_FRAME_ERR,
  57:Generated_Source\PSoC4/UART_UART.c ****         UART_UART_WAKE_ENABLE,
  58:Generated_Source\PSoC4/UART_UART.c ****         0u,
  59:Generated_Source\PSoC4/UART_UART.c ****         NULL,
  60:Generated_Source\PSoC4/UART_UART.c ****         0u,
  61:Generated_Source\PSoC4/UART_UART.c ****         NULL,
  62:Generated_Source\PSoC4/UART_UART.c ****         UART_UART_MP_MODE_ENABLE,
  63:Generated_Source\PSoC4/UART_UART.c ****         UART_UART_MP_ACCEPT_ADDRESS,
  64:Generated_Source\PSoC4/UART_UART.c ****         UART_UART_MP_RX_ADDRESS,
  65:Generated_Source\PSoC4/UART_UART.c ****         UART_UART_MP_RX_ADDRESS_MASK,
  66:Generated_Source\PSoC4/UART_UART.c ****         (uint32) UART_SCB_IRQ_INTERNAL,
  67:Generated_Source\PSoC4/UART_UART.c ****         UART_UART_INTR_RX_MASK,
  68:Generated_Source\PSoC4/UART_UART.c ****         UART_UART_RX_TRIGGER_LEVEL,
  69:Generated_Source\PSoC4/UART_UART.c ****         UART_UART_INTR_TX_MASK,
  70:Generated_Source\PSoC4/UART_UART.c ****         UART_UART_TX_TRIGGER_LEVEL,
  71:Generated_Source\PSoC4/UART_UART.c ****         (uint8) UART_UART_BYTE_MODE_ENABLE,
  72:Generated_Source\PSoC4/UART_UART.c ****         (uint8) UART_UART_CTS_ENABLE,
  73:Generated_Source\PSoC4/UART_UART.c ****         (uint8) UART_UART_CTS_POLARITY,
  74:Generated_Source\PSoC4/UART_UART.c ****         (uint8) UART_UART_RTS_POLARITY,
  75:Generated_Source\PSoC4/UART_UART.c ****         (uint8) UART_UART_RTS_FIFO_LEVEL,
  76:Generated_Source\PSoC4/UART_UART.c ****         (uint8) UART_UART_RX_BREAK_WIDTH
  77:Generated_Source\PSoC4/UART_UART.c ****     };
  78:Generated_Source\PSoC4/UART_UART.c **** 
  79:Generated_Source\PSoC4/UART_UART.c **** 
  80:Generated_Source\PSoC4/UART_UART.c ****     /*******************************************************************************
  81:Generated_Source\PSoC4/UART_UART.c ****     * Function Name: UART_UartInit
  82:Generated_Source\PSoC4/UART_UART.c ****     ****************************************************************************//**
  83:Generated_Source\PSoC4/UART_UART.c ****     *
  84:Generated_Source\PSoC4/UART_UART.c ****     *  Configures the UART for UART operation.
  85:Generated_Source\PSoC4/UART_UART.c ****     *
  86:Generated_Source\PSoC4/UART_UART.c ****     *  This function is intended specifically to be used when the UART
  87:Generated_Source\PSoC4/UART_UART.c ****     *  configuration is set to “Unconfigured UART” in the customizer.
ARM GAS  C:\Users\jj-ay\AppData\Local\Temp\ccayctYT.s 			page 3


  88:Generated_Source\PSoC4/UART_UART.c ****     *  After initializing the UART in UART mode using this function,
  89:Generated_Source\PSoC4/UART_UART.c ****     *  the component can be enabled using the UART_Start() or
  90:Generated_Source\PSoC4/UART_UART.c ****     * UART_Enable() function.
  91:Generated_Source\PSoC4/UART_UART.c ****     *  This function uses a pointer to a structure that provides the configuration
  92:Generated_Source\PSoC4/UART_UART.c ****     *  settings. This structure contains the same information that would otherwise
  93:Generated_Source\PSoC4/UART_UART.c ****     *  be provided by the customizer settings.
  94:Generated_Source\PSoC4/UART_UART.c ****     *
  95:Generated_Source\PSoC4/UART_UART.c ****     *  \param config: pointer to a structure that contains the following list of
  96:Generated_Source\PSoC4/UART_UART.c ****     *   fields. These fields match the selections available in the customizer.
  97:Generated_Source\PSoC4/UART_UART.c ****     *   Refer to the customizer for further description of the settings.
  98:Generated_Source\PSoC4/UART_UART.c ****     *
  99:Generated_Source\PSoC4/UART_UART.c ****     *******************************************************************************/
 100:Generated_Source\PSoC4/UART_UART.c ****     void UART_UartInit(const UART_UART_INIT_STRUCT *config)
 101:Generated_Source\PSoC4/UART_UART.c ****     {
 102:Generated_Source\PSoC4/UART_UART.c ****         uint32 pinsConfig;
 103:Generated_Source\PSoC4/UART_UART.c **** 
 104:Generated_Source\PSoC4/UART_UART.c ****         if (NULL == config)
 105:Generated_Source\PSoC4/UART_UART.c ****         {
 106:Generated_Source\PSoC4/UART_UART.c ****             CYASSERT(0u != 0u); /* Halt execution due to bad function parameter */
 107:Generated_Source\PSoC4/UART_UART.c ****         }
 108:Generated_Source\PSoC4/UART_UART.c ****         else
 109:Generated_Source\PSoC4/UART_UART.c ****         {
 110:Generated_Source\PSoC4/UART_UART.c ****             /* Get direction to configure UART pins: TX, RX or TX+RX */
 111:Generated_Source\PSoC4/UART_UART.c ****             pinsConfig  = config->direction;
 112:Generated_Source\PSoC4/UART_UART.c **** 
 113:Generated_Source\PSoC4/UART_UART.c ****         #if !(UART_CY_SCBIP_V0 || UART_CY_SCBIP_V1)
 114:Generated_Source\PSoC4/UART_UART.c ****             /* Add RTS and CTS pins to configure */
 115:Generated_Source\PSoC4/UART_UART.c ****             pinsConfig |= (0u != config->rtsRxFifoLevel) ? (UART_UART_RTS_PIN_ENABLE) : (0u);
 116:Generated_Source\PSoC4/UART_UART.c ****             pinsConfig |= (0u != config->enableCts)      ? (UART_UART_CTS_PIN_ENABLE) : (0u);
 117:Generated_Source\PSoC4/UART_UART.c ****         #endif /* !(UART_CY_SCBIP_V0 || UART_CY_SCBIP_V1) */
 118:Generated_Source\PSoC4/UART_UART.c **** 
 119:Generated_Source\PSoC4/UART_UART.c ****             /* Configure pins */
 120:Generated_Source\PSoC4/UART_UART.c ****             UART_SetPins(UART_SCB_MODE_UART, config->mode, pinsConfig);
 121:Generated_Source\PSoC4/UART_UART.c **** 
 122:Generated_Source\PSoC4/UART_UART.c ****             /* Store internal configuration */
 123:Generated_Source\PSoC4/UART_UART.c ****             UART_scbMode       = (uint8) UART_SCB_MODE_UART;
 124:Generated_Source\PSoC4/UART_UART.c ****             UART_scbEnableWake = (uint8) config->enableWake;
 125:Generated_Source\PSoC4/UART_UART.c ****             UART_scbEnableIntr = (uint8) config->enableInterrupt;
 126:Generated_Source\PSoC4/UART_UART.c **** 
 127:Generated_Source\PSoC4/UART_UART.c ****             /* Set RX direction internal variables */
 128:Generated_Source\PSoC4/UART_UART.c ****             UART_rxBuffer      =         config->rxBuffer;
 129:Generated_Source\PSoC4/UART_UART.c ****             UART_rxDataBits    = (uint8) config->dataBits;
 130:Generated_Source\PSoC4/UART_UART.c ****             UART_rxBufferSize  =         config->rxBufferSize;
 131:Generated_Source\PSoC4/UART_UART.c **** 
 132:Generated_Source\PSoC4/UART_UART.c ****             /* Set TX direction internal variables */
 133:Generated_Source\PSoC4/UART_UART.c ****             UART_txBuffer      =         config->txBuffer;
 134:Generated_Source\PSoC4/UART_UART.c ****             UART_txDataBits    = (uint8) config->dataBits;
 135:Generated_Source\PSoC4/UART_UART.c ****             UART_txBufferSize  =         config->txBufferSize;
 136:Generated_Source\PSoC4/UART_UART.c **** 
 137:Generated_Source\PSoC4/UART_UART.c ****             /* Configure UART interface */
 138:Generated_Source\PSoC4/UART_UART.c ****             if(UART_UART_MODE_IRDA == config->mode)
 139:Generated_Source\PSoC4/UART_UART.c ****             {
 140:Generated_Source\PSoC4/UART_UART.c ****                 /* OVS settings: IrDA */
 141:Generated_Source\PSoC4/UART_UART.c ****                 UART_CTRL_REG  = ((0u != config->enableIrdaLowPower) ?
 142:Generated_Source\PSoC4/UART_UART.c ****                                                 (UART_UART_GET_CTRL_OVS_IRDA_LP(config->oversample)
 143:Generated_Source\PSoC4/UART_UART.c ****                                                 (UART_CTRL_OVS_IRDA_OVS16));
 144:Generated_Source\PSoC4/UART_UART.c ****             }
ARM GAS  C:\Users\jj-ay\AppData\Local\Temp\ccayctYT.s 			page 4


 145:Generated_Source\PSoC4/UART_UART.c ****             else
 146:Generated_Source\PSoC4/UART_UART.c ****             {
 147:Generated_Source\PSoC4/UART_UART.c ****                 /* OVS settings: UART and SmartCard */
 148:Generated_Source\PSoC4/UART_UART.c ****                 UART_CTRL_REG  = UART_GET_CTRL_OVS(config->oversample);
 149:Generated_Source\PSoC4/UART_UART.c ****             }
 150:Generated_Source\PSoC4/UART_UART.c **** 
 151:Generated_Source\PSoC4/UART_UART.c ****             UART_CTRL_REG     |= UART_GET_CTRL_BYTE_MODE  (config->enableByteMode)      |
 152:Generated_Source\PSoC4/UART_UART.c ****                                              UART_GET_CTRL_ADDR_ACCEPT(config->multiprocAcceptAddr)
 153:Generated_Source\PSoC4/UART_UART.c ****                                              UART_CTRL_UART;
 154:Generated_Source\PSoC4/UART_UART.c **** 
 155:Generated_Source\PSoC4/UART_UART.c ****             /* Configure sub-mode: UART, SmartCard or IrDA */
 156:Generated_Source\PSoC4/UART_UART.c ****             UART_UART_CTRL_REG = UART_GET_UART_CTRL_MODE(config->mode);
 157:Generated_Source\PSoC4/UART_UART.c **** 
 158:Generated_Source\PSoC4/UART_UART.c ****             /* Configure RX direction */
 159:Generated_Source\PSoC4/UART_UART.c ****             UART_UART_RX_CTRL_REG = UART_GET_UART_RX_CTRL_MODE(config->stopBits)              |
 160:Generated_Source\PSoC4/UART_UART.c ****                                         UART_GET_UART_RX_CTRL_POLARITY(config->enableInvertedRx)   
 161:Generated_Source\PSoC4/UART_UART.c ****                                         UART_GET_UART_RX_CTRL_MP_MODE(config->enableMultiproc)     
 162:Generated_Source\PSoC4/UART_UART.c ****                                         UART_GET_UART_RX_CTRL_DROP_ON_PARITY_ERR(config->dropOnPari
 163:Generated_Source\PSoC4/UART_UART.c ****                                         UART_GET_UART_RX_CTRL_DROP_ON_FRAME_ERR(config->dropOnFrame
 164:Generated_Source\PSoC4/UART_UART.c ****                                         UART_GET_UART_RX_CTRL_BREAK_WIDTH(config->breakWidth);
 165:Generated_Source\PSoC4/UART_UART.c **** 
 166:Generated_Source\PSoC4/UART_UART.c ****             if(UART_UART_PARITY_NONE != config->parity)
 167:Generated_Source\PSoC4/UART_UART.c ****             {
 168:Generated_Source\PSoC4/UART_UART.c ****                UART_UART_RX_CTRL_REG |= UART_GET_UART_RX_CTRL_PARITY(config->parity) |
 169:Generated_Source\PSoC4/UART_UART.c ****                                                     UART_UART_RX_CTRL_PARITY_ENABLED;
 170:Generated_Source\PSoC4/UART_UART.c ****             }
 171:Generated_Source\PSoC4/UART_UART.c **** 
 172:Generated_Source\PSoC4/UART_UART.c ****             UART_RX_CTRL_REG      = UART_GET_RX_CTRL_DATA_WIDTH(config->dataBits)       |
 173:Generated_Source\PSoC4/UART_UART.c ****                                                 UART_GET_RX_CTRL_MEDIAN(config->enableMedianFilter)
 174:Generated_Source\PSoC4/UART_UART.c ****                                                 UART_GET_UART_RX_CTRL_ENABLED(config->direction);
 175:Generated_Source\PSoC4/UART_UART.c **** 
 176:Generated_Source\PSoC4/UART_UART.c ****             UART_RX_FIFO_CTRL_REG = UART_GET_RX_FIFO_CTRL_TRIGGER_LEVEL(config->rxTriggerLevel);
 177:Generated_Source\PSoC4/UART_UART.c **** 
 178:Generated_Source\PSoC4/UART_UART.c ****             /* Configure MP address */
 179:Generated_Source\PSoC4/UART_UART.c ****             UART_RX_MATCH_REG     = UART_GET_RX_MATCH_ADDR(config->multiprocAddr) |
 180:Generated_Source\PSoC4/UART_UART.c ****                                                 UART_GET_RX_MATCH_MASK(config->multiprocAddrMask);
 181:Generated_Source\PSoC4/UART_UART.c **** 
 182:Generated_Source\PSoC4/UART_UART.c ****             /* Configure RX direction */
 183:Generated_Source\PSoC4/UART_UART.c ****             UART_UART_TX_CTRL_REG = UART_GET_UART_TX_CTRL_MODE(config->stopBits) |
 184:Generated_Source\PSoC4/UART_UART.c ****                                                 UART_GET_UART_TX_CTRL_RETRY_NACK(config->enableRetr
 185:Generated_Source\PSoC4/UART_UART.c **** 
 186:Generated_Source\PSoC4/UART_UART.c ****             if(UART_UART_PARITY_NONE != config->parity)
 187:Generated_Source\PSoC4/UART_UART.c ****             {
 188:Generated_Source\PSoC4/UART_UART.c ****                UART_UART_TX_CTRL_REG |= UART_GET_UART_TX_CTRL_PARITY(config->parity) |
 189:Generated_Source\PSoC4/UART_UART.c ****                                                     UART_UART_TX_CTRL_PARITY_ENABLED;
 190:Generated_Source\PSoC4/UART_UART.c ****             }
 191:Generated_Source\PSoC4/UART_UART.c **** 
 192:Generated_Source\PSoC4/UART_UART.c ****             UART_TX_CTRL_REG      = UART_GET_TX_CTRL_DATA_WIDTH(config->dataBits)    |
 193:Generated_Source\PSoC4/UART_UART.c ****                                                 UART_GET_UART_TX_CTRL_ENABLED(config->direction);
 194:Generated_Source\PSoC4/UART_UART.c **** 
 195:Generated_Source\PSoC4/UART_UART.c ****             UART_TX_FIFO_CTRL_REG = UART_GET_TX_FIFO_CTRL_TRIGGER_LEVEL(config->txTriggerLevel);
 196:Generated_Source\PSoC4/UART_UART.c **** 
 197:Generated_Source\PSoC4/UART_UART.c ****         #if !(UART_CY_SCBIP_V0 || UART_CY_SCBIP_V1)
 198:Generated_Source\PSoC4/UART_UART.c ****             UART_UART_FLOW_CTRL_REG = UART_GET_UART_FLOW_CTRL_CTS_ENABLE(config->enableCts) | \
 199:Generated_Source\PSoC4/UART_UART.c ****                                             UART_GET_UART_FLOW_CTRL_CTS_POLARITY (config->ctsPolari
 200:Generated_Source\PSoC4/UART_UART.c ****                                             UART_GET_UART_FLOW_CTRL_RTS_POLARITY (config->rtsPolari
 201:Generated_Source\PSoC4/UART_UART.c ****                                             UART_GET_UART_FLOW_CTRL_TRIGGER_LEVEL(config->rtsRxFifo
ARM GAS  C:\Users\jj-ay\AppData\Local\Temp\ccayctYT.s 			page 5


 202:Generated_Source\PSoC4/UART_UART.c ****         #endif /* !(UART_CY_SCBIP_V0 || UART_CY_SCBIP_V1) */
 203:Generated_Source\PSoC4/UART_UART.c **** 
 204:Generated_Source\PSoC4/UART_UART.c ****             /* Configure interrupt with UART handler but do not enable it */
 205:Generated_Source\PSoC4/UART_UART.c ****             CyIntDisable    (UART_ISR_NUMBER);
 206:Generated_Source\PSoC4/UART_UART.c ****             CyIntSetPriority(UART_ISR_NUMBER, UART_ISR_PRIORITY);
 207:Generated_Source\PSoC4/UART_UART.c ****             (void) CyIntSetVector(UART_ISR_NUMBER, &UART_SPI_UART_ISR);
 208:Generated_Source\PSoC4/UART_UART.c **** 
 209:Generated_Source\PSoC4/UART_UART.c ****             /* Configure WAKE interrupt */
 210:Generated_Source\PSoC4/UART_UART.c ****         #if(UART_UART_RX_WAKEUP_IRQ)
 211:Generated_Source\PSoC4/UART_UART.c ****             CyIntDisable    (UART_RX_WAKE_ISR_NUMBER);
 212:Generated_Source\PSoC4/UART_UART.c ****             CyIntSetPriority(UART_RX_WAKE_ISR_NUMBER, UART_RX_WAKE_ISR_PRIORITY);
 213:Generated_Source\PSoC4/UART_UART.c ****             (void) CyIntSetVector(UART_RX_WAKE_ISR_NUMBER, &UART_UART_WAKEUP_ISR);
 214:Generated_Source\PSoC4/UART_UART.c ****         #endif /* (UART_UART_RX_WAKEUP_IRQ) */
 215:Generated_Source\PSoC4/UART_UART.c **** 
 216:Generated_Source\PSoC4/UART_UART.c ****             /* Configure interrupt sources */
 217:Generated_Source\PSoC4/UART_UART.c ****             UART_INTR_I2C_EC_MASK_REG = UART_NO_INTR_SOURCES;
 218:Generated_Source\PSoC4/UART_UART.c ****             UART_INTR_SPI_EC_MASK_REG = UART_NO_INTR_SOURCES;
 219:Generated_Source\PSoC4/UART_UART.c ****             UART_INTR_SLAVE_MASK_REG  = UART_NO_INTR_SOURCES;
 220:Generated_Source\PSoC4/UART_UART.c ****             UART_INTR_MASTER_MASK_REG = UART_NO_INTR_SOURCES;
 221:Generated_Source\PSoC4/UART_UART.c ****             UART_INTR_RX_MASK_REG     = config->rxInterruptMask;
 222:Generated_Source\PSoC4/UART_UART.c ****             UART_INTR_TX_MASK_REG     = config->txInterruptMask;
 223:Generated_Source\PSoC4/UART_UART.c **** 
 224:Generated_Source\PSoC4/UART_UART.c ****             /* Configure TX interrupt sources to restore. */
 225:Generated_Source\PSoC4/UART_UART.c ****             UART_IntrTxMask = LO16(UART_INTR_TX_MASK_REG);
 226:Generated_Source\PSoC4/UART_UART.c **** 
 227:Generated_Source\PSoC4/UART_UART.c ****             /* Clear RX buffer indexes */
 228:Generated_Source\PSoC4/UART_UART.c ****             UART_rxBufferHead     = 0u;
 229:Generated_Source\PSoC4/UART_UART.c ****             UART_rxBufferTail     = 0u;
 230:Generated_Source\PSoC4/UART_UART.c ****             UART_rxBufferOverflow = 0u;
 231:Generated_Source\PSoC4/UART_UART.c **** 
 232:Generated_Source\PSoC4/UART_UART.c ****             /* Clear TX buffer indexes */
 233:Generated_Source\PSoC4/UART_UART.c ****             UART_txBufferHead = 0u;
 234:Generated_Source\PSoC4/UART_UART.c ****             UART_txBufferTail = 0u;
 235:Generated_Source\PSoC4/UART_UART.c ****         }
 236:Generated_Source\PSoC4/UART_UART.c ****     }
 237:Generated_Source\PSoC4/UART_UART.c **** 
 238:Generated_Source\PSoC4/UART_UART.c **** #else
 239:Generated_Source\PSoC4/UART_UART.c **** 
 240:Generated_Source\PSoC4/UART_UART.c ****     /*******************************************************************************
 241:Generated_Source\PSoC4/UART_UART.c ****     * Function Name: UART_UartInit
 242:Generated_Source\PSoC4/UART_UART.c ****     ****************************************************************************//**
 243:Generated_Source\PSoC4/UART_UART.c ****     *
 244:Generated_Source\PSoC4/UART_UART.c ****     *  Configures the SCB for the UART operation.
 245:Generated_Source\PSoC4/UART_UART.c ****     *
 246:Generated_Source\PSoC4/UART_UART.c ****     *******************************************************************************/
 247:Generated_Source\PSoC4/UART_UART.c ****     void UART_UartInit(void)
 248:Generated_Source\PSoC4/UART_UART.c ****     {
  28              		.loc 1 248 0
  29              		.cfi_startproc
  30              		@ args = 0, pretend = 0, frame = 0
  31              		@ frame_needed = 0, uses_anonymous_args = 0
  32              		@ link register save eliminated.
 249:Generated_Source\PSoC4/UART_UART.c ****         /* Configure UART interface */
 250:Generated_Source\PSoC4/UART_UART.c ****         UART_CTRL_REG = UART_UART_DEFAULT_CTRL;
  33              		.loc 1 250 0
  34 0000 134A     		ldr	r2, .L2
  35 0002 144B     		ldr	r3, .L2+4
ARM GAS  C:\Users\jj-ay\AppData\Local\Temp\ccayctYT.s 			page 6


  36 0004 1A60     		str	r2, [r3]
 251:Generated_Source\PSoC4/UART_UART.c **** 
 252:Generated_Source\PSoC4/UART_UART.c ****         /* Configure sub-mode: UART, SmartCard or IrDA */
 253:Generated_Source\PSoC4/UART_UART.c ****         UART_UART_CTRL_REG = UART_UART_DEFAULT_UART_CTRL;
  37              		.loc 1 253 0
  38 0006 0023     		movs	r3, #0
  39 0008 134A     		ldr	r2, .L2+8
  40 000a 1360     		str	r3, [r2]
 254:Generated_Source\PSoC4/UART_UART.c **** 
 255:Generated_Source\PSoC4/UART_UART.c ****         /* Configure RX direction */
 256:Generated_Source\PSoC4/UART_UART.c ****         UART_UART_RX_CTRL_REG = UART_UART_DEFAULT_UART_RX_CTRL;
  41              		.loc 1 256 0
  42 000c 1349     		ldr	r1, .L2+12
  43 000e 144A     		ldr	r2, .L2+16
  44 0010 1160     		str	r1, [r2]
 257:Generated_Source\PSoC4/UART_UART.c ****         UART_RX_CTRL_REG      = UART_UART_DEFAULT_RX_CTRL;
  45              		.loc 1 257 0
  46 0012 144A     		ldr	r2, .L2+20
  47 0014 1449     		ldr	r1, .L2+24
  48 0016 0A60     		str	r2, [r1]
 258:Generated_Source\PSoC4/UART_UART.c ****         UART_RX_FIFO_CTRL_REG = UART_UART_DEFAULT_RX_FIFO_CTRL;
  49              		.loc 1 258 0
  50 0018 0720     		movs	r0, #7
  51 001a 1449     		ldr	r1, .L2+28
  52 001c 0860     		str	r0, [r1]
 259:Generated_Source\PSoC4/UART_UART.c ****         UART_RX_MATCH_REG     = UART_UART_DEFAULT_RX_MATCH_REG;
  53              		.loc 1 259 0
  54 001e 1449     		ldr	r1, .L2+32
  55 0020 0B60     		str	r3, [r1]
 260:Generated_Source\PSoC4/UART_UART.c **** 
 261:Generated_Source\PSoC4/UART_UART.c ****         /* Configure TX direction */
 262:Generated_Source\PSoC4/UART_UART.c ****         UART_UART_TX_CTRL_REG = UART_UART_DEFAULT_UART_TX_CTRL;
  56              		.loc 1 262 0
  57 0022 0638     		subs	r0, r0, #6
  58 0024 1349     		ldr	r1, .L2+36
  59 0026 0860     		str	r0, [r1]
 263:Generated_Source\PSoC4/UART_UART.c ****         UART_TX_CTRL_REG      = UART_UART_DEFAULT_TX_CTRL;
  60              		.loc 1 263 0
  61 0028 1349     		ldr	r1, .L2+40
  62 002a 0A60     		str	r2, [r1]
 264:Generated_Source\PSoC4/UART_UART.c ****         UART_TX_FIFO_CTRL_REG = UART_UART_DEFAULT_TX_FIFO_CTRL;
  63              		.loc 1 264 0
  64 002c 134A     		ldr	r2, .L2+44
  65 002e 1360     		str	r3, [r2]
 265:Generated_Source\PSoC4/UART_UART.c **** 
 266:Generated_Source\PSoC4/UART_UART.c ****     #if !(UART_CY_SCBIP_V0 || UART_CY_SCBIP_V1)
 267:Generated_Source\PSoC4/UART_UART.c ****         UART_UART_FLOW_CTRL_REG = UART_UART_DEFAULT_FLOW_CTRL;
 268:Generated_Source\PSoC4/UART_UART.c ****     #endif /* !(UART_CY_SCBIP_V0 || UART_CY_SCBIP_V1) */
 269:Generated_Source\PSoC4/UART_UART.c **** 
 270:Generated_Source\PSoC4/UART_UART.c ****         /* Configure interrupt with UART handler but do not enable it */
 271:Generated_Source\PSoC4/UART_UART.c ****     #if(UART_SCB_IRQ_INTERNAL)
 272:Generated_Source\PSoC4/UART_UART.c ****         CyIntDisable    (UART_ISR_NUMBER);
 273:Generated_Source\PSoC4/UART_UART.c ****         CyIntSetPriority(UART_ISR_NUMBER, UART_ISR_PRIORITY);
 274:Generated_Source\PSoC4/UART_UART.c ****         (void) CyIntSetVector(UART_ISR_NUMBER, &UART_SPI_UART_ISR);
 275:Generated_Source\PSoC4/UART_UART.c ****     #endif /* (UART_SCB_IRQ_INTERNAL) */
 276:Generated_Source\PSoC4/UART_UART.c **** 
 277:Generated_Source\PSoC4/UART_UART.c ****         /* Configure WAKE interrupt */
ARM GAS  C:\Users\jj-ay\AppData\Local\Temp\ccayctYT.s 			page 7


 278:Generated_Source\PSoC4/UART_UART.c ****     #if(UART_UART_RX_WAKEUP_IRQ)
 279:Generated_Source\PSoC4/UART_UART.c ****         CyIntDisable    (UART_RX_WAKE_ISR_NUMBER);
 280:Generated_Source\PSoC4/UART_UART.c ****         CyIntSetPriority(UART_RX_WAKE_ISR_NUMBER, UART_RX_WAKE_ISR_PRIORITY);
 281:Generated_Source\PSoC4/UART_UART.c ****         (void) CyIntSetVector(UART_RX_WAKE_ISR_NUMBER, &UART_UART_WAKEUP_ISR);
 282:Generated_Source\PSoC4/UART_UART.c ****     #endif /* (UART_UART_RX_WAKEUP_IRQ) */
 283:Generated_Source\PSoC4/UART_UART.c **** 
 284:Generated_Source\PSoC4/UART_UART.c ****         /* Configure interrupt sources */
 285:Generated_Source\PSoC4/UART_UART.c ****         UART_INTR_I2C_EC_MASK_REG = UART_UART_DEFAULT_INTR_I2C_EC_MASK;
  66              		.loc 1 285 0
  67 0030 134A     		ldr	r2, .L2+48
  68 0032 1360     		str	r3, [r2]
 286:Generated_Source\PSoC4/UART_UART.c ****         UART_INTR_SPI_EC_MASK_REG = UART_UART_DEFAULT_INTR_SPI_EC_MASK;
  69              		.loc 1 286 0
  70 0034 134A     		ldr	r2, .L2+52
  71 0036 1360     		str	r3, [r2]
 287:Generated_Source\PSoC4/UART_UART.c ****         UART_INTR_SLAVE_MASK_REG  = UART_UART_DEFAULT_INTR_SLAVE_MASK;
  72              		.loc 1 287 0
  73 0038 134A     		ldr	r2, .L2+56
  74 003a 1360     		str	r3, [r2]
 288:Generated_Source\PSoC4/UART_UART.c ****         UART_INTR_MASTER_MASK_REG = UART_UART_DEFAULT_INTR_MASTER_MASK;
  75              		.loc 1 288 0
  76 003c 134A     		ldr	r2, .L2+60
  77 003e 1360     		str	r3, [r2]
 289:Generated_Source\PSoC4/UART_UART.c ****         UART_INTR_RX_MASK_REG     = UART_UART_DEFAULT_INTR_RX_MASK;
  78              		.loc 1 289 0
  79 0040 134A     		ldr	r2, .L2+64
  80 0042 1360     		str	r3, [r2]
 290:Generated_Source\PSoC4/UART_UART.c ****         UART_INTR_TX_MASK_REG     = UART_UART_DEFAULT_INTR_TX_MASK;
  81              		.loc 1 290 0
  82 0044 134A     		ldr	r2, .L2+68
  83 0046 1360     		str	r3, [r2]
 291:Generated_Source\PSoC4/UART_UART.c **** 
 292:Generated_Source\PSoC4/UART_UART.c ****         /* Configure TX interrupt sources to restore. */
 293:Generated_Source\PSoC4/UART_UART.c ****         UART_IntrTxMask = LO16(UART_INTR_TX_MASK_REG);
  84              		.loc 1 293 0
  85 0048 1268     		ldr	r2, [r2]
  86 004a 134B     		ldr	r3, .L2+72
  87 004c 1A80     		strh	r2, [r3]
 294:Generated_Source\PSoC4/UART_UART.c **** 
 295:Generated_Source\PSoC4/UART_UART.c ****     #if(UART_INTERNAL_RX_SW_BUFFER_CONST)
 296:Generated_Source\PSoC4/UART_UART.c ****         UART_rxBufferHead     = 0u;
 297:Generated_Source\PSoC4/UART_UART.c ****         UART_rxBufferTail     = 0u;
 298:Generated_Source\PSoC4/UART_UART.c ****         UART_rxBufferOverflow = 0u;
 299:Generated_Source\PSoC4/UART_UART.c ****     #endif /* (UART_INTERNAL_RX_SW_BUFFER_CONST) */
 300:Generated_Source\PSoC4/UART_UART.c **** 
 301:Generated_Source\PSoC4/UART_UART.c ****     #if(UART_INTERNAL_TX_SW_BUFFER_CONST)
 302:Generated_Source\PSoC4/UART_UART.c ****         UART_txBufferHead = 0u;
 303:Generated_Source\PSoC4/UART_UART.c ****         UART_txBufferTail = 0u;
 304:Generated_Source\PSoC4/UART_UART.c ****     #endif /* (UART_INTERNAL_TX_SW_BUFFER_CONST) */
 305:Generated_Source\PSoC4/UART_UART.c ****     }
  88              		.loc 1 305 0
  89              		@ sp needed
  90 004e 7047     		bx	lr
  91              	.L3:
  92              		.align	2
  93              	.L2:
  94 0050 0B000002 		.word	33554443
ARM GAS  C:\Users\jj-ay\AppData\Local\Temp\ccayctYT.s 			page 8


  95 0054 00000640 		.word	1074135040
  96 0058 40000640 		.word	1074135104
  97 005c 01000A00 		.word	655361
  98 0060 48000640 		.word	1074135112
  99 0064 07000080 		.word	-2147483641
 100 0068 00030640 		.word	1074135808
 101 006c 04030640 		.word	1074135812
 102 0070 10030640 		.word	1074135824
 103 0074 44000640 		.word	1074135108
 104 0078 00020640 		.word	1074135552
 105 007c 04020640 		.word	1074135556
 106 0080 880E0640 		.word	1074138760
 107 0084 C80E0640 		.word	1074138824
 108 0088 480F0640 		.word	1074138952
 109 008c 080F0640 		.word	1074138888
 110 0090 C80F0640 		.word	1074139080
 111 0094 880F0640 		.word	1074139016
 112 0098 00000000 		.word	UART_IntrTxMask
 113              		.cfi_endproc
 114              	.LFE0:
 115              		.size	UART_UartInit, .-UART_UartInit
 116              		.section	.text.UART_UartPostEnable,"ax",%progbits
 117              		.align	2
 118              		.global	UART_UartPostEnable
 119              		.code	16
 120              		.thumb_func
 121              		.type	UART_UartPostEnable, %function
 122              	UART_UartPostEnable:
 123              	.LFB1:
 306:Generated_Source\PSoC4/UART_UART.c **** #endif /* (UART_SCB_MODE_UNCONFIG_CONST_CFG) */
 307:Generated_Source\PSoC4/UART_UART.c **** 
 308:Generated_Source\PSoC4/UART_UART.c **** 
 309:Generated_Source\PSoC4/UART_UART.c **** /*******************************************************************************
 310:Generated_Source\PSoC4/UART_UART.c **** * Function Name: UART_UartPostEnable
 311:Generated_Source\PSoC4/UART_UART.c **** ****************************************************************************//**
 312:Generated_Source\PSoC4/UART_UART.c **** *
 313:Generated_Source\PSoC4/UART_UART.c **** *  Restores HSIOM settings for the UART output pins (TX and/or RTS) to be
 314:Generated_Source\PSoC4/UART_UART.c **** *  controlled by the SCB UART.
 315:Generated_Source\PSoC4/UART_UART.c **** *
 316:Generated_Source\PSoC4/UART_UART.c **** *******************************************************************************/
 317:Generated_Source\PSoC4/UART_UART.c **** void UART_UartPostEnable(void)
 318:Generated_Source\PSoC4/UART_UART.c **** {
 124              		.loc 1 318 0
 125              		.cfi_startproc
 126              		@ args = 0, pretend = 0, frame = 0
 127              		@ frame_needed = 0, uses_anonymous_args = 0
 128              		@ link register save eliminated.
 319:Generated_Source\PSoC4/UART_UART.c **** #if (UART_SCB_MODE_UNCONFIG_CONST_CFG)
 320:Generated_Source\PSoC4/UART_UART.c ****     #if (UART_TX_SDA_MISO_PIN)
 321:Generated_Source\PSoC4/UART_UART.c ****         if (UART_CHECK_TX_SDA_MISO_PIN_USED)
 322:Generated_Source\PSoC4/UART_UART.c ****         {
 323:Generated_Source\PSoC4/UART_UART.c ****             /* Set SCB UART to drive the output pin */
 324:Generated_Source\PSoC4/UART_UART.c ****             UART_SET_HSIOM_SEL(UART_TX_SDA_MISO_HSIOM_REG, UART_TX_SDA_MISO_HSIOM_MASK,
 325:Generated_Source\PSoC4/UART_UART.c ****                                            UART_TX_SDA_MISO_HSIOM_POS, UART_TX_SDA_MISO_HSIOM_SEL_U
 326:Generated_Source\PSoC4/UART_UART.c ****         }
 327:Generated_Source\PSoC4/UART_UART.c ****     #endif /* (UART_TX_SDA_MISO_PIN_PIN) */
 328:Generated_Source\PSoC4/UART_UART.c **** 
ARM GAS  C:\Users\jj-ay\AppData\Local\Temp\ccayctYT.s 			page 9


 329:Generated_Source\PSoC4/UART_UART.c ****     #if !(UART_CY_SCBIP_V0 || UART_CY_SCBIP_V1)
 330:Generated_Source\PSoC4/UART_UART.c ****         #if (UART_SS0_PIN)
 331:Generated_Source\PSoC4/UART_UART.c ****             if (UART_CHECK_SS0_PIN_USED)
 332:Generated_Source\PSoC4/UART_UART.c ****             {
 333:Generated_Source\PSoC4/UART_UART.c ****                 /* Set SCB UART to drive the output pin */
 334:Generated_Source\PSoC4/UART_UART.c ****                 UART_SET_HSIOM_SEL(UART_SS0_HSIOM_REG, UART_SS0_HSIOM_MASK,
 335:Generated_Source\PSoC4/UART_UART.c ****                                                UART_SS0_HSIOM_POS, UART_SS0_HSIOM_SEL_UART);
 336:Generated_Source\PSoC4/UART_UART.c ****             }
 337:Generated_Source\PSoC4/UART_UART.c ****         #endif /* (UART_SS0_PIN) */
 338:Generated_Source\PSoC4/UART_UART.c ****     #endif /* !(UART_CY_SCBIP_V0 || UART_CY_SCBIP_V1) */
 339:Generated_Source\PSoC4/UART_UART.c **** 
 340:Generated_Source\PSoC4/UART_UART.c **** #else
 341:Generated_Source\PSoC4/UART_UART.c ****     #if (UART_UART_TX_PIN)
 342:Generated_Source\PSoC4/UART_UART.c ****          /* Set SCB UART to drive the output pin */
 343:Generated_Source\PSoC4/UART_UART.c ****         UART_SET_HSIOM_SEL(UART_TX_HSIOM_REG, UART_TX_HSIOM_MASK,
 129              		.loc 1 343 0
 130 0000 0549     		ldr	r1, .L5
 131 0002 0B68     		ldr	r3, [r1]
 132 0004 F022     		movs	r2, #240
 133 0006 9343     		bics	r3, r2
 134 0008 603A     		subs	r2, r2, #96
 135 000a 1343     		orrs	r3, r2
 136 000c 0B60     		str	r3, [r1]
 344:Generated_Source\PSoC4/UART_UART.c ****                                        UART_TX_HSIOM_POS, UART_TX_HSIOM_SEL_UART);
 345:Generated_Source\PSoC4/UART_UART.c ****     #endif /* (UART_UART_TX_PIN) */
 346:Generated_Source\PSoC4/UART_UART.c **** 
 347:Generated_Source\PSoC4/UART_UART.c ****     #if (UART_UART_RTS_PIN)
 348:Generated_Source\PSoC4/UART_UART.c ****         /* Set SCB UART to drive the output pin */
 349:Generated_Source\PSoC4/UART_UART.c ****         UART_SET_HSIOM_SEL(UART_RTS_HSIOM_REG, UART_RTS_HSIOM_MASK,
 350:Generated_Source\PSoC4/UART_UART.c ****                                        UART_RTS_HSIOM_POS, UART_RTS_HSIOM_SEL_UART);
 351:Generated_Source\PSoC4/UART_UART.c ****     #endif /* (UART_UART_RTS_PIN) */
 352:Generated_Source\PSoC4/UART_UART.c **** #endif /* (UART_SCB_MODE_UNCONFIG_CONST_CFG) */
 353:Generated_Source\PSoC4/UART_UART.c **** 
 354:Generated_Source\PSoC4/UART_UART.c ****     /* Restore TX interrupt sources. */
 355:Generated_Source\PSoC4/UART_UART.c ****     UART_SetTxInterruptMode(UART_IntrTxMask);
 137              		.loc 1 355 0
 138 000e 034B     		ldr	r3, .L5+4
 139 0010 1A88     		ldrh	r2, [r3]
 140 0012 034B     		ldr	r3, .L5+8
 141 0014 1A60     		str	r2, [r3]
 356:Generated_Source\PSoC4/UART_UART.c **** }
 142              		.loc 1 356 0
 143              		@ sp needed
 144 0016 7047     		bx	lr
 145              	.L6:
 146              		.align	2
 147              	.L5:
 148 0018 10000140 		.word	1073807376
 149 001c 00000000 		.word	UART_IntrTxMask
 150 0020 880F0640 		.word	1074139016
 151              		.cfi_endproc
 152              	.LFE1:
 153              		.size	UART_UartPostEnable, .-UART_UartPostEnable
 154              		.section	.text.UART_UartStop,"ax",%progbits
 155              		.align	2
 156              		.global	UART_UartStop
 157              		.code	16
ARM GAS  C:\Users\jj-ay\AppData\Local\Temp\ccayctYT.s 			page 10


 158              		.thumb_func
 159              		.type	UART_UartStop, %function
 160              	UART_UartStop:
 161              	.LFB2:
 357:Generated_Source\PSoC4/UART_UART.c **** 
 358:Generated_Source\PSoC4/UART_UART.c **** 
 359:Generated_Source\PSoC4/UART_UART.c **** /*******************************************************************************
 360:Generated_Source\PSoC4/UART_UART.c **** * Function Name: UART_UartStop
 361:Generated_Source\PSoC4/UART_UART.c **** ****************************************************************************//**
 362:Generated_Source\PSoC4/UART_UART.c **** *
 363:Generated_Source\PSoC4/UART_UART.c **** *  Changes the HSIOM settings for the UART output pins (TX and/or RTS) to keep
 364:Generated_Source\PSoC4/UART_UART.c **** *  them inactive after the block is disabled. The output pins are controlled by
 365:Generated_Source\PSoC4/UART_UART.c **** *  the GPIO data register. Also, the function disables the skip start feature
 366:Generated_Source\PSoC4/UART_UART.c **** *  to not cause it to trigger after the component is enabled.
 367:Generated_Source\PSoC4/UART_UART.c **** *
 368:Generated_Source\PSoC4/UART_UART.c **** *******************************************************************************/
 369:Generated_Source\PSoC4/UART_UART.c **** void UART_UartStop(void)
 370:Generated_Source\PSoC4/UART_UART.c **** {
 162              		.loc 1 370 0
 163              		.cfi_startproc
 164              		@ args = 0, pretend = 0, frame = 0
 165              		@ frame_needed = 0, uses_anonymous_args = 0
 166              		@ link register save eliminated.
 371:Generated_Source\PSoC4/UART_UART.c **** #if(UART_SCB_MODE_UNCONFIG_CONST_CFG)
 372:Generated_Source\PSoC4/UART_UART.c ****     #if (UART_TX_SDA_MISO_PIN)
 373:Generated_Source\PSoC4/UART_UART.c ****         if (UART_CHECK_TX_SDA_MISO_PIN_USED)
 374:Generated_Source\PSoC4/UART_UART.c ****         {
 375:Generated_Source\PSoC4/UART_UART.c ****             /* Set GPIO to drive output pin */
 376:Generated_Source\PSoC4/UART_UART.c ****             UART_SET_HSIOM_SEL(UART_TX_SDA_MISO_HSIOM_REG, UART_TX_SDA_MISO_HSIOM_MASK,
 377:Generated_Source\PSoC4/UART_UART.c ****                                            UART_TX_SDA_MISO_HSIOM_POS, UART_TX_SDA_MISO_HSIOM_SEL_G
 378:Generated_Source\PSoC4/UART_UART.c ****         }
 379:Generated_Source\PSoC4/UART_UART.c ****     #endif /* (UART_TX_SDA_MISO_PIN_PIN) */
 380:Generated_Source\PSoC4/UART_UART.c **** 
 381:Generated_Source\PSoC4/UART_UART.c ****     #if !(UART_CY_SCBIP_V0 || UART_CY_SCBIP_V1)
 382:Generated_Source\PSoC4/UART_UART.c ****         #if (UART_SS0_PIN)
 383:Generated_Source\PSoC4/UART_UART.c ****             if (UART_CHECK_SS0_PIN_USED)
 384:Generated_Source\PSoC4/UART_UART.c ****             {
 385:Generated_Source\PSoC4/UART_UART.c ****                 /* Set output pin state after block is disabled */
 386:Generated_Source\PSoC4/UART_UART.c ****                 UART_spi_ss0_Write(UART_GET_UART_RTS_INACTIVE);
 387:Generated_Source\PSoC4/UART_UART.c **** 
 388:Generated_Source\PSoC4/UART_UART.c ****                 /* Set GPIO to drive output pin */
 389:Generated_Source\PSoC4/UART_UART.c ****                 UART_SET_HSIOM_SEL(UART_SS0_HSIOM_REG, UART_SS0_HSIOM_MASK,
 390:Generated_Source\PSoC4/UART_UART.c ****                                                UART_SS0_HSIOM_POS, UART_SS0_HSIOM_SEL_GPIO);
 391:Generated_Source\PSoC4/UART_UART.c ****             }
 392:Generated_Source\PSoC4/UART_UART.c ****         #endif /* (UART_SS0_PIN) */
 393:Generated_Source\PSoC4/UART_UART.c ****     #endif /* !(UART_CY_SCBIP_V0 || UART_CY_SCBIP_V1) */
 394:Generated_Source\PSoC4/UART_UART.c **** 
 395:Generated_Source\PSoC4/UART_UART.c **** #else
 396:Generated_Source\PSoC4/UART_UART.c ****     #if (UART_UART_TX_PIN)
 397:Generated_Source\PSoC4/UART_UART.c ****         /* Set GPIO to drive output pin */
 398:Generated_Source\PSoC4/UART_UART.c ****         UART_SET_HSIOM_SEL(UART_TX_HSIOM_REG, UART_TX_HSIOM_MASK,
 167              		.loc 1 398 0
 168 0000 064A     		ldr	r2, .L8
 169 0002 1368     		ldr	r3, [r2]
 170 0004 F021     		movs	r1, #240
 171 0006 8B43     		bics	r3, r1
 172 0008 1360     		str	r3, [r2]
ARM GAS  C:\Users\jj-ay\AppData\Local\Temp\ccayctYT.s 			page 11


 399:Generated_Source\PSoC4/UART_UART.c ****                                        UART_TX_HSIOM_POS, UART_TX_HSIOM_SEL_GPIO);
 400:Generated_Source\PSoC4/UART_UART.c ****     #endif /* (UART_UART_TX_PIN) */
 401:Generated_Source\PSoC4/UART_UART.c **** 
 402:Generated_Source\PSoC4/UART_UART.c ****     #if (UART_UART_RTS_PIN)
 403:Generated_Source\PSoC4/UART_UART.c ****         /* Set output pin state after block is disabled */
 404:Generated_Source\PSoC4/UART_UART.c ****         UART_rts_Write(UART_GET_UART_RTS_INACTIVE);
 405:Generated_Source\PSoC4/UART_UART.c **** 
 406:Generated_Source\PSoC4/UART_UART.c ****         /* Set GPIO to drive output pin */
 407:Generated_Source\PSoC4/UART_UART.c ****         UART_SET_HSIOM_SEL(UART_RTS_HSIOM_REG, UART_RTS_HSIOM_MASK,
 408:Generated_Source\PSoC4/UART_UART.c ****                                        UART_RTS_HSIOM_POS, UART_RTS_HSIOM_SEL_GPIO);
 409:Generated_Source\PSoC4/UART_UART.c ****     #endif /* (UART_UART_RTS_PIN) */
 410:Generated_Source\PSoC4/UART_UART.c **** 
 411:Generated_Source\PSoC4/UART_UART.c **** #endif /* (UART_SCB_MODE_UNCONFIG_CONST_CFG) */
 412:Generated_Source\PSoC4/UART_UART.c **** 
 413:Generated_Source\PSoC4/UART_UART.c **** #if (UART_UART_WAKE_ENABLE_CONST)
 414:Generated_Source\PSoC4/UART_UART.c ****     /* Disable skip start feature used for wakeup */
 415:Generated_Source\PSoC4/UART_UART.c ****     UART_UART_RX_CTRL_REG &= (uint32) ~UART_UART_RX_CTRL_SKIP_START;
 416:Generated_Source\PSoC4/UART_UART.c **** #endif /* (UART_UART_WAKE_ENABLE_CONST) */
 417:Generated_Source\PSoC4/UART_UART.c **** 
 418:Generated_Source\PSoC4/UART_UART.c ****     /* Store TX interrupt sources (exclude level triggered). */
 419:Generated_Source\PSoC4/UART_UART.c ****     UART_IntrTxMask = LO16(UART_GetTxInterruptMode() & UART_INTR_UART_TX_RESTORE);
 173              		.loc 1 419 0
 174 000a 054B     		ldr	r3, .L8+4
 175 000c 1A68     		ldr	r2, [r3]
 176 000e E423     		movs	r3, #228
 177 0010 DB00     		lsls	r3, r3, #3
 178 0012 1340     		ands	r3, r2
 179 0014 034A     		ldr	r2, .L8+8
 180 0016 1380     		strh	r3, [r2]
 420:Generated_Source\PSoC4/UART_UART.c **** }
 181              		.loc 1 420 0
 182              		@ sp needed
 183 0018 7047     		bx	lr
 184              	.L9:
 185 001a C046     		.align	2
 186              	.L8:
 187 001c 10000140 		.word	1073807376
 188 0020 880F0640 		.word	1074139016
 189 0024 00000000 		.word	UART_IntrTxMask
 190              		.cfi_endproc
 191              	.LFE2:
 192              		.size	UART_UartStop, .-UART_UartStop
 193              		.section	.text.UART_UartSetRxAddress,"ax",%progbits
 194              		.align	2
 195              		.global	UART_UartSetRxAddress
 196              		.code	16
 197              		.thumb_func
 198              		.type	UART_UartSetRxAddress, %function
 199              	UART_UartSetRxAddress:
 200              	.LFB3:
 421:Generated_Source\PSoC4/UART_UART.c **** 
 422:Generated_Source\PSoC4/UART_UART.c **** 
 423:Generated_Source\PSoC4/UART_UART.c **** /*******************************************************************************
 424:Generated_Source\PSoC4/UART_UART.c **** * Function Name: UART_UartSetRxAddress
 425:Generated_Source\PSoC4/UART_UART.c **** ****************************************************************************//**
 426:Generated_Source\PSoC4/UART_UART.c **** *
 427:Generated_Source\PSoC4/UART_UART.c **** *  Sets the hardware detectable receiver address for the UART in the
ARM GAS  C:\Users\jj-ay\AppData\Local\Temp\ccayctYT.s 			page 12


 428:Generated_Source\PSoC4/UART_UART.c **** *  Multiprocessor mode.
 429:Generated_Source\PSoC4/UART_UART.c **** *
 430:Generated_Source\PSoC4/UART_UART.c **** *  \param address: Address for hardware address detection.
 431:Generated_Source\PSoC4/UART_UART.c **** *
 432:Generated_Source\PSoC4/UART_UART.c **** *******************************************************************************/
 433:Generated_Source\PSoC4/UART_UART.c **** void UART_UartSetRxAddress(uint32 address)
 434:Generated_Source\PSoC4/UART_UART.c **** {
 201              		.loc 1 434 0
 202              		.cfi_startproc
 203              		@ args = 0, pretend = 0, frame = 0
 204              		@ frame_needed = 0, uses_anonymous_args = 0
 205              		@ link register save eliminated.
 206              	.LVL0:
 435:Generated_Source\PSoC4/UART_UART.c ****      uint32 matchReg;
 436:Generated_Source\PSoC4/UART_UART.c **** 
 437:Generated_Source\PSoC4/UART_UART.c ****     matchReg = UART_RX_MATCH_REG;
 207              		.loc 1 437 0
 208 0000 034A     		ldr	r2, .L11
 209 0002 1368     		ldr	r3, [r2]
 210              	.LVL1:
 438:Generated_Source\PSoC4/UART_UART.c **** 
 439:Generated_Source\PSoC4/UART_UART.c ****     matchReg &= ((uint32) ~UART_RX_MATCH_ADDR_MASK); /* Clear address bits */
 211              		.loc 1 439 0
 212 0004 FF21     		movs	r1, #255
 213 0006 8B43     		bics	r3, r1
 214              	.LVL2:
 440:Generated_Source\PSoC4/UART_UART.c ****     matchReg |= ((uint32)  (address & UART_RX_MATCH_ADDR_MASK)); /* Set address  */
 215              		.loc 1 440 0
 216 0008 0840     		ands	r0, r1
 217              	.LVL3:
 218 000a 1843     		orrs	r0, r3
 219              	.LVL4:
 441:Generated_Source\PSoC4/UART_UART.c **** 
 442:Generated_Source\PSoC4/UART_UART.c ****     UART_RX_MATCH_REG = matchReg;
 220              		.loc 1 442 0
 221 000c 1060     		str	r0, [r2]
 443:Generated_Source\PSoC4/UART_UART.c **** }
 222              		.loc 1 443 0
 223              		@ sp needed
 224 000e 7047     		bx	lr
 225              	.L12:
 226              		.align	2
 227              	.L11:
 228 0010 10030640 		.word	1074135824
 229              		.cfi_endproc
 230              	.LFE3:
 231              		.size	UART_UartSetRxAddress, .-UART_UartSetRxAddress
 232              		.section	.text.UART_UartSetRxAddressMask,"ax",%progbits
 233              		.align	2
 234              		.global	UART_UartSetRxAddressMask
 235              		.code	16
 236              		.thumb_func
 237              		.type	UART_UartSetRxAddressMask, %function
 238              	UART_UartSetRxAddressMask:
 239              	.LFB4:
 444:Generated_Source\PSoC4/UART_UART.c **** 
 445:Generated_Source\PSoC4/UART_UART.c **** 
ARM GAS  C:\Users\jj-ay\AppData\Local\Temp\ccayctYT.s 			page 13


 446:Generated_Source\PSoC4/UART_UART.c **** /*******************************************************************************
 447:Generated_Source\PSoC4/UART_UART.c **** * Function Name: UART_UartSetRxAddressMask
 448:Generated_Source\PSoC4/UART_UART.c **** ****************************************************************************//**
 449:Generated_Source\PSoC4/UART_UART.c **** *
 450:Generated_Source\PSoC4/UART_UART.c **** *  Sets the hardware address mask for the UART in the Multiprocessor mode.
 451:Generated_Source\PSoC4/UART_UART.c **** *
 452:Generated_Source\PSoC4/UART_UART.c **** *  \param addressMask: Address mask.
 453:Generated_Source\PSoC4/UART_UART.c **** *   - Bit value 0 – excludes bit from address comparison.
 454:Generated_Source\PSoC4/UART_UART.c **** *   - Bit value 1 – the bit needs to match with the corresponding bit
 455:Generated_Source\PSoC4/UART_UART.c **** *     of the address.
 456:Generated_Source\PSoC4/UART_UART.c **** *
 457:Generated_Source\PSoC4/UART_UART.c **** *******************************************************************************/
 458:Generated_Source\PSoC4/UART_UART.c **** void UART_UartSetRxAddressMask(uint32 addressMask)
 459:Generated_Source\PSoC4/UART_UART.c **** {
 240              		.loc 1 459 0
 241              		.cfi_startproc
 242              		@ args = 0, pretend = 0, frame = 0
 243              		@ frame_needed = 0, uses_anonymous_args = 0
 244              		@ link register save eliminated.
 245              	.LVL5:
 460:Generated_Source\PSoC4/UART_UART.c ****     uint32 matchReg;
 461:Generated_Source\PSoC4/UART_UART.c **** 
 462:Generated_Source\PSoC4/UART_UART.c ****     matchReg = UART_RX_MATCH_REG;
 246              		.loc 1 462 0
 247 0000 034A     		ldr	r2, .L14
 248 0002 1168     		ldr	r1, [r2]
 249              	.LVL6:
 463:Generated_Source\PSoC4/UART_UART.c **** 
 464:Generated_Source\PSoC4/UART_UART.c ****     matchReg &= ((uint32) ~UART_RX_MATCH_MASK_MASK); /* Clear address mask bits */
 250              		.loc 1 464 0
 251 0004 034B     		ldr	r3, .L14+4
 252 0006 0B40     		ands	r3, r1
 253              	.LVL7:
 465:Generated_Source\PSoC4/UART_UART.c ****     matchReg |= ((uint32) (addressMask << UART_RX_MATCH_MASK_POS));
 254              		.loc 1 465 0
 255 0008 0004     		lsls	r0, r0, #16
 256              	.LVL8:
 257 000a 1843     		orrs	r0, r3
 258              	.LVL9:
 466:Generated_Source\PSoC4/UART_UART.c **** 
 467:Generated_Source\PSoC4/UART_UART.c ****     UART_RX_MATCH_REG = matchReg;
 259              		.loc 1 467 0
 260 000c 1060     		str	r0, [r2]
 468:Generated_Source\PSoC4/UART_UART.c **** }
 261              		.loc 1 468 0
 262              		@ sp needed
 263 000e 7047     		bx	lr
 264              	.L15:
 265              		.align	2
 266              	.L14:
 267 0010 10030640 		.word	1074135824
 268 0014 FFFF00FF 		.word	-16711681
 269              		.cfi_endproc
 270              	.LFE4:
 271              		.size	UART_UartSetRxAddressMask, .-UART_UartSetRxAddressMask
 272              		.section	.text.UART_UartGetChar,"ax",%progbits
 273              		.align	2
ARM GAS  C:\Users\jj-ay\AppData\Local\Temp\ccayctYT.s 			page 14


 274              		.global	UART_UartGetChar
 275              		.code	16
 276              		.thumb_func
 277              		.type	UART_UartGetChar, %function
 278              	UART_UartGetChar:
 279              	.LFB5:
 469:Generated_Source\PSoC4/UART_UART.c **** 
 470:Generated_Source\PSoC4/UART_UART.c **** 
 471:Generated_Source\PSoC4/UART_UART.c **** #if(UART_UART_RX_DIRECTION)
 472:Generated_Source\PSoC4/UART_UART.c ****     /*******************************************************************************
 473:Generated_Source\PSoC4/UART_UART.c ****     * Function Name: UART_UartGetChar
 474:Generated_Source\PSoC4/UART_UART.c ****     ****************************************************************************//**
 475:Generated_Source\PSoC4/UART_UART.c ****     *
 476:Generated_Source\PSoC4/UART_UART.c ****     *  Retrieves next data element from receive buffer.
 477:Generated_Source\PSoC4/UART_UART.c ****     *  This function is designed for ASCII characters and returns a char where
 478:Generated_Source\PSoC4/UART_UART.c ****     *  1 to 255 are valid characters and 0 indicates an error occurred or no data
 479:Generated_Source\PSoC4/UART_UART.c ****     *  is present.
 480:Generated_Source\PSoC4/UART_UART.c ****     *  - RX software buffer is disabled: Returns data element retrieved from RX
 481:Generated_Source\PSoC4/UART_UART.c ****     *    FIFO.
 482:Generated_Source\PSoC4/UART_UART.c ****     *  - RX software buffer is enabled: Returns data element from the software
 483:Generated_Source\PSoC4/UART_UART.c ****     *    receive buffer.
 484:Generated_Source\PSoC4/UART_UART.c ****     *
 485:Generated_Source\PSoC4/UART_UART.c ****     *  \return
 486:Generated_Source\PSoC4/UART_UART.c ****     *   Next data element from the receive buffer. ASCII character values from
 487:Generated_Source\PSoC4/UART_UART.c ****     *   1 to 255 are valid. A returned zero signifies an error condition or no
 488:Generated_Source\PSoC4/UART_UART.c ****     *   data available.
 489:Generated_Source\PSoC4/UART_UART.c ****     *
 490:Generated_Source\PSoC4/UART_UART.c ****     *  \sideeffect
 491:Generated_Source\PSoC4/UART_UART.c ****     *   The errors bits may not correspond with reading characters due to
 492:Generated_Source\PSoC4/UART_UART.c ****     *   RX FIFO and software buffer usage.
 493:Generated_Source\PSoC4/UART_UART.c ****     *   RX software buffer is enabled: The internal software buffer overflow
 494:Generated_Source\PSoC4/UART_UART.c ****     *   is not treated as an error condition.
 495:Generated_Source\PSoC4/UART_UART.c ****     *   Check UART_rxBufferOverflow to capture that error condition.
 496:Generated_Source\PSoC4/UART_UART.c ****     *
 497:Generated_Source\PSoC4/UART_UART.c ****     *******************************************************************************/
 498:Generated_Source\PSoC4/UART_UART.c ****     uint32 UART_UartGetChar(void)
 499:Generated_Source\PSoC4/UART_UART.c ****     {
 280              		.loc 1 499 0
 281              		.cfi_startproc
 282              		@ args = 0, pretend = 0, frame = 0
 283              		@ frame_needed = 0, uses_anonymous_args = 0
 284 0000 10B5     		push	{r4, lr}
 285              		.cfi_def_cfa_offset 8
 286              		.cfi_offset 4, -8
 287              		.cfi_offset 14, -4
 288              	.LVL10:
 500:Generated_Source\PSoC4/UART_UART.c ****         uint32 rxData = 0u;
 501:Generated_Source\PSoC4/UART_UART.c **** 
 502:Generated_Source\PSoC4/UART_UART.c ****         /* Reads data only if there is data to read */
 503:Generated_Source\PSoC4/UART_UART.c ****         if (0u != UART_SpiUartGetRxBufferSize())
 289              		.loc 1 503 0
 290 0002 FFF7FEFF 		bl	UART_SpiUartGetRxBufferSize
 291              	.LVL11:
 292 0006 0028     		cmp	r0, #0
 293 0008 02D0     		beq	.L19
 504:Generated_Source\PSoC4/UART_UART.c ****         {
 505:Generated_Source\PSoC4/UART_UART.c ****             rxData = UART_SpiUartReadRxData();
ARM GAS  C:\Users\jj-ay\AppData\Local\Temp\ccayctYT.s 			page 15


 294              		.loc 1 505 0
 295 000a FFF7FEFF 		bl	UART_SpiUartReadRxData
 296              	.LVL12:
 297 000e 00E0     		b	.L17
 298              	.LVL13:
 299              	.L19:
 500:Generated_Source\PSoC4/UART_UART.c ****         uint32 rxData = 0u;
 300              		.loc 1 500 0
 301 0010 0020     		movs	r0, #0
 302              	.LVL14:
 303              	.L17:
 506:Generated_Source\PSoC4/UART_UART.c ****         }
 507:Generated_Source\PSoC4/UART_UART.c **** 
 508:Generated_Source\PSoC4/UART_UART.c ****         if (UART_CHECK_INTR_RX(UART_INTR_RX_ERR))
 304              		.loc 1 508 0
 305 0012 054B     		ldr	r3, .L20
 306 0014 1A68     		ldr	r2, [r3]
 307 0016 D823     		movs	r3, #216
 308 0018 9B00     		lsls	r3, r3, #2
 309 001a 1A42     		tst	r2, r3
 310 001c 03D0     		beq	.L18
 311              	.LVL15:
 509:Generated_Source\PSoC4/UART_UART.c ****         {
 510:Generated_Source\PSoC4/UART_UART.c ****             rxData = 0u; /* Error occurred: returns zero */
 511:Generated_Source\PSoC4/UART_UART.c ****             UART_ClearRxInterruptSource(UART_INTR_RX_ERR);
 312              		.loc 1 511 0
 313 001e 1A00     		movs	r2, r3
 314 0020 014B     		ldr	r3, .L20
 315 0022 1A60     		str	r2, [r3]
 510:Generated_Source\PSoC4/UART_UART.c ****             UART_ClearRxInterruptSource(UART_INTR_RX_ERR);
 316              		.loc 1 510 0
 317 0024 0020     		movs	r0, #0
 318              	.LVL16:
 319              	.L18:
 512:Generated_Source\PSoC4/UART_UART.c ****         }
 513:Generated_Source\PSoC4/UART_UART.c **** 
 514:Generated_Source\PSoC4/UART_UART.c ****         return (rxData);
 515:Generated_Source\PSoC4/UART_UART.c ****     }
 320              		.loc 1 515 0
 321              		@ sp needed
 322 0026 10BD     		pop	{r4, pc}
 323              	.L21:
 324              		.align	2
 325              	.L20:
 326 0028 C00F0640 		.word	1074139072
 327              		.cfi_endproc
 328              	.LFE5:
 329              		.size	UART_UartGetChar, .-UART_UartGetChar
 330              		.section	.text.UART_UartGetByte,"ax",%progbits
 331              		.align	2
 332              		.global	UART_UartGetByte
 333              		.code	16
 334              		.thumb_func
 335              		.type	UART_UartGetByte, %function
 336              	UART_UartGetByte:
 337              	.LFB6:
 516:Generated_Source\PSoC4/UART_UART.c **** 
ARM GAS  C:\Users\jj-ay\AppData\Local\Temp\ccayctYT.s 			page 16


 517:Generated_Source\PSoC4/UART_UART.c **** 
 518:Generated_Source\PSoC4/UART_UART.c ****     /*******************************************************************************
 519:Generated_Source\PSoC4/UART_UART.c ****     * Function Name: UART_UartGetByte
 520:Generated_Source\PSoC4/UART_UART.c ****     ****************************************************************************//**
 521:Generated_Source\PSoC4/UART_UART.c ****     *
 522:Generated_Source\PSoC4/UART_UART.c ****     *  Retrieves the next data element from the receive buffer, returns the
 523:Generated_Source\PSoC4/UART_UART.c ****     *  received byte and error condition.
 524:Generated_Source\PSoC4/UART_UART.c ****     *   - The RX software buffer is disabled: returns the data element retrieved
 525:Generated_Source\PSoC4/UART_UART.c ****     *     from the RX FIFO. Undefined data will be returned if the RX FIFO is
 526:Generated_Source\PSoC4/UART_UART.c ****     *     empty.
 527:Generated_Source\PSoC4/UART_UART.c ****     *   - The RX software buffer is enabled: returns data element from the
 528:Generated_Source\PSoC4/UART_UART.c ****     *     software receive buffer.
 529:Generated_Source\PSoC4/UART_UART.c ****     *
 530:Generated_Source\PSoC4/UART_UART.c ****     *  \return
 531:Generated_Source\PSoC4/UART_UART.c ****     *   Bits 7-0 contain the next data element from the receive buffer and
 532:Generated_Source\PSoC4/UART_UART.c ****     *   other bits contain the error condition.
 533:Generated_Source\PSoC4/UART_UART.c ****     *   - UART_UART_RX_OVERFLOW - Attempt to write to a full
 534:Generated_Source\PSoC4/UART_UART.c ****     *     receiver FIFO.
 535:Generated_Source\PSoC4/UART_UART.c ****     *   - UART_UART_RX_UNDERFLOW    Attempt to read from an empty
 536:Generated_Source\PSoC4/UART_UART.c ****     *     receiver FIFO.
 537:Generated_Source\PSoC4/UART_UART.c ****     *   - UART_UART_RX_FRAME_ERROR - UART framing error detected.
 538:Generated_Source\PSoC4/UART_UART.c ****     *   - UART_UART_RX_PARITY_ERROR - UART parity error detected.
 539:Generated_Source\PSoC4/UART_UART.c ****     *
 540:Generated_Source\PSoC4/UART_UART.c ****     *  \sideeffect
 541:Generated_Source\PSoC4/UART_UART.c ****     *   The errors bits may not correspond with reading characters due to
 542:Generated_Source\PSoC4/UART_UART.c ****     *   RX FIFO and software buffer usage.
 543:Generated_Source\PSoC4/UART_UART.c ****     *   RX software buffer is enabled: The internal software buffer overflow
 544:Generated_Source\PSoC4/UART_UART.c ****     *   is not treated as an error condition.
 545:Generated_Source\PSoC4/UART_UART.c ****     *   Check UART_rxBufferOverflow to capture that error condition.
 546:Generated_Source\PSoC4/UART_UART.c ****     *
 547:Generated_Source\PSoC4/UART_UART.c ****     *******************************************************************************/
 548:Generated_Source\PSoC4/UART_UART.c ****     uint32 UART_UartGetByte(void)
 549:Generated_Source\PSoC4/UART_UART.c ****     {
 338              		.loc 1 549 0
 339              		.cfi_startproc
 340              		@ args = 0, pretend = 0, frame = 0
 341              		@ frame_needed = 0, uses_anonymous_args = 0
 342 0000 10B5     		push	{r4, lr}
 343              		.cfi_def_cfa_offset 8
 344              		.cfi_offset 4, -8
 345              		.cfi_offset 14, -4
 550:Generated_Source\PSoC4/UART_UART.c ****         uint32 rxData;
 551:Generated_Source\PSoC4/UART_UART.c ****         uint32 tmpStatus;
 552:Generated_Source\PSoC4/UART_UART.c **** 
 553:Generated_Source\PSoC4/UART_UART.c ****         #if (UART_CHECK_RX_SW_BUFFER)
 554:Generated_Source\PSoC4/UART_UART.c ****         {
 555:Generated_Source\PSoC4/UART_UART.c ****             UART_DisableInt();
 556:Generated_Source\PSoC4/UART_UART.c ****         }
 557:Generated_Source\PSoC4/UART_UART.c ****         #endif
 558:Generated_Source\PSoC4/UART_UART.c **** 
 559:Generated_Source\PSoC4/UART_UART.c ****         if (0u != UART_SpiUartGetRxBufferSize())
 346              		.loc 1 559 0
 347 0002 FFF7FEFF 		bl	UART_SpiUartGetRxBufferSize
 348              	.LVL17:
 349 0006 0028     		cmp	r0, #0
 350 0008 02D0     		beq	.L23
 560:Generated_Source\PSoC4/UART_UART.c ****         {
ARM GAS  C:\Users\jj-ay\AppData\Local\Temp\ccayctYT.s 			page 17


 561:Generated_Source\PSoC4/UART_UART.c ****             /* Enables interrupt to receive more bytes: at least one byte is in
 562:Generated_Source\PSoC4/UART_UART.c ****             * buffer.
 563:Generated_Source\PSoC4/UART_UART.c ****             */
 564:Generated_Source\PSoC4/UART_UART.c ****             #if (UART_CHECK_RX_SW_BUFFER)
 565:Generated_Source\PSoC4/UART_UART.c ****             {
 566:Generated_Source\PSoC4/UART_UART.c ****                 UART_EnableInt();
 567:Generated_Source\PSoC4/UART_UART.c ****             }
 568:Generated_Source\PSoC4/UART_UART.c ****             #endif
 569:Generated_Source\PSoC4/UART_UART.c **** 
 570:Generated_Source\PSoC4/UART_UART.c ****             /* Get received byte */
 571:Generated_Source\PSoC4/UART_UART.c ****             rxData = UART_SpiUartReadRxData();
 351              		.loc 1 571 0
 352 000a FFF7FEFF 		bl	UART_SpiUartReadRxData
 353              	.LVL18:
 354 000e 01E0     		b	.L24
 355              	.LVL19:
 356              	.L23:
 572:Generated_Source\PSoC4/UART_UART.c ****         }
 573:Generated_Source\PSoC4/UART_UART.c ****         else
 574:Generated_Source\PSoC4/UART_UART.c ****         {
 575:Generated_Source\PSoC4/UART_UART.c ****             /* Reads a byte directly from RX FIFO: underflow is raised in the
 576:Generated_Source\PSoC4/UART_UART.c ****             * case of empty. Otherwise the first received byte will be read.
 577:Generated_Source\PSoC4/UART_UART.c ****             */
 578:Generated_Source\PSoC4/UART_UART.c ****             rxData = UART_RX_FIFO_RD_REG;
 357              		.loc 1 578 0
 358 0010 064B     		ldr	r3, .L25
 359 0012 1868     		ldr	r0, [r3]
 360              	.LVL20:
 361              	.L24:
 579:Generated_Source\PSoC4/UART_UART.c **** 
 580:Generated_Source\PSoC4/UART_UART.c **** 
 581:Generated_Source\PSoC4/UART_UART.c ****             /* Enables interrupt to receive more bytes. */
 582:Generated_Source\PSoC4/UART_UART.c ****             #if (UART_CHECK_RX_SW_BUFFER)
 583:Generated_Source\PSoC4/UART_UART.c ****             {
 584:Generated_Source\PSoC4/UART_UART.c **** 
 585:Generated_Source\PSoC4/UART_UART.c ****                 /* The byte has been read from RX FIFO. Clear RX interrupt to
 586:Generated_Source\PSoC4/UART_UART.c ****                 * not involve interrupt handler when RX FIFO is empty.
 587:Generated_Source\PSoC4/UART_UART.c ****                 */
 588:Generated_Source\PSoC4/UART_UART.c ****                 UART_ClearRxInterruptSource(UART_INTR_RX_NOT_EMPTY);
 589:Generated_Source\PSoC4/UART_UART.c **** 
 590:Generated_Source\PSoC4/UART_UART.c ****                 UART_EnableInt();
 591:Generated_Source\PSoC4/UART_UART.c ****             }
 592:Generated_Source\PSoC4/UART_UART.c ****             #endif
 593:Generated_Source\PSoC4/UART_UART.c ****         }
 594:Generated_Source\PSoC4/UART_UART.c **** 
 595:Generated_Source\PSoC4/UART_UART.c ****         /* Get and clear RX error mask */
 596:Generated_Source\PSoC4/UART_UART.c ****         tmpStatus = (UART_GetRxInterruptSource() & UART_INTR_RX_ERR);
 362              		.loc 1 596 0
 363 0014 064A     		ldr	r2, .L25+4
 364 0016 1368     		ldr	r3, [r2]
 365              	.LVL21:
 597:Generated_Source\PSoC4/UART_UART.c ****         UART_ClearRxInterruptSource(UART_INTR_RX_ERR);
 366              		.loc 1 597 0
 367 0018 D821     		movs	r1, #216
 368 001a 8900     		lsls	r1, r1, #2
 369 001c 1160     		str	r1, [r2]
 598:Generated_Source\PSoC4/UART_UART.c **** 
ARM GAS  C:\Users\jj-ay\AppData\Local\Temp\ccayctYT.s 			page 18


 599:Generated_Source\PSoC4/UART_UART.c ****         /* Puts together data and error status:
 600:Generated_Source\PSoC4/UART_UART.c ****         * MP mode and accept address: 9th bit is set to notify mark.
 601:Generated_Source\PSoC4/UART_UART.c ****         */
 602:Generated_Source\PSoC4/UART_UART.c ****         rxData |= ((uint32) (tmpStatus << 8u));
 370              		.loc 1 602 0
 371 001e 1B02     		lsls	r3, r3, #8
 372              	.LVL22:
 373 0020 D822     		movs	r2, #216
 374 0022 9202     		lsls	r2, r2, #10
 375 0024 1340     		ands	r3, r2
 376 0026 1843     		orrs	r0, r3
 377              	.LVL23:
 603:Generated_Source\PSoC4/UART_UART.c **** 
 604:Generated_Source\PSoC4/UART_UART.c ****         return (rxData);
 605:Generated_Source\PSoC4/UART_UART.c ****     }
 378              		.loc 1 605 0
 379              		@ sp needed
 380 0028 10BD     		pop	{r4, pc}
 381              	.L26:
 382 002a C046     		.align	2
 383              	.L25:
 384 002c 40030640 		.word	1074135872
 385 0030 C00F0640 		.word	1074139072
 386              		.cfi_endproc
 387              	.LFE6:
 388              		.size	UART_UartGetByte, .-UART_UartGetByte
 389              		.section	.text.UART_UartPutString,"ax",%progbits
 390              		.align	2
 391              		.global	UART_UartPutString
 392              		.code	16
 393              		.thumb_func
 394              		.type	UART_UartPutString, %function
 395              	UART_UartPutString:
 396              	.LFB7:
 606:Generated_Source\PSoC4/UART_UART.c **** 
 607:Generated_Source\PSoC4/UART_UART.c **** 
 608:Generated_Source\PSoC4/UART_UART.c ****     #if !(UART_CY_SCBIP_V0 || UART_CY_SCBIP_V1)
 609:Generated_Source\PSoC4/UART_UART.c ****         /*******************************************************************************
 610:Generated_Source\PSoC4/UART_UART.c ****         * Function Name: UART_UartSetRtsPolarity
 611:Generated_Source\PSoC4/UART_UART.c ****         ****************************************************************************//**
 612:Generated_Source\PSoC4/UART_UART.c ****         *
 613:Generated_Source\PSoC4/UART_UART.c ****         *  Sets active polarity of RTS output signal.
 614:Generated_Source\PSoC4/UART_UART.c ****         *  Only available for PSoC 4100 BLE / PSoC 4200 BLE / PSoC 4100M / PSoC 4200M /
 615:Generated_Source\PSoC4/UART_UART.c ****         *  PSoC 4200L / PSoC 4000S / PSoC 4100S / PSoC Analog Coprocessor devices.
 616:Generated_Source\PSoC4/UART_UART.c ****         *
 617:Generated_Source\PSoC4/UART_UART.c ****         *  \param polarity: Active polarity of RTS output signal.
 618:Generated_Source\PSoC4/UART_UART.c ****         *   - UART_UART_RTS_ACTIVE_LOW  - RTS signal is active low.
 619:Generated_Source\PSoC4/UART_UART.c ****         *   - UART_UART_RTS_ACTIVE_HIGH - RTS signal is active high.
 620:Generated_Source\PSoC4/UART_UART.c ****         *
 621:Generated_Source\PSoC4/UART_UART.c ****         *******************************************************************************/
 622:Generated_Source\PSoC4/UART_UART.c ****         void UART_UartSetRtsPolarity(uint32 polarity)
 623:Generated_Source\PSoC4/UART_UART.c ****         {
 624:Generated_Source\PSoC4/UART_UART.c ****             if(0u != polarity)
 625:Generated_Source\PSoC4/UART_UART.c ****             {
 626:Generated_Source\PSoC4/UART_UART.c ****                 UART_UART_FLOW_CTRL_REG |= (uint32)  UART_UART_FLOW_CTRL_RTS_POLARITY;
 627:Generated_Source\PSoC4/UART_UART.c ****             }
 628:Generated_Source\PSoC4/UART_UART.c ****             else
ARM GAS  C:\Users\jj-ay\AppData\Local\Temp\ccayctYT.s 			page 19


 629:Generated_Source\PSoC4/UART_UART.c ****             {
 630:Generated_Source\PSoC4/UART_UART.c ****                 UART_UART_FLOW_CTRL_REG &= (uint32) ~UART_UART_FLOW_CTRL_RTS_POLARITY;
 631:Generated_Source\PSoC4/UART_UART.c ****             }
 632:Generated_Source\PSoC4/UART_UART.c ****         }
 633:Generated_Source\PSoC4/UART_UART.c **** 
 634:Generated_Source\PSoC4/UART_UART.c **** 
 635:Generated_Source\PSoC4/UART_UART.c ****         /*******************************************************************************
 636:Generated_Source\PSoC4/UART_UART.c ****         * Function Name: UART_UartSetRtsFifoLevel
 637:Generated_Source\PSoC4/UART_UART.c ****         ****************************************************************************//**
 638:Generated_Source\PSoC4/UART_UART.c ****         *
 639:Generated_Source\PSoC4/UART_UART.c ****         *  Sets level in the RX FIFO for RTS signal activation.
 640:Generated_Source\PSoC4/UART_UART.c ****         *  While the RX FIFO has fewer entries than the RX FIFO level the RTS signal
 641:Generated_Source\PSoC4/UART_UART.c ****         *  remains active, otherwise the RTS signal becomes inactive.
 642:Generated_Source\PSoC4/UART_UART.c ****         *  Only available for PSoC 4100 BLE / PSoC 4200 BLE / PSoC 4100M / PSoC 4200M /
 643:Generated_Source\PSoC4/UART_UART.c ****         *  PSoC 4200L / PSoC 4000S / PSoC 4100S / PSoC Analog Coprocessor devices.
 644:Generated_Source\PSoC4/UART_UART.c ****         *
 645:Generated_Source\PSoC4/UART_UART.c ****         *  \param level: Level in the RX FIFO for RTS signal activation.
 646:Generated_Source\PSoC4/UART_UART.c ****         *   The range of valid level values is between 0 and RX FIFO depth - 1.
 647:Generated_Source\PSoC4/UART_UART.c ****         *   Setting level value to 0 disables RTS signal activation.
 648:Generated_Source\PSoC4/UART_UART.c ****         *
 649:Generated_Source\PSoC4/UART_UART.c ****         *******************************************************************************/
 650:Generated_Source\PSoC4/UART_UART.c ****         void UART_UartSetRtsFifoLevel(uint32 level)
 651:Generated_Source\PSoC4/UART_UART.c ****         {
 652:Generated_Source\PSoC4/UART_UART.c ****             uint32 uartFlowCtrl;
 653:Generated_Source\PSoC4/UART_UART.c **** 
 654:Generated_Source\PSoC4/UART_UART.c ****             uartFlowCtrl = UART_UART_FLOW_CTRL_REG;
 655:Generated_Source\PSoC4/UART_UART.c **** 
 656:Generated_Source\PSoC4/UART_UART.c ****             uartFlowCtrl &= ((uint32) ~UART_UART_FLOW_CTRL_TRIGGER_LEVEL_MASK); /* Clear level mask
 657:Generated_Source\PSoC4/UART_UART.c ****             uartFlowCtrl |= ((uint32) (UART_UART_FLOW_CTRL_TRIGGER_LEVEL_MASK & level));
 658:Generated_Source\PSoC4/UART_UART.c **** 
 659:Generated_Source\PSoC4/UART_UART.c ****             UART_UART_FLOW_CTRL_REG = uartFlowCtrl;
 660:Generated_Source\PSoC4/UART_UART.c ****         }
 661:Generated_Source\PSoC4/UART_UART.c ****     #endif /* !(UART_CY_SCBIP_V0 || UART_CY_SCBIP_V1) */
 662:Generated_Source\PSoC4/UART_UART.c **** 
 663:Generated_Source\PSoC4/UART_UART.c **** #endif /* (UART_UART_RX_DIRECTION) */
 664:Generated_Source\PSoC4/UART_UART.c **** 
 665:Generated_Source\PSoC4/UART_UART.c **** 
 666:Generated_Source\PSoC4/UART_UART.c **** #if(UART_UART_TX_DIRECTION)
 667:Generated_Source\PSoC4/UART_UART.c ****     /*******************************************************************************
 668:Generated_Source\PSoC4/UART_UART.c ****     * Function Name: UART_UartPutString
 669:Generated_Source\PSoC4/UART_UART.c ****     ****************************************************************************//**
 670:Generated_Source\PSoC4/UART_UART.c ****     *
 671:Generated_Source\PSoC4/UART_UART.c ****     *  Places a NULL terminated string in the transmit buffer to be sent at the
 672:Generated_Source\PSoC4/UART_UART.c ****     *  next available bus time.
 673:Generated_Source\PSoC4/UART_UART.c ****     *  This function is blocking and waits until there is a space available to put
 674:Generated_Source\PSoC4/UART_UART.c ****     *  requested data in transmit buffer.
 675:Generated_Source\PSoC4/UART_UART.c ****     *
 676:Generated_Source\PSoC4/UART_UART.c ****     *  \param string: pointer to the null terminated string array to be placed in the
 677:Generated_Source\PSoC4/UART_UART.c ****     *   transmit buffer.
 678:Generated_Source\PSoC4/UART_UART.c ****     *
 679:Generated_Source\PSoC4/UART_UART.c ****     *******************************************************************************/
 680:Generated_Source\PSoC4/UART_UART.c ****     void UART_UartPutString(const char8 string[])
 681:Generated_Source\PSoC4/UART_UART.c ****     {
 397              		.loc 1 681 0
 398              		.cfi_startproc
 399              		@ args = 0, pretend = 0, frame = 0
 400              		@ frame_needed = 0, uses_anonymous_args = 0
ARM GAS  C:\Users\jj-ay\AppData\Local\Temp\ccayctYT.s 			page 20


 401              	.LVL24:
 402 0000 70B5     		push	{r4, r5, r6, lr}
 403              		.cfi_def_cfa_offset 16
 404              		.cfi_offset 4, -16
 405              		.cfi_offset 5, -12
 406              		.cfi_offset 6, -8
 407              		.cfi_offset 14, -4
 408 0002 0500     		movs	r5, r0
 409              	.LVL25:
 682:Generated_Source\PSoC4/UART_UART.c ****         uint32 bufIndex;
 683:Generated_Source\PSoC4/UART_UART.c **** 
 684:Generated_Source\PSoC4/UART_UART.c ****         bufIndex = 0u;
 410              		.loc 1 684 0
 411 0004 0024     		movs	r4, #0
 685:Generated_Source\PSoC4/UART_UART.c **** 
 686:Generated_Source\PSoC4/UART_UART.c ****         /* Blocks the control flow until all data has been sent */
 687:Generated_Source\PSoC4/UART_UART.c ****         while(string[bufIndex] != ((char8) 0))
 412              		.loc 1 687 0
 413 0006 02E0     		b	.L28
 414              	.LVL26:
 415              	.L29:
 688:Generated_Source\PSoC4/UART_UART.c ****         {
 689:Generated_Source\PSoC4/UART_UART.c ****             UART_UartPutChar((uint32) string[bufIndex]);
 416              		.loc 1 689 0
 417 0008 FFF7FEFF 		bl	UART_SpiUartWriteTxData
 418              	.LVL27:
 690:Generated_Source\PSoC4/UART_UART.c ****             bufIndex++;
 419              		.loc 1 690 0
 420 000c 0134     		adds	r4, r4, #1
 421              	.LVL28:
 422              	.L28:
 687:Generated_Source\PSoC4/UART_UART.c ****         {
 423              		.loc 1 687 0
 424 000e 285D     		ldrb	r0, [r5, r4]
 425 0010 0028     		cmp	r0, #0
 426 0012 F9D1     		bne	.L29
 691:Generated_Source\PSoC4/UART_UART.c ****         }
 692:Generated_Source\PSoC4/UART_UART.c ****     }
 427              		.loc 1 692 0
 428              		@ sp needed
 429              	.LVL29:
 430              	.LVL30:
 431 0014 70BD     		pop	{r4, r5, r6, pc}
 432              		.cfi_endproc
 433              	.LFE7:
 434              		.size	UART_UartPutString, .-UART_UartPutString
 435 0016 C046     		.section	.text.UART_UartPutCRLF,"ax",%progbits
 436              		.align	2
 437              		.global	UART_UartPutCRLF
 438              		.code	16
 439              		.thumb_func
 440              		.type	UART_UartPutCRLF, %function
 441              	UART_UartPutCRLF:
 442              	.LFB8:
 693:Generated_Source\PSoC4/UART_UART.c **** 
 694:Generated_Source\PSoC4/UART_UART.c **** 
 695:Generated_Source\PSoC4/UART_UART.c ****     /*******************************************************************************
ARM GAS  C:\Users\jj-ay\AppData\Local\Temp\ccayctYT.s 			page 21


 696:Generated_Source\PSoC4/UART_UART.c ****     * Function Name: UART_UartPutCRLF
 697:Generated_Source\PSoC4/UART_UART.c ****     ****************************************************************************//**
 698:Generated_Source\PSoC4/UART_UART.c ****     *
 699:Generated_Source\PSoC4/UART_UART.c ****     *  Places byte of data followed by a carriage return (0x0D) and line feed
 700:Generated_Source\PSoC4/UART_UART.c ****     *  (0x0A) in the transmit buffer.
 701:Generated_Source\PSoC4/UART_UART.c ****     *  This function is blocking and waits until there is a space available to put
 702:Generated_Source\PSoC4/UART_UART.c ****     *  all requested data in transmit buffer.
 703:Generated_Source\PSoC4/UART_UART.c ****     *
 704:Generated_Source\PSoC4/UART_UART.c ****     *  \param txDataByte: the data to be transmitted.
 705:Generated_Source\PSoC4/UART_UART.c ****     *
 706:Generated_Source\PSoC4/UART_UART.c ****     *******************************************************************************/
 707:Generated_Source\PSoC4/UART_UART.c ****     void UART_UartPutCRLF(uint32 txDataByte)
 708:Generated_Source\PSoC4/UART_UART.c ****     {
 443              		.loc 1 708 0
 444              		.cfi_startproc
 445              		@ args = 0, pretend = 0, frame = 0
 446              		@ frame_needed = 0, uses_anonymous_args = 0
 447              	.LVL31:
 448 0000 10B5     		push	{r4, lr}
 449              		.cfi_def_cfa_offset 8
 450              		.cfi_offset 4, -8
 451              		.cfi_offset 14, -4
 709:Generated_Source\PSoC4/UART_UART.c ****         UART_UartPutChar(txDataByte);  /* Blocks control flow until all data has been sent */
 452              		.loc 1 709 0
 453 0002 FFF7FEFF 		bl	UART_SpiUartWriteTxData
 454              	.LVL32:
 710:Generated_Source\PSoC4/UART_UART.c ****         UART_UartPutChar(0x0Du);       /* Blocks control flow until all data has been sent */
 455              		.loc 1 710 0
 456 0006 0D20     		movs	r0, #13
 457 0008 FFF7FEFF 		bl	UART_SpiUartWriteTxData
 458              	.LVL33:
 711:Generated_Source\PSoC4/UART_UART.c ****         UART_UartPutChar(0x0Au);       /* Blocks control flow until all data has been sent */
 459              		.loc 1 711 0
 460 000c 0A20     		movs	r0, #10
 461 000e FFF7FEFF 		bl	UART_SpiUartWriteTxData
 462              	.LVL34:
 712:Generated_Source\PSoC4/UART_UART.c ****     }
 463              		.loc 1 712 0
 464              		@ sp needed
 465 0012 10BD     		pop	{r4, pc}
 466              		.cfi_endproc
 467              	.LFE8:
 468              		.size	UART_UartPutCRLF, .-UART_UartPutCRLF
 469              		.section	.text.UART_UartSendBreakBlocking,"ax",%progbits
 470              		.align	2
 471              		.global	UART_UartSendBreakBlocking
 472              		.code	16
 473              		.thumb_func
 474              		.type	UART_UartSendBreakBlocking, %function
 475              	UART_UartSendBreakBlocking:
 476              	.LFB9:
 713:Generated_Source\PSoC4/UART_UART.c **** 
 714:Generated_Source\PSoC4/UART_UART.c **** 
 715:Generated_Source\PSoC4/UART_UART.c ****     #if !(UART_CY_SCBIP_V0 || UART_CY_SCBIP_V1)
 716:Generated_Source\PSoC4/UART_UART.c ****         /*******************************************************************************
 717:Generated_Source\PSoC4/UART_UART.c ****         * Function Name: UARTSCB_UartEnableCts
 718:Generated_Source\PSoC4/UART_UART.c ****         ****************************************************************************//**
ARM GAS  C:\Users\jj-ay\AppData\Local\Temp\ccayctYT.s 			page 22


 719:Generated_Source\PSoC4/UART_UART.c ****         *
 720:Generated_Source\PSoC4/UART_UART.c ****         *  Enables usage of CTS input signal by the UART transmitter.
 721:Generated_Source\PSoC4/UART_UART.c ****         *  Only available for PSoC 4100 BLE / PSoC 4200 BLE / PSoC 4100M / PSoC 4200M /
 722:Generated_Source\PSoC4/UART_UART.c ****         *  PSoC 4200L / PSoC 4000S / PSoC 4100S / PSoC Analog Coprocessor devices.
 723:Generated_Source\PSoC4/UART_UART.c ****         *
 724:Generated_Source\PSoC4/UART_UART.c ****         *******************************************************************************/
 725:Generated_Source\PSoC4/UART_UART.c ****         void UART_UartEnableCts(void)
 726:Generated_Source\PSoC4/UART_UART.c ****         {
 727:Generated_Source\PSoC4/UART_UART.c ****             UART_UART_FLOW_CTRL_REG |= (uint32)  UART_UART_FLOW_CTRL_CTS_ENABLE;
 728:Generated_Source\PSoC4/UART_UART.c ****         }
 729:Generated_Source\PSoC4/UART_UART.c **** 
 730:Generated_Source\PSoC4/UART_UART.c **** 
 731:Generated_Source\PSoC4/UART_UART.c ****         /*******************************************************************************
 732:Generated_Source\PSoC4/UART_UART.c ****         * Function Name: UART_UartDisableCts
 733:Generated_Source\PSoC4/UART_UART.c ****         ****************************************************************************//**
 734:Generated_Source\PSoC4/UART_UART.c ****         *
 735:Generated_Source\PSoC4/UART_UART.c ****         *  Disables usage of CTS input signal by the UART transmitter.
 736:Generated_Source\PSoC4/UART_UART.c ****         *  Only available for PSoC 4100 BLE / PSoC 4200 BLE / PSoC 4100M / PSoC 4200M /
 737:Generated_Source\PSoC4/UART_UART.c ****         *  PSoC 4200L / PSoC 4000S / PSoC 4100S / PSoC Analog Coprocessor devices.
 738:Generated_Source\PSoC4/UART_UART.c ****         *
 739:Generated_Source\PSoC4/UART_UART.c ****         *******************************************************************************/
 740:Generated_Source\PSoC4/UART_UART.c ****         void UART_UartDisableCts(void)
 741:Generated_Source\PSoC4/UART_UART.c ****         {
 742:Generated_Source\PSoC4/UART_UART.c ****             UART_UART_FLOW_CTRL_REG &= (uint32) ~UART_UART_FLOW_CTRL_CTS_ENABLE;
 743:Generated_Source\PSoC4/UART_UART.c ****         }
 744:Generated_Source\PSoC4/UART_UART.c **** 
 745:Generated_Source\PSoC4/UART_UART.c **** 
 746:Generated_Source\PSoC4/UART_UART.c ****         /*******************************************************************************
 747:Generated_Source\PSoC4/UART_UART.c ****         * Function Name: UART_UartSetCtsPolarity
 748:Generated_Source\PSoC4/UART_UART.c ****         ****************************************************************************//**
 749:Generated_Source\PSoC4/UART_UART.c ****         *
 750:Generated_Source\PSoC4/UART_UART.c ****         *  Sets active polarity of CTS input signal.
 751:Generated_Source\PSoC4/UART_UART.c ****         *  Only available for PSoC 4100 BLE / PSoC 4200 BLE / PSoC 4100M / PSoC 4200M /
 752:Generated_Source\PSoC4/UART_UART.c ****         *  PSoC 4200L / PSoC 4000S / PSoC 4100S / PSoC Analog Coprocessor devices.
 753:Generated_Source\PSoC4/UART_UART.c ****         *
 754:Generated_Source\PSoC4/UART_UART.c ****         * \param
 755:Generated_Source\PSoC4/UART_UART.c ****         * polarity: Active polarity of CTS output signal.
 756:Generated_Source\PSoC4/UART_UART.c ****         *   - UART_UART_CTS_ACTIVE_LOW  - CTS signal is active low.
 757:Generated_Source\PSoC4/UART_UART.c ****         *   - UART_UART_CTS_ACTIVE_HIGH - CTS signal is active high.
 758:Generated_Source\PSoC4/UART_UART.c ****         *
 759:Generated_Source\PSoC4/UART_UART.c ****         *******************************************************************************/
 760:Generated_Source\PSoC4/UART_UART.c ****         void UART_UartSetCtsPolarity(uint32 polarity)
 761:Generated_Source\PSoC4/UART_UART.c ****         {
 762:Generated_Source\PSoC4/UART_UART.c ****             if (0u != polarity)
 763:Generated_Source\PSoC4/UART_UART.c ****             {
 764:Generated_Source\PSoC4/UART_UART.c ****                 UART_UART_FLOW_CTRL_REG |= (uint32)  UART_UART_FLOW_CTRL_CTS_POLARITY;
 765:Generated_Source\PSoC4/UART_UART.c ****             }
 766:Generated_Source\PSoC4/UART_UART.c ****             else
 767:Generated_Source\PSoC4/UART_UART.c ****             {
 768:Generated_Source\PSoC4/UART_UART.c ****                 UART_UART_FLOW_CTRL_REG &= (uint32) ~UART_UART_FLOW_CTRL_CTS_POLARITY;
 769:Generated_Source\PSoC4/UART_UART.c ****             }
 770:Generated_Source\PSoC4/UART_UART.c ****         }
 771:Generated_Source\PSoC4/UART_UART.c ****     #endif /* !(UART_CY_SCBIP_V0 || UART_CY_SCBIP_V1) */
 772:Generated_Source\PSoC4/UART_UART.c **** 
 773:Generated_Source\PSoC4/UART_UART.c **** 
 774:Generated_Source\PSoC4/UART_UART.c ****     /*******************************************************************************
 775:Generated_Source\PSoC4/UART_UART.c ****     * Function Name: UART_UartSendBreakBlocking
ARM GAS  C:\Users\jj-ay\AppData\Local\Temp\ccayctYT.s 			page 23


 776:Generated_Source\PSoC4/UART_UART.c ****     ****************************************************************************//**
 777:Generated_Source\PSoC4/UART_UART.c ****     *
 778:Generated_Source\PSoC4/UART_UART.c ****     * Sends a break condition (logic low) of specified width on UART TX line.
 779:Generated_Source\PSoC4/UART_UART.c ****     * Blocks until break is completed. Only call this function when UART TX FIFO
 780:Generated_Source\PSoC4/UART_UART.c ****     * and shifter are empty.
 781:Generated_Source\PSoC4/UART_UART.c ****     *
 782:Generated_Source\PSoC4/UART_UART.c ****     * \param breakWidth
 783:Generated_Source\PSoC4/UART_UART.c ****     * Width of break condition. Valid range is 4 to 16 bits.
 784:Generated_Source\PSoC4/UART_UART.c ****     *
 785:Generated_Source\PSoC4/UART_UART.c ****     * \note
 786:Generated_Source\PSoC4/UART_UART.c ****     * Before sending break all UART TX interrupt sources are disabled. The state
 787:Generated_Source\PSoC4/UART_UART.c ****     * of UART TX interrupt sources is restored before function returns.
 788:Generated_Source\PSoC4/UART_UART.c ****     *
 789:Generated_Source\PSoC4/UART_UART.c ****     * \sideeffect
 790:Generated_Source\PSoC4/UART_UART.c ****     * If this function is called while there is data in the TX FIFO or shifter that
 791:Generated_Source\PSoC4/UART_UART.c ****     * data will be shifted out in packets the size of breakWidth.
 792:Generated_Source\PSoC4/UART_UART.c ****     *
 793:Generated_Source\PSoC4/UART_UART.c ****     *******************************************************************************/
 794:Generated_Source\PSoC4/UART_UART.c ****     void UART_UartSendBreakBlocking(uint32 breakWidth)
 795:Generated_Source\PSoC4/UART_UART.c ****     {
 477              		.loc 1 795 0
 478              		.cfi_startproc
 479              		@ args = 0, pretend = 0, frame = 0
 480              		@ frame_needed = 0, uses_anonymous_args = 0
 481              	.LVL35:
 482 0000 70B5     		push	{r4, r5, r6, lr}
 483              		.cfi_def_cfa_offset 16
 484              		.cfi_offset 4, -16
 485              		.cfi_offset 5, -12
 486              		.cfi_offset 6, -8
 487              		.cfi_offset 14, -4
 488 0002 0300     		movs	r3, r0
 796:Generated_Source\PSoC4/UART_UART.c ****         uint32 txCtrlReg;
 797:Generated_Source\PSoC4/UART_UART.c ****         uint32 txIntrReg;
 798:Generated_Source\PSoC4/UART_UART.c **** 
 799:Generated_Source\PSoC4/UART_UART.c ****         /* Disable all UART TX interrupt source and clear UART TX Done history */
 800:Generated_Source\PSoC4/UART_UART.c ****         txIntrReg = UART_GetTxInterruptMode();
 489              		.loc 1 800 0
 490 0004 0F4A     		ldr	r2, .L33
 491 0006 1568     		ldr	r5, [r2]
 492              	.LVL36:
 801:Generated_Source\PSoC4/UART_UART.c ****         UART_SetTxInterruptMode(0u);
 493              		.loc 1 801 0
 494 0008 0024     		movs	r4, #0
 495 000a 1460     		str	r4, [r2]
 802:Generated_Source\PSoC4/UART_UART.c ****         UART_ClearTxInterruptSource(UART_INTR_TX_UART_DONE);
 496              		.loc 1 802 0
 497 000c 8021     		movs	r1, #128
 498 000e 8900     		lsls	r1, r1, #2
 499 0010 0D4A     		ldr	r2, .L33+4
 500 0012 1160     		str	r1, [r2]
 803:Generated_Source\PSoC4/UART_UART.c **** 
 804:Generated_Source\PSoC4/UART_UART.c ****         /* Store TX CTRL configuration */
 805:Generated_Source\PSoC4/UART_UART.c ****         txCtrlReg = UART_TX_CTRL_REG;
 501              		.loc 1 805 0
 502 0014 0D4A     		ldr	r2, .L33+8
 503 0016 1668     		ldr	r6, [r2]
ARM GAS  C:\Users\jj-ay\AppData\Local\Temp\ccayctYT.s 			page 24


 504              	.LVL37:
 806:Generated_Source\PSoC4/UART_UART.c **** 
 807:Generated_Source\PSoC4/UART_UART.c ****         /* Set break width */
 808:Generated_Source\PSoC4/UART_UART.c ****         UART_TX_CTRL_REG = (UART_TX_CTRL_REG & (uint32) ~UART_TX_CTRL_DATA_WIDTH_MASK) |
 505              		.loc 1 808 0
 506 0018 1168     		ldr	r1, [r2]
 507 001a 0F20     		movs	r0, #15
 508              	.LVL38:
 509 001c 8143     		bics	r1, r0
 809:Generated_Source\PSoC4/UART_UART.c ****                                         UART_GET_TX_CTRL_DATA_WIDTH(breakWidth);
 510              		.loc 1 809 0
 511 001e 013B     		subs	r3, r3, #1
 512              	.LVL39:
 513 0020 1840     		ands	r0, r3
 808:Generated_Source\PSoC4/UART_UART.c ****                                         UART_GET_TX_CTRL_DATA_WIDTH(breakWidth);
 514              		.loc 1 808 0
 515 0022 0843     		orrs	r0, r1
 516 0024 1060     		str	r0, [r2]
 810:Generated_Source\PSoC4/UART_UART.c **** 
 811:Generated_Source\PSoC4/UART_UART.c ****         /* Generate break */
 812:Generated_Source\PSoC4/UART_UART.c ****         UART_TX_FIFO_WR_REG = 0u;
 517              		.loc 1 812 0
 518 0026 0A4B     		ldr	r3, .L33+12
 519              	.LVL40:
 520 0028 1C60     		str	r4, [r3]
 521              	.L32:
 813:Generated_Source\PSoC4/UART_UART.c **** 
 814:Generated_Source\PSoC4/UART_UART.c ****         /* Wait for break completion */
 815:Generated_Source\PSoC4/UART_UART.c ****         while (0u == (UART_GetTxInterruptSource() & UART_INTR_TX_UART_DONE))
 522              		.loc 1 815 0 discriminator 1
 523 002a 074B     		ldr	r3, .L33+4
 524 002c 1B68     		ldr	r3, [r3]
 525 002e 9B05     		lsls	r3, r3, #22
 526 0030 FBD5     		bpl	.L32
 816:Generated_Source\PSoC4/UART_UART.c ****         {
 817:Generated_Source\PSoC4/UART_UART.c ****         }
 818:Generated_Source\PSoC4/UART_UART.c **** 
 819:Generated_Source\PSoC4/UART_UART.c ****         /* Clear all UART TX interrupt sources to  */
 820:Generated_Source\PSoC4/UART_UART.c ****         UART_ClearTxInterruptSource(UART_INTR_TX_ALL);
 527              		.loc 1 820 0
 528 0032 084A     		ldr	r2, .L33+16
 529 0034 044B     		ldr	r3, .L33+4
 530 0036 1A60     		str	r2, [r3]
 821:Generated_Source\PSoC4/UART_UART.c **** 
 822:Generated_Source\PSoC4/UART_UART.c ****         /* Restore TX interrupt sources and data width */
 823:Generated_Source\PSoC4/UART_UART.c ****         UART_TX_CTRL_REG = txCtrlReg;
 531              		.loc 1 823 0
 532 0038 044B     		ldr	r3, .L33+8
 533 003a 1E60     		str	r6, [r3]
 824:Generated_Source\PSoC4/UART_UART.c ****         UART_SetTxInterruptMode(txIntrReg);
 534              		.loc 1 824 0
 535 003c 014B     		ldr	r3, .L33
 536 003e 1D60     		str	r5, [r3]
 825:Generated_Source\PSoC4/UART_UART.c ****     }
 537              		.loc 1 825 0
 538              		@ sp needed
 539              	.LVL41:
ARM GAS  C:\Users\jj-ay\AppData\Local\Temp\ccayctYT.s 			page 25


 540              	.LVL42:
 541 0040 70BD     		pop	{r4, r5, r6, pc}
 542              	.L34:
 543 0042 C046     		.align	2
 544              	.L33:
 545 0044 880F0640 		.word	1074139016
 546 0048 800F0640 		.word	1074139008
 547 004c 00020640 		.word	1074135552
 548 0050 40020640 		.word	1074135616
 549 0054 F3070000 		.word	2035
 550              		.cfi_endproc
 551              	.LFE9:
 552              		.size	UART_UartSendBreakBlocking, .-UART_UartSendBreakBlocking
 553              		.text
 554              	.Letext0:
 555              		.file 2 "Generated_Source\\PSoC4/cytypes.h"
 556              		.file 3 "Generated_Source\\PSoC4\\UART_SPI_UART.h"
 557              		.file 4 "Generated_Source\\PSoC4\\UART_PVT.h"
